:020000040800F2
:100000007835002045010008D72C00083D2A00085B
:10001000D52C0008CD020008A54C00080000000007
:10002000000000000000000000000000F1310008A6
:100030004D030008000000007F300008F331000885
:100040005F0100085F0100085F0100085F01000810
:100050005F0100085F0100085F0100085F01000800
:100060005F0100084F0300085F0100085F010008FE
:100070005F0100085F0100085F0100085F010008E0
:100080005F0100085F0100085F0100085F010008D0
:100090008D4B00085F0100085F0100085F01000848
:1000A0005F0100085F0100085F0100085F010008B0
:1000B0005F0100085F0100085F0100085F010008A0
:1000C0005F0100085F0100085F0100085F01000890
:1000D0005F010008C93400085F0100085F010008E3
:1000E0005F0100085F0100085F0100085F01000870
:1000F0005F0100085F0100085F0100085F01000860
:100100005F0100085F0100085F0100085F0100084F
:100110005F0100085F0100085F0100085F0100083F
:100120005F0100085F0100085F0100085F0100082F
:10013000DFF80CD000F07EF8004800477166000838
:10014000783500200648804706480047FEE7FEE76E
:10015000FEE7FEE7FEE7FEE7FEE7FEE7FEE7FEE777
:100160007932000831010008202A04DB203A21FA04
:1001700002F00021704721FA02F3D040C2F12002C0
:10018000914008431946704740EA01039B0703D09A
:1001900009E008C9121F08C0042AFAD203E011F8C6
:1001A000013B00F8013B521EF9D27047D2B201E088
:1001B00000F8012B491EFBD270470022F6E710B56C
:1001C00013460A4604461946FFF7F0FF204610BDC5
:1001D0002DE9F05F0546002092469B46884606467C
:1001E000814640241BE02846414647462246FFF709
:1001F000BBFF53465A46C01A914110D311461846C8
:10020000224600F029F82D1A67EB01084F462246D6
:100210000120002100F020F817EB00094E41201EBC
:10022000A4F10104DFDC484631462A464346BDE8D6
:10023000F09F0000064C074D06E0E06840F0010327
:1002400094E8070098471034AC42F6D3FFF774FFE8
:10025000986A0008B86A0008202A04DB203A00FAED
:1002600002F1002070479140C2F1200320FA03F30D
:1002700019439040704770B58C1810F8015B15F069
:10028000070301D110F8013B2A1106D110F8012B08
:1002900003E010F8016B01F8016B5B1EF9D12B072D
:1002A00005D40023521E0DD401F8013BFAE710F8E3
:1002B000013BCB1A921C03E013F8015B01F8015BD0
:1002C000521EF9D5A142D8D3002070BDFEE7002010
:1002D000704700207047000010B50022044905480F
:1002E00003F018FA0449034803F00EFA002010BD89
:1002F000581C0020941300205818002010B5044604
:10030000088881B2204600F00BF82146034803F02C
:10031000FBF9024803F0DCF9002010BD9413002023
:10032000094A10B5D2F8B822D2F814220AB1012035
:1003300010BD0A460146044803F0ECF9BDE8104040
:10034000014803F045BA00009413002070470820CC
:1003500000F0D4BB72B6FEE700B5C1B080223B49C5
:100360006846FFF711FF802120A8FFF726FF38A07D
:1003700004F09AFC012246A1464805F07DFC0D28B8
:1003800001D045A009E04CA004F08EFC00221146EB
:100390003FA005F0D5F918B14EA004F085FC14E09B
:1003A00050A004F081FC012239A1002005F064FC7A
:1003B000014652A004F078FC012235A1354805F031
:1003C0005BFC014653A004F06FFC57A004F06CFCEA
:1003D0000A2265A1664805F081FC00281CD065A0B2
:1003E00004F062FC40AB80226946614805F01EFEC5
:1003F000010013D067A000BF04F056FC5C4805F074
:100400008BF96DA004F050FC012257A1584805F06B
:1004100065FC30B177A00CE07CA0E1E7694682A0E2
:10042000EAE740AB802220A9514805F025FD20B124
:1004300083A004F039FC41B000BD20A985A004F0E0
:1004400033FC4B4805F068F9F5E70000C069000887
:100450000D0A0D0A2D2D2D2D2D2D2D2D2D2D2D2D52
:100460002D2D2D2D2D2D464C4153482046415446CF
:100470005320544553542D2D2D2D2D2D2D2D2D2D07
:100480002D2D2D2D2D2D2D2D0D0A0D0A00000000D6
:10049000303A0000E001002066696C6520737973D2
:1004A00074656D20616C726561646C792065786932
:1004B000737465642E0D0A006E6F2066696C65208A
:1004C00073797374656D2C626567696E206D6B66F8
:1004D000730D0A006661696C6564206D6F756E74DA
:1004E0000D0A000066696C652073797374656D2070
:1004F0006D6B6673206F6B0D0A00000063616E63A5
:10050000656C206D6F756E74206F6B3A25640D0AF3
:100510000000000072652D6D6F756E74206F6B3A70
:1005200025640D0A000000000D0A0D0A2D2D2D2D49
:100530002D2D2D2D2D2D2D2D2D2D2D2D2D2D2D46D2
:100540004154465320777269746520746573742D25
:100550002D2D2D2D2D2D2D2D2D2D2D2D2D2D2D2DCB
:100560002D2D0D0A0000000052592E7478740000E1
:10057000101200206F70656E206F722063726561CB
:1005800074652066696C65206661696C65640D0A36
:10059000000000006661696C656420746F207772EA
:1005A0006974652052592E7478742C636F64653AAF
:1005B000202564210D0A00000D0A2D2D2D2D2D2D35
:1005C0002D2D2D2D2D2D2D2D2D2D2D2D2D46415407
:1005D0004653207265616420746573742D2D2D2D32
:1005E0002D2D2D2D2D2D2D2D2D2D2D2D2D2D2D0D5B
:1005F0000A0D0A006F70656E2052592E74787420AF
:100600006661696C65640D0A000000006F70656EBC
:10061000206F72206372656174652052592E747860
:1006200074206F6B2E0D0A00777269746520746FE9
:100630002052592E7478743A0D0A25730000000078
:10064000726561642066696C65206661696C6564C9
:100650000D0A0000726561642066696C6520646142
:1006600074613A0D0A25730D0A000000002200F0A3
:1006700001B8000030B50E4B054601209C7B022CD2
:1006800015D8987B00241C54987B03EB80004560B0
:100690009D7B03F10C002A54987B421C9A733030E6
:1006A00008703A2048702F208870CC70002030BD30
:1006B000682500202DE9F04706460F4610F0FF00A0
:1006C000C0F10001CDB24FEA122402F0FF094FF44D
:1006D000807A13D0F0B24042C0B206EB000804B3F7
:1006E000501B80B2040A00F0FF092A463946304602
:1006F00000F03EF83D444646574629E06CB1554669
:10070000641EE4B20BD32A463946304600F030F876
:1007100006F5807607F58077F2E7394620E04A460D
:10072000FBE7A945F9D9A9EB0500C4B22A46394629
:10073000304600F01DF840467919224611E03A464D
:100740002946304600F014F805F5807506F58076E8
:10075000641EE4B2F3D2B9F1000006D00246294685
:100760003046BDE8F04700F003B8BDE8F087000070
:10077000F8B514000D4607D04FF48072944203D8A8
:10078000C1B20B19934201D90120F8BD15A212681C
:100790000092020C8DF80120000A8DF802008DF8FD
:1007A000031000F0AFF8104E00220221304600F096
:1007B000B5FA0421684602F0B5FC20B92146284666
:1007C00002F0B0FC28B101220221304600F0A6FA66
:1007D000DAE701220221304600F0A0FA00F07EF8AC
:1007E000F8BD00000200000000080140F8B50D4609
:1007F00014A1154E09680091010C8DF80110010A31
:100800008DF8021014468DF80300002202213046B4
:1008100000F084FA0421684602F084FC30B1012221
:100820000221304600F07AFA0120F8BD2146284620
:1008300002F06EFC044601220221304600F06EFAFE
:100840002046F8BD03000000000801401CB505204B
:100850000B4C8DF8000000220221204600F05EFAC9
:100860000121684602F05EFC012101A802F050FC63
:1008700001220221204600F051FA9DF804001CBD1F
:100880000008014038B513A109680091010C8DF8EA
:100890000110010A8DF802108DF8030000F032F803
:1008A0000D4C00220221204600F038FA042168464F
:1008B00002F038FC00284FF001024FF00201204600
:1008C00003D000F02BFA012038BD00F027FA00F029
:1008D00005F838BD200000000008014070B500F0A8
:1008E00023FA044641F2883507E000BF00F01CFA05
:1008F000001BA84201D9032070BDFFF7A7FFC00766
:10090000F4D170BD38B50620084C8DF800000022E7
:100910000221204600F002FA0121684602F002FCA2
:1009200001220221204600F0F9F938BD00080140FB
:1009300010B590F821100022022905D0042181630E
:1009400080F82020012010BD01680B6823F00E0301
:100950000B6001680B6823F001030B6090F84030D6
:10096000C46B012101FA03F3636080F8211080F861
:100970002020104610BD00002DE9F05F90F82110F6
:100980000024022903D004218163012485E0016849
:100990000A6822F00E020A6001680A6822F0010269
:1009A0000A603F4E3E4FB215DFF8F4C0DFF8F0901A
:1009B000DFF8ECA0DFF8E8B0DFF8E4E00168783FAA
:1009C00013011502ACF1640CA9F15009AAF13C0A1B
:1009D000ABF1280BAEF1140E4FF48018B14227D9B9
:1009E000B9420ED0614512D049451DD0514518D0AD
:1009F000594518D0714501D1424615E0294EB14202
:100A000001D1012210E0274E1436B14201D110224B
:100A10000AE0244E2836B14206D0224A3C329142A6
:100A200001D11A4600E02A461E49091F0A602BE040
:100A3000B94213D0614517D0494522D051451DD048
:100A400059451DD0714501D142461AE0B14202D14B
:100A50004FF0807215E0134EB14201D1012210E037
:100A6000104E1436B14201D110220AE00D4E283644
:100A7000B14206D00B4A3C32914201D11A4600E005
:100A80002A46074980394A60012180F82110002157
:100A900080F82010416B01B188472046BDE8F09FE7
:100AA000800002400804024070B5044600F03CF9A2
:100AB0000546601C02D004480078044400F034F974
:100AC000401BA042FAD370BDAC00002010B510212D
:100AD000034800F01BF9BDE8104002A004F0E4B8A0
:100AE000000C01404B32204578546920696E7465D2
:100AF0007272707574210D0A00000000044910B56F
:100B00000A68024202D00860FFF7E0FF10BD000053
:100B1000140401402DE9F84FDFF8C8910024A9F131
:100B2000040B23460F2709F1040AABF1040ED1E0B0
:100B30000125A54006EA0502AA4276D1DFF8A8C140
:100B40004E68A6EB0C0866452BD00DDC032E34D086
:100B500005DC36B3012E19D0022E2FD11BE0112E49
:100B600016D0122E2AD119E0B8F5881F19D006DC4C
:100B7000B8F5803F15D0B8F5801F1FD111E0B8F54A
:100B8000001F0ED0B8F5041F18D10AE0CB6815E09D
:100B9000CB681B1D12E0CB6808330FE0CB680C3329
:100BA0000CE08B682BB1012B4FF0080303D045619B
:100BB00004E0042302E0056100E00023FF2A01D8DD
:100BC000064601E000F104064FEA840501D9A5F1CB
:100BD0002005D6F8008007FA05FC28EA0C0803FA7D
:100BE00005F548EA0508C6F800804D68ED0070D5A7
:100BF0003E4DAE6946F00106AE61AD6924F00306D4
:100C000005F0010500953A4D06EB050CDCF808509F
:100C1000A607360F07FA06F825EA0805DFF8D4809C
:100C2000404503D14FF0000825E052E0DFF8C880CE
:100C3000404502D14FF001081DE0DFF8C08040457B
:100C400002D14FF0020816E0DFF8B480404502D12F
:100C50004FF003080FE0DFF8AC80404502D14FF0C1
:100C6000040808E0DFF8A080404502D14FF00508F5
:100C700001E04FF0060808FA06F848EA0508CCF843
:100C800008804D68D9F80060ED024D4601D5164345
:100C900000E096432E604D68DAF80060AD025546DC
:100CA00001D5164300E096432E604D68DBF80060E6
:100CB000AD035D4601D5164300E096432E604D68B6
:100CC000DEF80060ED03754601D5164300E096435B
:100CD0002E60641C0A681646E2407FF429AFBDE826
:100CE000F88F0000080401400000111000100240BD
:100CF0000000014000080140000C014000100140CC
:100D00000014014000180140001C0140C26821EAA3
:100D100002030A4043EA0241016170470AB10161DE
:100D200070470904FBE70000014880687047000035
:100D3000AC00002070B5040025D094F83D000025DB
:100D400020B984F83C50204600F0B8F8242084F8FC
:100D50003D002068016821F0010101602068016800
:100D600041F4004101602068016821F40041016004
:100D700000F01AFF4D4A6168914201D84C4900E0E9
:100D80004C49884201D2012070BD4B492368B0FB19
:100D9000F1F15E6826F03F060E435E6063689342A1
:100DA00006D94FF4967359434FF47A73B1FBF3F1BC
:100DB0002368491C1E6A26F03F06314319626168A8
:100DC000914210D84900401EB0FBF1F2521CC2F310
:100DD0000B02042A01D2042022E0B0FBF1F0401CF7
:100DE000C0F30B001CE0A268F2B301EBC10303EBFC
:100DF0000116431EB3FBF6F35B1C43F480431B0553
:100E000049D092B301EBC10202EB0111401EB0FBCD
:100E1000F1F0401CC0F30B0040F4804040F400406F
:100E20002168CA694CF6FF739A431043C861D4E93C
:100E3000071001432068026822F0C00211430160DC
:100E4000D4E9030101432068826848F2FF339A43E2
:100E500011438160D4E9050108432168CA6822F082
:100E6000FF021043C86001E00EE016E02068016850
:100E700041F0010101602564202084F83D002563D4
:100E800084F83E50002070BD01EB4106431EB3FBC9
:100E9000F6F35B1CB3E70120C2E701EB4101401E02
:100EA000B0FBF1F0401CC0F30B00B7E7A0860100D7
:100EB00080841E0000093D0040420F0010B586B03E
:100EC0000021009101910291039100680F4988422D
:100ED0001AD10F4CA06940F00800A061A0696946D2
:100EE00000F008000490C020009012200190032020
:100EF00003900848FFF70EFEE06940F40010E0613F
:100F0000E06900F40010049006B010BD00540040E9
:100F100000100240000C0140024881680278114430
:100F200081607047AC000020074810B5016841F0AF
:100F300010010160032000F075F80F2000F006F8A2
:100F400000F024F8002010BD0020024070B50D4DC7
:100F500004464FF47A712878B1FBF0F00A49096829
:100F6000B1FBF0F001F001FB48B9102C07D20022D0
:100F70002146501E00F036F800206C6070BD012044
:100F800070BD0000AC000020B80000200C4808B57F
:100F9000816941F001018161816901F001010091E4
:100FA000C16941F08051C161C06900F0805000907A
:100FB0000448416821F0E06141F00071416008BDE2
:100FC0000010024000000140002809DB00F01F0271
:100FD000012191404009800000F1E020C0F800119B
:100FE00070470000F0B40E4B1B680C46C3F302239D
:100FF000C3F10705042D00D90425191D072901D2C5
:10100000002300E0DB1E012606FA05F1491E2140FF
:1010100099409E40761E16403143F0BC03F054BE0A
:101020000CED00E0064900F0070208684FF6FF03E8
:10103000184040EA0220034A10430860704700004D
:101040000CED00E00000FA0510B50C0607D501F024
:10105000070101EB810100EBC100103005E001EB5D
:10106000810100EBC10000F5A87099B232B10122F4
:1010700002730181190C4181002010BD002202730E
:10108000C180F9E7704701EB810200EBC202D0F8A2
:10109000D402526A02F04BBD01EB810200EBC202A6
:1010A000D0F8D402D2F8642102F0A4BD70B5044691
:1010B0000B0601F0070000EB800104EBC1014FF0CB
:1010C00001024FF0000502D54A74103103E081F8A7
:1010D000515101F5A871087094F89002012808D0C8
:1010E00084F89022206803F0E5F984F890520020FB
:1010F00070BD022070BD70B5044601F00F0022796A
:10110000904201D9012070BD0B0601F0070000EBF1
:10111000800104EBC1014FF001024FF0000502D540
:101120004A74103103E081F8515101F5A8718D70B6
:10113000087094F89002012808D084F89022206862
:1011400003F055FA84F89052002070BD022070BD63
:101150002DE9F05F04685FEA424C0B788D69B4F8C2
:1011600050C04FF000064BF68F7948F2800A48F6DF
:101170008F7B48F2C00E4FF480672AD54FF00208EB
:1011800008EBC308C44407EB4C07E45BC4F3090451
:10119000A54203D32D1B8D6101D00BE08E61066843
:1011A00036F8235005EA090585F4005545EA0A0595
:1011B00026F82350520609D50D78036833F8252008
:1011C00002EA0B0242EA0E0223F8252084B30A89C0
:1011D00029E04FF0060808EBC308C44407EB4C07AE
:1011E000E45BC4F30904A54203D32D1B8D6101D038
:1011F0000BE08E61066836F8235005EA090585F490
:10120000005545EA0A0526F82350520609D40B7802
:10121000056835F8232002EA0B0242EA0E0225F89F
:1012200023202CB14A8949690068234603F0B8FCA1
:101230002046BDE8F09F2DE9F05F054600680C46AA
:101240005FEA426C16468B692278B0F850C048F6C7
:101250008F774CF280094FF4004B4FF6FF7E4FF42E
:10126000806A4FF0000172D54FF0020808EBC20807
:10127000E0440AEB480C30F80C00C0F3090083424C
:1012800011D91B1AA3610FD0730407D52E6836F845
:1012900022303B4043EA090326F8223094F8242008
:1012A000012A47D052E1A161607810B1012813D022
:1012B0001AE02868B0F85030184400EB0210B0F87B
:1012C0000424C2F30902A0F80424B0F8042442F470
:1012D0000042A0F8042407E02868B0F85030184411
:1012E00000EB0210A0F804146278286812B1012AF9
:1012F00011D018E0B0F850100844217800EB01102C
:10130000B0F80C14C1F30901A0F80C14B0F80C14D7
:1013100041F4004105E0B0F850201044227800EB81
:101320000210A0F80C1421782846FFF7ACFE7004D8
:1013300072D40BE1626902446261E2690244E261D3
:101340002369226A9A4203D31846111A04E03EE048
:1013500084F824100AB110462162617811B1012984
:1013600029D031E02968B1F850201144227801EBEE
:101370000211B1F80424C2F30902A1F8042401F215
:1013800004413E2807D94209C30600D1521E0B88EA
:101390004BEA822207E048B14208C30700D0521C42
:1013A0000B880EEA822213430B800DE00A8842F478
:1013B00000420A8008E02968B1F8502011442278E0
:1013C00001EB0211A1F8040483B22289BAE04FF0C4
:1013D000060808EBC208E0440AEB480C30F80C00A1
:1013E000C0F30900834211D31B1AA3610FD0730409
:1013F00007D42E6836F822303B4043EA090326F82A
:10140000223094F82420012A51D09FE0A161607815
:1014100018B1012814D01BE03FE02868B0F8503024
:10142000184400EB0210B0F80424C2F30902A0F83B
:101430000424B0F8042442F40042A0F8042407E095
:101440002868B0F85030184400EB0210A0F80414DB
:101450006278286812B1012A11D018E0B0F8501053
:101460000844217800EB0110B0F80C14C1F3090115
:10147000A0F80C14B0F80C1441F4004105E0B0F8E9
:1014800050201044227800EB0210A0F80C142178B0
:101490002846FFF7F8FD700458D42278296831F8FF
:1014A0002200384040EA090021F822004EE062693B
:1014B00002446261E2690244E2612369226A9A425B
:1014C00003D31846111A216204E00AB110462162C2
:1014D00084F824106278296812B1012A28D02FE0FC
:1014E000B1F850201144227801EB0211B1F80C241C
:1014F000C2F30902A1F80C2401F20C413E2807D9DD
:101500004209C30600D1521E0B884BEA822207E033
:1015100048B14208C30700D0521C0B880EEA822251
:1015200013430B800CE00A8842F400420A8007E073
:10153000B1F850201144227801EB0211A1F80C04FB
:10154000628983B26169286803F048FB22782968C0
:1015500031F8220048F6BF73184080F0300048F29E
:101560008003184321F822000020BDE8F09F01F01D
:10157000070101EB810100EBC100D0F86C0170475D
:101580002DE9F04104460F0601F0070000EB800151
:1015900004EBC1014FF001064FF0000502D54E7477
:1015A000103103E081F8515101F5A871022B087048
:1015B0000A61CB7000D10D7194F89002012809D016
:1015C00084F89062206802F025FE284684F8905244
:1015D000BDE8F0810220FBE710B501F0070404EB41
:1015E000840100EBC101C1E959230022C1F86C213B
:1015F00081F8512181F85041006801F5A87103F08C
:101600004BF8002010BD70B504460D4601F00700F0
:101610002179884201D9012070BD29064FF00006CA
:101620004FF0010206D500EB800104EBC1014A74C2
:10163000103107E005EB850104EBC10181F8516130
:1016400001F5A8718A70087094F89002012807D0FB
:1016500084F89022206803F006F8680702D006E0BC
:10166000022070BD04F52671206802F0BEFF84F8E8
:101670009062002070BD10B501F0070404EB8401F6
:1016800000EBC101C1E90923012281F834200B6379
:101690000023CB624A7401F8104F006802F0FCFF8F
:1016A000002010BD1FB50446006803F075FA010460
:1016B00003D5204601F010FB1FBD41050DD5206864
:1016C00030F8441F21F480610180204600F000F9C9
:1016D0000021204600F017F91FBD410405D5206800
:1016E00030F8441F21F4804174E0810405D520685E
:1016F00030F8441F21F400516CE0C10414D5206877
:1017000030F8401F21F004010180206830F8401FAC
:1017100021F008010180204600F0EDF8206830F843
:10172000441F21F4805155E0010540D5D4F8002034
:101730000020694632F8203021F81030401CC0B239
:101740000828F7D332F8400F40F0010010802068DD
:1017500030F8402F22F0010202802068B0F84420C7
:101760005205FBD530F8442F22F48062028000201D
:10177000236831F8102023F82020401CC0B208282C
:10178000F6D3206830F8401F41F00801018020683E
:1017900030F8441F21F400610180206830F8401FB8
:1017A00041F004010180204600F0E0F81FBD8105F2
:1017B00009D5206830F8441F21F4007101802046CB
:1017C00000F09DF81FBDC005FCD5206830F8441F0F
:1017D00021F4807101801FBD2DE9F041040004D087
:1017E00094F89102002518B107E00120BDE8F081CE
:1017F00084F89052204600F04DF8032084F89102BE
:101800006571206802F0EAFE94E80F0002F050FED5
:10181000022698BB0021206803F0D8F970BB002095
:1018200001270BE000EB800104EBC1014F74087449
:10183000CD740D624D62401CC0B28D62217981422F
:10184000F0D8002012E000BF00EB800104EBC101E2
:1018500081F8515181F8500181F85351C1F860511C
:10186000C1F86451401CC0B2C1F86851217981426D
:10187000EAD894E80F0002F0A8FE10B184F8916253
:10188000B3E7657384F89172206802F09CFE002033
:10189000ACE7000008B500680B49884212D10B483C
:1018A000C16941F40001C161C069002200F4000077
:1018B000009011461420FFF795FBBDE80840142066
:1018C000FFF782BB08BD0000005C00400010024032
:1018D00070B5044680790125022801D0FEF73AFD53
:1018E0002946D4F8D40202F06DFAD4F8D402BDE847
:1018F000704002F029BAD0F8D40202F04DBAD0F804
:10190000D40202F053BA10B5044690F890020128B0
:101910000AD0012084F890026173206803F058F91E
:10192000002084F8900210BD022010BDD0F8D4220F
:1019300000F52671104602F051BA10B5044690F831
:101940009002012810D0012084F89002206803F052
:1019500014F901212046FFF795FB206802F031FEC3
:10196000002084F8900210BD022010BD10B504467E
:10197000D0F8D40202F071FAA07A002804D003480B
:10198000016841F00601016010BD000010ED00E0AB
:101990002DE9F84305460078354CC00754D0E0697E
:1019A0000026C00008D4E06940F08050E061E069A2
:1019B000012600F0805000902E480168C90512D41D
:1019C0000168804641F480710160FFF7ADF9074678
:1019D00005E000BFFFF7A8F9C01B642823D8D8F89A
:1019E0000000C005F6D5206A10F4407021D0A98807
:1019F00001F4407181421CD0206A1F49012220F469
:101A000040700A6000220A602062C00711D0FFF710
:101A10008BF9074641F2883808E000BFFFF784F9E8
:101A2000C11B414502D90320BDE8F883206A800725
:101A3000F4D5206A696820F44070084320621EB122
:101A4000E06920F08050E0612878800705D5606863
:101A5000A96820F44040084360602878C00605D596
:101A60006068696920F48000084360600020DBE75B
:101A70000010024000700040400442422DE9F0474F
:101A80000F46050061D0434E306800F00700B842B1
:101A900009D2306820F0070038433060306800F029
:101AA0000700B84251D128683B4C810712D5400746
:101AB00003D5606840F4E06060602878000703D5D3
:101AC000606840F4605060606068A96820F0F000D1
:101AD000084360602878C00728D06868012810D0C3
:101AE0002168022810D0890700292EDA616821F0C8
:101AF000030101436160FFF717F9804641F288391D
:101B00000DE021688903EFE78901EDE7FFF70CF9A4
:101B1000A0EB0801494502D90320BDE8F0876068C1
:101B2000696800F00C00B0EB810FEFD1306800F075
:101B30000700B8420BD9306820F007003843306006
:101B4000306800F00700B84201D00120E5E72878AE
:101B5000400705D56068E96820F4E06008436060EC
:101B60002878000706D56068296920F4605040EAAB
:101B7000C100606000F038F86168084AC1F30311E1
:101B8000515CC8400649086006480068FFF7DEF966
:101B90000020C2E70020024000100240526A000804
:101BA000B8000020B00000200448054900684968DA
:101BB000044AC1F30221515CC8407047B8000020BC
:101BC00000100240626A000804480549006849683C
:101BD000044AC1F3C221515CC8407047B8000020DC
:101BE00000100240626A00080E4A51680E4801F077
:101BF0000C03042B11D0082B0FD10C48C1F38343E5
:101C0000C903C05C0AD55168084AC1F34041921E1D
:101C1000515C054A5043B0FBF1F07047044948431A
:101C2000704700000010024000127A00426A00086B
:101C300000093D0030B585B00020029002200190DF
:101C4000032003900B4C4FF480700090A0690D4668
:101C500040F00400A061A069694600F0040004900F
:101C60000548FEF757FF606820F0E0602843606099
:101C700005B030BD00100240000801402DE9F84FCA
:101C8000040070D02078C04DC00749D06868C0F308
:101C90008100012807D06868C0F38100022809D1BB
:101CA0006868C00306D52868800339D560680028B5
:101CB000E7D035E06068B0F5803F0BD010B1B0F5EB
:101CC000A02F11D0286820F480302860286820F4E4
:101CD000802002E0286840F480302860606890B17D
:101CE000FFF722F806460AE0286840F480202860C2
:101CF000F0E700BFFFF718F8801B642873D8286846
:101D00008003F7D50CE0FFF70FF8064605E000BFAB
:101D1000FFF70AF8801B6428F0D828688003F7D4FE
:101D200020789A4E80074FF001094FF0000839D50E
:101D3000686810F00C0F07D06868C0F381000228B3
:101D400009D16868C00306D42868800714D52069C3
:101D5000012808D110E02069B0B1C6F80090FEF764
:101D6000E3FF074605E00AE1FEF7DEFFC01B02289D
:101D7000C4D828688007F7D52868616920F0F80082
:101D800040EAC10028600DE0C6F80080FEF7CCFFF5
:101D9000074604E0FEF7C8FFC01B022823D82868C6
:101DA0008007F7D4207800072CD57948A169D9B1EC
:101DB000C0F80090FEF7B8FF074604E0FEF7B4FF56
:101DC000C01B02280FD8686A8007F7D571484FF406
:101DD000FA510068B0FBF1F0009000BF0098411E7E
:101DE0000091FAD20EE080E0C0F80080FEF79CFF80
:101DF000074604E0FEF798FFC01B022875D8686A02
:101E00008007F7D42078400760D5E8690027C00034
:101E100008D4E86940F08050E861E869012700F0E3
:101E2000805000905C480168C90513D4016883465E
:101E300041F480710160FEF777FF824606E000BF43
:101E4000FEF772FFA0EB0A0064284ED8DBF8000012
:101E5000C005F5D5E06801280AD008B1052813D0DF
:101E6000286A20F001002862286A20F0040002E0BD
:101E7000286A40F001002862E06841F2883B98B18E
:101E8000FEF752FF82460BE0286A40F00400286209
:101E9000EEE700BFFEF748FFA0EB0A0159455AD80C
:101EA000286A8007F6D50CE0FEF73EFF824605E083
:101EB000FEF73AFFA0EB0A0159454CD8286A800783
:101EC000F6D41FB1E86920F08050E861E06988B37A
:101ED0006968C1F38101022944D00228C6F86080F4
:101EE00004D0FEF721FF044638E034E0FEF71CFF83
:101EF000074604E0FEF718FFC01B02282BD828680D
:101F00008001F7D4206AB0F5803F05D16868A168E8
:101F100020F4003008436860D4E908010843696888
:101F200021F4741108436860C6F86090FEF7FCFE67
:101F3000044606E025E000BFFEF7F6FE001B02287F
:101F400009D828688001F7D51BE000BFFEF7ECFE3A
:101F5000001B022802D90320BDE8F88F2868800101
:101F6000F4D40EE00128F7D06868226A00F48031CA
:101F7000914204D1616A00F47010884201D00120BE
:101F8000EAE70020E8E700000010024000004242BB
:101F900080044242B80000200070004070B5040088
:101FA00009D0606A002540B125616561A56294F899
:101FB000510040B10CE0012070BD6068B0F5827F37
:101FC000F4D0E561F2E784F85050204600F040F884
:101FD000022084F851002068016821F0400101606E
:101FE000A088218900F4827001F404410843A1898A
:101FF00001F400610843217C01F002010843217DC6
:1020000001F001010843218B01F400710843217F95
:1020100001F03801084394F8201001F080010843D2
:10202000218D01F40051084321680860A069042152
:1020300001EA1040216848602068C16921F400610C
:10204000C1616565012084F85100002070BD000069
:1020500030B585B000240094019402940394006884
:102060001449884223D11448816941F48051816127
:10207000816901F480510491816941F00401816119
:1020800080690E4D00F004000490A0200090022012
:1020900001900320039069462846FEF73BFD40204F
:1020A000CDE90004694628460294FEF733FD05B0E9
:1020B00030BD000000300140001002400008014027
:1020C0002DE9F84F044690F851001D4616460F467C
:1020D000012838D160684FF00408B0F5827F01D143
:1020E000A06830B3FEF720FE8246002F75D0002E88
:1020F00073D094F85000012825D04FF0010984F8DE
:10210000509084F851804FF00008C4F85480A763C1
:10211000A687E687C4F83080A4F83480A4F8368017
:10212000C4F84080C4F84480A068B0F5004F0CD0DB
:1021300015E084F85180009313460A46204600F0CB
:102140001CF9BDE8F88F0220FBE72068016821F048
:10215000400101602068016821F48041016020682D
:102160000168490603D4016841F040010160E0685C
:10217000C0B134E020688168C90709D0007BA16B39
:102180000870A06B401CA063E08F401EE08709E050
:10219000FEF7CAFDA0EB0A00A84202D3681C01D0DA
:1021A00032E085B3E08F0028E4D11BE0206881682D
:1021B000C90709D0C068A16B0880A06B801CA06310
:1021C000E08F401EE0870AE0FEF7AEFDA0EB0A00BC
:1021D000A84203D3681C02D016E012E09DB1E08F44
:1021E0000028E3D152462946204600F049FF08B1B5
:1021F0002020606584F8519084F85080606D00283C
:102200009FD001209DE7FFE784F8519084F850802B
:10221000032096E72DE9F84F984616468A4604466D
:10222000FEF782FD814694F8510001281ED1BAF1D3
:10223000000F73D0002E71D094F85000012815D0F3
:10224000012784F85070032084F85100002565654B
:10225000C4F830A0A686E686A563A587E5876564F1
:102260002564A068B0F5004F03D00CE00220BDE863
:10227000F88F2068016821F0400101602068016842
:1022800041F48041016020680168490603D4016877
:1022900041F040010160E068B0F5006F606803D074
:1022A00048B3012E27D047E008B1012E1FD1206B83
:1022B00021680088C86006E020688168890709D520
:1022C000216B0988C160206B801C2063E08E401E5A
:1022D000E0860CE0FEF728FDA0EB0901414503D3A1
:1022E000B8F1FF3F03D035E0B8F1000F32D0E08EF7
:1022F0000028E1D123E0206B21680078087306E014
:102300002068816889070AD5216B09780173206BE1
:10231000401C2063E08E401EE0860DE02BE0FEF7BF
:1023200003FDA0EB0901414503D3B8F1FF3F03D002
:1023300010E0B8F1000F0DD0E08E0028E0D14A4641
:102340004146204600F0CAFE08B120206065A06822
:1023500030B109E084F8517084F85050032086E7CA
:102360002068C1688068009084F8517004F8505F5C
:1023700060680028F3D0012079E72DE9FF4F81B094
:102380001D46934604464FF001090E9EFEF7CCFC15
:10239000074694F851006168012806D0B1F5827FA4
:1023A0003CD1A168C9BB042838D10298002871D05B
:1023B000BBF1000FFBD0002DF9D094F8500001289C
:1023C0002CD04FF0010A84F850A094F85100042852
:1023D00002D0052084F851004FF00008C4F8548062
:1023E000C4F838B0E587A58702992163E586A586FC
:1023F000C4F84080C4F8448020680168490603D4CA
:10240000016841F040010160E068B0F5006F60686C
:1024100008D0F0B3012D49D081E0FFE7022005B0DC
:10242000BDE8F08F08B1012D39D1206B21680088FB
:10243000C860206B801C2063E08E401EE0862EE08A
:102440002068816889070FD5E18E69B1B9F1010F64
:102450000AD1216B0988C160206B801C2063E08E4B
:10246000401EE0864FF0000920688168C9070CD043
:10247000E18F51B1C068A16B0880A06B801CA06384
:10248000E08F401EE0874FF00109FEF74DFCC01BB6
:1024900001E00BE067E0B04201D3701C50D1E08E48
:1024A0000028CDD1E08F0028CAD13EE0206B216802
:1024B00000780873206B401C2063E08E401EE0868D
:1024C0002DE02068816889070FD5E18E69B1B9F1E7
:1024D000010F0AD1216B09780173206B401C206326
:1024E000E08E401EE0864FF0000920688168C90731
:1024F0000CD0E18F51B1C068A16B0870A06B401C7B
:10250000A063E08F401EE0874FF00109FEF70CFC4E
:10251000C01BB04202D3701C01D011E086B1E08E26
:102520000028CED1E08F0028CBD13A463146204654
:1025300000F0D4FD50B12020606584F8508012E096
:1025400084F851A084F85080032068E7A06818B987
:102550002068C1688068009084F851A084F8508099
:10256000606D0028F1D0012059E710B5401EB0F190
:10257000807F01D3012010BD4FF0E02460610F2166
:10258000601702F0A1FB0020A0610720206100205D
:1025900010BD704770470000F8B501680446086830
:1025A000CA684B6910F00F0F4FF0000559D003F0C7
:1025B000010602F49077374365D0C10705D0D105F5
:1025C00003D5616C41F001016164410705D5D9076C
:1025D00003D0616C41F002016164810705D5D90720
:1025E00003D0616C41F004016164010707D502F07A
:1025F0002001314303D0616C41F008016164616CDA
:1026000000293AD0800604D5900602D5204600F075
:1026100063FE20684069616CC0F38010090700D434
:1026200060B3204600F031FE20684069400621D5A5
:102630002068143050E8001F21F0400140E80012EB
:10264000002AF5D1E06BA8B16D494163E06BFEF75C
:1026500093F9002811D0E06B416B01B0BDE8F04068
:10266000084783060FD593060DD52046BDE8F840F0
:1026700000F032BE2046FFF78DFFF8BD2046FFF781
:1026800089FF6564F8BD266B2023012E7CD1C60628
:102690007AD5D60678D508684868009048694FF022
:1026A0000206400640D5E16B086840680004000C53
:1026B000E8D0A28D8242E5D9E085886920282DD016
:1026C00020680C3050E8001F21F4807140E80012AF
:1026D000002AF5D12068143050E8001F21F00101D4
:1026E00040E80012002AF5D12068143050E8001F9D
:1026F00021F0400140E80012002AF5D184F8423070
:10270000256320680C3050E8001F21F0100140E8DC
:102710000012002AF5D1E06BFEF70AF96663A08D7E
:10272000E18D401A81B22AE0A08DE18D401A81B27C
:10273000E08D0028A6D00029A4D022680C3252E8EF
:10274000000F20F4907042E80007002FF5D12068B8
:10275000143050E8002F22F0010240E80027002F3B
:10276000F5D184F84230256320680C3050E8002F02
:1027700022F0100240E80023002BF5D166632046CA
:10278000FFF707FFF8BDFFE705062BD5150629D58E
:1027900094F841002128F5D1A068B0F5805F01D1FF
:1027A0002069B0B1206A411C21622168007848602C
:1027B000E08C401E0004000CE084E3D12068C16876
:1027C00021F08001C1602068C16841F04001C16012
:1027D000D8E7206A0088C0F308004860206A801C9F
:1027E0002062E5E74006CDD55006CBD5CA68204625
:1027F00022F04002CA6084F8413000F01EF9C1E7BF
:102800007B32000870B5040004D094F84100002524
:1028100010B106E0012070BD84F84050204600F061
:1028200023F8242084F841002068C16821F4005175
:10283000C160204600F0B2FD2068016921F490419A
:1028400001612068416921F02A0141612068C16865
:1028500041F40051C1606564202084F8410084F88F
:1028600042006563002070BD30B585B0002400943F
:102870000194029403940068184988422CD11848A6
:10288000816941F480418161816901F48041049151
:10289000816941F0040181618069124D00F00400FA
:1028A00004904FF4007000900220019003200390E8
:1028B00069462846FEF72EF92815CDE90004694639
:1028C00028460294FEF726F9002211462520FEF73D
:1028D00089FB2520FEF778FB05B030BD00380140AC
:1028E00000100240000801402DE9F84F044690F81E
:1028F00042009A4616460D46202802D00220BDE826
:10290000F88FB5B1AEB100206064222184F8421086
:102910002063FEF709FAA6858146E685A0684FF494
:1029200080582027404501D1206920B12E4600253E
:1029300029E00120E3E7002625E04B460022202184
:102940002046CDF800A000F085FD18B184F8427053
:102950000320D4E726B1A06840451AD038B108E07A
:1029600020684068C0F3080025F8020B08E02069E1
:1029700078B12068406800F07F0000BF06F8010BC6
:10298000E08D401EE085E08D0028D6D184F84270AD
:10299000B5E720684068F1E770472DE9F843044641
:1029A00090F84100984616460D46202802D0022095
:1029B000BDE8F88385B17EB100206064212084F8F1
:1029C0004100FEF7B1F9A6848146E684A06820277D
:1029D000B0F5805F02D003E00120E9E7206910B183
:1029E0002E4600250EE000260CE08021204600F057
:1029F00031FDA8B9C6B116F8010B21684860E08C1A
:102A0000401EE084E08C4B464FF00002CDF8008081
:102A10000028EAD14FF04001204600F01BFD40B1F4
:102A200084F841700320C3E735F8020BC0F30800B7
:102A3000E3E784F841700020BAE77047FEE7000042
:102A4000F0B500230A24302537261F4611E000BFC9
:102A5000B4EB107F02D905EB107C01E006EB107C93
:102A600001F813C001EB430C00015B1C8CF80170F2
:102A7000DBB29342ECD3F0BD10B504490448FDF736
:102A8000F5FD0249491E087010BD000045000020F8
:102A9000300000202DE9F04F85B000265048009608
:102AA000019602960396816941F040018161816936
:102AB00001F040010491816941F010018161816957
:102AC00001F010010491816941F004018161816983
:102AD00001F004010491816941F020018161816963
:102AE00001F020010491816941F008018161806950
:102AF000DFF8F08000F00800049001222021404619
:102B0000FEF70CF90122DFF8E090570339464846FA
:102B1000FEF704F9DFF8D4A0012202215046FEF7A7
:102B2000FDF8DFF8CCB0012240215846FEF7F6F858
:102B3000012210212F48FEF7F1F801242020CDE9D1
:102B40000004032569464046CDE90245FDF7E2FF52
:102B5000CDE9007469464846CDE90245FDF7DAFF44
:102B60000227CDE9007469465046CDE90245FDF7DC
:102B7000D1FF0420CDE90006694650460296FDF7D4
:102B8000C9FF082000901C48CDE90106694650465F
:102B9000FDF7C0FF2002CDE90007694650460397C4
:102BA000FDF7B8FF4020CDE9000469465846CDE95D
:102BB0000245FDF7AFFF1020CDE9000469460D483E
:102BC000CDE90245FDF7A6FF002211460920FEF7D8
:102BD00009FA0920FEF7F8F905B0BDE8F08F00000A
:102BE00000100240001801400010014000080140A0
:102BF00000140140000C0140000021100F4810B5E6
:102C00000D4901604FF48271416000218160C16013
:102C10004FF400720161C0E905121822C0E90721D2
:102C2000416281620A21C162FFF7B8F9002801D030
:102C300072B6FEE710BD0000003001409012002087
:102C400010B50E4C0C480C2120604FF4E130606050
:102C50000020A060E060C4E90401A061E0612046BA
:102C6000FFF7D0FD08B172B6FEE72068C16841F0F9
:102C70003001C16010BD000000380140E8120020A2
:102C800010B500220F49104800F02AFF08B1FDF7E7
:102C900061FB0E490C4801F006F908B1FDF75AFB3B
:102CA0000B49094800F028FD08B1FDF753FB064821
:102CB00001F04EF9002803D0BDE81040FDF74ABBF3
:102CC00010BD00004C00002094130020A40100203F
:102CD0009C000020FEE7FEE72DE9F84F044640F691
:102CE0008F7B48F60F794FF480684FF0000ABDE102
:102CF000B0F8441011F00F0539D030F825603104D8
:102D00007ED530F8251001EA0B0141F0800120F852
:102D1000251005EB850004EBC00797F85C0107F56B
:102D2000A87700286DD0F87802286BD0397822680F
:102D300032F8210048F68F73184048F2C003184358
:102D400022F821003978206830F82120B0F850307E
:102D500052047DD5022202EBC1015A1808EB420150
:102D6000415A8905890D009173D03A89DDE0C90681
:102D70002BD4018801EA090141F400410180206857
:102D800004F11005B0F85030217C022202EBC101A1
:102D90005A1808EB4201405AC0F30900E062616A28
:102DA0000844606200212046FEF76DF9607B002830
:102DB0009DD0A86900289AD1607B216840F08000EE
:102DC000A1F84C0084F80DA050E1018804F5A87525
:102DD0000A0521D5B0F850202B78062101EBC3015C
:102DE0000A4408EB4201405A04F52671C0F3090376
:102DF000EB61EA88206801F0D3FE2068018802E0D8
:102E0000AEE06EE07EE001EA0B0141F0800101805E
:102E10002046FEF78BFD29E10904D5D5018801EA9A
:102E20000B0141F0800101802068B0F850202B7820
:102E3000062101EBC3010A4408EB4201405A830515
:102E40009B0DEB6110D0696971B1EA88206801E0DF
:102E50005FE05DE001F0A4FEE9696869084468612B
:102E600000212046FEF718F9216808880205ABD436
:102E7000C0F301300328A7D0B1F850000844B0F8DF
:102E80000C14C1F30901A0F80C142A6900F20C40DB
:102E90003E2A09D95109D20600D1491E02884FF4B1
:102EA000004343EA812109E0B2B15108D20700D0C2
:102EB000491C02884FF6FF7303EA81210A4302800E
:102EC000216808884BF68F72104080F4405048F219
:102ED000800210430880C9E0018841F4004101806C
:102EE000EEE72068B0F850203B78062101EBC301E3
:102EF0000A4408EB4201415A8905890D009118D016
:102F0000FA8812E0324639462046FEF721F9009051
:102F10000FE0062202EBC1015A1808EB4201415AA8
:102F20008905890D009104D07A897969009B01F0A7
:102F300037FEF86900990844F861796900980844F7
:102F40007861B86918B139690098814204D9397833
:102F50002046FEF7A1F803E03946206801F09CFB0B
:102F600030062ED505EB850004EBC001206830F853
:102F7000252002EA090242F4004220F82520C87CFC
:102F8000103101281ED0F0056CD42068B0F8503004
:102F90000D78022202EBC5021A4408EB4202805A65
:102FA0008A69C0F30900824255D9121A8A6154D045
:102FB0004A6902444A61CA691044C861206801F044
:102FC0006BFB53E0C1F818A0087B524608B37006AB
:102FD00020D5487810B1012812D03AE02068B0F826
:102FE000502010440A7800EB0210B0F80424C2F319
:102FF0000902A0F80424B0F8042442F4004206E0D8
:103000002068B0F8503018440B7800EB0310A0F89B
:1030100004241EE04B78206813B1012B11D018E076
:10302000B0F8502010440A7800EB0210B0F80C24DD
:10303000C2F30902A0F80C24B0F80C2442F40042B8
:1030400005E0B0F8503018440B7800EB0310A0F8FE
:103050000C24097802E0C1F818A0E9B22046FEF776
:1030600012F803E032462046FEF7E5F82068B0F893
:10307000441009043FF53CAE0020BDE8F88F7047CE
:10308000F8B5044640684FF48273984217D1A0689F
:103090004FF48065B0F5004F01D0A8420FD12068F1
:1030A000066826F0400606606068984207D1A0686E
:1030B000A84204D100920B460022012103E00092B5
:1030C0000B4600228021204600F036F8002804D06C
:1030D000606D40F0200060650320F8BDF8B515462E
:1030E0000E460B46009204460122022100F024F80D
:1030F00040B93346002280212046009500F01CF89C
:10310000002804D0606D40F0200060650320F8BD09
:103110000A46014602484FF0FF330068FEF7D0BF71
:10312000280000200A46014602484FF0FF3300689D
:10313000FFF770B8280000202DE9F8431E4691469D
:1031400088460446089DFDF7EFFD401B351AFDF744
:10315000EBFD074625480068C0F3CB30684338E0F4
:10316000701C37D0FDF7E0FDC01BA84203D215B19B
:10317000009860B32CE02068416821F0E0014160D4
:103180006068B0F5827F0BD1A068B0F5004F02D027
:10319000B0F5806F04D12068016821F04001016022
:1031A000A06AB0F5005F09D12068016821F40051E0
:1031B00001602068016841F400510160012084F839
:1031C0005100002084F850000320BDE8F88300255A
:1031D000401E00902068816838EA010004D0002178
:1031E0004945BDD10020F0E70121F9E7B8000020F2
:1031F0007047FDF791BE30B595B028216846FCF7C1
:10320000DCFF14210AA8FCF7D8FF18210FA8FCF74F
:10321000D4FF01210804CDE9001000240294022506
:103220000491CDE907504FF4E01009906846FEF78D
:1032300025FD08B172B6FEE70F20CDE90A054FF46F
:103240008060CDE90C4002210AA80E94FEF716FC1E
:1032500008B172B6FEE7102014940F900FA8FEF785
:1032600097FB08B172B6FEE700224FF0E06110460E
:10327000FEF7E0FC15B030BD704710B5406A002184
:10328000C185C184FFF786F910BD01680C3151E892
:10329000002F22F4907241E80023002BF5D1016841
:1032A000143151E8002F22F0010241E80023002BE5
:1032B000F5D1016B012909D101680C3151E8002FCA
:1032C00022F0100241E80023002BF5D1202180F8E4
:1032D000421000210163704708B590F8421022297E
:1032E00001D0022008BD82684FF480539A4201D178
:1032F000016921B1816A9A421BD04AB10AE0026891
:10330000816A5268C2F308020A80816A891C08E057
:10331000026972B10268526802F07F020A70816A23
:10332000491C8162C18D491E0904090CC18503D065
:103330001BE002685268F1E70168CA6822F02002C7
:10334000CA600168CA6822F48072CA6001684A696A
:1033500022F001024A61202180F8421000214163DD
:10336000026B012A03D0FFF717FB002008BD0163A1
:1033700001680C3151E8002F22F0100241E80023CF
:10338000002BF5D101680A68D20602D50A6849689F
:103390000091818DFFF7FDF8E7E7000070B5044666
:1033A00000680169E26821F440511143016121691B
:1033B000A0680843616908432168CA6841F20C6348
:1033C0009A430243CA6020684169A26921F44071AE
:1033D000114341611E492068884202D1FEF7F4FB87
:1033E00001E0FEF7E1FB00EBC00101EB00126068B9
:1033F00064218000B2FBF0F3B3FBF1F36FF0180629
:103400007343B2FBF0F5B2FBF0F605EB8305322314
:1034100003EB0515B5FBF1F5B6FBF1F605F0F0058C
:1034200005EB0615B2FBF0F6B2FBF0F0B0FBF1F0E5
:103430006FF01802504306EB800003EB0010B0FB66
:10344000F1F0216800F00F002844886070BD000092
:10345000003801402DE9F843984617460D460446CA
:10346000089E24E0701C22D0FDF75EFCA0EB080053
:10347000B0421AD8CEB12068C168490717D5802D4F
:1034800015D0402D13D00168C94309070FD4016836
:103490000025406800902046FFF7F7FE0820606492
:1034A00084F840500120BDE8F8830320FBE7206842
:1034B000006835EA000004D00020B842D2D00020D5
:1034C000F1E70120F9E70000F8B5154D286800681C
:1034D0004FF00006C043800612D4134C114900235C
:1034E000207801220144401C20702846FFF7FCF997
:1034F0002078642800D3267029686FF020000860C7
:1035000028680168C943C90605D4016840680749AD
:10351000009001200870BDE8F8400148FFF73CB872
:10352000E8120020301300200100002000000020DD
:103530002DE9F041D0F8C032D0F8B822CAB101EB81
:10354000810500EB85040026E7693FB103EBC50365
:103550001B6AB7FBF3F503FB157323B1C2F81462C2
:103560000020BDE8F08100231A46E66100F07EFCF1
:10357000F6E70220F5E770B50546D0F8B84200F04E
:103580007AFBC4F80C02D5F8B80248B1D5F8BC12E1
:10359000D4F80402CA6804F503719047002070BD96
:1035A000022070BD70B504460026812100F0B6FAF5
:1035B000002501212046E56200F0B0FA8221204674
:1035C000C4F86C5100F0AAFA2564D4F8B80248B1E6
:1035D000D4F8BC0204F52E7440688047206800F0DF
:1035E00014FE2560304670BD10B5D0E9AE4159B12A
:1035F00094F80002FF2807D08B6894F80122214636
:103600009847FF2084F80002002010BD0A210180A5
:1036100000487047CC0000204321018000487047DB
:103620001C0100204321018000487047D800002081
:103630004321018000487047600100202DE9F041DE
:1036400004460026007C4FF40077012590B3402308
:1036500002228121204600F062FB4023E562022223
:103660000121204600F05BFB082303228221204633
:10367000C4F86C5100F053FB4FF40770256400F060
:10368000C5FDC4F8B802F8B10546D4F8BC0200681C
:1036900080470020C5F81402C5F81802207CD5F830
:1036A000042298B140230121204600F044FB30461B
:1036B000BDE8F081FFE73B4602228121204600F071
:1036C0002EFB3B46E562CAE70126F0E73B46EAE708
:1036D00010B5D0F8B81269B1027C002AD1F80422E2
:1036E00005D04023012100F026FB002010BD4FF43F
:1036F0000073F7E7022010BD02460220002902D025
:103700000020C2F8BC127047D0F8B802C0F804120A
:1037100000207047D0F8B802C0F81022C0F8081294
:10372000002070472DE9FC410546D0F8B872002012
:103730008DF80000ADF80400064608780C4610F03D
:10374000600121D020293BD1E288AAB1000660782F
:1037500007D5D5F8BC128B6839469847E2883946B8
:1037600026E087F80002A07987F80102E28839464E
:10377000284600F06AF828E0D5F8BC1260780022EC
:103780008B682146984720E0607820B10A2809D04C
:103790000B2815D110E095F89C02032810D10222C5
:1037A00001A905E095F89C02032809D10122694688
:1037B000284600F064F808E095F89C02032804D03D
:1037C0002146284600F036F802263046BDE8FC8146
:1037D00010B5D0F8B812A1B1D1F814220AB1012065
:1037E00010BD0122C1F81422D1F810220263B1F8F1
:1037F000102293B2D1F80822812100F037FB00207B
:1038000010BD022010BD10B5D0F8B4225268904708
:10381000002010BD134610B50A46002100F08BFAB7
:10382000002010BD134610B50A46002100F01EFB13
:10383000002010BD10B50446802100F0FCFA20469F
:10384000BDE81040002100F0F6BA10B50323C0F81F
:103850005C21C0F89432C0F8602113460A4600216A
:1038600000F069FA002010BD10B505210023C0F852
:1038700094121A46194600F05EFA002010BD10B5E9
:103880000223C261C0F89432026213460A46002144
:1038900000F0ECFA002010BD10B504210023C0F8A0
:1038A00094121A46194600F0E1FA002010BD0000FB
:1038B00010B50A46024903A000F0E2F8004810BD26
:1038C0005816002043444320436F6E66696700002A
:1038D00012200880004870476C00002010B50A468E
:1038E000024903A000F0CCF8004810BD5816002093
:1038F00043444320496E746572666163650000004D
:1039000004200880004870476800002010B50A466F
:10391000024903A000F0B4F8004810BD581600207A
:1039200053544D6963726F656C656374726F6E6931
:103930006373000010B50A46024903A000F0A0F826
:10394000004810BD5816002053544D33322056699C
:10395000727475616C20436F6D506F72740000005B
:1039600010B51A2008800A480168001D0468001D6F
:103970000068081809D008220649FFF761F80549D0
:10398000042210312046FFF75BF80248801E10BD6C
:10399000E8F7FF1F82000020F8B504460020ADF8CC
:1039A000000048880D46010A082948D2DFE801F0E6
:1039B0004704091747473C45D4F8B012207C0A68F1
:1039C00019E0207C02260028D4F8B40205D0C16A90
:1039D00068468847014646703EE0816AF8E7C0B213
:1039E00006282CD2DFE800F0030A1014181CD4F8C3
:1039F000B002426805E0694690471CE0D4F8B00286
:103A00008268E2B1207CF6E7D4F8B002C268F8E739
:103A1000D4F8B0020269F4E7D4F8B0024269F0E7E2
:103A2000D4F8B0028269ECE7207C40B9D4F8B40243
:103A3000416B6846884701460EE0207C20B129464C
:103A40002046FFF7F7FEF8BDD4F8B402016B6846D4
:103A50008847014607204870BDF8000048B1EA8851
:103A600052B1824200D90246ADF800202046FFF74D
:103A700006FFE8880028E6D12046FFF70DFFF8BDD5
:103A800070B5002300281ED00446002502E06D1CFE
:103A9000EDB2641C2678002EF9D1022404EB450413
:103AA00014801278CA545B1C0322CA5400245B1C85
:103AB00006E0CA545B1CDAB28C54521CD3B2401CD0
:103AC0000278002AF5D170BD01004FF0000004D04B
:103AD000012901D0022901D002207047012070473E
:103AE00010B580B1D0F8B43213B10023C0F8B432AD
:103AF00009B1C0F8B012012180F89C12027000F0E8
:103B0000BFF8002010BD022010BD10B5D0F8C002D3
:103B1000FDF7F1FABDE81040FFF7D6BF10B5D0F8B9
:103B2000C002FDF7C3FABDE81040FFF7CDBF2DE995
:103B3000F0411746044651B1D4F8B40242691AB1B3
:103B400094F89C02032851D00220BDE8F081D4F8FB
:103B50009432002504F11400022B03D0042B3AD038
:103B6000C3B33CE0D0E903639E4207D9F11AC160B8
:103B70008AB239462046FFF755FE12E08068B0FB56
:103B8000F3F103FB110199B9984211D3D4F89812BB
:103B900088420DD2002211462046FFF743FEC4F8AA
:103BA000985200231A461946204600F0C4F816E041
:103BB000D4F8B402C16829B194F89C02032801D159
:103BC000204688478021204600F035F92046FFF73F
:103BD0004BFE04E0FFE78021204600F02CF994F82A
:103BE000A002012804D184F8A05201E020469047A9
:103BF0000020AAE770B51546044649B1D4F8B402CE
:103C000082691AB194F89C02032830D0022070BD5A
:103C1000D4F8941204F5AA70032902D005291ED005
:103C200027E0D0E903218A420BD9531AC360084622
:103C3000834200D303469AB229462046FFF7EAFDA5
:103C400017E0D4F8B402016929B194F89C02032862
:103C500001D1204688472046FFF71EFE09E00020DC
:103C60000146C4F89402204600F0E5F801E0204641
:103C70009047002070BDD0F8C002FDF778BC00006E
:103C800010B504461C481D49C0F8D442C4F8C0020F
:103C90000160082101710221817100218172C172CC
:103CA0000173FDF799FD08B1FCF754FB0022D4F82D
:103CB000C0021823114604F53074FDF7C5F95823E6
:103CC000002280212068FDF7BFF9C0230022812156
:103CD0002068FDF7B9F94FF48873002201212068AC
:103CE000FDF7B2F94FF48073002282212068FDF7BE
:103CF000ABF9002010BD000078220020005C0040DD
:103D00000A0601F07F01D0F8C00201EB810100EB4F
:103D1000C10001D5807C704790F85201704710B502
:103D20001C461346D0F8C0022246FDF729FCBDE828
:103D30001040FFF7C9BE10B5D0F8C002FDF74CFC2B
:103D4000BDE81040FFF7C0BE70B500220446402316
:103D50001146FFF7E4FF40260125C4F864613346AD
:103D6000002280212046C4F85851FFF7D8FF666230
:103D7000A56184F89C520020C4F894026060C4F8E5
:103D8000A402D4F8B80228B1D4F8B40200214268E1
:103D900020469047002070BD90F89C12042903D162
:103DA00090F89D1280F89C120020704710B590F892
:103DB0009C12032904D1D0F8B412C96901B1884713
:103DC000002010BD01740020704710B5D0F8C0026B
:103DD000FDF799FDBDE81040FFF776BE70B50446CB
:103DE00000F52A70054600F04AF80120C4F8940254
:103DF000B4F8AE02C4F8980294F8A80210F01F01BB
:103E00000AD001290DD0022910D000F080012046EF
:103E100000F011F8002070BD2946204600F09DF802
:103E2000F8E72946204600F0C9F9F3E7294620467D
:103E300000F01CF9EEE710B5D0F8C002FDF7E3FB87
:103E4000BDE81040FFF740BE10B5D0F8C002FDF746
:103E500074FDBDE81040FFF737BE90F89C1280F863
:103E60009D12042180F89C120020704710B5D0F8F4
:103E7000C002FDF700FCBDE81040FFF725BE0A7840
:103E800002704A7842708A78CB7802EB0322428033
:103E90000A794B7902EB032282808A79C97902EB95
:103EA0000121C18070470246002011B1C2F8B4124E
:103EB00070470220704710B5D0F8B42202241AB11E
:103EC0001268904700B90024204610BD70B50E4618
:103ED0001E4D897804462970012931D894F89C0236
:103EE00002280BD003280FD031462046FFF7A2FC52
:103EF00029782046BDE87040FFF785BCD9B1032082
:103F0000616084F89C0209E071B16068884212D057
:103F1000C1B22046FFF777FC297861602046FFF7A1
:103F2000CAFF02280CD006E0022084F89C0220463A
:103F30006160FFF768FC2046BDE87040FFF7ACBC4D
:103F400031462046BDE87040FFF774BCC800002031
:103F500010B5FFF779FF002010BD2DE9F0410A7878
:103F6000002612F0600208D0202A01D0402A70D129
:103F7000D0F8B422926890476DE04B78002201257A
:103F80000A2B66D2DFE803F0405D655765080565DA
:103F90002C29FFF701FD5EE004468888D8B9C8885F
:103FA000C8B94888802816D200F07F0794F89C0290
:103FB000032810D084F89E7239462046FFF705FF8B
:103FC0002046FFF769FC1FB1022084F89C0242E002
:103FD00084F89C523FE020463BE0FFF777FF3AE051
:103FE000CB88012B35D190F89C32012B04D0022BC9
:103FF00002D0032B2DD104E08260012200F10801E0
:1040000016E00122011D13E090F89C22012A03D042
:10401000022A01D0032A1CD1CA88022A19D1C560FC
:10402000D0F8A41209B10321C160022200F10C01F1
:10403000FFF725FC0FE0498801290CD1C0F8A452F4
:1040400011E090F89C32012B08D0022B06D0032BF4
:1040500004D0FFF7EFFB3046BDE8F0814988012925
:10406000F9D1C0F8A422FFF717FCF4E72DE9F041DD
:104070000A46044610780027097910F060030AD038
:10408000202B01D0402B50D1D4F8B40211468368C4
:10409000204698478FE0C0F34110012806D05078A1
:1040A000D0B301282AD003283FD107E0D4F8B402C6
:1040B000114683682046BDE8F041184794F89C02F9
:1040C000022802D0032872D10AE071B380296ED091
:1040D0002046FFF7B0FE80212046FFF7ACFE6AE0E5
:1040E000508838B931B1802904D0D08810B9204621
:1040F000FFF7A1FE2046FFF7CFFB5CE094F89C029F
:104100000228E2D0032852D1508898BB4806F1D04B
:104110002046FFF7FAFCEDE7FFE794F89C02002643
:10412000022803D0032842D112E040E009B18029DF
:104130003DD1080601F07F0000EB800004EB800118
:1041400001D5143101E001F5AA7102220E602AE0C6
:10415000080601F00F0000EB800004EB80000AD598
:10416000806920B301F07F0000EB800004EB800544
:1041700014350BE01FE0D0F85801C0B101F07F000A
:1041800000EB800004EB800505F5AA7541B180299C
:1041900006D02046FFF7B4FD10B10120286000E0F2
:1041A0002E60022229462046FFF769FB03E01146F4
:1041B0002046FFF73FFB3846BDE8F08170B5054665
:1041C00008780C4610F0600003D0202801D0402869
:1041D00016D195F89C02012803D0022801D00328AB
:1041E0000ED1207901280BD8D5F8B4028268284670
:1041F0009047E188014306D12846FFF74DFB02E0D6
:104200002846FFF717FB002070BD70470048704735
:10421000582000202DE9F0470C78002630F8243093
:1042200048F68F121340CA78002A78D0012A7CD031
:10423000022A02D0032A75D0012648F280021343D5
:1042400020F824300D7830F8253048F68F7423405C
:104250002B43134320F825300D7B48F2C00948F664
:10426000BF734CF2800A4BF68F77EDB3CD7891F89F
:1042700000C0022D30F82C507DD048F68F6805EA3A
:104280000805154320F82C50B0F8505091F800C0A4
:10429000054405EB0C15B1F808C02CF0010CA5F88D
:1042A00000C4B0F8505091F800C0054405EB0C155F
:1042B000B1F80AC02CF0010CA5F808C44D78002D07
:1042C0007ED00D7830F825C05FEA4C4C07D530F829
:1042D00025C00CEA040C4CEA0A0C20F825C091F821
:1042E00000C030F82C5000E022E06D0606D530F812
:1042F0002C50254045EA090520F82C50CC780D7843
:10430000012C30F8254004EA03047CD084F020031B
:10431000134320F82530C1E001E006E002E043F459
:1043200000738AE743F4C06387E743F4806384E75C
:104330004D784DB3B0F850500F78054405EB071594
:10434000CF8827F00107A5F800740F7830F82750C0
:104350006D0606D530F82750254045EA090520F8B6
:104360002750CC78012C07D00C7830F82410194055
:1043700081F0200104E064E00C7830F8241019404A
:10438000114320F8241090E0B0F850300D78034429
:1043900003EB0513CD8825F00105A3F80854B0F808
:1043A00050300D78034403EB0513B3F80C54C5F3F8
:1043B0000905A3F80C540D6903F20C433E2D00E0EF
:1043C00045E00BD94FEA551CED0601D1ACF1010CCB
:1043D0001D884FF4004848EA8C2C0BE035B34FEAB7
:1043E000550CED0701D00CF1010C1D884FF6FF783C
:1043F00008EA8C2C45EA0C051D800D7830F8253034
:104400005B0408D500E046E030F82530234043EA5D
:104410000A0320F82530097861B130F821303B409B
:1044200083F40053134320F821303EE01D8845F407
:104430000045E1E70188394081F440511143018092
:1044400033E0254048F2801845EA08051AE791F85C
:1044500000C030F82C506D0406D530F82C502540A3
:1044600045EA0A0520F82C5091F800C030F82C508D
:104470006D0606D530F82C50254045EA090520F890
:104480002C500D7830F825403C4084F440541443BF
:1044900020F8254070E7144320F825400B7830F8C9
:1044A00023103940114320F823103046BDE8F0872F
:1044B000002070472DE9F04391F80C804F780A787E
:1044C00048F6BF7C4BF68F7948F2800348F2C0056E
:1044D0004CF2800648F68F74B8F1000F28D0002FF8
:1044E00030F822704FEA474748D0002F05DA30F8FD
:1044F00022702740374320F822700A7830F8227063
:104500007F0605D530F8227027402F4320F822700F
:104510000D7830F825202240324320F825200C78F1
:1045200030F8242002EA0C021A4320F824201AE072
:104530007FB130F82260760605D530F8226026403B
:104540002E4320F822600A7830F8221001EA0C018C
:104550000EE030F822506D0405D530F82250254089
:10456000354320F822500A7830F8221001EA090178
:10457000194320F822100020BDE8F083002F05DA4F
:1045800030F822702740374320F822700A7830F83C
:104590002260760605D530F8226026402E4320F8AA
:1045A00022600E7830F8262022402A4320F8262068
:1045B0000C7830F8242002EA09021A4320F824205B
:1045C000C1E70020704700207047012120F8401FFC
:1045D00000210180818001820846704730F8401F29
:1045E00021F43F410180002070470020704730B522
:1045F0000A7BB2BB4A7848F68F7548F28004C2B194
:104600000B7830F82320520607D530F823202A40B3
:1046100048F2C0052A4320F82320CA78012A20D076
:104620000A7830F8221048F6BF73194081F0200153
:1046300014E00A7830F822305B0407D530F82230D5
:104640002B404CF280052B4320F822300A7830F8BA
:1046500022104BF68F73194081F44051214320F80A
:104660002210002030BD10B54A780978002A48F29F
:10467000800330F8212005D048F6BF74224082F034
:10468000100204E04BF68F74224082F480521A43E9
:1046900020F82120002010BD2DE9F0470D464B7871
:1046A000097B04464FF0000948F68F7248F2800AF1
:1046B0004FF400474FF6FF78012B09D000296FD047
:1046C000E87802286DD001286CD00120BDE8F08781
:1046D000AE692869864200D9064691B1E978022977
:1046E0001ED0286A801B2862287834F820104906DA
:1046F000B4F85010214401EB001073D5A0F80C64FD
:1047000016E1B3B2EA882046696900F067FAB4F8A6
:1047100050002978204400EB0110A0F804640DE15A
:10472000296A814277D9297834F82100104048F26B
:104730008012104324F82100286A801B2862287800
:1047400034F820104906697871D511B101292AD0B1
:1047500030E0B4F85010214401EB0010B0F80C1414
:10476000C1F30901A0F80C1400F20C403E2E07D949
:104770007109F20600D1491E028847EA812107E04B
:104780004EB17108F20700D0491C028808EA812165
:104790000A4302800EE0018841F40041018009E0F3
:1047A000F1E020E195E1B4F85020111901EB00107F
:1047B000A0F80C646A89B3B22046696900F00EFA69
:1047C0006869304468612969286A884202D9801B77
:1047D000286202E00646C5F82090687818B10128E2
:1047E0002BD032E02FE0B4F850002978204400EBC1
:1047F0000110B0F80414C1F30901A0F8041400F288
:1048000004403E2E08D97109F20600D1491E0288E3
:1048100047EA812108E0A1E056B17108F20700D013
:10482000491C028808EA81210A4302800DE00EE05B
:10483000018841F40041018007E0B4F85000297874
:10484000204400EB0110A0F804642A8971E011B142
:10485000012927D02DE0B4F85010214401EB0010BD
:10486000B0F80414C1F30901A0F8041400F20440E4
:104870003E2E07D97109F20600D1491E028847EA87
:10488000812107E04EB17108F20700D0491C02886F
:1048900008EA81210A4302800BE0018841F40041CB
:1048A000018006E0B4F85010214401EB0010A0F89C
:1048B00004642A89B3B22046696900F08FF96869F7
:1048C000304468612969286A884202D9801B2862BD
:1048D00002E00646C5F82090687810B1012836D06D
:1048E00026E0B4F850002978204400EB0110B0F81D
:1048F0000C14C1F30901A0F80C1400F20C403E2E78
:1049000007D97109F20600D1491E028847EA8121C0
:1049100007E04EB17108F20700D0491C028808EA8E
:1049200081210A43028003E0018841F400410180B3
:104930006A89B3B22046696900F050F9297834F8E1
:10494000210048F6BF72104080F030000FE1B4F84B
:1049500050100819297800EB0110CFE62A7834F8B6
:10496000220048F68F63184040EA0A0024F822002B
:10497000B4F850002A78204400EB02108BB2A0F863
:1049800004342A89D6E7A9692869814202D9091A1B
:10499000A96102E00846C5F81890B4F850102A78CA
:1049A000214401EB0211B1F80C24C2F30902A1F871
:1049B0000C2401F20C413E287DD94209C00600D1E9
:1049C000521E088847EA82220AE0088840F4004024
:1049D00007E04208C00700D0521C088808EA82227B
:1049E00010430880BBE033BBB4F850002978204462
:1049F00000EB0110B0F80414C1F30901A0F804148D
:104A0000296900F204403E2907D94B09C90600D1A3
:104A10005B1E018847EA832307E041B14B08C907C1
:104A200000D05B1C018808EA8323194302E0018857
:104A300041F400410180687810B1012828D030E0AD
:104A4000B4F850002978204400EB0110B0F80C14A1
:104A5000C1F30901A0F80C14296900F20C403E29A9
:104A600007D94B09C90600D15B1E018847EA832399
:104A700007E041B14B08C90700D05B1C018808EA78
:104A80008323194302E0018841F40041018008E0DA
:104A9000B4F850100819297800EB0110298AA0F801
:104AA0000C14E869C0B3297834F82100430401D517
:104AB000430605D400E046E044F2400318424ED1DC
:104AC00034F82100104048F2C002104324F82100BD
:104AD00045E0A9692869814202D9091AA96102E061
:104AE0000846C5F8189013BBB4F850102A78214432
:104AF00001EB0211B1F80424C2F30902A1F8042465
:104B000001F204413E2808D94209C30600D1521ED1
:104B10000B8847EA822208E021E078B14208C30707
:104B200000D0521C0B8808EA822213430B8069785C
:104B300000293FF42EAF012909D010E00A8842F481
:104B400000420A80F3E700287FF443AF3DE7B4F862
:104B5000502011192A7801EB0211A1F80C042978D0
:104B600034F821004BF68F72104080F4405040EA38
:104B70000A0024F821000020A8E50021A0F8441034
:104B80004FF43F41A0F84010002070470148FCF767
:104B900089BD000078220020B0F844007047000072
:104BA00010B500EB42005C0800F5806009D000BF42
:104BB00030F8042B01F8012B120A01F8012B641EB6
:104BC000F6D1DA0701D00088087010BD00207047C8
:104BD00011B98021A0F84C100020704710B55B1C63
:104BE00000EB42005B0800F5806009D011F8012B52
:104BF00011F8014B42EA042220F8042B5B1EF5D188
:104C000010BD0000054901220A7010B104220A708B
:104C100001E0002008700878704700002C00002098
:104C200030B939B101290AD0022905D0032909D0A8
:104C300004207047002070474FF4805003E04FF489
:104C4000006000E001201060F4E710B508B1042016
:104C500010BD4FF6FF7000EA033310031A46FBF74E
:104C6000C5FD002010BD0000034901220A7008B9EB
:104C700000200870087870472C00002070B51E4690
:104C80000D4608B1042070BD14032046FBF7FAFD61
:104C90004FF6FF7000EA063220462946FBF70AFD70
:104CA000002070BDFEE700000FB4054B10B503A94E
:104CB000044A029800F028F810BC5DF814FB0000CC
:104CC000AD640008DC0100200907090E002804DBA0
:104CD00000F1E02080F80014704700F00F0000F1B0
:104CE000E02080F8141D704702E008C8121F08C1B8
:104CF000002AFAD170477047002001E001C1121F5D
:104D0000002AFBD1704700002DE9FF4F8DB00F4600
:104D10000546002606E025280BD0DDE90F12904756
:104D20006D1C761C28780028F5D111B03046BDE8FE
:104D3000F08F0024A246A1460122EC4900E0044382
:104D400015F8013F203B02FA03F00842F7D128781A
:104D50002A2810D06FF02F022878A0F130010929FD
:104D600014D80AEB8A0102EB410144F0020400EB83
:104D7000010A6D1CF0E701CF5FEA000A03D544F495
:104D80000054CAF1000A44F002046D1C28782E2851
:104D900017D115F8010F44F004042A280ED06FF043
:104DA0002F022878A0F1300109290AD809EB8901DE
:104DB00002EB410100EB01096D1CF2E757F8049B7F
:104DC0006D1C28786C280FD006DC4C2817D068287A
:104DD0000DD06A2814D104E0742810D07A280FD19D
:104DE0000DE044F400140AE044F4801401E044F4BB
:104DF00040146978814202D104F580146D1C6D1C49
:104E00002A786E2A1FD00CDC632A31D004DC002AF9
:104E10008BD0582A11D1A3E0642A68D0692A0CD11A
:104E200065E0732A2ED004DC6F2A73D0702A04D177
:104E30009BE0752A6FD0782A6ED01046DDE90F12FC
:104E40009047761C50E1C4F30250022806D0032894
:104E500009D0042801CF09D0066045E101CFF11740
:104E6000C0E9006140E101CF06803DE106703BE111
:104E700017F8040B8DF8000000208DF80100EB46B8
:104E8000012003E057F804BB4FF0FF3061074FF0FB
:104E9000000102D40DE008F10101884649450FDA0E
:104EA0008045F8DB1BF808100029F4D108E008F170
:104EB000010188468142FADB1BF808100029F6D16F
:104EC000DDE90F23AAEB08008146214600F036F900
:104ED000304400EB080604E0DDE90F121BF8010B7B
:104EE0009047B8F10108F7D221464846F7E00A2179
:104EF000C4F302534FF0000B0891022B04D001CFF2
:104F0000C117032B09D00AE0FF1D27F00707F7E8B8
:104F1000020108E032E01FE020E000B2C117042BDC
:104F200001D140B2C117031E71F1000307DA4FF03F
:104F3000000CD0EB0C006CEB01012D2302E02305EB
:104F400004D52B238DF82430012303E0E30701D09F
:104F50002023F7E7984658E00A2110E010210EE0E0
:104F600010204FF0000B08900CE010214FF0000BC8
:104F700044F004044FF00809089103E008214FF0C1
:104F8000000B0891C4F30253022B04D001CF00217F
:104F9000032B06D006E0FF1D27F00707F7E8020104
:104FA00003E080B2042B00D1C0B24FF00008230709
:104FB0002BD5702A07D0DDF820C08CF0100C5CEAED
:104FC0000B0C05D00EE040238DF82430012308E0BF
:104FD00050EA010306D030238DF824308DF82520C7
:104FE00002239846DDF820C08CF0080C5CEA0B0C1C
:104FF0000BD150EA010301D1630706D530238DF8A8
:1050000024304FF00108A9F10109582A04D038A230
:105010000B9208AA0A920BE03AA2F9E75B46089ABB
:10502000FBF7D6F80B9B9B5C0A9A521E0A921370F0
:1050300050EA0102F2D10A98ADEB000000F1200B1A
:10504000600702D524F4803401E04FF00109D9450E
:1050500002DDA9EB0B0000E0002000EB0B01414456
:105060000890AAEB010AE00306D4DDE90F232146EC
:10507000504600F063F806444FF0000908E009A923
:1050800011F80900DDE90F12904709F10109761CBA
:10509000C145F4DBE0030CD5DDE90F232146504682
:1050A00000F04CF8064404E0DDE90F123020904790
:1050B000761C0899481E08900029F5DC08E00A983B
:1050C0000A990078491C0A91DDE90F129047761C75
:1050D000BBF10001ABF1010BF1DC21465046DDE9EB
:1050E0000F2300F019F806446D1C1BE60928010087
:1050F000303132333435363738396162636465664E
:10510000000000003031323334353637383941420F
:1051100043444546000000002DE9F04104460025C7
:105120001E461746880404D405E039462020B047BF
:105130006D1C641EF9D52846BDE8F0812DE9F041CB
:10514000044600251E469046C80301D5302700E0DE
:105150002027880404D505E041463846B0476D1C39
:10516000641EF9D52846BDE8F081000010B504465C
:1051700000F5805000220271521EC262204601F0EA
:10518000BDFA08B1032010BDB4F8FE01A0F52A4114
:10519000553901D0022010BD94F83600B4F837100C
:1051A00040EA01210848B0EB012F08D094F85210D2
:1051B000B4F8532041EA0221B0EB012F01D10020C5
:1051C00010BD012010BD000000464154F0B5002282
:1051D000164B144602EB420653F826506DB1076891
:1051E000BD420BD103EB860586686F68B74205D1D7
:1051F0002D89C688B54204D000E00124521C022A41
:10520000E8D3022A01D079B904E05CB9022909D0B7
:105210001220F0BD02EB420003EB80004089B0F5A4
:10522000807F01D00020F0BD1020F0BD502500206F
:1052300030B50021064A0C4601EB410352F82350D9
:10524000854201D142F82340491C0229F4D330BDE4
:1052500050250020426A0068090B00F580508078D4
:10526000B1FBF0F0121D02CA19B1884203D3401AF3
:10527000F8E70020704711680844704700F5805037
:10528000891E4269921E8A4201D800207047826AB4
:10529000807801FB002070472DE9F04180460F0027
:1052A00000F5805407D0404601F00CF9022809D2DD
:1052B0000120BDE8F081E66816B16069B04207D808
:1052C000012605E0411CF4D061698142F1D83E46D7
:1052D000354660696D1CA84202D80225022E0AD309
:1052E0002946404601F0EEF838B1411CE1D00128D2
:1052F000DFD0B542EDD10020DBE76FF070422946E8
:10530000404601F017FA30B957B12A4639464046AF
:1053100001F010FA20B101280DD001252846C8E778
:10532000E5602069411CF9D0401E2061607940F0A1
:1053300001006071F2E74FF0FF35EFE72DE9F0472C
:1053400089460D6800E06D1C29782F29FBD05C2967
:10535000F9D084690B222021204601F0C8F90020F1
:1053600001460B460826EA5C5B1C202A49D92F2AF5
:1053700047D05C2A45D02E2A01D0B14208D3082E4E
:105380004CD12E2A4AD108210B268006000EEAE7CE
:10539000802A01D340F00300A2F181077D2F13D8AA
:1053A000EF5C5B1CA7F1400CBCF13F0F04D3A7F1ED
:1053B000800CBCF17F0F31D2A6F1010C61452DD2DA
:1053C0006254491C67541AE020A700E07F1C97F83C
:1053D00000C0BCF1000F02D09445F7D11EE0A2F14D
:1053E0004107192F02D840F0020007E0A2F161073F
:1053F000192F03D8203A40F00100D2B26254491C60
:10540000B1E71D44C9F80050202A01D8042200E069
:10541000002219B12178E52903D004E00620BDE877
:10542000F08705212170082E01D18006000E00F0C2
:105430000301012901D142F01002C0F381000128CB
:1054400001D142F00802E2720020E8E7222A2B2C68
:105450003A3B3C3D3E3F5B5D7C7F0000401E0228A6
:1054600015D20C4B00EB400203EB82014889B0F5EA
:10547000807F05D008B1401E80B2488110B104E0A1
:105480000020FAE7002043F82200002070470220A5
:1054900070470000502500202DE9F041C6880446E1
:1054A000761C30040F46000C33D0206980B371069F
:1054B00069D1401C2061E168206839B141F20202E3
:1054C000125C521E12EAD61F06D05CE000F5805036
:1054D0000089B0421DD956E000F0F4FF05460128CE
:1054E0001CD9681C34D0206841F214010958A94223
:1054F00043D86FB1E168FFF7CFFE05000CD0012D56
:105500000CD0681C24D0206801F01CFA00BB07E016
:10551000FFE70420BDE8F0810720FBE70220F9E760
:105520004FF480520021206801F0E1F829462068FC
:10553000FFF7A4FE2168002701F580514FF0010814
:10554000C8620EE080F80480206801F0FBF908B121
:105550000120DFE7206800F58050C16A491C7F1CEC
:10556000C162206800F580508178B942EAD821688C
:1055700001F58051C96AC91BC162E56029462068EE
:10558000FFF77CFE2061E680206806F07F0100EBDB
:10559000411060610020BDE770B50446002100F0B5
:1055A0002FF80DE02169206801F0A8F850B9606972
:1055B0000078E52809D040B101212046FFF76CFFB3
:1055C0000028EFD0042807D007E02169206801F007
:1055D00095F8050003D011E0072005460EE02022D3
:1055E0000021606901F083F8D4E905010B2201F084
:1055F00075F82068012100F580500171284670BDC2
:1056000070B5C18083680D460446012B37D02068F1
:1056100000F580504169994231D923B901780329B5
:1056200004D1436A13B18078C60113E00189A9420D
:1056300025D9406A14E000BF00F044FF0346401C37
:105640001BD0022B1BD3206800F580504069984284
:1056500015D9AD1B2068B5421946EDD2FFF70EFEF5
:10566000E36060B100EBD5102061206805F07F0198
:1056700000EB41106061002070BD012070BD022070
:1056800070BD0000084910B50B5C002253B901221F
:105690000A540A1801EB8000127B4068016810462A
:1056A00088470246104610BD6825002030B4054CDE
:1056B000231804EB80001B7B406804691846A4464D
:1056C00030BC60476825002030B4054D2C1805EB30
:1056D0008000247B406885682046AC4630BC60472B
:1056E00068250020044A111802EB8000097B4068FD
:1056F00042680846104700006825002030B4054D78
:105700002C1805EB8000247B4068C5682046AC4619
:1057100030BC60476825002010B5044600F048FC06
:1057200000280BD1204601F036F9002806D1A06AE6
:10573000FFF794FE002801D10021216010BD000078
:105740002DE9F74F8EB015460F98012803D9132085
:1057500011B0BDE8F08F0EA800F014FF002801DAA8
:105760000B20F5E7FE4951F820405CB14FF4805220
:1057700000211155C0B20390FFF784FFC10703D089
:105780000320E5E70C20E3E7400701D50A20DFE727
:1057900008AA01210398FFF789FF00287ED1089904
:1057A00080297BD30F9808B1002000E03F2080467D
:1057B000A1EB0801681E0542089100D175B9FA20D5
:1057C000B1FBF0F20020E74B00E0401C33F8105032
:1057D0009542FAD8E34A163232F81050B5F5805F98
:1057E00000D32D0B85B1802D00D98025B1FBF5F0BC
:1057F000012640F6F672904200D302264FF6F6726A
:10580000904203D3032620E00125EFE7032E1CD0AE
:10581000012E23D04000001D00F6FF70070B4FF053
:1058200001090420834608EB090A0AEB07005844E3
:1058300042190090A2EB0800884247D809AA032128
:105840000398FFF733FFA0B90EE041F2070202EB25
:105850008000070B4FF020090020E3E700EB400039
:10586000401C4008C01CD7E7099810B1B0F5004FA4
:1058700001D901200990099900980844401E491E49
:1058800088430099401A0990032E12D007440898C3
:10589000A0EB0901CA1BA2EB0B0100E0DBE0B1FBAE
:1058A000F5F10D91022E07D0032E0AD0012E15D04E
:1058B00019E081448244EAE740F6F672914205D34A
:1058C00011E008464FF6F671884201D20E203FE7FC
:1058D0000C2002900F9868B1F02045E0B0F5803FB1
:1058E00006D20120F5E7B0F5803F01D20420F0E7B1
:1058F0000620EEE74FF480520021204600F0F7FE2C
:1059000004F5DF700121417081700021C170029A9D
:105910000271FE224271089B08EB030243F6C16349
:10592000B2FBF3F23F2343EA920C099280F806C0DF
:10593000C271037241728172C172089901730A0ABD
:1059400042730A0C8273090EC173552084F8FE015C
:10595000AA2084F8FF010123002221460398FFF7C3
:10596000CDFE002877D1F82002904FF4805200211C
:10597000204600F0BCFE0B227BA1204600F0AEFECC
:105980000021E17210202073657384F80E904FEAB5
:105990001920E07301202074032E0BD040026074A4
:1059A000000AA0740898B0F5803F05D2E074000AA0
:1059B00020750CE00020F2E784F82000020A84F849
:1059C0002120020C84F82220000E84F82300029883
:1059D00060753F202076002060764FF0FF0984F844
:1059E0001A90E07684F81C804FEA182060774FEA1E
:1059F0001840A0774FEA1860E07700F0C1FD8021E1
:105A000029220990032E27D084F82700030A84F85E
:105A10002830030C84F82930000E84F82A00A7757A
:105A2000380AE07584F8241084F82620132251A146
:105A300004F12B0000F052FE552084F8FE01AA204C
:105A400084F8FF010123424621460398FFF756FEE2
:105A5000002800D133E0BDE084F84300030A84F855
:105A60004430030C84F84530000E84F8460084F876
:105A70002470380A84F82500380C84F82600380E83
:105A800084F82700022084F82C00002084F82D00E0
:105A900084F82E0084F82F00012384F8303084F835
:105AA0003100062384F8323084F8330084F8401043
:105AB00084F84220132234A104F14700BAE7032EF0
:105AC00006D1012308F1060221460398FFF716FECE
:105AD0004FF480520021204600F009FE0298099000
