:020000040800F2
:10000000C85100209D0100088B290008E526000842
:1000100089290008FF020008554C00080000000074
:10002000000000000000000000000000B52C0008E7
:100030008103000800000000072B0008C12C000805
:10004000B7010008B7010008B7010008B7010008B0
:10005000B7010008B7010008B7010008B7010008A0
:10006000B701000883030008B7010008B7010008C2
:10007000B7010008B7010008B7010008B701000880
:10008000B7010008B7010008B7010008B701000870
:10009000B7010008B7010008B7010008B701000860
:1000A000B7010008B7010008B7010008B701000850
:1000B000B7010008B7010008B7010008B701000840
:1000C000B7010008B7010008B7010008B701000830
:1000D000B701000809300008B7010008B70100089F
:1000E000B7010008B7010008B7010008B701000810
:1000F000B7010008B7010008B7010008B701000800
:10010000B7010008B7010008B7010008B7010008EF
:10011000B7010008B7010008B7010008B7010008DF
:10012000B7010008B7010008B7010008B7010008CF
:10013000B7010008B7010008B7010008B7010008BF
:10014000B7010008B7010008B70100088D290008B1
:10015000B7010008B7010008B7010008B70100089F
:10016000B7010008B7010008B7010008B70100088F
:10017000B7010008B7010008B7010008000000003F
:10018000B7010008B7010008DFF80CD000F07AF8DA
:100190000048004735510008C851002006488047F4
:1001A00006480047FEE7FEE7FEE7FEE7FEE7FEE75C
:1001B000FEE7FEE7FEE7FEE7592D0008890100088B
:1001C0002DE9F05F0546002092469B46884606468C
:1001D000814640241BE0284641464746224600F01F
:1001E00041F853465A46C01A914110D31146184659
:1001F000224600F028F82D1A67EB01084F462246E8
:100200000120002100F01FF817EB00094E41201ECD
:10021000A4F10104DFDC484631462A464346BDE8E6
:10022000F09FD2B201E000F8012B491EFBD27047CB
:100230000022F6E710B513460A4604461946FFF7B2
:10024000F0FF204610BD202A04DB203A00FA02F11C
:10025000002070479140C2F1200320FA03F31943B4
:1002600090407047202A04DB203A21FA02F0002156
:10027000704721FA02F3D040C2F1200291400843B6
:1002800019467047064C074D06E0E06840F0010350
:1002900094E8070098471034AC42F6D3FFF778FF94
:1002A000F05100081052000870B58C1810F8015B6E
:1002B00015F0070301D110F8013B2A1106D110F8FF
:1002C000012B03E010F8016B01F8016B5B1EF9D103
:1002D0002B0705D40023521E0DD401F8013BFAE789
:1002E00010F8013BCB1A921C03E013F8015B01F8F4
:1002F000015B521EF9D5A142D8D3002070BDFEE7A4
:10030000002070470020704710B5002204490548BE
:1003100003F094F80449034803F083F8002010BD6B
:10032000C0320020E4250020C02A002010B5044679
:10033000088881B2204600F00DF82146034803F0FA
:1003400070F8024803F046F8002010BDE4250020B4
:1003500000207047094A10B5D2F8BC22D2F8142206
:100360000AB1012010BD0A460146044803F066F8B0
:10037000BDE81040014803F0DBB80000E425002090
:100380007047082000F0EAB972B6FEE7002200F0DC
:1003900001B8000030B50E4B054601205C7A002CF8
:1003A00014D1587A1C54587A03EB800045605D7A6A
:1003B00003F108002A54587A421C5A7230300870EF
:1003C0003A2048702F208870CC70002030BD00008B
:1003D000D82500202DE9F04706460F4610F0FF0013
:1003E000C0F10001CDB24FEA122402F0FF094FF430
:1003F000807A13D0F0B24042C0B206EB000804B3DA
:10040000501B80B2040A00F0FF092A4639463046E4
:1004100000F03EF83D444646574629E06CB155464B
:10042000641EE4B20BD32A463946304600F030F859
:1004300006F5807607F58077F2E7394620E04A46F0
:10044000FBE7A945F9D9A9EB0500C4B22A4639460C
:10045000304600F01DF840467919224611E03A4630
:100460002946304600F014F805F5807506F58076CB
:10047000641EE4B2F3D2B9F1000006D00246294668
:100480003046BDE8F04700F003B8BDE8F087000053
:10049000F8B514000D4608D04FF480739C4204D880
:1004A000C1B254FA80F29A4201D90120F8BD15A2D6
:1004B00012680092020C8DF80120000A8DF80200EB
:1004C0008DF8031000F0AEF80F4E002202213046E6
:1004D00000F050FA0421684602F084FB20B921465E
:1004E000284602F07FFB28B101220221304600F0AD
:1004F00041FADAE701220221304600F03BFA00F02F
:100500007DF8F8BD0200000000000240F8B50D467D
:1005100014A1154E09680091010C8DF80110010A13
:100520008DF8021014468DF8030000220221304697
:1005300000F020FA0421684602F054FB30B1012299
:100540000221304600F016FA0120F8BD2146284667
:1005500002F03EFB044601220221304600F00AFA76
:100560002046F8BD03000000000002401CB5052035
:100570000B4C8DF8000000220221204600F0FAF911
:100580000121684602F02EFB012101A802F020FBA8
:1005900001220221204600F0EDF99DF804001CBD67
:1005A0000000024038B513A109680091010C8DF8D4
:1005B0000110010A8DF802108DF8030000F032F8E6
:1005C0000D4C00220221204600F0D4F90421684697
:1005D00002F008FB00284FF001024FF00201204614
:1005E00003D000F0C7F9012038BD00F0C3F900F0D6
:1005F00005F838BD200000000000024070B500F092
:10060000BFF9044641F2883507E000BF00F0B8F9B1
:10061000001BA84201D9032070BDFFF7A7FFC00748
:10062000F4D170BD38B50620084C8DF800000022CA
:100630000221204600F09EF90121684602F0D2FA1C
:1006400001220221204600F095F938BD0000024049
:100650002DE9F0410446876D00F092F9064694F8C2
:1006600035000025022806D08020606584F83450CB
:100670000120BDE8F0812068016821F016010160C9
:100680002068416921F080014161206C08B9A06CAB
:1006900020B12068016821F008010160206801682C
:1006A00021F0010101600CE000F06AF9801B0528CF
:1006B00007D920206065032084F8350084F8345081
:1006C000D7E720680068C007EED194F85C103F209F
:1006D0008840B860012084F8350084F83450002048
:1006E000C7E790F83510022903D080214165012029
:1006F0007047052180F835100068016821F001017C
:10070000016000207047000070B5044600F038F921
:100710000546601C02D004480078044400F030F91B
:10072000401BA042FAD370BD3000002010B510214C
:10073000034800F017F9BDE8104002A004F08CBA9D
:10074000000402404B32204578546920696E74657C
:100750007272707574210D0A00000000044910B512
:100760000A68024202D00860FFF7E0FF10BD0000F7
:10077000143C01402DE9F84FDFF8BCA1002201250F
:1007800003264FF00F090AF1040BAAF1040E00BF73
:100790000B6805FA02F42340A34270D10F7907F0E9
:1007A0000307012F01D0022F16D187684FEA4208B4
:1007B00006FA08FC27EA0C07D1F80CC00CFA08FC72
:1007C0004CEA070CC0F808C04768A7430C79C4F38B
:1007D000001494403C4344600C79E443A4070AD0DD
:1007E000C4684FEA420C06FA0CF7BC438F6807FA5C
:1007F0000CF72743C7600C7904F00304022C12D1D4
:10080000D40800EB840CDCF820405707FF0E09FAEF
:1008100007F824EA0804D1F8108008FA07F848EA33
:100820000408CCF8208004684FEA420C06FA0CF762
:10083000BC430F7907F0030707FA0CF7274307605B
:100840004C6814F4403F70D03C4C276847F4804714
:100850002760246822F0030704F480440094384C95
:1008600007EB040CDCF8084897074FEA177809FAF9
:1008700008F7BC43334FB84202D1002724E054E0CC
:10088000314FB84201D101271EE0304FB84201D1AB
:10089000022719E02E4FB84201D1032714E02D4F53
:1008A000B84201D104270FE02B4FB84201D10527F0
:1008B0000AE02A4FB84201D1062705E0284FB84286
:1008C00001D1072700E0082707FA08F72743CCF8EB
:1008D0000878DAF800405746D1F804C09C435FEA34
:1008E000CC2C00D51C433C60DBF800405F46D1F8BF
:1008F00004C09C435FEA8C2C00D51C433C60DEF8AE
:1009000000407746D1F804C09C435FEA8C3C00D598
:100910001C433C60084F083F3C68D1F804C09C432E
:100920005FEACC3C00D51C433C60521C102AFFF40B
:100930002FAFBDE8F88F0000083C0140443802406A
:100940000030014000000240000402400008024064
:10095000000C024000100240001402400018024047
:10096000001C0240426921EA02030A4043EA0241B4
:10097000816170470AB1816170470904FBE700009B
:1009800001488068704700003000002070B5040006
:1009900025D094F83D00002520B984F83C5020462D
:1009A00000F0B8F8242084F83D002068016821F0A8
:1009B000010101602068016841F400410160206884
:1009C000016821F40041016000F02EFF4D4A61688A
:1009D000914201D84C4900E04C49884201D20120A3
:1009E00070BD4B492368B0FBF1F15E6826F03F060D
:1009F0000E435E606368934206D94FF49673594381
:100A00004FF47A73B1FBF3F12368491C1E6A26F098
:100A10003F06314319626168914210D84900401E77
:100A2000B0FBF1F2521CC2F30B02042A01D20420E3
:100A300022E0B0FBF1F0401CC0F30B001CE0A26808
:100A4000F2B301EBC10303EB0116431EB3FBF6F354
:100A50005B1C43F480431B0549D092B301EBC102F8
:100A600002EB0111401EB0FBF1F0401CC0F30B0083
:100A700040F4804040F400402168CA694CF6FF739E
:100A80009A431043C861D4E9071001432068026803
:100A900022F0C00211430160D4E903010143206840
:100AA000826848F2FF339A4311438160D4E905011B
:100AB00008432168CA6822F0FF021043C86001E0C1
:100AC0000EE016E02068016841F001010160256434
:100AD000202084F83D00256384F83E50002070BD3E
:100AE00001EB4106431EB3FBF6F35B1CB3E70120A9
:100AF000C2E701EB4101401EB0FBF1F0401CC0F326
:100B00000B00B7E7A086010080841E0000093D00AD
:100B100040420F0010B586B0044614216846FFF726
:100B200087FB13492068884220D1124800210268BF
:100B300042F002020260006800F002000590C0204E
:100B400000901220CDE901010320039004200490BD
:100B500069460948FFF70EFE06481030016841F467
:100B600000110160006800F40010059006B010BD8F
:100B700000540040303802400004024002488168BE
:100B80000278114481607047300000200B4810B596
:100B9000016841F400710160016841F48061016005
:100BA000016841F480710160032000F06FF80F20AC
:100BB00000F006F800F024F8002010BD003C0240D0
:100BC00070B50D4D04464FF47A712878B1FBF0F002
:100BD0000A490968B1FBF0F001F013FB48B9102C89
:100BE00007D200222146501E00F030F800206C6031
:100BF00070BD012070BD0000300000203C000020CE
:100C00000A4808B5016841F480410160006800F4B9
:100C1000804000900548001F016841F0805101604C
:100C2000006800F08050009008BD00004438024089
:100C3000002809DB00F01F020121914040098000DB
:100C400000F1E020C0F8001170470000F0B40E4B36
:100C50001B680C46C3F30223C3F10705042D00D91A
:100C60000425191D072901D2002300E0DB1E0126FF
:100C700006FA05F1491E214099409E40761E164015
:100C80003143F0BC03F0F8BF0CED00E0064900F082
:100C9000070208684FF6FF03184040EA0220034AA3
:100CA00010430860704700000CED00E00000FA05FA
:100CB00070470068416200207047F0B50368586AC9
:100CC00039B19C6A4FF4827600EB144400204D1E2B
:100CD0000AE040EA024098620FE006EB8007DF5925
:100CE000401C04EB1744C0B2A842F6D344EA0240C9
:100CF0004FF4807202EB810158500020F0BDD0F813
:100D0000E00402F0AEBE01EBC10200EB8202D0F8BB
:100D1000E004126A02F0FFBD01EBC10200EB8202A7
:100D2000D0F8E004D2F8602202F051BED0F8E0041E
:100D300002F099BE0A0601F00F0101EBC10100EBC0
:100D4000810101D5143101E001F51571006803F04E
:100D50007FBD70B504460B0601F00F0000EBC0012B
:100D600004EB81014FF001024FF0000502D54A75F6
:100D7000143103E081F8555201F51571087094F8AB
:100D80009404012808D084F89424206803F07AFAA7
:100D900084F89454002070BD022070BD70B50446E4
:100DA00001F00F002279904201D9012070BD0B069D
:100DB00001F00F0101EBC10104EB81014FF00102D1
:100DC0004FF0000502D54A75143103E081F8555201
:100DD00001F515718D70087094F89404012808D0FD
:100DE00084F89424206803F0BFFB84F89454002016
:100DF00070BD022070BD01F00F0101EBC10100EBDD
:100E00008100D0F8680270472DE9F04104460F06D2
:100E100001F00F0000EBC00104EB81014FF001066F
:100E20004FF0000502D54E75143103E081F855529C
:100E300001F51571C2F30A0208708A600B714A78D5
:100E400002B14883022B00D14D7194F8940401281B
:100E500009D084F89464206803F062F9284684F885
:100E60009454BDE8F0810220FBE710B501F00F04B7
:100E700004EBC40100EB8101C1E998230023C1F810
:100E8000683281F8553281F85442837901F5157141
:100E9000012B00D1CA618279006803F0BDFB0020FC
:100EA00010BD70B504460D4601F00F00217988424F
:100EB00001D9012070BD29064FF000064FF0010254
:100EC00006D500EBC00104EB81014A75143107E03F
:100ED00005EBC50104EB810181F8556201F515713F
:100EE0008A70087094F89404012807D084F8942438
:100EF000206803F065FB280702D007E0022070BDE0
:100F0000A17904F29C42206803F002FB84F8946407
:100F1000002070BD10B501F00F0404EBC40100EB1C
:100F20008101C1E9082300238B6201234B7501F87D
:100F3000144F8379012B00D1CA618279006803F0D4
:100F40006BFB002010BD00002DE9FC5F0568044626
:100F5000284603F019FD00287DD1206803F040FDEC
:100F6000002878D0D5F80808C0F30D20C4F8D404C0
:100F7000206803F035FD800704D52068416901F041
:100F800002014161206803F02BFDC10604F29C4080
:100F9000009034D52068816921F0100181612F6AA9
:100FA00007F00F0000EBC00004EB8006C7F34340DE
:100FB00006F51576022802D0062811D01AE047F669
:100FC000F070074216D0C7F30A1217462846F16898
:100FD00003F00AFDF0683844F0607069384408E0B6
:100FE00008222846009903F0FFFC7069C7F30A1134
:100FF000084470612068816941F0100181612068B6
:1010000003F0EEFC00034FF0080B4FF0000A4FF026
:1010100001097CD50026206803F0C1FC074674E076
:10102000F80770D0F1B2206803F0D2FC8046C00708
:1010300007D005EB4611C1F8089B3146204601F068
:10104000ABFC5FEA087024D505EB4611C1F808BB7C
:101050002068016C00E023E200EB46100191D0F81B
:10106000082BFB4B994205D9110403D54FF40041DD
:10107000C0F8081B204600F0F6FAF54901988842AE
:1010800007D9A079012804D120680121009A03F032
:101090003FFA5FEAC86004D505EB46111020C1F89D
:1010A000080B5FEA88701DD56869000605D5D5F87C
:1010B000040840F48061C5F8041806EBC60004EB90
:1010C000800090F8571200F51570012905D180F8BD
:1010D00003A0F1B2204600F0E9F905EB4611022029
:1010E000C1F8080B5FEA886004D505EB46102021A3
:1010F000C0F8081B5FEA884005D505EB46104FF4A1
:101100000051C0F8081B7F08761C002F88D120688A
:1011100003F066FC40036ED5206803F039FC0746F7
:10112000002666E0F80762D0F1B2206803F03EFCCA
:101130008046C00723D006F00F01D5F8342809FAFD
:1011400001F18A43C5F8342805EB4611C1F8089926
:10115000A07901280FD106EBC60004EB8000D0E98E
:1011600007211144016236B9606A20B92068012163
:10117000009A03F0CDF9F1B22046FFF7C4FD5FEA13
:10118000087003D505EB4611C1F808B95FEAC860DD
:1011900004D505EB46111020C1F808095FEA486044
:1011A00004D505EB46104021C0F808195FEA8870A5
:1011B00016D53146284603F0BCFB06EBC60004EB0F
:1011C0008000C17D1430012905D180F803A0F1B25F
:1011D000204600F067F905EB46110220C1F8080926
:1011E0005FEA086003D53146204601F03BFC7F08EA
:1011F000761C002F96D1206803F0F2FB002811DA4C
:10120000D5F8040820F00101C5F8041894F8CC04BE
:1012100001282BD0204600F00BFA2068416901F02C
:1012200000414161206803F0DBFB00050BD5D5F8D8
:101230000808C00702D0204600F03EFA2068416945
:1012400001F400614161206803F0CAFBC00467D566
:10125000D5F8040820F00100C5F804081021206822
:1012600003F067FB00214FF67F3220E084F8CCA426
:1012700000212046FFF71CFDCFE700BF05EB411022
:10128000C0F80829D0F8003923F40013C0F8003959
:10129000C0F8082BD0F8003B23F40013C0F8003B43
:1012A000D0F8003B43F00063C0F8003B491C2079B4
:1012B0008842E3D8D5F81C0840F00111C5F81C1885
:1012C000E07B002828460DD0D0F8840840F00B01C0
:1012D000C5F88418D5F8440840F00B012846C5F835
:1012E00044180DE0D0F8140842F22B010843C5F869
:1012F0001408D5F8100840F00B012846C5F810185E
:10130000D0F8000820F4FE61C5F80018A179206823
:10131000009A03F0FDF82068416901F480514161B1
:10132000206803F05DFB800415D5206802F038FFCB
:10133000206803F01CFBE07100F070FA0146E279CE
:10134000206803F0AFFB204600F05CF9206841699B
:1013500001F400514161206803F042FB000707D50A
:10136000204600F069F92068416901F008014161F7
:10137000206803F035FB000616D5A86920F080012F
:10138000A96101260DE000BF06EBC60004EB80005A
:1013900090F85702012803D1F1B22046FFF7CAFCAA
:1013A000761C2079B042EFD8206803F019FBC00208
:1013B0001FD501264F4614E005EB4610D0F8000972
:1013C00006EBC60104EB81010A7E012A08D1002840
:1013D00006DACF75F0B240F080012046FFF7AAFC94
:1013E000761C2079B042E7D82068416901F4801169
:1013F0004161206803F0F4FA800234D501204A46A6
:1014000029E000BF05EB4011D1F8001B00EBC00341
:1014100004EB830393F85862012E1BD1002919DADB
:1014200094F8D464C1F3004106F001068E4211D154
:1014300083F85722A96941F08003AB616969090605
:1014400008D4D5F8040840F40070C5F8040805E095
:101450000A30544F401C21798142D3D82068416919
:1014600001F400114161206803F0BAFA400007D589
:101470002046FFF744FC2068416901F0804141614A
:10148000206803F0ADFA40070AD520684568680770
:1014900002D52046FFF74AFC206841682943416095
:1014A000BDE8FC9FD0F8E00402F02FBBD0F8E004C8
:1014B00002F03FBBF8B5040005D094F89504266807
:1014C000002510B106E00120F8BD84F894542046B0
:1014D00000F056F8032084F89504B6F1A04F00D12F
:1014E000A571206803F00EF8207C8DF8000094E8C8
:1014F0000F0002F063FE0226B8BB0021206803F053
:1015000092FA90BB002001270DE000BF00EBC00164
:1015100004EB81014F750875C8850D76CD610D62AC
:10152000401CC0B24D6221798142EFD8002011E009
:1015300000EBC00104EB810181F8555281F854029F
:1015400081F85852C1F85C52C1F86052401CC0B2D8
:10155000C1F8645221798142EAD8207C8DF80000DC
:1015600094E80F0002F010FF10B184F89564AAE728
:10157000657484F89574206802F0F8FE0020F8BDC8
:1015800010B586B0044614216846FEF751FE206867
:10159000B0F1A04F2FD119480021026842F001029A
:1015A0000260006800F0010005904FF4C050009008
:1015B0000220CDE90101032003900A20049069462E
:1015C0000F48FFF7D7F80D48001D016841F0800172
:1015D00001600A481430016841F4804101600068EC
:1015E000002200F48040059011464320FFF72EFBB7
:1015F0004320FFF71DFB06B010BD0000303802404D
:101600000000024070B50446C079012570B102287F
:1016100001D0FEF7B9FE2946D4F8E00402F0F8FA4A
:10162000D4F8E004BDE8704002F0ACBA0025F2E75F
:10163000D0F8E00402F0D5BAD0F8E00402F0DBBA4A
:1016400010B5044690F8940401280AD0012084F8CB
:1016500094046174206803F014FA002084F8940460
:1016600010BD022010BDD0F8E02400F29C411046CD
:1016700002F0DABA10B50446006894F8941401290F
:1016800009D0012184F89414C168490609D5617B09
:10169000012902D005E0022010BD816B41F48031A8
:1016A0008163206803F023F9206802F051FE0020D6
:1016B00084F8940410BD000010B50446D0F8E0048E
:1016C00002F0F4FA2068D0F8001E41F00101C0F8E1
:1016D000001EE07A002804D00248016841F00601AB
:1016E000016010BD10ED00E02DE9F0470E46050049
:1016F00065D0DFF81481D8F80000F7B200F00700D9
:10170000B04207D288F80070D8F8000000F0070057
:10171000B04254D128683D4C810712D5400703D50B
:10172000206840F4E05020602878000703D5206846
:1017300040F4604020602068A96820F0F000084371
:1017400020602878C0072DD0304968680839012802
:1017500012D0022813D0032811D009688907002964
:101760002DDA216821F0030101432160FFF708F918
:10177000814641F2883A0EE009688903EFE709687B
:101780008901ECE7FFF7FCF8A0EB0901514502D90C
:101790000320BDE8F0872068696800F00C00B0EB1A
:1017A000810FEFD1D8F80010404601F00701B14297
:1017B00007D90770006800F00700B04201D001208F
:1017C000E7E72878400705D52068E96820F4E0506D
:1017D000084320602878000706D52068296920F48E
:1017E000604040EAC100206000F03EF82168084AED
:1017F000C1F30311515CC8400649086006480068FF
:10180000FFF7DEF90020C4E7003C02400838024040
:10181000D85100083C000020340000200148006836
:10182000704700003C000020044805490068096832
:10183000044AC1F38221515CC84070473C0000203B
:1018400008380240E8510008044805490068096862
:10185000044AC1F34231515CC84070473C0000204B
:1018600008380240E8510008154810B5006810F02B
:101870000C02144813D04110042A0FD0082A0ED1AC
:101880000F4C241F2268236802F03F025B0207D539
:101890002068C0F38810A0FB010106E0084610BDD7
:1018A0002168C1F38811A1FB00010023FEF788FC29
:1018B0002168C1F30141491C4900B0FBF1F010BDA2
:1018C000083802400024F4002DE9F84F04006ED0DF
:1018D0002078DFF84C93C007A9F104054AD009F13C
:1018E00004000168C1F38101012908D00068C0F338
:1018F000810002280AD1D9F80000400206D52868E4
:10190000800337D560680028E1D033E06068B0F527
:10191000803F10D0B0F5A02F286810D020F4803080
:101920002860286820F4802028606068A8B1FFF74C
:1019300027F806460DE0286840F48030F4E740F4CC
:1019400080202860F7E700BFFFF71AF8801B6428A3
:1019500073D828688003F7D50CE0FFF711F8064626
:1019600005E000BFFFF70CF8801B6428F0D828685A
:101970008003F7D42078DFF8AC8280074FF0000AAC
:101980003ED5A748001D016811F00C0F08D0006873
:10199000C0F3810002280BD1D9F80000400207D41F
:1019A0002868800716D5E068012800D112E033E1ED
:1019B000E068B8B10120C8F80000FEF7E1FF064674
:1019C00005E000BFFEF7DCFF801B0228C0D82868B6
:1019D0008007F7D52868216920F0F80040EAC100A7
:1019E00028600DE0C8F800A0FEF7CAFF064604E034
:1019F000FEF7C6FF801B02281FD828688007F7D48F
:101A00002078000722D5864F87486169703771B109
:101A100001210160FEF7B4FF064604E0FEF7B0FFC7
:101A2000801B022809D838688007F7D50EE0C0F877
:101A300000A0FEF7A5FF064605E082E0FEF7A0FF46
:101A4000801B02287DD838688007F7D420784007AB
:101A500068D5DFF8CCB100270BF13C0BDBF80000B8
:101A6000C0000BD4DBF8001041F08051CBF800101F
:101A7000DBF80000012700F0805000906B4E3068CA
:101A8000C00510D4306840F480703060FEF778FFF5
:101A9000009005E0FEF774FF0099401A022850D824
:101AA0003068C005F6D55E4EA0686C3601280FD0B0
:101AB0000528306810D020F001003060306820F038
:101AC00004003060A068B8B1FEF75AFF00900FE044
:101AD000306840F00100F4E740F004003060F7E7C0
:101AE000FEF74EFF0099411A41F28830814266D8D4
:101AF00030688007F4D50EE0FEF742FF009007E063
:101B0000FEF73EFF0099411A41F28830814256D8D3
:101B100030688007F4D42FB1DBF8001021F0805139
:101B2000CBF80010A069C8B33D49091D0968C1F38D
:101B3000810102294AD00228504607D0C8F8600027
:101B400000E03CE0FEF71CFF04463BE04746C8F8D7
:101B50006000FEF715FF064605E000BFFEF710FF28
:101B6000801B02282BD828688001F7D4D4E907010C
:101B70000843A16A2E4A490802EB0141626A41EA20
:101B80008211084394F82C1040EA0161C9F8001052
:101B900001203866FEF7F4FE044606E03EE000BF92
:101BA000FEF7EEFE001B022809D828688001F7D551
:101BB00034E000BFFEF7E4FE001B022802D9032038
:101BC000BDE8F88F28688001F4D427E00128F7D019
:101BD000D9F80000E26900F4800191421CD1226A28
:101BE00000F03F01914217D147F6C071626A01408F
:101BF000B1EB821F10D1A26A4FF0FF3300F44031E5
:101C000003EB5202B1EB024F06D194F82C1000F016
:101C10007060B0EB016F01D00120D1E70020CFE769
:101C20000438024000004742800E474200700040E6
:101C30000000FFFF70B5040009D0606A002540B1C4
:101C400025616561A56294F8510040B10CE0012066
:101C500070BD6068B0F5827FF4D0E561F2E784F88A
:101C60005050204600F044F8022084F851002068CB
:101C7000016821F040010160A088218900F4827090
:101C800001F404410843A18901F400610843217C67
:101C900001F002010843217D01F001010843218B7D
:101CA00001F400710843217F01F03801084394F8E2
:101CB000201001F080010843218D01F400510843F8
:101CC00021680860A069042101EA104094F82410FA
:101CD00001F010010843216848602068C16921F4BF
:101CE0000061C1616565012084F85100002070BD6C
:101CF00010B586B0044614216846FEF799FA1349D8
:101D00002068884220D112480021026842F48052A3
:101D10000260006800F4805005900D481438026895
:101D200042F001020260006800F001000590E0202E
:101D300000900220CDE901010320039005200490CA
:101D400069460448FEF716FD06B010BD003001409C
:101D500044380240000002402DE9F84F044690F854
:101D600051001D4616460F46012838D1002F77D066
:101D7000002E75D060684FF00408B0F5827F01D165
:101D8000A06810B3FEF7FCFD824694F850000128CD
:101D900025D04FF0010984F8509084F851804FF01D
:101DA0000008C4F85480A763A687E687C4F830808B
:101DB000A4F83480A4F83680C4F84080C4F8448085
:101DC000A068B0F5004F0CD015E084F85180009366
:101DD00013460A46204600F01CF9BDE8F88F0220A1
:101DE000FBE72068016821F040010160206801687C
:101DF00021F48041016020680168490603D401682C
:101E000041F040010160E068C0B134E020688168C1
:101E1000C90709D0007BA16B0870A06B401CA063B0
:101E2000E08F401EE08709E0FEF7AAFDA0EB0A0064
:101E3000A84202D3681C01D032E085B3E08F0028AD
:101E4000E4D11BE020688168C9070AD0C068A16B93
:101E50000880A06B801CA063E08F401EE0870AE032
:101E60001BE0FEF78DFDA0EB0A00A84202D3681C20
:101E700001D015E09DB1E08F0028E3D152462946FC
:101E8000204600F041FE08B12020606584F85190A2
:101E900084F85080606D00289FD001209DE7FFE707
:101EA00084F8519084F85080032096E72DE9F84F8C
:101EB000984616468A460446FEF762FD814694F827
:101EC000510001281ED1BAF1000F73D0002E71D03D
:101ED00094F85000012815D0012784F85070032091
:101EE00084F8510000256565C4F830A0A686E68612
:101EF000A563A587E58765642564A068B0F5004FF4
:101F000003D00CE00220BDE8F88F2068016821F0C2
:101F1000400101602068016841F48041016020684F
:101F20000168490603D4016841F040010160E0689E
:101F3000B0F5006F606803D048B3012E27D047E0AA
:101F400008B1012E1FD1206B21680088C86006E00F
:101F500020688168890709D5216B0988C160206BD9
:101F6000801C2063E08E401EE0860CE0FEF708FD3A
:101F7000A0EB0901414503D3B8F1FF3F03D035E0A1
:101F8000B8F1000F32D0E08E0028E1D123E0206BC1
:101F900021680078087306E02068816889070AD5FF
:101FA000216B09780173206B401C2063E08E401E7A
:101FB000E0860DE02BE0FEF7E3FCA0EB09014145D4
:101FC00003D3B8F1FF3F03D010E0B8F1000F0DD0FC
:101FD000E08E0028E0D14A464146204600F0C2FD8E
:101FE00008B120206065A06830B109E084F8517024
:101FF00084F85050032086E72068C168806800900C
:1020000084F8517004F8505F60680028F3D0012014
:1020100079E72DE9FF4F81B01D46934604464FF006
:1020200001090E9EFEF7ACFC074694F8510061686A
:10203000012806D0B1F5827F3CD1A168C9BB042834
:1020400038D10298002871D0BBF1000FFBD0002DD1
:10205000F9D094F8500001282CD04FF0010A84F8F0
:1020600050A094F85100042802D0052084F85100B3
:102070004FF00008C4F85480C4F838B0E587A5874D
:1020800002992163E586A586C4F84080C4F844809F
:1020900020680168490603D4016841F040010160ED
:1020A000E068B0F5006F606808D0F0B3012D49D04A
:1020B00081E0FFE7022005B0BDE8F08F08B1012DF7
:1020C00039D1206B21680088C860206B801C206398
:1020D000E08E401EE0862EE02068816889070FD5DB
:1020E000E18E69B1B9F1010F0AD1216B0988C16094
:1020F000206B801C2063E08E401EE0864FF00009BC
:1021000020688168C9070CD0E18F51B1C068A16B0C
:102110000880A06B801CA063E08F401EE0874FF01A
:102120000109FEF72DFCC01B01E00BE067E0B042A7
:1021300001D3701C50D1E08E0028CDD1E08F002853
:10214000CAD13EE0206B216800780873206B401CE8
:102150002063E08E401EE0862DE0206881688907BC
:102160000FD5E18E69B1B9F1010F0AD1216B097860
:102170000173206B401C2063E08E401EE0864FF010
:10218000000920688168C9070CD0E18F51B1C0688F
:10219000A16B0870A06B401CA063E08F401EE0871D
:1021A0004FF00109FEF7ECFBC01BB04202D3701CDC
:1021B00001D011E086B1E08E0028CED1E08F00285A
:1021C000CBD13A463146204600F0CCFC50B120201D
:1021D000606584F8508012E084F851A084F8508043
:1021E000032068E7A06818B92068C168806800907B
:1021F00084F851A084F85080606D0028F1D001204F
:1022000059E710B5401EB0F1807F01D3012010BD09
:102210004FF0E02460610F21601702F02DFD0020D7
:10222000A06107202061002010BD704770470000AA
:10223000F8B5016804460868CA684B6910F00F0FCA
:102240004FF0000559D003F0010602F490773743B0
:1022500065D0C10705D0D10503D5616C41F00101FE
:102260006164410705D5D90703D0616C41F00201D3
:102270006164810705D5D90703D0616C41F0040181
:102280006164010707D502F02001314303D0616C7E
:1022900041F008016164616C00293AD0800604D5E0
:1022A000900602D5204600F08DFD20684069616CE3
:1022B000C0F38010090700D460B3204600F05BFD36
:1022C00020684069400621D52068143050E8001F7E
:1022D00021F0400140E80012002AF5D1E06BA8B1DE
:1022E00072490165E06BFEF7FCF9002811D0E06B44
:1022F000016D01B0BDE8F040084783060FD5930695
:102300000DD52046BDE8F84000F05CBD2046FFF743
:102310008DFFF8BD2046FFF789FF6564F8BD266B89
:102320002023012E7ED1C6067CD5D6067AD5086834
:102330004868009048694FF0020640064DD5E26BB0
:10234000106840684FF480770004000C3AD0A18DEB
:10235000814237D9E085D069B8422DD020680C3051
:1023600050E8001F21F4807140E80012002AF5D1E6
:102370002068143050E8001F21F0010140E80012ED
:10238000002AF5D12068143050E8001F21F04001E8
:1023900040E80012002AF5D184F842302563206815
:1023A0000C3050E8001F21F0100140E80012002A14
:1023B000F5D1E06BFEF74CF96663A08DE18D401A14
:1023C00081B206E0A18D8142A8D1D069B842A5D1E1
:1023D00066632046FFF729FFF8BDA08DE18D401A06
:1023E00081B2E08D0028F7D00029F5D020680C30AC
:1023F00050E8002F22F4907240E80027002FF5D11A
:102400002068143050E8002F22F0010240E8002735
:10241000002FF5D184F84230256320680C3050E855
:10242000002F00E006E022F0100240E80023002B1D
:10243000F3D1CDE705062BD5150629D594F8410033
:102440002128C9D1A068B0F5805F01D12069B0B161
:10245000206A411C2162216800784860E08C401E9F
:102460000004000CE084B7D12068C16821F080012D
:10247000C1602068C16841F04001C160F8BD206AB8
:102480000088C0F308004860206A801C2062E5E7ED
:102490004006F3D55006F1D5CA68204622F0400226
:1024A000CA6084F8413000F01CF9F8BD692D0008BD
:1024B00070B5040004D094F84100002510B106E086
:1024C000012070BD84F84050204600F023F82420FD
:1024D00084F841002068C16821F40051C1602046A1
:1024E00000F0D2FC2068016921F49041016120686C
:1024F000416921F02A0141612068C16841F400511D
:10250000C1606564202084F8410084F8420065635E
:10251000002070BD10B586B0044614216846FDF752
:1025200087FE18492068884229D11748002102688F
:1025300042F010020260006800F01000059012489E
:102540001438026842F001020260006800F00100E5
:1025500005904FF4C06000900220CDE901010320F6
:1025600003900720049069460848FEF703F900220B
:1025700011462520FEF76AFB2520FEF759FB06B021
:1025800010BD00000010014044380240000002402D
:102590002DE9F84F044690F842009A4616460D463B
:1025A000202802D00220BDE8F88FB5B1AEB10020DE
:1025B0006064222184F842102063FEF7E1F9A685C9
:1025C0008146E685A0684FF480582027404501D118
:1025D000206920B12E46002529E00120E3E70026EE
:1025E00025E04B46002220212046CDF800A000F037
:1025F000D1FC18B184F842700320D4E726B1A0685A
:1026000040451AD038B108E020684068C0F308009F
:1026100025F8020B08E0206978B12068406800F0D6
:102620007F0000BF06F8010BE08D401EE085E08DC5
:102630000028D6D184F84270B5E720684068F1E7F9
:1026400070472DE9F843044690F841009846164635
:102650000D46202802D00220BDE8F88385B17EB166
:1026600000206064212084F84100FEF789F9A684E7
:102670008146E684A0682027B0F5805F02D003E0A1
:102680000120E9E7206910B12E4600250EE0002662
:102690000CE08021204600F07DFCA8B9C6B116F8F8
:1026A000010B21684860E08C401EE084E08C4B46C2
:1026B0004FF00002CDF800800028EAD14FF0400131
:1026C000204600F067FC40B184F841700320C3E766
:1026D00035F8020BC0F30800E3E784F841700020EE
:1026E000BAE77047FEE70000F0B500230A24302562
:1026F00037261F4611E000BFB4EB107F02D905EB6F
:10270000107C01E006EB107C01F813C001EB430CD8
:1027100000015B1C8CF80170DBB29342ECD3F0BD7E
:1027200010B504490448FDF731FE0249491E0870FE
:1027300010BD000059000020440000202DE9F043A6
:1027400087B014216846FDF773FD434800250168F2
:1027500041F004010160016801F004010591016884
:1027600041F080010160016801F08001059101687C
:1027700041F001010160016801F00101059101686A
:1027800041F008010160016801F00801059101684C
:1027900041F0020101600068012200F002002F4EAA
:1027A0005403059021463046FEF7E4F82C4F0122F1
:1027B00002213846FEF7DEF8DFF8A880012240212A
:1027C0004046FEF7D7F8DFF8A090012210214846D6
:1027D000FEF7D0F800940124694630460194CDE913
:1027E0000245FDF7C7FF0226CDE90064CDE90246A8
:1027F00069463846FDF7BEFF0420CDE9000569466D
:1028000038460295FDF7B6FF082000904FF40410FB
:10281000CDE9010569463846FDF7ACFF4020CDE91A
:102820000004CDE9024669464046FDF7A3FF1020AB
:10283000CDE90004CDE9024669464846FDF79AFF16
:10284000002211460920FEF701FA0920FEF7F0F9EF
:1028500007B0BDE8F08300003038024000080240B5
:1028600000000240000C0240000402400D4810B578
:102870000B4901600C49416000214FF480428160A6
:10288000C0E9031241618161C1610162FEF77EF816
:10289000002803D0BDE81040FDF776BD10BD000054
:1028A00000540040E4240020A0860100104810B528
:1028B0000E4901604FF48271416000218160C16066
:1028C0004FF400720161C0E905121822C0E9072126
:1028D000416281620A21C162FFF7ACF9002803D08E
:1028E000BDE81040FDF750BD10BD000000300140B4
:1028F0003825002010B50E4C0C480C2120604FF4F8
:10290000E13060600020A060E060C4E90401A061E3
:10291000E0612046FFF7CCFD08B1FDF735FD2068EA
:10292000C16841F03001C16010BD000000100140DD
:102930009025002010B500220F49104800F0C6FF76
:1029400008B1FDF721FD0E490C4801F0DBF908B193
:10295000FDF71AFD0B49094800F058FD08B1FDF7D5
:1029600013FD064801F052FA002803D0BDE81040DC
:10297000FDF70ABD10BD000060000020E425002026
:102980001C010020B0000020FEE7FEE70148FEF732
:10299000DBBA0000E03C00202DE9F04103680D4661
:1029A00004461E6C03EB4511D1F8080B94F806E0C1
:1029B0004FF400474FF0200C04F29C42BEF1010F8F
:1029C00009D0DFF898E0764539D1020432D500BF4E
:1029D000C1F8087B3FE0224B5FEA007E04D59E42AF
:1029E00039D90004F4D436E05FEA806E02D5C1F82C
:1029F00008CB30E010F0280F2DD19E4201D9000401
:102A0000E6D405EBC50004EB8000D1F8101BD0F82C
:102A10007432C1F31201591AC0F8681200F515702A
:102A2000ADB903691BB1C2681144C1600FE0012157
:102A300020680AE080060AD5C1F808CB07E035B95E
:102A4000D4F8640218B90021184601F061FDE9B21A
:102A50002046FEF761F90020BDE8F0810A31544FAD
:102A60000A30544F2DE9F84F0E4601EBC60100EB3A
:102A7000810481460568D4E909101434884202D9DA
:102A80000120BDE8F88F081AA168814200D20846EB
:102A9000C01C870805EB46181BE000BFA0EB010A2D
:102AA000A068504500D282460AF10300870899F8D1
:102AB000060000901FFA8AF3F2B22846E16802F09D
:102AC00065F8E16801EB0A00E060616901EB0A006A
:102AD0006061D8F8180980B2B84205D3D4E904017E
:102AE000814201D20028D9D1D4E90401884208D812
:102AF00006F00F0101208840D5F834188143C5F84D
:102B000034180020BDE77047F8B5044640684FF41C
:102B10008273984221D1A0684FF48065B0F5004FD0
:102B200001D0A8420AD12068066826F04006066057
:102B30006068984211D1A068A8420ED000920B465E
:102B400000228021204600F057F8002804D0606D54
:102B500040F0200060650320F8BD00920B46002283
:102B60000121EFE7F8B515460E460B4600920446E4
:102B70000122022100F040F8A0B91348134900686F
:102B8000B0FBF1F04FF47A71484300906068B0F503
:102B9000827F0DD13346002280212046009500F02F
:102BA0002BF870B1606D40F0200060650320F8BD27
:102BB000009830B1401E009020688068C043000635
:102BC000F6D50020F8BD00003C00002000366E0164
:102BD0000A46014602484FF0FF330068FFF7BCB8D1
:102BE0002C0000200A46014602484FF0FF330068DF
:102BF000FFF75CB92C0000202DE9F8431E469146F2
:102C000088460446089DFDF7BBFE401B351AFDF7BC
:102C1000B7FE074626480068C0F3CB3068430AE099
:102C2000701C09D0FDF7ACFEC01BA8420FD275B1D5
:102C30000098B8B3401E00902068816838EA01000F
:102C400033D000214945EBD10020BDE8F88320684E
:102C5000416821F0E00141606068B0F5827F0BD1EE
:102C6000A068B0F5004F02D0B0F5806F04D12068A5
:102C7000016821F040010160A06AB0F5005F09D150
:102C80002068016821F4005101602068016841F466
:102C900000510160012084F85100002084F85000A8
:102CA0000320D2E7FFE70025C6E70121CAE70000BD
:102CB0003C00002070470178407841EA00207047CE
:102CC000FDF75CBF30B593B030216846FDF7B0FA30
:102CD00014210CA8FDF7ACFA1D480025016841F04D
:102CE00080510160006800F080501190194801681F
:102CF00041F4804101600068022400F4804011909A
:102D000001200090000401908001CDE906400420DC
:102D10000890A820CDE9090407200B906846FEF72B
:102D2000D3FD08B172B6FEE70CA90F2081E831008F
:102D30004FF4A0500F904FF48050109005210CA834
:102D4000FEF7D2FC002801D072B6FEE713B030BD0A
:102D500040380240007000400248016841F47001B0
:102D60000160704788ED00E010B5806B0021C185DF
:102D7000FFF75CFA10BD01680C3151E8002F22F416
:102D8000907241E80023002BF5D10168143151E81D
:102D9000002F22F0010241E80023002BF5D1016B46
:102DA000012909D101680C3151E8002F22F01002ED
:102DB00041E80023002BF5D1202180F842100021AA
:102DC0000163704708B590F84210222901D0022013
:102DD00008BD82684FF480539A4201D1016921B144
:102DE000816A9A421BD04AB10AE00268816A52683D
:102DF000C2F308020A80816A891C08E0026972B184
:102E00000268526802F07F020A70816A491C81627E
:102E1000C18D491E0904090CC18503D01BE002685D
:102E20005268F1E70168CA6822F02002CA600168AE
:102E3000CA6822F48072CA6001684A6922F00102FD
:102E40004A61202180F8421000214163026B012A6F
:102E500003D0FFF7F5FB002008BD016301680C31CA
:102E600051E8002F22F0100241E80023002BF5D199
:102E700001680A68D20602D50A6849680091818D06
:102E8000FFF7D3F9E7E7000070B504460068016971
:102E9000E26821F44051114301612169A068E269AF
:102EA00008436169114308432168CA6849F20C6309
:102EB0009A430243CA6020684169A26921F44071C3
:102EC0001143416131492068884202D0304988422B
:102ED00002D1FEF7B9FC01E0FEF7A6FCE26900238F
:102EE000192164253226B2F5004F626828D0A0FB74
:102EF0000101930F9200FDF763F90146B0FBF5F075
:102F00006FF01802504301EB800006EB0010B0FB9D
:102F1000F5F000F0F002B1FBF5F002EB0012B1FBAE
:102F2000F5F06FF01803584301EB800006EB00103A
:102F3000B0FBF5F000F00F0021681044886070BD10
:102F4000A0FB010192185B41FDF73AF90146B0FB85
:102F5000F5F00201B1FBF5F06FF01803584301EBF7
:102F6000800006EBC000B0FBF5F000F0F80002EBCB
:102F70004002B1FBF5F0584301EB800006EBC000C6
:102F8000B0FBF5F000F00700D6E7000000100140AC
:102F9000001401402DE9F843984617460D460446B3
:102FA000089E24E0701C22D0FDF7EAFCA0EB08008C
:102FB000B0421AD8CEB12068C168490717D5802D14
:102FC00015D0402D13D00168C94309070FD40168FB
:102FD0000025406800902046FFF7CDFE0820606481
:102FE00084F840500120BDE8F8830320FBE7206807
:102FF000006835EA000004D00020B842D2D000209A
:10300000F1E70120F9E70000F8B5154D28680068E0
:103010004FF00006C043800612D4134C1149002320
:10302000207801220144401C20702846FFF7B0FAA6
:103030002078642800D3267029686FF0200008608B
:1030400028680168C943C90605D401684068074972
:10305000009001200870BDE8F8400148FFF7E8B88B
:103060009025002020020020010000200000002008
:103070002DE9F0410C46D0F8D412D0F8C82200EB6C
:103080008101D1F8C01229B304F00F0606EB8603C4
:1030900000EB830500276B694BB106EBC60602EB1C
:1030A0008602D269B3FBF2F602FB1632A2B1C1F876
:1030B0001472D0F8D42200EB8200D0F8C402036965
:1030C0002BB1D1F80802224601F50471984700207F
:1030D000BDE8F0810320FBE700231A4621466F611B
:1030E00000F0F1FDF3E770B50546D0F8D40205EB2A
:1030F0008000D0F8C04294B1284600F0C3FCC4F868
:103100000C02D5F8D412D4F8040205EB8101D1F8F1
:10311000C412CA6804F503719047002070BD0320F3
:1031200070BD000070B5234D0446297800F0EAFB1D
:103130002878002600F00F0000EB800004EB8000F0
:1031400080F823606978204600F0DCFB687800F0A6
:103150000F0000EB800004EB800080F86361A97829
:10316000204600F0CFFBA87800F00F0000EB8000B5
:1031700004EB800080F82360C661D4F8D40204EB2D
:103180008000D0F8C01299B1D0F8C40240688047DE
:10319000D4F8D40204EB8000D0F8C00200F0BAFFEB
:1031A000D4F8D40204EB8000C0F8C062C4F8BC625A
:1031B000002070BDC800002010B5D0F8D41200EB7C
:1031C0008100D0F8C04284B1D0F8C41259B194F84B
:1031D0000002FF2807D08B6894F801222146984707
:1031E000FF2084F80002002010BD032010BD000065
:1031F0000A21018000487047CC00002070B50646C7
:1032000082210C4800F001FB05460121094800F02D
:10321000FCFA04468121074800F0F7FA0DB11021AD
:10322000A971402104B1A18000B181804320308088
:10323000004870BDD800002070B5064682210D48B8
:1032400000F0E3FA054601210A4800F0DEFA0446E0
:103250008121084800F0D9FA0DB11021A9714FF46D
:10326000007104B1A18000B1818043203080014809
:1032700070BD0000D800002070B5064682210C48C1
:1032800000F0C3FA05460121094800F0BEFA0446E1
:103290008121074800F0B9FA0DB11021A971402130
:1032A00004B1A18000B1818043203080004870BD0E
:1032B000D80000202DE9F04704464FF40775284652
:1032C00000F02AFF06004FF0000865D02946FCF701
:1032D000AFFFD4F8D4023E4D04EB80004FF010094C
:1032E000C0F8C062C4F8BC62207C4FF4007A0127A9
:1032F000E8B3402302222978204600F02EFC2878EB
:10330000402300F00F0000EB800004EB800080F809
:10331000237002226978204600F01FFC6878082399
:1033200000F00F0000EB800004EB8000032280F827
:103330006371A978204601F00F0101EB810104EBD4
:103340008101C1F81C90A97800F007FCA87800F072
:103350000F0000EB800004EB800080F82370C6F8BB
:103360000482D4F8D402474604EB800000E01BE05E
:10337000D0F8C40206F501760068804737617761AE
:1033800032687AB1207C00B340236978204600F08F
:10339000F0FB0020BDE8F087D4F8D41204EB8101E3
:1033A000C1F8C0820220F5E7534602222978204660
:1033B00000F0D3FB2878534600F00F0000EB8000AC
:1033C00004EB800080F82370A3E75346DDE700009C
:1033D000C800002010B5D0F8D41200EB8101D1F85C
:1033E000C01259B1027C084C002AD1F8042207D03F
:1033F0004023617800F0BDFB002010BD032010BD0C
:103400004FF40073F5E70000C800002039B1D0F890
:10341000D42200EB8200C0F8C412002070470320C1
:103420007047D0F8D42200EB8200D0F8C00218B167
:10343000C0F804120020704703207047D0F8D4323F
:1034400000EB8300D0F8C00228B1C0F81022C0F809
:10345000081200207047032070472DE9FC41064602
:10346000D0F8D4020C4606EB80000021D0F8C072E0
:103470008DF80010ADF804100D4637B1217811F029
:1034800060022FD0202A4BD102E00320BDE8FC814E
:10349000E288F2B109060DD5D0F8C4026378394646
:1034A000D0F808C01846E047E288072A00D907226A
:1034B00039462DE0607887F80002E088402800D384
:1034C0004020C2B287F801223946304600F081F828
:1034D0002BE0D0F8C40263780022866821461846A3
:1034E000B04722E0607830B101281ED00A2809D008
:1034F0000B2815D110E096F89C02032810D1022267
:1035000001A905E096F89C02032809D10122694629
:10351000304600F07AF808E096F89C02032804D0C0
:103520002146304600F04AF803252846AEE7000061
:1035300010B5D0F8D41200EB8101D1F8C0220121DE
:103540001AB1D2F8143213B116E0032010BD0121D4
:10355000C2F814120949D2F81032097801F00F04A8
:1035600004EB840400EB84046361D2F81032D2F8D7
:10357000082200F0A8FB0021084610BDC80000206A
:1035800010B5D0F8B82200245268904700B1032447
:10359000204610BD0020704700207047134610B52C
:1035A0000A46002100F0E5FA002010BD134610B5D0
:1035B0000A46002100F087FB002010BD10B504462C
:1035C000802100F061FB2046BDE81040002100F0A2
:1035D0005BBB10B50323C0F89432C0F85421C0F887
:1035E00058211346C0F864110A46002100F0C1FAC0
:1035F000002010BD10B50521C0F8941200231A4612
:10360000194600F0B6FA002010BD10B50223C0F82C
:10361000943242618261134641620A46002100F001
:1036200052FB002010BD10B50421C0F894120023F5
:103630001A46194600F047FB002010BD10B50A4697
:10364000024903A000F00FF9004810BDC028002077
:1036500043444320436F6E66696700001220088070
:10366000004870478000002010B50A46024903A0B8
:1036700000F0F9F8004810BDC02800204344432062
:10368000496E7465726661636500000004200880FD
:10369000004870477C00002010B50A46024903A08C
:1036A00000F0E1F8004810BDC028002053544D69D7
:1036B00063726F656C656374726F6E69637300002B
:1036C00010B50A46024903A000F0CDF8004810BD2D
:1036D000C028002053544D333220566972747561EE
:1036E0006C20436F6D506F727400000010B51A208B
:1036F00008800A480168001D0468001D0068081859
:1037000009D008220649FEF7EFFF054904221031CF
:103710002046FEF7E9FF0248801E10BD107AFF1F09
:1037200096000020F8B504460020ADF80000488857
:103730000D46010A08295FD2DFE801F05E0409178F
:103740005E5E3C45D4F8B412207C0A6819E0207C07
:1037500002260028D4F8B80205D0C16A6846884716
:103760000146467039E0816AF8E7C0B2062843D2C4
:10377000DFE800F0030A1014181CD4F8B402426801
:1037800005E0694690471CE0D4F8B402826892B321
:10379000207CF6E7D4F8B402C268F8E7D4F8B402A3
:1037A0000269F4E7D4F8B4024269F0E7D4F8B4024D
:1037B0008269ECE7207CF0B9D4F8B802416B684626
:1037C0008847014609E0207CA8B9D4F8B802016B0B
:1037D00068468847014607204870EA888AB1BDF8E4
:1037E000000040B1824200D90246ADF800202046D8
:1037F000FFF70BFFF8BDFFE729462046FFF7DEFE87
:10380000F8E72046FFF70FFFF4E778B50E46428849
:103810000178002504468A4212D9ADF800100AE06A
:10382000694600F019F84178052904D181780546E8
:10383000B14205D000256188BDF800209142EFD843
:10384000284678BD0146002002E0401CC0B2491C59
:103850000A78002AF9D170470A8803781A440A8046
:1038600001780844704770B516460D46002820D0F0
:103870000446FFF7E7FF022101EB40014FF400701F
:10388000814204D82046FFF7DDFF4000801C3080D5
:1038900030782870032068700220002206E0295446
:1038A000401CC0B22A54401CC0B2641C21780029BC
:1038B000F5D170BD01004FF0000004D0012901D006
:1038C000022901D0032070470120704778B10023FE
:1038D000C0F8B832C0F8C432C0F8D03209B1C0F86C
:1038E000B412012180F89C12027000F0CFB80320BE
:1038F000704710B5D0F8C802FDF750FABDE8104087
:10390000FFF7D8BF10B5D0F8C802FDF722FABDE81E
:103910001040FFF7CFBF70B50446002521B194F8E1
:103920009C02032846D050E0D4F8941204F114000D
:10393000022939D1818942688A420AD9511A4160E3
:10394000828901691144016142682046FFF72EFE19
:103950000FE0914214D10068884211D3D4F8981234
:1039600088420DD2002211462046FFF71FFEC4F800
:10397000985200231A461946204600F0FAF813E040
:1039800094F89C02032808D1D4F8B802C16821B188
:10399000C4F8D452C168204688478021204600F0F0
:1039A00073F92046FFF726FE94F8A00268B184F868
:1039B000A0520AE0D4F8B802426932B1C4F8D45235
:1039C000426920469047002800D1002070BD10B504
:1039D0000446002221B194F89C02032834D03EE032
:1039E000D4F8941204F5AA70032938D18189436868
:1039F0008B420ED9591A41608289016911440161D3
:103A000042688089824200D802462046FFF7C6FD00
:103A100025E094F8AA0210F01F0003D0012802D07C
:103A2000022800D0002294F89C02032808D1D4F880
:103A3000B802016921B1C4F8D4220169204688473F
:103A40002046FFF7F0FD0AE0D4F8B802836933B1ED
:103A5000C4F8D422826920469047002800D1002073
:103A600010BD0020704710B50024012180F89C1281
:103A7000D0F8B82222B152680179904700B10324EE
:103A8000204610BDD0F8C802FDF7B5B910B50178D1
:103A900039BB15490222C1F8E004C0F8C8124FF042
:103AA000A040086004200871CA71002088714A7221
:103AB0008872C87208738873C8730846FDF7FAFCE9
:103AC00008B1FCF761FC80210748FDF7F2F84022BD
:103AD00000210548FDF7F1F8802201210248FDF799
:103AE000ECF8002010BD0000E03C00200A0601F0C8
:103AF0007F01D0F8C80201EBC10100EB810001D5C4
:103B0000807D704790F85602704710B5D0F8D422E7
:103B100000EB8202D2F8B82222B190F89C32032B3B
:103B200002D004E0032010BD126A02B190470020C9
:103B300010BD10B5D0F8D42200EB8202D2F8B82222
:103B400022B190F89C32032B02D004E0032010BD78
:103B5000526A02B19047002010BD10B51C461346B2
:103B6000D0F8C8022246FDF74FF9BDE81040FFF734
:103B7000A1BE10B5D0F8C802FDF777F9BDE8104036
:103B8000FFF798BE2DE9F04100260125044680F894
:103B90009C52C4F894626660C4F8A46280F8A06283
:103BA000D0F8B80230B1426822B1002120469047D7
:103BB00000B103260022402311462046FFF7CDFF27
:103BC000402784F86351A4F860713B4600228021AD
:103BD0002046FFF7C2FF84F8235027843046BDE813
:103BE000F08190F89C12042903D190F89D1280F87E
:103BF0009C120020704710B590F89C12032905D143
:103C0000D0F8B81211B1C96901B18847002010BDC0
:103C100001740020704710B5D0F8C802FDF710FD00
:103C2000BDE81040FFF746BE70B5044600F2AA207A
:103C3000054600F051F80120C4F89402B4F8B0022F
:103C4000C4F8980294F8AA0210F01F010AD00129C2
:103C50000ED0022912D000F080012046BDE870404D
:103C600000F012B829462046BDE8704000F0D0B8F8
:103C700029462046BDE8704000F013BA2946204688
:103C8000BDE8704000F05AB910B5D0F8C802FDF791
:103C900008F9BDE81040FFF70DBE10B5D0F8C80216
:103CA000FDF7E8FCBDE81040FFF704BE90F89C1259
:103CB000042903D090F89C1280F89D12042180F80A
:103CC0009C120020704710B5D0F8C802FDF722F909
:103CD000BDE81040FFF7EEBD70B5054611F8010BC9
:103CE0002870087868704C1C2046FEF7E4FF688056
:103CF000A41C2046FEF7DFFFA880A01CFEF7DBFF18
:103D0000E88070BD38B504460020ADF80000A1B1D0
:103D1000C4F8B812D4F8D40204EB8000D0F8B8028A
:103D2000C16A19B168468847C4F8D002D4F8D802ED
:103D3000401CC4F8D802002038BD032038BD02461C
:103D40000020D2F8B832002B02D01B68104618476A
:103D5000704700002DE9F04188462B4E89780025F8
:103D600004463170012906D941462046FFF726FC5A
:103D70000320BDE8F08194F89C02022702280CD0B1
:103D800003281DD041462046FFF718FC3178204615
:103D9000FFF7F6FB03252846EBE789B32046616071
:103DA000FFF7CDFF050004D041462046FFF706FC93
:103DB0001DE02046FFF737FC032084F89C02EAE769
:103DC000C1B1606888421BD0C1B22046FFF7D8FB62
:103DD000317820466160FFF7B2FF050010D0414600
:103DE0002046FFF7EBFB21792046FFF7C9FB84F85B
:103DF0009C72D0E784F89C7220466160FFF7C0FB9C
:103E00002046FFF710FCC6E7C4000020FFF745BFBF
:103E10002DE9F0410A78002512F060020CD0202A2A
:103E200001D0402A7DD1D0F8D42200EB8202D2F812
:103E3000B8229268904731E04B78002201260A2B85
:103E40006FD2DFE803F041666E586E08056E2D29CB
:103E5000FFF768FC67E004468888D8B9C888C8B905
:103E60004888802816D200F07F0794F89C02032827
:103E700010D084F89E7239462046FFF7CCFE2046CB
:103E8000FFF7D1FB1FB1022084F89C024BE084F8BD
:103E90009C6248E0204644E0FFF75CFF054642E0B4
:103EA000CB88012B3DD190F89C32012B04D0022B02
:103EB00002D0032B35D104E08260012200F1080119
:103EC00016E00122011D13E090F89C22012A03D084
:103ED000022A01D0032A24D1CA88022A21D1C6602D
:103EE000D0F8A41209B10321C160022200F10C0133
:103EF000FFF78BFB17E04A88012A02D0022A03D081
:103F00000FE0C0F8A46216E08988090A80F8A012C0
:103F100011E090F89C32012B08D0022B06D0032B25
:103F200004D0FFF74BFB2846BDE8F0814988012902
:103F3000F9D1C0F8A422FFF776FBF4E72DE9F041B0
:103F4000054608780C790E464FF0000810F0600026
:103F50000BD0202801D040286BD121462846FFF7FE
:103F600019FBFF2800D0D8B398E07078C8B30128B7
:103F700024D003285DD195F89C02022802D00328A2
:103F800057D10CE0002C54D0802C52D0214628462A
:103F9000FFF77AFE80212846FFF776FE7EE07088E4
:103FA00040B93CB1802C05D0C88818B921462846B4
:103FB000FFF76AFE2846FFF736FB6FE095F89C0294
:103FC0000228DFD0032866D1708888BB600603D042
:103FD00021462846FFF78DFC2846FFF724FBBCE767
:103FE00000E00AE0C5F8D402D5F8B8028268FAB158
:103FF000314628469047804650E095F89C020027BD
:10400000022802D0032846D114E00CB1802C42D102
:10401000200604F07F0000EB800005EB800101D555
:10402000143101E001F5AA71022201F80E7F2EE0A1
:1040300034E030E0200604F00F0000EB800005EBD8
:1040400080000AD590F8230028B304F07F0000EB2D
:10405000800005EB800614360AE090F86301D0B1C9
:1040600004F07F0000EB800005EB800606F5AA76E1
:104070004CB1802C07D021462846FFF737FD10B100
:104080000120B07300E0B773022206F10E0128464A
:10409000FFF7BBFA02E02846FFF790FA4046BDE87A
:1040A000F08170B50546087800240E4610F06000D7
:1040B00003D0202801D0402827D195F89C02012860
:1040C00003D0022801D003281FD1B088C1B2012932
:1040D0001AD8C1B22846FFF75FFAFF280CD058B9AA
:1040E000D5F8B8128A683AB1C5F8D4028A68314660
:1040F00028469047044600E00324F088204307D177
:104100002846FFF790FA03E031462846FFF756FAB3
:10411000204670BD7047000000487047C03A00203C
:1041200070B50A78012302F00F054E78AB401B4CA6
:10413000D0F81C58012E17D045EA0343C0F81C38AC
:1041400000EB4210D0F8002B12040BD4D0F8002B57
:104150000B890979C3F30A031A4344EA81410A43EC
:10416000C0F8002B002070BD9BB21D43C0F81C5846
:1041700000EB4210D0F800391B04F3D4D0F800391A
:104180000D890979C5F30A0589042B4341EA825157
:104190000B432343C0F80039E4E70000008000101F
:1041A000D0F800196FF30A01C0F80019D0F804180C
:1041B00041F48071C0F804180020704770B50D46B6
:1041C0000446C2F3072104981E4601291BD0E0686B
:1041D00040F04000E060204600F032F8C6F30721CE
:1041E0000029A16B26D021F48031A163C5F30741DA
:1041F000012907D1A16841F00601A160A16841F041
:104200002001A16070BDA16B21F48031A163E16840
:104210000A4A1140E160E16821F44011E160C0B256
:10422000012803D1E06840F48010E060204600F0EF
:1042300007F8DBE741F48031D7E70000BFFFBDFF9F
:1042400008B5002100914FF07061009A521C009255
:104250008A4210D80269002AF7DA0A220092521E16
:104260000092FCD1026942F001020261009A521CE4
:1042700000928A4201D9032008BD0269D207F5D114
:10428000002008BD30B54C780A78012300EB4212BB
:10429000012C2CD0D2F8004B002C0BDAD2F8004BBA
:1042A00044F00064C2F8004BD2F8004B44F0804464
:1042B000C2F8004BD0F83C580C7804F00F0403FA15
:1042C00004F425EA0444C0F83C48D0F81C480978B6
:1042D00001F00F018B4024EA0341C0F81C18D2F80A
:1042E000000B19490840C2F8000B002030BDD2F87D
:1042F0000049002C0BDAD2F8004944F00064C2F8FF
:104300000049D2F8004944F08044C2F80049D0F88E
:104310003C480D7805F00F0503FA05F5ADB2AC4346
:10432000C0F83C48D0F81C48097801F00F018B40D8
:1043300099B28C43C0F81C48D2F8000903490840E0
:10434000C2F80009D1E700000078F3EF007833EC01
:10435000D0F8001E21F00301C0F8001ED0F80418A8
:1043600021F00201C0F8041800207047D0F8001EA8
:1043700021F00301C0F8001ED0F8041841F002013A
:10438000C0F80418002070472DE9F04F00250E46B4
:10439000044617462846294604EB8002C2F8041159
:1043A000401C0F28F8D3C3F307405FEA00092046FA
:1043B00016D0806B20F40012A263A06B40F40022A0
:1043C000A263084688462146C4F8000EC7F30720BA
:1043D000012817D00846D1F8001841F0030118E071
:1043E000D0F8040840F00202C4F80428A06B40F49E
:1043F0000012A263A06B20F40022A263A06B20F441
:104400008022DDE7300E0846D1F8001801D041F0D7
:104410000101C0F80018102100F08BFA00B101254D
:10442000204600F06AFA00B101254046C4F8108821
:10443000C4F81488C4F81C8800214FF0006B4FF0BA
:10444000904E4FF67F3AF2B215E000BF04EB4113F5
:10445000D3F800C9BCF1000F06DA11B1C3F800E9C6
:1044600004E0C4F800B901E0C3F80009C3F810097A
:10447000C3F808A9491C8A42E8D8002115E000BF0A
:1044800004EB4113D3F800CBBCF1000F06DA11B1F5
:10449000C3F800EB04E0C4F800BB01E0C3F8000B74
:1044A000C3F8100BC3F808AB491C8A42E8D8D4F80B
:1044B000101821F48072C4F81028A0616FF08040B9
:1044C0006061C6F3074018B9A06940F01000A06110
:1044D000A0690A490843A061C7F3074018B1A06961
:1044E00040F00800A061B9F1010F03D1A0690449AF
:1044F0000843A0612846BDE8F08F000000383C80EA
:1045000004000040816821F00101816000207047B3
:1045100010B5036C134CA34203D9D0F8003B002B19
:104520001EDB0023C0F8103BD0F8103B43F40023FF
:10453000C0F8103BD0F8103B43F01803C0F8103B14
:10454000D0F8103B43F0C043C0F8103B012907D11D
:10455000C0F8142BD0F8001B41F08021C0F8001BDC
:10456000002010BD0A30544F4A780B78012A00EB26
:1045700043100BD0D0F8002B22F40012C0F8002B0F
:104580000979032914D0022912D017E0D0F80029A4
:1045900022F40012C0F800290979032901D0022968
:1045A0000CD1D0F8001941F08051C0F8001905E095
:1045B000D0F8001B41F08051C0F8001B002070476C
:1045C0000A784B78D1B200EB4110012B12D0D0F811
:1045D000001B002906DB2AB1D0F8001B21F0804126
:1045E000C0F8001BD0F8001B41F40011C0F8001BFC
:1045F00000207047D0F80019002906DB2AB1D0F856
:10460000001921F08041C0F80019D0F8001941F4D8
:104610000011C0F80019EBE7F8B50C784F788B4D16
:10462000E3B26FF0604600EB4313012F29D0D3F8BB
:10463000107B6FF31207C3F8107BD3F8107B2F4069
:10464000C3F8107B002C7DD00D69002D7BD08C68C9
:1046500025446D1EB5FBF4F5ADB26C430C62D3F886
:10466000104B06EAC5452C43C3F8104BD3F8104B4A
:104670000D6AC5F312052C43C3F8104B012A70D004
:10468000CBE00F69EFB1D3F810796FF31207C3F8DD
:104690001079D3F810792F40C3F810790CB30F6953
:1046A0008D682F447F1EB7FBF5F5D3F81079ADB2B6
:1046B00006EAC5463743C3F810790E79012E1CD09F
:1046C0002AE0D3F810692E40C3F81069D3F81059C6
:1046D00045F40025C3F81059D3F810596FF31205AB
:1046E00020E00E698D68AE4200D90D61D0F81059F6
:1046F00045F40026C0F810690EE0D3F8106926F0E2
:10470000C046C3F81069D3F810694FF0C04707EAF4
:1047100045752E43C3F81069D3F810590E69C6F3D6
:1047200012063543C3F81059012A1BD000EB44137D
:10473000D3F8004944F00444C3F800490C79012C33
:1047400031D001E044E057E00A695AB3D0F8342888
:10475000097801F00F03012199400A43C0F8342879
:1047600071E056E0CA691AB100EB4413C3F814298A
:10477000097901290ED1D0F80818C90500EB4411B8
:10478000D1F8002902D442F0005201E042F08052F8
:10479000C1F8002900EB4410D0F8001941F00441A1
:1047A000C0F800194FE0D0F80848E405D3F80049F4
:1047B00002D444F0005401E044F08054C3F80049AE
:1047C00000920A8A93B20A78C96800F0DFF93AE0E9
:1047D0000C690CB18C680C618C680C62D0F8105BB1
:1047E000C4F312042543C0F8105BD0F8104B44F416
:1047F0000024C0F8104B41E7D3F8104B8D68C5F387
:1048000012052C43C3F8104BD3F8104B44F400248A
:1048100032E7CA680AB1C3F8142B097901290CD10F
:10482000D0F80808C005D3F8000B02D440F00050BF
:1048300001E040F08050C3F8000BD3F8000B40F0CB
:104840000440C3F8000B0020F8BD0000FFFF07E0A4
:1048500038B50022009213464D780A7842F210745F
:1048600000EB4212012D19D0D2F8005B002D3CDA8A
:10487000D2F8005B45F00065C2F8005B0A7800EBF7
:104880004212D2F8005B45F08045C2F8005B009A06
:10489000521C0092A24221D9012326E0D2F80059ED
:1048A000002D22DAD2F8005945F00065C2F800590F
:1048B0000A7800EB4212D2F8005945F08045C2F860
:1048C0000059009A521C0092A242E5D80A7800EBE7
:1048D0004212D2F80029002AF3DB06E00A7800EB46
:1048E0004212D2F8002B002AD1DB184638BD81686D
:1048F00041F0010181600020704708B500214FF0B0
:1049000070620091009B5B1C009393420AD803697C
:10491000002BF7DA0091102101610099491C0091E8
:10492000914201D9032008BD0169C906F5D40020D0
:1049300008BD18B500224FF070630092009C641C03
:1049400000949C420CD80469002CF7DA00922022D3
:1049500042EA811101610099491C0091994201D9F3
:10496000032018BD01698906F5D4002018BDD0F8D0
:10497000080810F0060004D0022803D0062801D051
:104980000F20704702207047406900F00100704717
:10499000D0F81818D0F81C08084080B27047D0F83A
:1049A0001818D0F81C080840000C704710B5D0F853
:1049B0001038D0F8342801F00F0400EB4110E24029
:1049C00002F00102D0F8080943EAC212104010BDFB
:1049D00000EB4111D1F8081BD0F8140808407047CB
:1049E000416980690840704730B50346084694081D
:1049F00002F00301002203F5805303E01D6840F834
:104A0000045B521CA242F9D300290BD01C6800227F
:104A1000D50024FA05F3491E521C090400F8013B95
:104A2000090CF5D130BD70B50446C068002520F0F2
:104A3000C040E060012901D079B120E0E06840F099
:104A40000050E0600A20FBF75FFE60690A3510F055
:104A5000010F10D1C82DF5D30DE0E06840F0804083
:104A6000E0600A20FBF750FE60690A3510F0010F84
:104A700001D0C82DF5D3C82D01D0002070BD012074
:104A800070BDD0F8002822F4FE62C0F80028D0F8EB
:104A900000284FF4FE6303EA01110A43C0F800281E
:104AA00000207047022A3ED1264A274B0A449A42E8
:104AB00001D20F2138E0254A254B0A449A4201D2FF
:104AC0000E2131E0234A244B0A449A4201D20D219F
:104AD0002AE0224A224B0A449A4201D20C2123E0C6
:104AE000204A214B0A449A4201D20B211CE01F4A62
:104AF0001F4B0A449A4201D20A2115E01D4A1E4B5F
:104B00000A449A420FD31D4A1D4B0A449A4201D2CD
:104B1000082109E01B4A11441B4A914201D2072196
:104B200002E0062100E00921C26822F47052C2604E
:104B3000C2684FF4705303EA81210A43C260002027
:104B400070470000405327FF00350C00401E1BFF3C
:104B500040420F0000DC0BFF804F1200808CF9FEFA
:104B600020D6130060B6E5FE60E3160000D3CEFE4B
:104B700040771B00C05BB3FEC091210000CA91FECC
:104B800020753800E05459FEE09C410010B5029CAD
:104B900074B9DB1C9C0800EB0230002300F5805048
:104BA00004E000BF51F8042B02605B1CA342F9D360
:104BB000002010BD054901220A7010B104220A70BC
:104BC00001E00020087008787047000040000020D5
:104BD00030B939B101290AD0022905D0032909D0F9
:104BE00004207047002070474FF4805003E04FF4DA
:104BF000006000E001201060F4E710B508B1042067
:104C000010BD4FF6FF7000EA033310031A46FBF79E
:104C10007DFC002010BD0000034901220A7008B984
:104C200000200870087870474000002070B51E46CC
:104C30000D4608B1042070BD14032046FBF7B2FCFA
:104C40004FF6FF7000EA063220462946FBF7C2FB0A
:104C5000002070BDFEE700000FB4054B10B503A99E
:104C6000044A029800F028F810BC5DF814FB00001C
:104C70001D510008540100200907090E002804DB1B
:104C800000F1E02080F80014704700F00F0000F100
:104C9000E02080F8141D704702E008C8121F08C108
:104CA000002AFAD170477047002001E001C1121FAD
:104CB000002AFBD1704700002DE9FF4F8DB00F4651
:104CC0000546002606E025280BD0DDE90F129047A7
:104CD0006D1C761C28780028F5D111B03046BDE84F
:104CE000F08F0024A246A1460122EC4900E00443D3
:104CF00015F8013F203B02FA03F00842F7D128786B
:104D00002A2810D06FF02F022878A0F1300109294D
:104D100014D80AEB8A0102EB410144F0020400EBD3
:104D2000010A6D1CF0E701CF5FEA000A03D544F4E5
:104D30000054CAF1000A44F002046D1C28782E28A1
:104D400017D115F8010F44F004042A280ED06FF093
:104D50002F022878A0F1300109290AD809EB89012E
:104D600002EB410100EB01096D1CF2E757F8049BCF
:104D70006D1C28786C280FD006DC4C2817D06828CA
:104D80000DD06A2814D104E0742810D07A280FD1ED
:104D90000DE044F400140AE044F4801401E044F40B
:104DA00040146978814202D104F580146D1C6D1C99
:104DB0002A786E2A1FD00CDC632A31D004DC002A4A
:104DC0008BD0582A11D1A3E0642A68D0692A0CD16B
:104DD00065E0732A2ED004DC6F2A73D0702A04D1C8
:104DE0009BE0752A6FD0782A6ED01046DDE90F124D
:104DF0009047761C50E1C4F30250022806D00328E5
:104E000009D0042801CF09D0066045E101CFF11790
:104E1000C0E9006140E101CF06803DE106703BE161
:104E200017F8040B8DF8000000208DF80100EB4608
:104E3000012003E057F804BB4FF0FF3061074FF04B
:104E4000000102D40DE008F10101884649450FDA5E
:104E50008045F8DB1BF808100029F4D108E008F1C0
:104E6000010188468142FADB1BF808100029F6D1BF
:104E7000DDE90F23AAEB08008146214600F036F950
:104E8000304400EB080604E0DDE90F121BF8010BCB
:104E90009047B8F10108F7D221464846F7E00A21C9
:104EA000C4F302534FF0000B0891022B04D001CF42
:104EB000C117032B09D00AE0FF1D27F00707F7E809
:104EC000020108E032E01FE020E000B2C117042B2D
:104ED00001D140B2C117031E71F1000307DA4FF090
:104EE000000CD0EB0C006CEB01012D2302E023053C
:104EF00004D52B238DF82430012303E0E30701D0F0
:104F00002023F7E7984658E00A2110E010210EE030
:104F100010204FF0000B08900CE010214FF0000B18
:104F200044F004044FF00809089103E008214FF011
:104F3000000B0891C4F30253022B04D001CF0021CF
:104F4000032B06D006E0FF1D27F00707F7E8020154
:104F500003E080B2042B00D1C0B24FF00008230759
:104F60002BD5702A07D0DDF820C08CF0100C5CEA3D
:104F70000B0C05D00EE040238DF82430012308E00F
:104F800050EA010306D030238DF824308DF8252017
:104F900002239846DDF820C08CF0080C5CEA0B0C6C
:104FA0000BD150EA010301D1630706D530238DF8F8
:104FB00024304FF00108A9F10109582A04D038A281
:104FC0000B9208AA0A920BE03AA2F9E75B46089A0C
:104FD000FBF7F6F80B9B9B5C0A9A521E0A92137021
:104FE00050EA0102F2D10A98ADEB000000F1200B6B
:104FF000600702D524F4803401E04FF00109D9455F
:1050000002DDA9EB0B0000E0002000EB0B014144A6
:105010000890AAEB010AE00306D4DDE90F2321463C
:10502000504600F063F806444FF0000908E009A973
:1050300011F80900DDE90F12904709F10109761C0A
:10504000C145F4DBE0030CD5DDE90F2321465046D2
:1050500000F04CF8064404E0DDE90F1230209047E0
:10506000761C0899481E08900029F5DC08E00A988B
:105070000A990078491C0A91DDE90F129047761CC5
:10508000BBF10001ABF1010BF1DC21465046DDE93B
:105090000F2300F019F806446D1C1BE609280100D7
:1050A000303132333435363738396162636465669E
:1050B0000000000030313233343536373839414260
:1050C00043444546000000002DE9F0410446002518
:1050D0001E461746880404D405E039462020B04710
:1050E0006D1C641EF9D52846BDE8F0812DE9F0411C
:1050F000044600251E469046C80301D5302700E02F
:105100002027880404D505E041463846B0476D1C89
:10511000641EF9D52846BDE8F081000013B54FF0B4
:10512000FF33012269460248FDF78BFA00981CBD47
:1051300090250020FBF72AFDFDF7C4FDFDF7FEFAE0
:10514000FDF7D8FBFDF792FBFDF7B0FBFDF7E8FAA2
:10515000FDF7F0FB144F154DDFF854904FF4FA684B
:10516000002612482721C01CFBF7F4F84046FBF745
:10517000CBFA2878012812D12E7069780DA0FFF79C
:105180006BFD002404E0395D11A0FFF765FD641C90
:1051900068788442F7DB0FA0FFF75EFD6E70102188
:1051A0004846FBF7DFFBDCE7200200200000002080
:1051B000000402406C656E677468206F6620727828
:1051C00020646174613A202564210D0A000000000A
:1051D000256300000D0A0000000000000000000030
:1051E000010203040607080900000000010203048D
:1051F000105200080000002058010000A80200081A
:10520000085300085801002070500000A84C000806
:1052100031302753544D33322048414C20555342AE
:10522000207669727475616C20706F727420636F80
:105230006D2074657374210D0A13382533200182A3
:10524000101324F4291013B54B1408194C1B08FB38
:10525000081A2D081AD10881135D361B088D041A0F
:1052600099041AC1041AED041A3D041A69041704BA
:105270000309041201140202021640830440571D60
:105280000201020351031A1A031309031B08050440
:105290001A01041A2D041A51044114810182130ABF
:1052A0000632022A40941C0902434F1125C03209DC
:1052B000041B01020B13052416100105240110091B
:1052C0000104240202052406170107058203081CB5
:1052D0001009048529E12E0705010240072A8107EC
:1052E0001113B532140825314C085B34641AB90C1B
:1052F0001371301B08E704C11A39281AFD1C1A79EA
:08530000081AF1084100000049
:040000050800018965
:00000001FF
