:020000040800F2
:10000000D896002045010008AF1C00082117000801
:10001000AD1C0008D9020008E12000080000000023
:10002000000000000000000000000000B31C0008F9
:10003000DB02000800000000B11C0008B51C00082D
:100040005F0100085F0100085F0100085F01000810
:100050005F0100085F0100085F0100085F01000800
:100060005F0100085F0100085F0100085F010008F0
:100070005F0100085F0100085F0100085F010008E0
:100080005F0100085F0100085F0100085F010008D0
:100090005F0100085F0100085F0100085F010008C0
:1000A0005F0100085F0100085F0100085F010008B0
:1000B000191D00085F0100085F0100085F010008CA
:1000C0005F0100085F0100085F0100085F01000890
:1000D0005F010008792000085F0100085F01000847
:1000E0005F0100085F0100085F0100085F01000870
:1000F0005F0100085F0100085F0100085F01000860
:100100005F0100085F0100085F0100085F0100084F
:100110005F0100085F0100085F0100085F0100083F
:100120005F0100085F0100085F0100085F0100082F
:10013000DFF80CD000F0BEF800480047158902082F
:10014000D89600200648804706480047FEE7FEE7AD
:10015000FEE7FEE7FEE7FEE7FEE7FEE7FEE7FEE777
:10016000171D0008310100082DE9F05F0546002049
:1001700092469B4688460646814640241BE0284618
:1001800041464746224600F051F853465A46C01AA7
:10019000914110D311461846224600F07BF82D1AE3
:1001A00067EB01084F4622460120002100F072F85B
:1001B00017EB00094E41201EA4F10104DFDC484684
:1001C00031462A464346BDE8F09F2DE9F041002420
:1001D000061B254671F1000605DA01240027D0EB45
:1001E000070067EB0101161E73F1000605DA002710
:1001F000D2EB0702012567EB0303FFF7B5FF864645
:100200000E4617469C46AC4204D00025D0EB050EA6
:1002100065EB010624B10020D2EB000760EB030C74
:10022000704631463A466346BDE8F081202A04DB39
:10023000203A21FA02F00021704721FA02F3D0405F
:10024000C2F12002914008431946704740EA010379
:100250009B0703D009E008C9121F08C0042AFAD27C
:1002600003E011F8013B00F8013B521EF9D2704740
:10027000D2B201E000F8012B491EFBD270470022E8
:10028000F6E710B513460A4604461946FFF7F0FF95
:10029000204610BD202A04DB203A00FA02F100209B
:1002A00070479140C2F1200320FA03F319439040B4
:1002B00070470000064C074D06E0E06840F001037F
:1002C00094E8070098471034AC42F6D3FFF734FFA8
:1002D0009C820308BC820308FEE7704772B6FEE703
:1002E00030B5B3F5804F05D06FF0704140F8221063
:1002F000002030BD8C690B688D6823434C68898968
:10030000240144EA0524234343EA014150F8223002
:10031000014C23401943E9E70000F0CF10B50A680B
:1003200050F8223023F0010340F822308C68082C6A
:1003300023D000234A682243CC681C430B69224324
:100340001A434B690E4C1A43CB691A430B6A1A4382
:100350004B6A1A438B6A1A43CB6A1A430B6B1A43D4
:100360008B6913434A6B09681A4350F82130A34341
:10037000134340F82130002010BD4023DAE700008D
:100380007FFF0F0030B5D1E9003443EA04138C68D5
:100390008D89240244EA054423430C8A074D00EB6F
:1003A000820005EB045423430C7D6D0105EB0464CE
:1003B000896923430B434360002030BD0000F0FFF8
:1003C00010B590F821100022022905D00421816384
:1003D00080F82020012010BD01680B6823F00E0377
:1003E0000B6001680B6823F001030B6090F840304C
:1003F000C46B012101FA03F3636080F8211080F8D7
:100400002020104610BD00002DE9F05F90F821106B
:100410000024022903D004218163012485E00168BE
:100420000A6822F00E020A6001680A6822F00102DE
:100430000A603F4E3E4FB215DFF8F4C0DFF8F0908F
:10044000DFF8ECA0DFF8E8B0DFF8E4E00168783F1F
:1004500013011502ACF1640CA9F15009AAF13C0A90
:10046000ABF1280BAEF1140E4FF48018B14227D92E
:10047000B9420ED0614512D049451DD0514518D022
:10048000594518D0714501D1424615E0294EB14277
:1004900001D1012210E0274E1436B14201D11022C1
:1004A0000AE0244E2836B14206D0224A3C3291421C
:1004B00001D11A4600E02A461E49091F0A602BE0B6
:1004C000B94213D0614517D0494522D051451DD0BE
:1004D00059451DD0714501D142461AE0B14202D1C1
:1004E0004FF0807215E0134EB14201D1012210E0AD
:1004F000104E1436B14201D110220AE00D4E2836BA
:10050000B14206D00B4A3C32914201D11A4600E07A
:100510002A46074980394A60012180F821100021CC
:1005200080F82010416B01B188472046BDE8F09F5C
:10053000800002400804024070B5044600F04CF907
:100540000546601C02D004480078044400F044F9D9
:10055000401BA042FAD370BD1800002030B585B012
:100560000020009001900290039012480168002939
:100570001ED1012101601048416941F4807141613F
:100580004069022400F4807004904FF68070CDE939
:100590000004032569460395084800F013F84CF65B
:1005A000B370CDE9000469460395054800F00AF8E8
:1005B00005B030BD0C0000200010024000180140C2
:1005C000001401402DE9F84FDFF8C8910024A9F18B
:1005D000040B23460F2709F1040AABF1040ED1E006
:1005E0000125A54006EA0502AA4276D1DFF8A8C196
:1005F0004E68A6EB0C0866452BD00DDC032E34D0DC
:1006000005DC36B3012E19D0022E2FD11BE0112E9E
:1006100016D0122E2AD119E0B8F5881F19D006DCA1
:10062000B8F5803F15D0B8F5801F1FD111E0B8F59F
:10063000001F0ED0B8F5041F18D10AE0CB6815E0F2
:10064000CB681B1D12E0CB6808330FE0CB680C337E
:100650000CE08B682BB1012B4FF0080303D04561F0
:1006600004E0042302E0056100E00023FF2A01D832
:10067000064601E000F104064FEA840501D9A5F120
:100680002005D6F8008007FA05FC28EA0C0803FAD2
:1006900005F548EA0508C6F800804D68ED0070D5FC
:1006A0003E4DAE6946F00106AE61AD6924F0030629
:1006B00005F0010500953A4D06EB050CDCF80850F5
:1006C000A607360F07FA06F825EA0805DFF8D480F2
:1006D000404503D14FF0000825E052E0DFF8C88024
:1006E000404502D14FF001081DE0DFF8C0804045D1
:1006F00002D14FF0020816E0DFF8B480404502D185
:100700004FF003080FE0DFF8AC80404502D14FF016
:10071000040808E0DFF8A080404502D14FF005084A
:1007200001E04FF0060808FA06F848EA0508CCF898
:1007300008804D68D9F80060ED024D4601D516439A
:1007400000E096432E604D68DAF80060AD02554631
:1007500001D5164300E096432E604D68DBF800603B
:10076000AD035D4601D5164300E096432E604D680B
:10077000DEF80060ED03754601D5164300E09643B0
:100780002E60641C0A681646E2407FF429AFBDE87B
:10079000F88F000008040140000011100010024012
:1007A0000000014000080140000C01400010014021
:1007B0000014014000180140001C0140C26821EAF9
:1007C00002030A4043EA0241016170470AB1016134
:1007D00070470904FBE7000001488068704700008B
:1007E0001800002002488168027811448160704737
:1007F00018000020074810B5016841F010010160A1
:10080000032000F075F80F2000F006F800F024F83F
:10081000002010BD0020024070B50D4D04464FF47D
:100820007A712878B1FBF0F00A490968B1FBF0F061
:1008300000F010FB48B9102C07D200222146501EB0
:1008400000F036F800206C6070BD012070BD000023
:1008500018000020240000200C4808B5816941F0F0
:1008600001018161816901F001010091C16941F0DB
:100870008051C161C06900F0805000900448416817
:1008800021F0E06141F00071416008BD00100240BC
:1008900000000140002809DB00F01F020121914007
:1008A0004009800000F1E020C0F80011704700000E
:1008B000F0B40E4B1B680C46C3F30223C3F10705CB
:1008C000042D00D90425191D072901D2002300E0B9
:1008D000DB1E012606FA05F1491E214099409E4083
:1008E000761E16403143F0BC01F004BC0CED00E074
:1008F000064900F0070208684FF6FF03184040EA77
:100900000220034A10430860704700000CED00E02D
:100910000000FA052DE9F0470F46050061D0434E6F
:10092000306800F00700B84209D2306820F00700B4
:1009300038433060306800F00700B84251D1286871
:100940003B4C810712D5400703D5606840F4E06056
:1009500060602878000703D5606840F460506060EC
:100960006068A96820F0F000084360602878C0073C
:1009700028D06868012810D02168022810D0890783
:1009800000292EDA616821F0030101436160FFF75D
:1009900023FF804641F288390DE021688903EFE7A3
:1009A0008901EDE7FFF718FFA0EB0801494502D9DF
:1009B0000320BDE8F0876068696800F00C00B0EBC8
:1009C000810FEFD1306800F00700B8420BD93068D2
:1009D00020F0070038433060306800F00700B8426C
:1009E00001D00120E5E72878400705D56068E9686F
:1009F00020F4E060084360602878000706D560684E
:100A0000296920F4605040EAC100606000F038F8C5
:100A10006168084AC1F30311515CC8400649086087
:100A200006480068FFF7F8FE0020C2E700200240F9
:100A300000100240E4180308240000201C000020DD
:100A40000448054900684968044AC1F30221515C21
:100A5000C84070472400002000100240F41803082A
:100A60000448054900684968044AC1F3C221515C41
:100A7000C84070472400002000100240F41803080A
:100A80000E4A51680E4801F00C03042B11D0082BBC
:100A90000FD10C48C1F38343C903C05C0AD5516828
:100AA000084AC1F34041921E515C054A5043B0FBD5
:100AB000F1F07047044948437047000000100240BD
:100AC00000127A00D418030800093D002DE9F84F00
:100AD000040070D02078C04DC00749D06868C0F3CA
:100AE0008100012807D06868C0F38100022809D17D
:100AF0006868C00306D52868800339D56068002877
:100B0000E7D035E06068B0F5803F0BD010B1B0F5AC
:100B1000A02F11D0286820F480302860286820F4A5
:100B2000802002E0286840F480302860606890B13E
:100B3000FFF752FE06460AE0286840F4802028604D
:100B4000F0E700BFFFF748FE801B642873D82868D1
:100B50008003F7D50CE0FFF73FFE064605E000BF37
:100B6000FFF73AFE801B6428F0D828688003F7D48A
:100B700020789A4E80074FF001094FF0000839D5D0
:100B8000686810F00C0F07D06868C0F38100022875
:100B900009D16868C00306D42868800714D5206985
:100BA000012808D110E02069B0B1C6F80090FFF725
:100BB00013FE074605E00AE1FFF70EFEC01B022800
:100BC000C4D828688007F7D52868616920F0F80044
:100BD00040EAC10028600DE0C6F80080FFF7FCFD88
:100BE000074604E0FFF7F8FDC01B022823D8286859
:100BF0008007F7D4207800072CD57948A169D9B1AE
:100C0000C0F80090FFF7E8FD074604E0FFF7E4FDB9
:100C1000C01B02280FD8686A8007F7D571484FF4C7
:100C2000FA510068B0FBF1F0009000BF0098411E3F
:100C30000091FAD20EE080E0C0F80080FFF7CCFD12
:100C4000074604E0FFF7C8FDC01B022875D8686A94
:100C50008007F7D42078400760D5E8690027C000F6
:100C600008D4E86940F08050E861E869012700F0A5
:100C7000805000905C480168C90513D40168834620
:100C800041F480710160FFF7A7FD824606E000BFD6
:100C9000FFF7A2FDA0EB0A0064284ED8DBF80000A5
:100CA000C005F5D5E06801280AD008B1052813D0A1
:100CB000286A20F001002862286A20F0040002E07F
:100CC000286A40F001002862E06841F2883B98B150
:100CD000FFF782FD82460BE0286A40F0040028629C
:100CE000EEE700BFFFF778FDA0EB0A0159455AD89F
:100CF000286A8007F6D50CE0FFF76EFD824605E016
:100D0000FFF76AFDA0EB0A0159454CD8286A800715
:100D1000F6D41FB1E86920F08050E861E06988B33B
:100D20006968C1F38101022944D00228C6F86080B5
:100D300004D0FFF751FD044638E034E0FFF74CFDE6
:100D4000074604E0FFF748FDC01B02282BD828689F
:100D50008001F7D4206AB0F5803F05D16868A168AA
:100D600020F4003008436860D4E90801084369684A
:100D700021F4741108436860C6F86090FFF72CFDF9
:100D8000044606E025E000BFFFF726FD001B022811
:100D900009D828688001F7D51BE000BFFFF71CFDCC
:100DA000001B022802D90320BDE8F88F28688001C3
:100DB000F4D40EE00128F7D06868226A00F480318C
:100DC000914204D1616A00F47010884201D0012080
:100DD000EAE70020E8E7000000100240000042427D
:100DE00080044242240000200070004070B5154687
:100DF0000E46040007D0A069B0F5807F03D094F8B8
:100E0000410010B107E0012070BD002084F84000CF
:100E1000204600F01DF804F108012068FFF77EFA73
:100E20003146A2682068FFF7ADFAD4E901022946ED
:100E3000236BFFF755FAA168206850F8212042F093
:100E4000010240F82120012084F84100002070BDFB
:100E5000FFF784BB10B5401EB0F1807F01D30120A5
:100E600010BD4FF0E02460610F21601701F042F9DE
:100E70000020A06107202061002010BD704770474E
:100E800070B590F83C20012A2CD0012480F83C4019
:100E9000022280F83D2003685A689D6822F070069F
:100EA0000A6832435A60104B02689A420ED00F4BC8
:100EB0009A420BD0B2F1804F08D00D4B9A4205D028
:100EC0000C4B9A4202D00C4B9A4204D1496825F04F
:100ED00080031943916080F83D40002180F83C1068
:100EE000084670BD022070BD002C01400034014056
:100EF0000004004000080040000C004010B5040051
:100F000003D094F83D0010B107E0012010BD00208F
:100F100084F83C00204600F01FF8022084F83D00D1
:100F2000211D206800F0FEFE012084F8460084F8B0
:100F30003E0084F83F0084F8400084F8410084F8C3
:100F4000420084F8430084F8440084F8450084F8A3
:100F50003D00002010BD000008B50068B0F1804FD2
:100F600012D10A48C16941F00101C161C069002282
:100F700000F00100009011461C20FFF799FCBDE82D
:100F800008401C20FFF786BC08BD0000001002408E
:100F900090F83D10012901D001207047022180F80E
:100FA0003D100168CA6842F00102CA6000680E493B
:100FB00088420ED00D4988420BD0B0F1804F08D046
:100FC0000B49884205D00B49884202D00A49884221
:100FD00004D1816801F00701062903D0016841F0BE
:100FE0000101016000207047002C014000340140E5
:100FF0000004004000080040000C004070B50446AA
:1010000090F83C000025012817D0012684F83C60A8
:10101000022084F83D002068826822F0770222F4E2
:101020007F4282600868502838D00DDC20284FD0DD
:1010300005DC90B3102811D14AE0022070BD3028A1
:1010400046D040280AD13BE060282FD070280DD030
:10105000B0F5805F03D0B0F5005F12D0012584F8B1
:101060003D60002084F83C00284670BDCB68D1E983
:101070000121206800F0A4FE2068816841F077011A
:1010800009E0CB68D1E90121206800F099FE2068D1
:10109000816841F480418160E1E719E0CA684968EC
:1010A000206800F09FFE5021206806E0CA68496869
:1010B000206800F0A8FE6021206800F08BFECEE7DB
:1010C000CA684968206800F08DFE40212068F4E776
:1010D000226801461046F0E770472DE9F0410446CA
:1010E0000068C66805694FF00007A90713D5B10766
:1010F00011D5F91E016101202077206880698007E1
:10110000204602D0FFF7E8FF04E000F07EF820461A
:1011100000F07CF82777680716D5700714D521688A
:101120006FF004000861022020772068806910F4C5
:10113000407F204602D0FFF7CFFF04E000F065F8C3
:10114000204600F063F82777280715D5300713D518
:1011500021686FF008000861042020772068C069CA
:101160008007204602D0FFF7B7FF04E000F04DF8FB
:10117000204600F04BF82777E80616D5F00614D580
:1011800021686FF010000861082020772068C0698E
:1011900010F4407F204602D0FFF79EFF04E000F0ED
:1011A00034F8204600F032F82777E80708D0F00737
:1011B00006D021686FF001000861204600F028F891
:1011C000280608D5300606D521686FF08000086132
:1011D0002046FFF753FE680608D5700606D521683D
:1011E0006FF040000861204600F044F8A8060AD5D8
:1011F000B00608D521686FF0200008612046BDE8E0
:10120000F041FFF73CBEBDE8F08170477047000039
:1012100010B5044640210F48FFF7D0FA0E49206868
:101220000968884215D10D480188491C89B201809E
:10123000B1F5FA7F08D10021018010210848FFF79D
:10124000BDFA08A000F04EFFBDE81040012026F0D6
:1012500005BC10BD001401409401002008000020CE
:10126000000C014074696D32207570646174650D05
:101270000A0000007047704770470000F8B5016829
:1012800004460868CA684B6910F00F0F4FF000055C
:1012900059D003F0010602F49077374365D0C107B7
:1012A00005D0D10503D5616C41F0010161644107AE
:1012B00005D5D90703D0616C41F002016164810753
:1012C00005D5D90703D0616C41F0040161640107C1
:1012D00007D502F02001314303D0616C41F00801D1
:1012E0006164616C00293AD0800604D5900602D56D
:1012F000204600F0C9FD20684069616CC0F3801091
:10130000090700D460B3204600F097FD20684069CB
:10131000400621D52068143050E8001F21F040011C
:1013200040E80012002AF5D1E06BA8B16D49416395
:10133000E06BFFF769F8002811D0E06B416B01B05A
:10134000BDE8F040084783060FD593060DD520462B
:10135000BDE8F84000F098BD2046FFF78DFFF8BDCE
:101360002046FFF789FF6564F8BD266B2023012E18
:101370007CD1C6067AD5D60678D50868486800902C
:1013800048694FF00206400640D5E16B08684068A6
:101390000004000CE8D0A28D8242E5D9E08588697E
:1013A00020282DD020680C3050E8001F21F48071D7
:1013B00040E80012002AF5D12068143050E8001FE0
:1013C00021F0010140E80012002AF5D12068143014
:1013D00050E8001F21F0400140E80012002AF5D13A
:1013E00084F84230256320680C3050E8001F21F05B
:1013F000100140E80012002AF5D1E06BFEF7E0FF93
:101400006663A08DE18D401A81B22AE0A08DE18D46
:10141000401A81B2E08D0028A6D00029A4D022680D
:101420000C3252E8000F20F4907042E80007002FC1
:10143000F5D12068143050E8002F22F0010240E876
:101440000027002FF5D184F84230256320680C3046
:1014500050E8002F22F0100240E80023002BF5D1C5
:1014600066632046FFF707FFF8BDFFE705062BD5AB
:10147000150629D594F841002128F5D1A068B0F5CA
:10148000805F01D12069B0B1206A411C21622168CE
:1014900000784860E08C401E0004000CE084E3D13A
:1014A0002068C16821F08001C1602068C16841F0F6
:1014B0004001C160D8E7206A0088C0F30800486096
:1014C000206A801C2062E5E74006CDD55006CBD5CA
:1014D000CA68204622F04002CA6084F8413000F019
:1014E0001EF9C1E72B1E000870B5040004D094F863
:1014F0004100002510B106E0012070BD84F8405085
:10150000204600F023F8242084F841002068C168B8
:1015100021F40051C160204600F018FD20680169E7
:1015200021F4904101612068416921F02A01416163
:101530002068C16841F40051C1606564202084F8CE
:10154000410084F842006563002070BD30B585B06D
:10155000002400940194029403940068184988427E
:101560002CD11848816941F480418161816901F47D
:1015700080410491816941F0040181618069124DCB
:1015800000F0040004904FF40070009002200190DD
:101590000320039069462846FFF714F82815CDE983
:1015A0000004694628460294FFF70CF80022114611
:1015B0002520FFF77DF92520FFF76CF905B030BD38
:1015C0000038014000100240000801402DE9F84FAA
:1015D000044690F842009A4616460D46202802D04E
:1015E0000220BDE8F88FB5B1AEB1002060642221C1
:1015F00084F842102063FFF7EFF8A6858146E68560
:10160000A0684FF480582027404501D1206920B1BF
:101610002E46002529E00120E3E7002625E04B4681
:10162000002220212046CDF800A000F0EBFC18B1EC
:1016300084F842700320D4E726B1A06840451AD050
:1016400038B108E020684068C0F3080025F8020BB4
:1016500008E0206978B12068406800F07F0000BF92
:1016600006F8010BE08D401EE085E08D0028D6D104
:1016700084F84270B5E720684068F1E770472DE9CB
:10168000F843044690F84100984616460D46202837
:1016900002D00220BDE8F88385B17EB100206064ED
:1016A000212084F84100FFF797F8A6848146E6845C
:1016B000A0682027B0F5805F02D003E00120E9E7B1
:1016C000206910B12E4600250EE000260CE0802196
:1016D000204600F097FCA8B9C6B116F8010B2168A6
:1016E0004860E08C401EE084E08C4B464FF00002E6
:1016F000CDF800800028EAD14FF04001204600F0EC
:1017000081FC40B184F841700320C3E735F8020B37
:10171000C0F30800E3E784F841700020BAE770479F
:10172000FEE7000010B54FF0C041042008800520FE
:10173000FEF702FF0B480188018801884FF6FF720F
:10174000008802EA01210843A0F51341413905D080
:10175000A0F50541523903D0002010BD012010BD75
:10176000022010BD000002602DE9F05F00224FF45E
:101770008051B948FFF72AF86420FEF7DDFEB74C28
:10178000002202212046FFF721F86420FEF7D4FE54
:10179000012202212046FFF719F87820FEF7CCFE3F
:1017A000FFF7C0FFAE494870B8B10022A404AD49AC
:1017B000C1233027032512264FF064094FF0CF08CC
:1017C0004FF0ED0C4FF0810A4FF0E80E4FF0850B13
:1017D000012803D002287CD1A1E0FEE7A4F8008014
:1017E0000A800B800F80A4F800C0A1F800900D8043
:1017F0000E80A1F800A0A4F800E0A1F800B04FF01E
:101800001008A1F800807A200880CB2020803920A1
:1018100008802C2008800A8034200880022008805C
:10182000F720208020200880EA2020800A800A807B
:10183000C02020801B20088023800E80C5202080AF
:101840003F2008803C200880C7202080912008800D
:101850004FF0360EA4F800E04FF0480BA1F800B0AE
:101860003A20208055200880B12020800A8018204E
:101870000880B62020800A200880A2200880F2205C
:1018800020800A802620208001200880E0202080FF
:101890000F20088031260E802B270F804FF00C0A76
:1018A000A1F800A00E270F804FF00809A1F80090C2
:1018B0004FF04E0CA1F800C04FF0F10CA1F800C0A1
:1018C0004FF0370CA1F800C04FF0070CA1F800C092
:1018D00000E0B8E0A1F800800D800F804FF009080B
:1018E000A1F800800A804FF0E108A4F800800A8087
:1018F0000F8014220A800D8011220A80A1F800C0F6
:101900000E800B80A1F800B0A1F800900880A1F82B
:1019100000A00E80A1F800E00880292092E0A4F841
:1019200000800A800B800F80A4F800C0A1F800900E
:101930000D800E80A1F800A0A4F800E0A1F800B08E
:101940001020088078200880CB2020803920088053
:101950004FF02C0AA1F800A00A8034200880022051
:101960000880F725258020250D80EA2525800A801E
:101970000A80C025258021250D8023804FF0110984
:10198000A1F80090C52323804FF02D08A1F8008016
:1019900033230B80362323800A803A232380552368
:1019A0000B80B12323800A8017230B80B625258066
:1019B0000A250D80A2250D80F625258001250D80A4
:1019C0000F80F22727800A80262727800D80E025B8
:1019D0002580D0270F800A8008804FF0070CA1F8DF
:1019E00000C00B250D801A250D8031250D80542552
:1019F0000D8040250D8029250D800E800E800E80E3
:101A00000B80E12323800F800A800880A1F800C0AA
:101A10000520088025200880A1F800804420088047
:101A2000452008801C20088018220A8016220A807F
:101A300008801D200880A4F800909620FEF77CFD09
:101A4000258050462080BDE8F05FEF22002140F263
:101A50003F13084600F008B8001401400018014088
:101A6000000000200000026070B54FF0C0452A243D
:101A70002C800B4C060A2680C0B22080100A2080E1
:101A8000D0B220802B202880080A2080C8B2208075
:101A9000180A2080D8B220802C20288070BD000039
:101AA0000000026000B587B01C216846FEF7E7FB26
:101AB00017484FF020411022016016494160002173
:101AC0008160C160C0E904128161C16113020162D9
:101AD000C0E90913C1620163416381630F20FF23E1
:101AE0000090CDE90103CDE903021120CDE9050104
:101AF000002269460648FFF779F908B1FEF7EEFBC8
:101B00000548C16941F48061C16107B000BD0000B2
:101B10004C010020040100A0000001402DE9F0412B
:101B200086B000243448009401940294039481699F
:101B300041F010018161816901F010010491816916
:101B400041F004018161816901F00401049181691E
:101B500041F040018161816901F040010491816996
:101B600041F020018161816901F0200104918169C6
:101B700041F0080181618069204D00F008004FF4B8
:101B800082570490012239462846FEF71FFE1C4E5C
:101B9000012210213046FEF719FEDFF8688001228D
:101BA00002214046FEF712FE0C20CDE900046946F2
:101BB00015480294FEF706FD0124CDE900740327C1
:101BC000CDE9024769462846FEF7FCFC1020CDE926
:101BD0000004CDE9024769463046FEF7F3FC0220D7
:101BE000CDE90004CDE9024769464046FEF7EAFC2C
:101BF00006B0BDE8F0810000001002400014014072
:101C0000000C0140001801400008014010B586B0EA
:101C100000241748009401940294039404944FF014
:101C20008041059401604721C0E9011440F2E73189
:101C3000C0E9031480218161FFF760F908B1FEF764
:101C40004DFB4FF48050009069460948FFF7D6F9E4
:101C500008B1FEF743FB049404A905480594FFF777
:101C60000FF9002801D0FEF739FB06B010BD0000C7
:101C7000940100200C4810B50A4901604FF4E1318D
:101C80004160002181600C22C160C0E904128161C1
:101C9000C161FFF729FC002803D0BDE81040FEF722
:101CA0001DBB10BD00380140DC010020FEE7FEE74F
:101CB00070477047FEF796BD30B58FB02821684653
:101CC000FEF7DDFA14210AA8FEF7D9FA012108046B
:101CD000CDE900100024029402250491CDE90750BB
:101CE0004FF4E01009906846FEF7F0FE08B172B6B6
:101CF000FEE70F20CDE90A054FF48060CDE90C40E6
:101D000002210AA80E94FEF705FE002801D072B643
:101D1000FEE70FB030BD70470148FFF7DEB90000A5
:101D200094010020F0B50268204C214D214E224F35
:101D3000224B4FF0804CA04209D0984207D060451A
:101D400005D0A84203D0B04201D0B84204D122F05D
:101D5000700E4A6842EA0E02A04209D0984207D0AB
:101D6000604505D0A84203D0B04201D0B84203D1AB
:101D700022F44075CA682A434D6922F080022A4342
:101D800002608A68C2620A688262A04201D09842F8
:101D900001D109690163012141610169C90703D0CA
:101DA000016921F001010161F0BD0000002C01403A
:101DB0000004004000080040000C004000340140D6
:101DC00010B5846842EA032224F47F440A43224384
:101DD000826010BD826822F070020A4342F007015F
:101DE0008160704710B5036A046A24F0010404623C
:101DF000846924F0F00444EA021423F00A020A433E
:101E00008461026210BD10B5036A046A24F01004F4
:101E10000462846923F0A00324F4704444EA02328B
:101E200043EA01118261016210BD10B5406A0021D0
:101E3000C185C184FFF720FA10BD01680C3151E85B
:101E4000002F22F4907241E80023002BF5D10168A5
:101E5000143151E8002F22F0010241E80023002B49
:101E6000F5D1016B012909D101680C3151E8002F2E
:101E700022F0100241E80023002BF5D1202180F848
:101E8000421000210163704708B590F842102229E2
:101E900001D0022008BD82684FF480539A4201D1DC
:101EA000016921B1816A9A421BD04AB10AE00268F5
:101EB000816A5268C2F308020A80816A891C08E0BC
:101EC000026972B10268526802F07F020A70816A88
:101ED000491C8162C18D491E0904090CC18503D0CA
:101EE0001BE002685268F1E70168CA6822F020022C
:101EF000CA600168CA6822F48072CA6001684A69CF
:101F000022F001024A61202180F842100021416341
:101F1000026B012A03D0FFF7B1FB002008BD01636B
:101F200001680C3151E8002F22F0100241E8002333
:101F3000002BF5D101680A68D20602D50A68496803
:101F40000091818DFFF797F9E7E7000070B504462F
:101F500000680169E26821F440511143016121697F
:101F6000A0680843616908432168CA6841F20C63AC
:101F70009A430243CA6020684169A26921F4407112
:101F8000114341611E492068884202D1FEF768FD75
:101F900001E0FEF755FD00EBC00101EB00126068A7
:101FA00064218000B2FBF0F3B3FBF1F36FF018068D
:101FB0007343B2FBF0F5B2FBF0F605EB8305322379
:101FC00003EB0515B5FBF1F5B6FBF1F605F0F005F1
:101FD00005EB0615B2FBF0F6B2FBF0F0B0FBF1F04A
:101FE0006FF01802504306EB800003EB0010B0FBCB
:101FF000F1F0216800F00F002844886070BD0000F7
:10200000003801402DE9F843984617460D4604462E
:10201000089E24E0701C22D0FEF7DEFBA0EB080037
:10202000B0421AD8CEB12068C168490717D5802DB3
:1020300015D0402D13D00168C94309070FD401689A
:102040000025406800902046FFF7F7FE08206064F6
:1020500084F840500120BDE8F8830320FBE72068A6
:10206000006835EA000004D00020B842D2D0002039
:10207000F1E70120F9E70000F8B5154D2868006880
:102080004FF00006C043800612D4134C11490023C0
:10209000207801220144401C20702846FFF796FA60
:1020A0002078642800D3267029686FF0200008602B
:1020B00028680168C943C90605D401684068074912
:1020C000009001200870BDE8F8400148FFF7D6B83D
:1020D000DC010020E80000200700002006000020AE
:1020E000FEE70000014A024900F084B9A5A50008F6
:1020F000E40000200907090E002804DB00F1E020BD
:1021000080F80014704700F00F0000F1E02080F824
:10211000141D704702E008C8121F08C1002AFAD136
:1021200070477047002001E001C1121F002AFBD157
:10213000704770B5044600256FF02F0608E0206850
:10214000411C2160007805EB850106EB4101451833
:102150002068007800F02CF80028F0D1284670BDE7
:1021600070B514460D461BB9114612F01FFD03460B
:1021700003FB05F0142C0ED0E11F03290AD8072C0D
:102180000DD0082C0DD0092C0DD00A2C0DD000211B
:1021900000EB810070BD590801FB050070BD0221F4
:1021A000F6E70421F4E71021F2E74FF48071EFE73E
:1021B0003038092801D801207047002070472DE9E8
:1021C000FC5F9B460CAB8A468146DDE9116093E8D3
:1021D0001210DDE90F575FEA80784FF030031AD410
:1021E0005EB15FEAC07808D000F00C0858EA0C082D
:1021F00003D0761E01E00B55641CBC4204D2202C97
:10220000F9D301E00B55641C5FEAC07803D0B442F7
:1022100001D2202CF6D35FEAC06825D55FEA40588A
:102220000AD44CB1BC4201D0B44205D1641E03D0E3
:10223000102D03D1641E04E0102D02D0022D0AD00F
:102240000EE0850603D4202C1ED2782506E0202C33
:102250001AD2582502E0202C16D262250D55641C96
:10226000202C11D20B55641C202C0DD2BCF1000F78
:1022700001D02D2306E0430701D52B2302E00307FD
:1022800002D520230B55641CCDE900BAC84615467B
:1022900081468B46AA46800714D1274607E02A4686
:1022A000DDE900316D1C2020C446E0477F1CB742A9
:1022B000F5D307E02A466D1C641EDDE900311BF8EA
:1022C0000400C047002CF5D15FEA897006D409E00C
:1022D0002A46DDE900316D1C2020C047A5EB0A002D
:1022E000B042F5D32846BDE8FC9F2DE9F04F8FB0F2
:1022F00099468B46DDE91818DDE91C63DDE91A47CC
:1023000092468646002209B923F01003580507AD0E
:1023100000D5C9B1B1FBF4F004FB1010C0B20A281B
:1023200001D2303009E05FEA836C02D54FF0410CF6
:1023300001E04FF0610C60440A38B1FBF4F1A8549D
:10234000521C09B1202AE5D3CDF80880CDE90563F8
:10235000CDE90052CDE903474B46524659467046F7
:10236000FFF72DFF0FB0BDE8F08F2DE9FF4F8FB0C5
:102370001CACDDE9239594E8030820AC94E8C00484
:10238000002450EA010201D125F010056A050DF183
:102390001C0802D550EA010217D032463B46FDF731
:1023A000E3FED2B20A2A01D2303206E0AB0601D5F2
:1023B000412300E061231A440A3A08F80420641C0F
:1023C00050EA010201D0202CE7D3CDE90084CDF8FA
:1023D00008B0CDE90595CDE9036A0FAF97E80F0086
:1023E000FFF7EDFE13B0BDE8F08F9A4200D288549B
:1023F000704770472DE9F04116460F460446002508
:1024000003E03946B047641C6D1C20780028F8D1E1
:102410002846BDE8F0810000FEB50D46040011D04D
:10242000EDB100F08FFF00280BD0616800690FF05C
:1024300083FA0646E16B28468847E1680844E06075
:102440003046FEBD0CA210A112A08DE80700194B6A
:1024500040F22912184903201BF0FCFEFEE706A2F9
:1024600016A10CA08DE80700124B4FF4957212498B
:1024700003201BF0EFFEFEE74E554C4C20706F69B9
:102480006E746572000000006C727520213D204E54
:10249000554C4C00417373657274656420617420FF
:1024A00065787072657373696F6E3A2025732028A2
:1024B0002573290083580308847603086B65792007
:1024C000213D204E554C4C002DE9FF4114460E464F
:1024D00005460A461F4621466846DDF828800DF06D
:1024E000A2FB00281BD0019861682268411A08FBF2
:1024F00001500099891A0D18009831683844441A1F
:1025000068460DF07EFB002107E0625C6B5C1A44BC
:10251000FF2A00D9FF226254491C8142F5D3BDE84D
:10252000FF8110B5002440B100F098FEB0F5004FD7
:1025300003D20C2800D80C200446204610BD000011
:102540002DE9F04F064691B0D6E90170804696F825
:1025500021B03568F0680F90D6E906400E90D6E9B4
:1025600004A009900AA810F053FC96F8220008B1C4
:102570000020C3E0BAF1000F05D0BBF1FD0F4FF012
:10258000000065D28AE0BBF1FD0F4FF0000017D2CA
:102590001CE000260CE000BF04EB460005EB460102
:1025A0000088ADF804000AAA019810F057F9761CCB
:1025B000BE42F1DB0F9805440E98044409F1010076
:1025C00081464045E5DB11B0BDE8F08F81464045CE
:1025D000F9DA002613E000BF04EB46000AAA0088DF
:1025E000ADF804009DF8051001FB0BF1080A8DF809
:1025F000050005EB4601019810F030F9761CBE424B
:10260000EADB0F9805440E98044409F10100DDE768
:10261000002613E004EB46000AAA0088ADF8080083
:102620009DF809001AF806104843000A8DF80900C1
:1026300005EB4601029810F011F9761CBE42E9DB69
:102640000F98099905440E988A44044409F1010041
:1026500081464045DCDBB6E7002615E004EB46008A
:102660000AAA0088ADF808009DF809001AF80610BB
:10267000484300FB0BF0000C8DF8090005EB460108
:10268000029810F0EBF8761CBE42E7DB0F98099930
:1026900005440E988A44044409F1010081464045EE
:1026A000DADB90E700201BE004EB4900BAF1000FF1
:1026B0000088ADF808009DF8090023D01AF8091029
:1026C000484300FB0BF0000C8DF8090096F822201F
:1026D00005EB49000AAB029901F0F2FE09F1010095
:1026E0008146B842E0DBBAF1000F01D009998A4473
:1026F0000F9805440E9804440398401C03904045ED
:10270000D0DB60E700FB0BF0000ADDE72DE9F04FBE
:10271000064695B0D6E90170804696F821B0356836
:10272000F0680E90D6E906400C90D6E904900A9025
:1027300096F8220020B110A810F07EFB0020CCE01B
:10274000B9F1000F05D0BBF1FD0F4FF0000063D2CF
:1027500086E0BBF1FD0F4FF0000019D21EE000BF74
:102760004FF000094E460BE004EB460005EB8901F3
:10277000427814F8160010F00FFA09F10109761CDE
:10278000BE42F1DB0E9805440C9804440AF10100A6
:1027900082464045E4DB15B0BDE8F08F82464045F7
:1027A000F9DA4FF000094E460FE000BF04EB460097
:1027B00005EB8901407800FB0BF0020A14F81600C3
:1027C00010F0EAF909F10109761CBE42EEDB0E9821
:1027D00005440C9804440AF10100DFE74FF0000AB9
:1027E00056460FE004EB460019F8061040784843BF
:1027F000020A05EB8A0114F8160010F0CDF90AF16F
:10280000010A761CBE42EDDB0E980A9905440C982D
:10281000894404440BF1010083464045DEDBBAE7FE
:102820004FF0000A564611E004EB460019F8061076
:102830004078484300FB0BF0020C05EB8A0114F8CA
:10284000160010F0A9F90AF1010A761CBE42EBDB72
:102850000E980A9905440C98894404440598401C34
:1028600005904045DCDB96E70020039027E000BFA1
:1028700014F81A100298B9F1000F61F3174061F3D0
:102880000F2061F3070004EB4A012AD0039B49782B
:1028900019F80320514301FB0BF1090C61F31F6090
:1028A0000290039896F8222005EB800010AB029965
:1028B00001F02BFE0398401C03900AF101008246B0
:1028C000B842D5DBB9F1000F01D00A9881440E98C7
:1028D00005440C9804440598401C05904045C3DB12
:1028E00059E74A7802FB0BF2110AD7E72DE9F04FBE
:1028F000054687B0D5E9016790F821B000680090DF
:10290000E8680290D5E906400390D5E90490049068
:10291000686AC11700EB517121F00701A0EB010AB1
:1029200095F8220008B1002027E1B9F1000F05D089
:10293000BBF1FD0F4FF0000070D2DFE0BBF1FD0FE7
:102940004FF000002ED233E04FF0000845461FE064
:1029500008EB0A018B46009807F0B1FEC0EB00209F
:102960008DF8040004EB450001A9427814F8150025
:1029700010F02EF99DF8040059467F28009802D9DE
:102980002AF0A6FE01E003F0C2FA08F101086D1C6E
:10299000B542DDDB02990098084400900398044496
:1029A00009F101008146B842CEDB07B0BDE8F08FE7
:1029B0008146B842F9DA4FF00008454623E000BFEF
:1029C00008EB0A010191009807F079FEC0EB0020A6
:1029D0008DF8100004EB450004A9407800FB0BF0D3
:1029E000020A14F8150010F0F3F89DF810007F2883
:1029F000DDE9000102D92AF06BFE01E003F087FA5D
:102A000008F101086D1CB542DADB02990098084410
:102A100000900398044409F10100C9E734E000BFC5
:102A20004FF00008454623E008EB0A0101910098A9
:102A300007F045FEC0EB00208DF8140004EB4500C4
:102A400019F8051040784843020A14F8150005A942
:102A500010F0BEF89DF814007F28DDE9000102D9CE
:102A60002AF036FE01E003F052FA08F101086D1C6D
:102A7000B542D9DB02990098084400900398049964
:102A8000044489440BF101008346B842C8DB8CE75B
:102A90004FF00008454625E008EB0A010191009837
:102AA00007F00DFEC0EB00208DF8140004EB45008C
:102AB00019F805104078484300FB0BF0020C14F89D
:102AC000150005A910F084F89DF814007F28DDE9B1
:102AD000000102D92AF0FCFD01E003F018FA08F128
:102AE00001086D1CB542D7DB00990298084400909C
:102AF00003980499044406988944401C0690B842FF
:102B0000C6DB52E70020059027E000BF14F818103C
:102B10000198B9F1000F61F3174061F30F2061F3E1
:102B2000070004EB480149782BD019F808205143DD
:102B300001FB0BF15FEA114161F31F600190059801
:102B400095F8223000EB0A01DDE9000201F02DFDCD
:102B50000598401C059008F101008046B042D5DB85
:102B6000B9F1000F01D004998944029900980844F2
:102B70000090039804440698401C0690B842C1DBBC
:102B800013E701FB0BF1090AD6E700002DE9F04F2E
:102B9000064691B0D6E90170804696F821B03568B6
:102BA000F0680F90D6E906400D90D6E904900B909E
:102BB00096F8220008B10020C5E0B9F1000F05D059
:102BC000BBF1FD0F4FF0000062D285E0BBF1FD0FBD
:102BD0004FF0000018D21DE04FF000094E460BE008
:102BE00004EB460005EB0901427814F816000FF0DB
:102BF000FCFF09F10109761CBE42F1DB0F98054488
:102C00000D9804440AF1010082464045E4DB11B00E
:102C1000BDE8F08F82464045F9DA4FF000094E4694
:102C20000FE000BF04EB460005EB0901407800FB14
:102C30000BF0020A14F816000FF0D7FF09F1010992
:102C4000761CBE42EEDB0F9805440D9804440AF151
:102C50000100DFE74FF0000A56460FE004EB4600A4
:102C6000417819F8060041430A0A05EB0A0114F8F5
:102C700016000FF0BAFF0AF1010A761CBE42EDDB26
:102C80000F980B9905440D98894404440BF10100F9
:102C900083464045DEDBBAE74FF0000A564611E0B6
:102CA00004EB460019F806104078484300FB0BF08F
:102CB000020C05EB0A0114F816000FF096FF0AF15A
:102CC000010A761CBE42EBDB0F980B9905440D9868
:102CD000894404440498401C04904045DCDB96E79A
:102CE0000020039021E000BF14F81A100098B9F1F9
:102CF000000F61F3174061F30F2061F3070026D046
:102D0000039A19F8021001FB0BF1090A61F31F6025
:102D10000090039896F822202844009901F07CFC4A
:102D20000398401C03900AF101008246B842DBDBA5
:102D3000B9F1000F01D00B9881440F9805440D980C
:102D400004440498401C04904045C9DB5FE76BF3E2
:102D50001F60DDE72DE9F04F804687B0D8E90170AC
:102D6000814698F821B0D8F80040D8F80C000290BD
:102D7000D8E906500190D8E904A0039098F8220001
:102D800008B100202AE1BAF1000F05D0BBF1FD0F18
:102D90004FF0000066D28BE0BBF1FD0F4FF000005A
:102DA0001AD21FE00026B0460EE000BF05EB480037
:102DB00034F81610427815F818000FF0A5FE24F824
:102DC000160008F10108761CBE42EFDB02980444AD
:102DD000019805440AF1010082464845E2DB07B04C
:102DE000BDE8F08F82464845F9DA0026B04610E08B
:102DF00005EB4800417815F8180001FB0BF10A0AB1
:102E000034F816100FF080FE24F8160008F10108BF
:102E1000761CBE42ECDB02980444019805440AF19A
:102E20000100DFE70026B04612E000BF05EB4800D6
:102E30001AF8061040784843020A34F8161015F8BC
:102E400018000FF061FE24F8160008F10108761C46
:102E5000BE42EBDB02980399044401988A4405447E
:102E60000BF1010083464845DCDBB8E70026B0469D
:102E700014E000BF05EB48001AF8061040784843FC
:102E800000FB0BF0020C34F8161015F818000FF0C8
:102E90003BFE24F8160008F10108761CBE42E9DB6F
:102EA00002980399044401988A4405440098401C00
:102EB00000904845DADB92E70026304600960494FD
:102EC0007EE000BF15F8101098F82220C808890885
:102ED000012A1CD0022A40D0032A80D1049A32F859
:102EE0001620D30A43434FEA531C4FF6FF7303EAFD
:102EF000CC23C2F3451C0CFB01FC4FEA9C1102F0F1
:102F00001F0203EB4111424301EB52101BE0049AF4
:102F100032F8162000EBD2231F2B00D31F234FF6CD
:102F2000FF7C0CEAC323C2F3451C61443F2900D354
:102F30003F2102F01F0203EB4111104489B21F2808
:102F400000D31F20084480B2BAF1000F22D0BBF199
:102F5000FD0F48D31AF8062028E0049A32F816200C
:102F6000C0EBD223002B00DC00234FF6FF7C0CEAE1
:102F7000C323C2F3451CACEB0101002900DC002196
:102F800002F01F0203EB4111101A89B20028D9DCAC
:102F90000020D7E70099BBF1FD0F05EB410101D3FC
:102FA0004A7803E0497801FB0BF10A0A34F816105D
:102FB0000FF036FC24F816000098001D761C0090D7
:102FC000BE42FFF67FAF0298BAF1000F04440198A9
:102FD000054401D003998A440598401C0590484552
:102FE000FFF66AAFFBE6009A1AF8061005EB4202FC
:102FF0005278514301FB0BF10A0CD7E72DE9F34F4F
:10300000064685B0D6E90170804696F821B035684D
:10301000F0680190D6E906400090D6E9049003904C
:1030200096F8220008B10020C8E0B9F1000F05D0E1
:10303000BBF1FD0F4FF0000062D285E0BBF1FD0F48
:103040004FF0000018D21DE04FF000094E460BE093
:1030500004EB460005EB0901427814F816000FF066
:1030600081FD0699761C8944BE42F1DB0198054436
:10307000009804440AF1010082464045E4DB07B0B1
:10308000BDE8F08F82464045F9DA4FF000094E4620
:103090000FE000BF04EB460005EB0901407800FBA0
:1030A0000BF0020A14F816000FF05CFD0699761C6E
:1030B0008944BE42EEDB01980544009804440AF1BD
:1030C0000100DFE74FF0000A56460FE004EB460030
:1030D00019F8061040784843020A05EB0A0114F873
:1030E00016000FF03FFD0699761C8A44BE42EDDBC8
:1030F0000198039905440098894404440BF10100A8
:1031000083464045DEDBBAE74FF0000A564611E041
:1031100004EB460019F806104078484300FB0BF01A
:10312000020C05EB0A0114F816000FF01BFD0699BE
:10313000761C8A44BE42EBDB019803990544009853
:10314000894404440298401C02904045DCDB96E729
:103150000020029024E000BF14F81A00B9F1000F1B
:1031600060F3070160F30F2160F3174104EB4A009D
:10317000407828D0029B19F80320504300FB0BF045
:103180005FEA104060F31F61029896F822202844FD
:1031900001F066FA06990298084402900AF10100CB
:1031A0008246B842D8DBB9F1000F01D003998944B7
:1031B00001980544009804440498401C414604903A
:1031C0008842C5DB5BE700FB0BF0000ADAE7000092
:1031D0001CB508444A1E401E904311420BD006A164
:1031E00015A0CDE900011B4B4FF4FA721A490320D8
:1031F0001BF030F8FEE71CBD30203D3D2028616CFF
:1032000069676E20262028616C69676E202D203149
:10321000292920262620226D75737420616C696728
:103220006E20746F206120706F776572206F66204A
:1032300074776F22000000004173736572746564D7
:103240002061742065787072657373696F6E3A20BF
:10325000257300007B610308F87803081CB54A1E3B
:1032600011420BD007A11748CDE90001164B4FF4CE
:10327000F372164903201AF0EDFFFEE70844401EE2
:1032800090431CBD30203D3D2028616C69676E2055
:10329000262028616C69676E202D2031292920267F
:1032A0002620226D75737420616C69676E20746FBF
:1032B000206120706F776572206F662074776F22AF
:1032C00000000000ACD6020867610308F878030824
:1032D0003EB540201BF02AF8040005D04022002112
:1032E0001BF083F920463EBD05A209A10BA08DE885
:1032F0000700124BB722124903201AF0ABFFFEE77A
:103300004F7574206F66206D656D6F7279000000D7
:1033100072657320213D204E554C4C0041737365FE
:103320007274656420617420657870726573736966
:103330006F6E3A202573202825732900A1580308B1
:10334000847603082DE9F04186B00D4604002DD0A7
:10335000002D37D004F12400804620F061FD039059
:10336000002841D00769616838460EF0E5FA064644
:103370002946384662681BF07DF804F130001AF0E7
:103380008EFE0490002829D0042203A91BF072F8B5
:103390002046039907F076FE042204A91BF06AF880
:1033A0002146304662680EF067FB1DE010A214A1B2
:1033B00016A08DE807001D4B8F221D4903201AF02F
:1033C00049FFFEE70AA21BA110A08DE80700174BDA
:1033D0009022174903201AF03DFFFEE7404603996B
:1033E00020F0D8FB00200390039806B0BDE8F081E0
:1033F0004E554C4C20706F696E7465720000000071
:103400006C727520213D204E554C4C004173736504
:103410007274656420617420657870726573736975
:103420006F6E3A20257320282573290092580308CF
:10343000847603086B657920213D204E554C4C0065
:10344000FEB50F460121002504462E46C16309E062
:1034500026A122F09FF808B16D1C02E0E06B401C31
:10346000E063761C57F8260010B101780029EFD1EF
:10347000A06BA84238D0206B002610B117F0F6FBE5
:103480002663606B10B117F0F1FB666328011AF038
:103490004DFF206340B168001AF048FF606380B1BF
:1034A000216B00291AD01AE011A215A11BA08DE8EA
:1034B0000700224B40F24E32214903201AF0CAFE87
:1034C000FEE70BA21FA115A08DE807001B4B4FF4D0
:1034D00054721B4903201AF0BDFEFEE700256A0066
:1034E00000211BF082F8A563FEBD00000A00000069
:1034F0004F7574206F66206D656D6F7279000000E6
:1035000062746E6D2D3E627574746F6E5F6172656C
:10351000617320213D204E554C4C00004173736572
:103520007274656420617420657870726573736964
:103530006F6E3A202573202825732900CC63030879
:103540007479030862746E6D2D3E6374726C5F62F1
:1035500069747320213D204E554C4C003EB5C07A15
:1035600000F00700062808D2DFE800F00705030393
:1035700003030C4602E0144600E0402404EB440040
:10358000C01C20F00305E01C20F0030028440C3090
:103590001AF0CCFE38B100F10C01016029180C3191
:1035A000C0E901143EBD06A209A10DA08DE80700E7
:1035B000134B6F22134903201AF04CFEFEE7000064
:1035C0004F7574206F66206D656D6F727900000015
:1035D0006974656D20213D204E554C4C0000000063
:1035E00041737365727465642061742065787072CC
:1035F000657373696F6E3A2025732028257329003F
:10360000811E0308D474030810B5044690F85400D2
:10361000E26BC107616C04D121B14B1C18D0491E6B
:103620006164A9B90AB1C10712D0214614481AF041
:10363000DBFD00F027F8216909B120468847616960
:1036400009B1204688472046BDE8104017F00EBB60
:10365000216C49426163002A10D0C10702D1A16BDD
:1036600049426163411C61F3000084F85400E16A3F
:10367000606A6162E062206B2263E06310BD00005B
:103680009015002010B50A4C012084F8A40004F124
:10369000AC001AF0DFFC0028D4F8A80003D0BDE885
:1036A000104024F01FBCBDE8104024F075BB0000A2
:1036B000E41400202DE9F0413D4D95F8A50038B106
:1036C0005FF0000085F8A5003948AC30074664E09B
:1036D0000120F7E7206D24F0ABF9616B08446063CB
:1036E00024F0ACF92065002085F8A40094F854007B
:1036F00095F8A510C0F340028A4254D061F341000E
:1037000084F8540041071ED4616B002941DB000797
:1037100009D4A16939B120468847616A01446162D0
:10372000E16A0844E062204626F0E8FFE16809B15A
:103730002046884794F8540040F0040084F8540070
:10374000204626F057FE606B002822DB216B884262
:1037500000DD6163216A20468847A16A0646B142BE
:103760000DD0A662626812B131462068904795F884
:10377000A40088B9A2682AB131462046904795F83E
:10378000A40048B9D4E90C0181420CDB2046FFF7C4
:103790003BFF95F8A40030B138461AF05BFC0400FA
:1037A00098D1BDE8F081214638461AF065FCF6E76D
:1037B000E414002070B5044640680D4608B1FFF7D8
:1037C000F9FF2268002A04D029462046BDE870404F
:1037D000104770BD70B50D6806460C46286838B1B4
:1037E000296AC90204D5206021463046FFF7F2FF5E
:1037F000214630462560BDE87040FFF7DBBF0BF087
:10380000D0BF0CF013B800002DE9F04F074691B07F
:10381000D7E90160814697F8210008903D68F86873
:103820000F90D7E906400E90D7E904B00A900BA894
:103830000FF0EEFA97F8220008B10020D9E00898BE
:10384000BBF1000F04D0FD284FF0000071D29AE0C8
:10385000FD284FF000001ED223E0002713E000BF38
:1038600004EB870BDBF800000EF0C8FF60F30708DD
:103870009BF80310404661F30F2005EB47010BAAAC
:103880000EF0ECFF7F1CB742EADB0F9805440E9860
:1038900004440AF1010082464845DEDB11B0BDE870
:1038A000F08F82464845F9DA002715E004EB870BD4
:1038B000DBF800000EF0A2FF60F307089BF803009E
:1038C00008990BAA4843010A404661F30F2005EB13
:1038D00047010EF0C3FF7F1CB742E7DB0F9805449A
:1038E0000E9804440AF10100DBE7002717E000BF4F
:1038F00004EB8700079000680EF080FF60F3070874
:1039000007981BF807100BAAC0784843010A4046E5
:1039100061F30F2005EB47010EF0A0FF7F1CB742BB
:10392000E6DB0F980A9905440E988B4404440AF18B
:10393000010082464845D8DBB0E7002719E000BF08
:1039400004EB8700079000680EF058FF60F307084B
:1039500007981BF807100BAAC078484308994843FA
:10396000010C404661F30F2005EB47010EF076FF96
:103970007F1CB742E4DB0F980A9905440E988B44EC
:1039800004440AF1010082464845D6DB86E7002060
:1039900021E000BF04EB8A00029000680EF02EFFC9
:1039A00060F3070802984146BBF1000FC07860F34E
:1039B0000F2122D01BF80A205043089A5043000CD4
:1039C00060F30F2197F8222005EB4A000BAB00F0C3
:1039D00077FD0AF101008246B042DBDBBBF1000F4C
:1039E00001D00A998B440F9805440E98044403981B
:1039F000401C03904845CADB50E7089A5043000A30
:103A0000DEE700002DE9F04F064693B0D6E90170DD
:103A1000804696F821B03568F0681190D6E90640E6
:103A20001090D6E904A00B900CA80FF005FA96F8B8
:103A3000220008B10020C0E0BAF1000F05D0BBF1B0
:103A4000FD0F4FF0000065D28AE0BBF1FD0F4FF093
:103A5000000018D21DE000260DE000BF05EB860A2D
:103A600004EB8600DAF8001000680CAA0EF0DAFF0A
:103A7000CAF80000761CBE42F0DB1198054410988D
:103A8000044409F1010081464045E4DB13B0BDE880
:103A9000F08F81464045F9DA002612E004EB8600FB
:103AA00005EB860A00680CAA010E01FB0BF1090A5E
:103AB00061F31F60DAF800100EF0B4FFCAF80000DE
:103AC000761CBE42EADB119805441098044409F1C3
:103AD0000100DEE7002613E004EB86001AF806205A
:103AE000006805EB860B010E5143090A61F31F6064
:103AF000DBF800100CAA0EF095FFCBF80000761C46
:103B0000BE42E9DB11980B99054410988A4404449D
:103B100009F1010081464045DCDBB7E7002615E0EE
:103B200004EB86001AF806200068010E514301FBE1
:103B30000BF1090C61F31F6005EB86010791096821
:103B40000CAA0EF06FFF0799761C0860BE42E7DBF7
:103B500011980B99054410988A44044409F1010016
:103B600081464045DADB91E7002018E004EB89004C
:103B7000BAF1000F01684FEA116022D01AF809204B
:103B8000504300FB0BF0000C60F31F6196F82220FD
:103B900005EB89000CAB00F0B8FC09F1010081468F
:103BA000B842E3DBBAF1000F01D00B998A441198B7
:103BB0000544109804440398401C03904045D3DB0F
:103BC00064E700FB0BF0000ADEE700002DE9F04F90
:103BD000054689B0D5E9016790F821B000680090EA
:103BE000E8680290D5E906400390D5E90490049076
:103BF000686AC11700EB517121F00701A0EB010ABF
:103C000095F8220008B100201BE1B9F1000F05D0A2
:103C1000BBF1FD0F4FF0000071D2E2E0BBF1FD0FF0
:103C20004FF000002FD234E0002522E004EB850B9A
:103C3000DBF800000EF0E2FD05EB0A010490894676
:103C4000009806F03CFDC0EB00208DF804009BF8C6
:103C5000032001A904980EF0BBFF9DF8040049461B
:103C60007F28009802D929F033FD01E002F04FF9D6
:103C70006D1CB542DADB0299009808440090039865
:103C8000044408F101008046B842CDDB09B0BDE82C
:103C9000F08F8046B842F9DA002525E004EB850074
:103CA000059000680EF0AAFD05EB0A010490894614
:103CB000009806F004FDC0EB00208DF80400059884
:103CC00001A9C07800FB0BF0020A04980EF080FFF7
:103CD0009DF8040049467F28009802D929F0F8FC95
:103CE00001E002F014F96D1CB542D7DB009902988F
:103CF000084400900398044408F10100C9E734E047
:103D0000002526E004EB8500069000680EF076FDA5
:103D100005EB0A0105908B46009806F0D0FCC0EB3D
:103D200000208DF80400069819F80510C07841436A
:103D30000A0A01A905980EF04BFF9DF804005946A8
:103D40007F28009802D929F0C3FC01E002F0DFF8D7
:103D50006D1CB542D6DB0099029808440090039888
:103D600004990444894408F101008046B842C7DB45
:103D70008CE7002529E000BF04EB85000790006870
:103D80000EF03CFD05EB0A0101910690009806F04B
:103D900096FCC0EB00208DF81400079819F8051068
:103DA000C078414301FB0BF10A0C05A906980EF0FF
:103DB0000FFF9DF814007F28DDE9000102D929F0EA
:103DC00087FC01E002F0A3F86D1CB542D4DB00993A
:103DD000029808440090039804990444894408F127
:103DE00001008046B842C4DB50E7002019E000BF64
:103DF00004EB8800B9F1000F02684FEA126024D08A
:103E000019F80810484300FB0BF0000C60F31F6228
:103E100095F8223008EB0A01009800F0C6FB08F183
:103E200001008046B042E3DBB9F1000F01D00499F4
:103E3000894402990098084400900398044401982A
:103E4000401C0190B842D0DB20E700FB0BF0000AD9
:103E5000DCE700002DE9F04F06468FB0D6E901708F
:103E6000804696F821B03568F0680D90D6E9064096
:103E70000C90D6E904A0089096F8220008B1002022
:103E8000B2E0BAF1000F05D0BBF1FD0F4FF000001A
:103E90005CD27DE0BBF1FD0F4FF0000016D21BE0BD
:103EA00000260BE004EB860ADAF800000EF0A6FC10
:103EB0009AF80320A9190EF098FE761CBE42F1DB99
:103EC0000D9805440C98044409F1010081464045D1
:103ED000E6DB0FB0BDE8F08F81464045F9DA0026F9
:103EE0000FE000BF04EB860ADAF800000EF086FC53
:103EF0009AF80320A91902FB0BF2120A0EF075FEC4
:103F0000761CBE42EEDB0D9805440C98044409F182
:103F10000100E1E700260FE004EB860BDBF8000070
:103F20000EF06CFC9BF803101AF8062051430A0AA5
:103F3000A9190EF05AFE761CBE42EDDB0D980899C9
:103F400005440C988A44044409F101008146404527
:103F5000E0DBBEE7002611E004EB8601069108686D
:103F60000EF04CFC06991AF80620C978514301FB63
:103F70000BF10A0CA9190EF038FE761CBE42EBDBE1
:103F80000D98089905440C988A44044409F10100ED
:103F900081464045DEDB9CE7002017E004EB89000A
:103FA000BAF1000F01684FEA116021D01AF8092018
:103FB000504300FB0BF0000C60F31F6196F82220C9
:103FC00005EB090000F028FB09F101008146B84229
:103FD000E4DBBAF1000F01D008998A440D9805443A
:103FE0000C9804440298401C02904045D4DB70E7D2
:103FF00000FB0BF0000ADFE72DE9F04F804687B0A9
:10400000D8E90170814698F821B0D8F80040D8F876
:104010000C000290D8E906500190D8E904A0039062
:1040200098F8220008B100202FE1BAF1000F05D066
:10403000BBF1FD0F4FF0000060D283E0BBF1FD0F3C
:104040004FF0000018D21DE00026B0460CE000BF83
:1040500005EB080034F81610C2780EF089FC24F83D
:10406000160008F10408761CBE42F1DB02980444F5
:10407000019805440AF1010082464845E4DB07B097
:10408000BDE8F08F82464845F9DA0026B0460EE0DA
:1040900005EB0800C17801FB0BF10A0A34F8161091
:1040A0000EF066FC24F8160008F10408761CBE42E7
:1040B000EEDB02980444019805440AF10100E1E7AF
:1040C0000026B04610E000BF05EB08001AF80620F5
:1040D000C17851430A0A34F816100EF049FC24F84E
:1040E000160008F10408761CBE42EDDB0298044479
:1040F00001980544039882440BF10100834648452A
:10410000DEDBBCE70026B04612E000BF05EB08008E
:104110001AF80620C178514301FB0BF10A0C34F860
:1041200016100EF025FC24F8160008F10408761C81
:10413000BE42EBDB02980399044401988A4405448B
:104140000098401C00904845DCDB98E7002600966C
:1041500004948CE098F8220001281FD002284CD04B
:1041600003288CD1009A04982A44937830F81600DA
:10417000DB08C10A59435278C0F345139208490934
:104180005343C9029A0901EB4211009A00F01F0043
:10419000AA5CD208504301EB501024E00498009927
:1041A0006A1830F816009178C30A03EBD1011F2971
:1041B00000D31F214FF6FF7303EAC1235278C0F3E7
:1041C000451101EB92013F2900D33F2100F01F026E
:1041D000009803EB411189B2285C02EBD0001F2844
:1041E00000D31F20084480B2BAF1000F2AD0BBF1DF
:1041F000FD0F4FD31AF806202FE0049800996B1892
:1042000030F816009978C20AA2EBD101002900DC2F
:1042100000214FF6FF7202EAC1225B78C0F345111C
:10422000A1EB9301002900DC002102EB411100F019
:104230001F02009889B2285CA2EBD0000028D1DCD4
:104240000020CFE70099BBF1FD0F294401D3CA78C4
:1042500003E0C97801FB0BF10A0A34F816100EF0DE
:10426000DFFA24F816000098001D761C0090BE426C
:10427000FFF670AF0298BAF1000F044401980544AC
:1042800001D0039882440598401C05904845FFF6EC
:104290005DAFF4E6009A1AF806102A44D27851432A
:1042A00001FB0BF10A0CD8E72DE9F34F064685B068
:1042B000D6E90170804696F821B03568F068019023
:1042C000D6E906400090D6E90490039096F82200C3
:1042D00008B10020B8E0B9F1000F05D0BBF1FD0F27
:1042E0004FF000005CD27DE0BBF1FD0F4FF000000D
:1042F00016D21BE04FF000094E4609E004EB8600A1
:1043000005EB0901C2780EF069FB0699761C894419
:10431000BE42F3DB01980544009804440AF1010011
:1043200082464045E6DB07B0BDE8F08F8246404557
:10433000F9DA4FF000094E460DE000BF04EB8600AD
:10434000C17801FB0BF10A0A05EB09010EF046FBEF
:104350000698761C8144BE42F0DB01980544009823
:1043600004440AF10100E1E74FF0000A56460DE06F
:1043700004EB860019F80620C17851430A0A05EBC0
:104380000A010EF02BFB0698761C8244BE42EFDB3E
:104390000198039905440098894404440BF10100F5
:1043A00083464045E0DBBEE74FF0000A56460FE08B
:1043B00004EB860019F80620C178514301FB0BF18C
:1043C0000A0C05EB0A010EF009FB0699761C8A44DB
:1043D000BE42EDDB019803990544009889440444EA
:1043E0000298401C02904045DEDB9CE700200290D2
:1043F0001CE000BF04EB8A00B9F1000F016827D070
:1044000002980A0E19F80000424302FB0BF2100C4E
:1044100060F31F61029896F82220284400F020F9EA
:1044200002990698084402900AF101008246B842B7
:10443000E0DBB9F1000F01D00399894401980544EC
:10444000009804440498401C04904045CEDB6AE781
:10445000080E00FB0BF0000ADAE7000010B5416C13
:1044600096B0044601B368460AF078FC21466846D7
:104470000AF00BFD0F4968460AF0F1FC6846616CD2
:104480000AF0E5FC0122002168460AF0F8FC0A491E
:1044900068460AF0E6FC094968460AF0D1FC68461D
:1044A0000AF014FD16B010BD16B0BDE8104024F09F
:1044B000CFBE0000D592020821EE0008D792020874
:1044C00030B415460A460146D4B2012D07D0022D5C
:1044D00013D0032D17D10D7865432C0A04E00D7815
:1044E0002C44FF2C00D3FF2464F30700120A62F36C
:1044F0000F2030BC1A460EF0B1B90D782C1B002CE1
:10450000F2DC0024F0E730BC70472DE9F04117469B
:104510000446C1F30746C1F30725CAB2012F11D0E3
:10452000022F2ED0032F2AD1A77877433E0A66F3B5
:10453000174066786E43350A65F30F20257855439A
:104540002A0A12E0A7783E44FF2E00D3FF2666F326
:10455000174066783544FF2D00D3FF2565F30F2003
:1045600025782A44FF2A00D3FF2262F30700090EB0
:1045700061F31F6021681A460EF054FA2060BDE80E
:10458000F081A778BE1B002E00DC002666F31740E2
:104590006678751B002D00DC002565F30F2025785B
:1045A000AA1A002AE1DC0022DFE72DE9F843804661
:1045B0001E460F46154610460EF020F904463946B1
:1045C000404606F07CF8C0EB0020C0B28DF8000039
:1045D000012E13D0022E17D0032E0DD16043000AF6
:1045E0002A0E69460EF0F4FA9DF8000039467F283D
:1045F00040460ED929F06CF8BDE8F8832044FF2826
:1046000000DBFF20C0B2EBE7001B0028FADC002033
:10461000F8E701F07CFCEFE770B5044616460D465E
:1046200008460EF0EBF8012E0CD0022E11D0032E0E
:1046300015D121784143080A2A0E2146BDE8704071
:104640000EF0D3BA21780844FF2800DBFF20C0B267
:10465000F2E72178081A0028F9DC0020F7E770BD9E
:1046600038B500230093CDB2C1F30724C1F307434B
:10467000012A11D0022A2AD0032A27D102786A43BC
:10468000120A8DF8002042786243120A8DF8012048
:1046900082785A43120A12E002782A44FF2A00D391
:1046A000FF228DF8002042782244FF2A00D3FF2207
:1046B0008DF8012082781A44FF2A00D3FF228DF85A
:1046C00002200A0E014668460EF088F938BD0278CD
:1046D000521B002A00DC00228DF800204278121BB9
:1046E000002A00DC00228DF801208278D21A002AEC
:1046F000E5DC0022E3E700001CB5044640688208C0
:104700000AD0496821F00301091D08446060204671
:1047100000F057F820461CBD05A113A0CDE900010B
:10472000184B40F2A5221849032019F093FDFEE72B
:1047300021626C6F636B5F69735F6C617374287067
:1047400072657629202626202270726576696F753B
:104750007320626C6F636B2063616E2774206265E7
:10476000206C617374220000417373657274656418
:104770002061742065787072657373696F6E3A207A
:1047800025730000CB610308F878030840681031F6
:1047900020F00300884201D30120704700207047B9
:1047A0007CB5054648680C4620F0030001AA69461E
:1047B00024F01BF9DDE900232146284608F0CCFD52
:1047C0007CBD10B5044600F04BF9046010BD00003C
:1047D0002DE9FF4781464FF000000E00029005468C
:1047E000039033D00C460DF1080803AF802907D39E
:1047F00008462BF02BFD411F01208840401E044439
:104800003A464146204624F0F0F8029809281DDA7D
:1048100003AA02A9484628F0F7FE050016D06868EA
:1048200020F00300B0420BD20AA111A0CDE9000193
:10483000164B40F206321649032019F00BFDFEE735
:10484000DDE902232946484625F010FE04B028463B
:10485000BDE8F087626C6F636B5F73697A6528628D
:104860006C6F636B29203E3D2073697A6500000000
:104870004173736572746564206174206578707229
:10488000657373696F6E3A20257300001A6203081E
:10489000F878030810B50446FFF793FF416841F02C
:1048A00002014160606840F00100606010BD10B519
:1048B000044600F0D5F8416821F0020141606068CB
:1048C00020F00100606010BD7CB506460D4608462C
:1048D00000F0C6F8040010D02079C0070BD068683B
:1048E000800816D02146304600F02EF92146284691
:1048F000FFF702FF054628467CBD0CA116A0CDE9B6
:1049000000011C4B40F2BE221B49032019F0A2FCFF
:10491000FEE71AA110A0CDE90001164B40F2C1221A
:104920001549032019F096FCFEE700006E657874C7
:1049300020262620226E657874207068797369635A
:10494000616C20626C6F636B2063616E2774206200
:1049500065206E756C6C22004173736572746564BA
:104960002061742065787072657373696F6E3A2088
:1049700025730000E9610308F878030821626C6F71
:10498000636B5F69735F6C61737428626C6F636BD8
:1049900029202626202270726576696F7573206241
:1049A0006C6F636B2063616E2774206265206C619D
:1049B000737422007CB50D46097989070CD52C68E3
:1049C00064B12179C90715D0214600F0BDF8294608
:1049D0002046FFF791FE054628467CBD0BA116A098
:1049E000CDE900011B4B40F2B1221B49032019F015
:1049F00031FCFEE7194910A0CDE90001154B40F24A
:104A0000B2221549032019F025FCFEE77072657685
:104A1000202626202270726576207068797369637B
:104A2000616C20626C6F636B2063616E277420621F
:104A300065206E756C6C22004173736572746564D9
:104A40002061742065787072657373696F6E3A20A7
:104A500025730000D8610308F8780308D8770308A5
:104A60001CB5426800F1080122F00300001F084451
:104A700091080BD106A10CA0CDE90001114B40F229
:104A8000C9121149032019F0E5FBFEE71CBD000027
:104A900021626C6F636B5F69735F6C617374286212
:104AA0006C6F636B290000004173736572746564F9
:104AB0002061742065787072657373696F6E3A2037
:104AC000257300005C610308F87803081CB50346F1
:104AD0000C004FF0000008D042B1184600F0D4F8A6
:104AE0002046FFF7E4FE04F108001CBD05A10DA05F
:104AF000CDE90001124B40F211321249032019F0A6
:104B0000A9FBFEE773697A65202626202273697A5D
:104B100065206D757374206265206E6F6E2D7A65E9
:104B2000726F220041737365727465642061742032
:104B300065787072657373696F6E3A202573000033
:104B40002C620308F87803087CB5054648680C46D3
:104B500020F0030001AA694623F047FFDDE90023A6
:104B60002146284625F082FC7CBD00002DE9FC4151
:104B70000D46044600F10801281F0E18606806F172
:104B8000080720F00300401BA0F104083846042168
:104B9000FEF71EFB87420BD0204921A0CDE9000182
:104BA000264B40F295222649032019F053FBFEE7DD
:104BB000606820F0030108EB0500001D81420BD066
:104BC00020A117A0CDE900011C4B4FF426721C490F
:104BD000032019F03FFBFEE7307900F0030040EAC4
:104BE0000800706020F003000C280BD225490CA0AF
:104BF000CDE90001114B40F29A221149032019F02E
:104C000029FBFEE7207900F003002843606030466E
:104C1000FFF740FE3046BDE8FC8100002078030825
:104C20004173736572746564206174206578707275
:104C3000657373696F6E3A2025730000BF610308C6
:104C4000F8780308626C6F636B5F73697A6528623A
:104C50006C6F636B29203D3D2072656D61696E5FED
:104C600073697A65202B2073697A65202B20626C2A
:104C70006F636B5F6865616465725F6F76657268AC
:104C8000656164008C7703087CB5064608790D469B
:104C90001446C00717D011462846FFF777FD0028B5
:104CA0001DD021462846FFF761FF04462846FFF73E
:104CB00088FD6068214640F0020060603046BDE833
:104CC0007C40FFF76DBD06A11148CDE90001114BF5
:104CD0004FF433721049032019F0BCFAFEE77CBD93
:104CE000626C6F636B5F69735F6672656528626C87
:104CF0006F636B292026262022626C6F636B206D08
:104D0000757374206265206672656522000000007C
:104D1000ACD60208FA610308F87803087CB50546AA
:104D200008790C461646C0070BD012A11D48CDE9E4
:104D300000011D4B4FF436721C49032019F08AFA0A
:104D4000FEE711462046FFF721FD002811D031462D
:104D50002046FFF70BFF0146406820F00200486044
:104D60002846FFF7B1FD01462846BDE87C40FFF725
:104D700017BD7CBD21626C6F636B5F69735F667288
:104D8000656528626C6F636B292026262022626C81
:104D90006F636B206D757374206265207573656435
:104DA00022000000ACD602080A620308F878030863
:104DB00038B5044617F052FB054617F08AFB002869
:104DC000204605D0616C21641CF082FD012038BDB5
:104DD00014F09CFF002820461ED014F048FED4E9B1
:104DE000100181420CD06064206C00906A46202142
:104DF00020461DF086FF0128E9D120461CF068FD01
:104E0000284617F075FB0428E0D120461BF027F94F
:104E1000002116F0B1FCD9E714F0D6FFD6E7002840
:104E200002D0C01C20F00300704715F01FBFC01C4B
:104E300019F07CBAFEB50446006816461346476A68
:104E40000D4600222046B84701281AD1A06812A1B9
:104E5000CDE9001502901C4B4FF4A8721BA1032052
:104E600019F0F8F90020FEBD3146204600F04EF85A
:104E70000028F8D0206833460022476A2946204699
:104E8000B8470228F0D0206832462946036903B0AB
:104E90002046BDE8F0401847646174612025702009
:104EA000697320746F6F206C61726765207468612C
:104EB000742065786365656473206D61782073691B
:104EC0007A6520282575290085560308433A5C4BEE
:104ED00065696C5F76355C41524D5C5041434B5C7B
:104EE0004C56474C5C6C76676C5C392E322E325CCB
:104EF0007372635C6D6973635C63616368655C6C4A
:104F0000765F63616368652E63000000F8B5044650
:104F100000680E46026A20469047050010D02068BF
:104F20003246294643692046984728460CF0CEFC75
:104F3000A2693146904728460CF090FC0120F8BD4C
:104F400005A00090084B4FF4A17208A1032019F0AE
:104F500081F90020F8BD00004E6F20766963746906
:104F60006D20666F756E640064560308433A5C4BAF
:104F700065696C5F76355C41524D5C5041434B5CDA
:104F80004C56474C5C6C76676C5C392E322E325C2A
:104F90007372635C6D6973635C63616368655C6CA9
:104FA000765F63616368652E630000002DE9F04F52
:104FB0000C4685B0054600211AF0C9FE58B32146BB
:104FC000284600F08DFA2146284600F069F80021B5
:104FD00028461BF0A2FE8346002128461BF0EBFE6C
:104FE0000490002128461BF072FD01281BD00027E9
:104FF000002128461CF0A7F88046002128461BF017
:10500000E7FD6FF040490646C8450ED1688D0005A2
:105010000BD401200AE005B02046BDE8F04F202265
:10502000002119F0E2BA0127E2E700208046284675
:105030001AF02BFF82462846002182221BF0E2FE56
:10504000C2B22369A1682068CDE90031CDE9020729
:105050005B464146504606F0DBFBA0614E4504D15D
:10506000688D400501D4012600E0002628461AF08C
:10507000FBFE07462846002183221BF0C3FEC2B276
:10508000606900256368E1688DE82B003146384689
:10509000049B06F0BDFBE06105B0BDE8F08F0000A9
:1050A0002DE9F34F81B00C46019805F02AFD06006A
:1050B0004FF000081ED101981BF064F805F021FDA7
:1050C000070074D0019805F020FD8146019805F095
:1050D00020FD80468500281D19F028F906462A463D
:1050E00007EB890119F0C6F96FF0604146F8281006
:1050F0004FF0010801981AF0C8FE8346304600F0D0
:10510000C5FF2061800019F011F92060206980003E
:1051100019F00CF90025DFF82CA1A06038E056F852
:105120002510DFF82491514531D100271FE0394681
:1051300001981AF00CFE454900901CF0DAF8A8B965
:10514000009805F0E6FC012810D1009805F0DDFC80
:10515000A8420BD100981CF07FF84946484501DA77
:10516000084602E000981CF077F881467F1C019801
:105170001AF02CFEB842DAD8B9F1000F03DBA168AF
:1051800041F8259003E0A168002041F825006D1C3E
:105190002069A842C3D8DFF8AC90002509F10109C5
:1051A000C9F1000352462F4628469A4614E046E0CD
:1051B00056F82010494503DB6B1803EB0A050AE09B
:1051C000914204D1A16851F820100F4403E0A36874
:1051D0000F4443F82010401C21698142E8D8002187
:1051E00001981BF09AFD2169C1F1010200FB02B098
:1051F000C01B00D50020002114E000BF56F821207C
:105200004A450EDB02EB0A0300FB03F205EBD57700
:1052100002EB670292FBF5F2A768ED1A801A47F8D5
:105220002120491C22698A4201D9002DE6D1B8F11A
:10523000000F04D03046BDE8FE4F15F017BDBDE8A5
:10524000FE8F00009AFFFF1F010000E00100060032
:105250002DE9FC5F05461BF0E5F88346A86808B118
:105260000021C161002128461BF0D4FE01900021DD
:1052700028461BF042FE824628461BF0E3FB01460F
:1052800001982E4C014401EB0A0728461AF09EFDB6
:105290008046002639E0A868DFF8A0902849006819
:1052A00050F8260000901CF024F868BB00981CF011
:1052B0006FFBE0BB002100981BF0E8FBB8B30128AE
:1052C00036D0022834D0032832D0002100981BF0B9
:1052D00046FF60B9009814300AF084FC019900EB95
:1052E0000109002100981BF0A9FC484481460021D7
:1052F00000981BF088FC4844A04205DB0021009880
:105300001BF081FC00EB0904761C4645C3D3A8685A
:1053100010B1CBF10001C1616FF06040C44203D015
:1053200004EB0A00B84200DA3846BDE8FC9FFFE70C
:105330000098A969006A401A401CD7E7010000E004
:10534000010004002DE9FE4F05461BF065F80290B0
:10535000A86808B100218161002128461BF02BFEBE
:105360000090002128461BF0F7FD834628461BF0DD
:1053700077FB00EB0B010098DFF85C9101EB000874
:105380004C4628461AF022FD0746002128461BF00D
:105390008CFB01284FF0000645D082E0A868CA4681
:1053A0004E49006850F8260001901BF0A2FFC8BBD0
:1053B00001981CF0EDFA20B10198E9694069081ADA
:1053C00014E0002101981BF061FB58B1032809D0BB
:1053D000062807D0082805D0002101981BF0BCFE44
:1053E00030B112E00199E8694969401A401C0BE0AC
:1053F000019814300AF005FC009900EB010A002125
:1054000001981BF009FC50448246002101981BF0D2
:1054100003FC5044A04205DB002101981BF0FCFB7B
:1054200000EB0A04761CBE42B8D34C453FD05C4426
:105430003DE0A868CA462949006850F82600019056
:105440001BF057FF60BB01981CF0A2FAE0BB0021E3
:1054500001981BF01BFBB8B3012836D0042834D0C8
:10546000072832D0002101981BF076FE58B9019828
:1054700014300AF0C6FB00EB0B0A002101981BF068
:10548000D4FB50448246002101981BF0CEFB5044CF
:10549000A04205DB002101981BF0C7FB00EB0A04CA
:1054A000761CBE42C5D34C4501D000980444A86880
:1054B00010B10299494281614C45404602D04445B1
:1054C00000DD2046BDE8FE8FFFE701986969C069ED
:1054D000401A401CD6E70000010000E00100040073
:1054E0002DE9F34F81B00C46019805F064FF0600EA
:1054F0004FF000081ED101981AF044FE05F05BFF42
:10550000070072D0019805F0D1FF8146019805F09F
:10551000D1FF80468500281D18F008FF06462A4660
:1055200007EB890118F0A6FF6FF0604146F82810DC
:105530004FF00108304600F0A9FD6061800018F0CE
:10554000F5FE60606069800018F0F0FE0025DFF86D
:1055500038A1E0603AE056F82500DFF83091504578
:1055600033D10027DFF828B11FE0394601981AF03F
:10557000EEFB594600901BF0BCFEA8B9009805F060
:1055800099FF012810D1009805F090FFA8420BD197
:1055900000981AF069FD4946484501DA084602E0DC
:1055A00000981AF061FD81467F1C01981AF00EFCEC
:1055B000B842DAD8B9F1000F03DBE16841F8259071
:1055C00003E0E168002041F825006D1C6069A842F5
:1055D000C1D8DFF8B490002509F10109C9F1000331
:1055E00052462F4628469A4614E04AE056F82010C4
:1055F000494503DB6B1803EB0A050AE0914204D12D
:10560000E16851F820100F4403E0E3680F4443F8C9
:105610002010401C61698142E8D8002101981BF0EC
:10562000CAFB834601981AF01FFC01466069C0F16D
:1056300001020BFB0210C01B00D50020002113E06B
:1056400056F821204A450EDB02EB0A0300FB03F269
:1056500005EBD57702EB670292FBF5F2E768ED1AEE
:10566000801A47F82120491C62698A4201D9002D1D
:10567000E6D1B8F1000F04D03046BDE8FE4F15F07A
:10568000F5BABDE8FE8F00009AFFFF1F010000E0A1
:105690000100060070B5044600216E221BF0B2FB2B
:1056A000D8B9204600216C221BF0ACFB4FF480756A
:1056B000A84212D1204600216D221BF0A3FBA84274
:1056C0000BD12046002171221BF09CFB28B92046FB
:1056D000002172221BF096FB08B1022070BD20460B
:1056E000002160221BF08EFBC0B2FF280DD12046A6
:1056F000002173221BF086FB38B920460021672267
:105700001BF080FB10F0FF00E8D0012070BD2DE9F8
:10571000F041044606A81D46174690E84C000229B1
:105720000FD003290BD12946384621F08DF90546C3
:1057300030460AF066FA401B216808442060BDE844
:10574000F0812946384621F07FF9054630460AF0B7
:1057500058FA00EBD071491005EBD570A1EB600051
:10576000EAE700002DE9FF4F95B0C878269CC007F6
:105770000D46002801D0F94800E0F948099001D011
:10578000F84800E0F8480F9001D1F64800E0F648EC
:10579000109001D0F54800E0F548039001D0F5489D
:1057A00000E0F548069001D1F04800E0F04805908F
:1057B00001D1F04800E0F0484FF01409049069E08E
:1057C000D4E901124FF0000BA1EB020358465946F1
:1057D0004FF00C0E0FE000BF01EB4107226909EB0F
:1057E000C70C12F80CC05FEACC7C08D00EEBC707E0
:1057F000D2599B1A491C8E42EED8002144E04FF04A
:10580000100C0CEBC707D2591044F3E701EB41062B
:10581000276909EBC60A17F80A20D20733D1E8B383
:105820004FF0100C93FBF0F20CEBC60CCDF848C017
:1058300057F80C804FF0080C08FB02F804220CEB20
:10584000C60C02EBC60257F80CC0BA58CDF820C0FF
:10585000C44500DDC446624503DC089A424500DDCC
:105860004246424504D04FF0010847F80A80C3463B
:10587000D4F810C00EEBC6064CF806202769129E1D
:10588000BE59801B9B1A491C62698A42BED8BBF173
:10589000000F02D06669002E92D100E028E00021BE
:1058A00015981BF00EF9012800D00020804600203A
:1058B0000D900E900EA90DA8CDE900012878E3689F
:1058C0006268249923F015FCE97811EA080F05D0E5
:1058D00015981AF0DAFA0D9908440D901799159851
:1058E0001AF035FA0646DFF894926FF0704B91E1AA
:1058F000A3A1A8A0CDE90001AD4B40F25D12ADA17E
:10590000032018F0A7FCFEE7BA4930461BF0F1FC73
:1059100000287BD1002130461BF04EF9F0B3002760
:105920003846616910E000BF226900EB400352F87D
:105930003320B24207D100EB40020C20216900EB7A
:10594000C2000F5802E0401C8142EDD8E878C00741
:10595000708D04D020F4806040F4006003E020F4F7
:10596000006040F48060708506F114000F99824653
:105970008847B84224D030461BF0AAFF70691190C6
:10598000B0691290F0691390306A1490099A394600
:105990005046904711AA2E21304600E00CE01DF041
:1059A000B0F930461AF0EEFB324627211DF0A9F976
:1059B00030461BF08DFF03E0708D20F44060708551
:1059C0006878012823D0022804D0059A00213046A7
:1059D000904727E0109906F1140088472168059A3E
:1059E000491C21F00101081A00EBD0704FEA600A4F
:1059F0000021304690470746049A002130469047E0
:105A0000381A00EBD0710AEB61000BE0FAE0109954
:105A100006F1140088472168049A0F1A00213046C5
:105A20009047381A0790E87810EA080F06D00F99C7
:105A300006F1140088470D99081A0D9000216A227A
:105A400030461BF0DFF90746304600216B221BF081
:105A5000D9F9824630461BF0FFFB0C9030461AF015
:105A600003FBC7F3417101290DD127F0C04149451E
:105A700009DCB1F1805F01DBABEB01010C9A514312
:105A8000642291FBF2F7CAF3417101290CD12AF08B
:105A9000C041494508DCB1F1805F01DBABEB01019E
:105AA0004143642091FBF0FA71692298401A07443F
:105AB000B1692398411A01EB0A000190E878C00708
:105AC00006D0039A0021304690470D99084400E023
:105AD000079800EB070AE878C00701D0079805E0AF
