:020000040800F2
:10000000E8ED01209D01000863280008A90200080E
:1000100061280008F50A0008E52C0008000000002F
:10002000000000000000000000000000AF01000818
:10003000B10D000800000000EF010008A928000829
:10004000B7010008B7010008B7010008B7010008B0
:10005000B7010008B7010008B7010008B7010008A0
:10006000B7010008B7010008B7010008B701000890
:10007000B7010008B7010008B7010008B701000880
:10008000B7010008B7010008B7010008B701000870
:10009000B7010008B7010008B7010008B701000860
:1000A000B7010008B7010008B7010008B701000850
:1000B000B7010008B7010008B7010008B701000840
:1000C000B7010008B7010008B7010008B701000830
:1000D000B70100087D2C0008B7010008B70100082F
:1000E000B7010008B7010008B7010008B701000810
:1000F000B7010008B7010008B7010008B701000800
:10010000B7010008B7010008B7010008B7010008EF
:10011000B7010008B7010008B7010008B7010008DF
:10012000B7010008B7010008B7010008B7010008CF
:10013000B7010008B7010008B7010008B7010008BF
:10014000B7010008B7010008B7010008B7010008AF
:10015000B7010008B7010008B7010008B70100089F
:10016000B7010008B7010008B7010008B70100088F
:10017000B7010008B7010008B7010008000000003F
:10018000B7010008B7010008DFF80CD000F0DCFB75
:1001900000480047C3090008E8ED012006488047F1
:1001A00006480047FEE7FEE7FEE7FEE7FEE7FEE75C
:1001B000FEE7FEE7FEE7FEE7CD290008890100081B
:1001C000EFF3108072B6704780F310887047444A8E
:1001D0001368012B04D04FF001031360414A1060F3
:1001E000414A116041484FF0805101607047EFF380
:1001F000108272B63A48016851B34FF000010160B5
:100200003848016891B1EFF309811EF0100F08BF63
:1002100021ED108B21E9F00F4FF000041EF0100FBC
:1002200008BF012441F8044D006801602E490968A7
:10023000096808C9B1E8F00F002B18BFB1EC108BAA
:1002400081F309884EF0100E002B18BF2EF0100E0F
:1002500082F310884EF0040E704723490860EFF3D4
:10026000148222F0040282F314881E494FF0000029
:1002700008601B494FF0010008601D481D49D0F877
:10028000002041EA0201016018484FF080510160EE
:1002900019480068006880F3088861B662B6BFF349
:1002A0004F8FBFF36F8F70471EF0040F0CBFEFF33B
:1002B0000880EFF3098020E9F00F40F804ED40F8E2
:1002C00004ED1EF0040F0CBF80F3088880F309884A
:1002D00000B529F035FD5DF804EB4EF0040E7047D3
:1002E0002CC0012024C0012028C0012004ED00E022
:1002F00020ED00E00000FFFF08ED00E02DE9F05FD9
:100300000546002092469B46884606468146402484
:100310001BE0284641464746224600F0F6F9534680
:100320005A46C01A914110D311461846224600F091
:10033000DDF92D1A67EB01084F4622460120002106
:1003400000F0D4F917EB00094E41201EA4F101047E
:10035000DFDC484631462A464346BDE8F09F2DE99A
:10036000F0410024061B254671F1000605DA012440
:100370000027D0EB070067EB0101161E73F10006A2
:1003800005DA0027D2EB0702012567EB0303FFF72D
:10039000B5FF86460E4617469C46AC4204D0002563
:1003A000D0EB050E65EB010624B10020D2EB00076F
:1003B00060EB030C704631463A466346BDE8F08177
:1003C00040EA01039B0703D009E008C9121F08C0D7
:1003D000042AFAD203E011F8013B00F8013B521E57
:1003E000F9D27047D2B201E000F8012B491EFBD2CE
:1003F00070470022F6E710B513460A460446194630
:10040000FFF7F0FF204610BD2DE9FE4F804681EA40
:100410000300C00F0C46009021F0004123F000457E
:10042000B8EB0200A94105D24046214690461C4641
:100430000B46024623F00040104347D0270DC7F378
:100440000A00C3F30A510290401A019040286BDA67
:10045000C3F3130040F4801B0098924620B10023A0
:10046000D2EB030A63EB0B0B01985946C0F1400233
:10047000504600F03BF906460D4650465946019A53
:1004800000F053F910EB08006141002487EA115293
:1004900084EAE7731A4340D0009A62B3019A012AB2
:1004A0004FEA075215DC001B61EB02014FF00042DE
:1004B00002EA0752CDE90042001C41F580113246A4
:1004C0002B4600F053F903B0BDE8F08F40462146BB
:1004D000F9E7001B61EB0201001C41F580130018D5
:1004E0005B412018A2F5001747EB030140EAD570E5
:1004F000B6196D4111E06D084FEA360645EAC07540
:100500004FEA0752001B61EB0201001C41F580110C
:1005100049084FEA30000019514132462B4603B0DA
:10052000BDE8F04F00F013B900980122400000230D
:10053000D0EB020263EBE073009821464FEAE074CF
:10054000B8EB000061EB0401E9E783F000435BE7EF
:1005500081F0004158E72DE9FE4F81EA030404F0E1
:10056000004421F0004100944FF0000B23F00043C1
:1005700050EA01045ED052EA03045BD0C3F30A548C
:10058000C1F30A552C44A4F2F3340194A0FB0254A5
:10059000C1F3130141F48011C3F3130343F4801337
:1005A00001FB024400FB034E840A970A44EA81548B
:1005B00047EA8357A4FB076802958D0A05FB078568
:1005C0004FEA932C04FB0C542705029D4FEA065872
:1005D00047EA1637B5EB08056EEB070C870E920E4F
:1005E00047EA811742EA8312A7FB0201B6EB0B012F
:1005F00064EB00042B0D43EA0C335E1844EB1C50F3
:10060000DA465146E7FB0201C5F313044FEA0B3308
:1006100043EA14534FEA0432019C43EA0603A4F16F
:100620000C040294009CCDE900B400F09FF803B0E4
:10063000BDE8F08F00200146F9E70EB5C10F80EA52
:10064000E0700844CA07002140F233438DE80E00F1
:100650000A460B4600F08AF803B000BD70B5C1F33E
:100660000A5201F000450024C1F3130140F2FF33A8
:1006700041F480119A4201DA002070BD40F2334308
:100680009A42A2F2334203DC524200F03EF800E00C
:1006900090402C43F1D0404270BD00F0004230F059
:1006A00000400AD0C10D01F56071C0F3160042EAA6
:1006B0000151C208400711437047002001467047AE
:1006C00030B50B46014600202022012409E021FA22
:1006D00002F59D4205D303FA02F5491B04FA02F51F
:1006E0002844151EA2F10102F1DC30BD202A04DBF2
:1006F000203A00FA02F1002070479140C2F1200335
:1007000020FA03F3194390407047202A04DB203A73
:1007100021FA02F00021704721FA02F3D040C2F121
:1007200020029140084319467047202A06DBCB1768
:10073000203A41FA02F043EAE07306E041FA02F39C
:10074000D040C2F12002914008431946704710B5CD
:10075000141E73F1000408DA401C41F100019218E4
:100760005B411A4301D120F0010010BD2DE9F04D8D
:1007700092469B4611B1B1FA81F202E0B0FA80F2E2
:1007800020329046FFF7B2FF04460F4640EA0A00C7
:1007900041EA0B0153465A46084313D0114653EA27
:1007A000010019D0C8F140025046FFF7AEFF0546E0
:1007B0000E46504659464246FFF798FF084305D07B
:1007C000012004E020463946BDE8F08D00200543B5
:1007D00046EAE0762C4337430A986305E40AA0EB27
:1007E00008000022FD0A44EA47540A3002D50020DE
:1007F0000146E9E7010510196941DDE908450019DD
:100800006941BDE8F04DA2E72DE9F04D81EA03040E
:1008100004F0004B21F0004514464FF0000A23F08D
:10082000004150EA050220D054EA01021DD0C5F370
:100830000A570246C5F31303C1F31300C1F30A5666
:1008400040F4801543F48013A7EB0608101BD6462E
:1008500008F2FD3873EB050002D308F1010801E04E
:1008600092185B41B8F1000F03DA00200146BDE8A1
:10087000F08D00204FF48011064684460EE0171BD1
:1008800073EB050705D3121B63EB050306434CEA24
:10089000010C49084FEA300092185B4150EA010709
:1008A000EDD152EA030012D082EA040083EA050186
:1008B000084305D0101BAB4106D20122002306E0FD
:1008C00000224FF0004302E06FF0010253101AEBD8
:1008D00006004CEB085110EB0A0041EB0B01BDE8A0
:1008E000F04DFFF734BFC1F30A52C1F3130140F2D8
:1008F000FF3341F480119A4202DA0020014670472A
:1009000040F233439A42A2F2334202DC5242FFF7F2
:10091000FCBEFFF7EBBE000030B5041E71F1000411
:1009200004DB4FF00044404264EB0101141E73F1FC
:10093000000405DB1C464FF00043524263EB040306
:10094000994208BF904230BD064C074D06E0E06872
:1009500040F0010394E8070098471034AC42F6D306
:10096000FFF716FCC4400608F440060870B58C1862
:1009700010F8015B15F0070301D110F8013B2A11B3
:1009800006D110F8012B03E010F8016B01F8016BA0
:100990005B1EF9D12B0705D40023521E0DD401F89C
:1009A000013BFAE710F8013BCB1A921C03E013F865
:1009B000015B01F8015B521EF9D5A142D8D300209A
:1009C00070BD10B52AF0C6FA002010BD464910B51A
:1009D0004A6822F440324A604A6843681A434A60CF
:1009E00001684A6822F480724A6001684A680369B3
:1009F00042EA03224A6001684A6822F040724A6073
:100A000001684A6883681A434A6001688A6822F468
:100A100000628A6001688A68C3681A438A60816AD2
:100A20006FF07062D14201688A6822F070628A6059
:100A300001688A680CD0836A1A438A6001688A68F0
:100A400022F040528A6001688A68C36A1A4301E052
:100A500022F040528A6001688A6822F002028A60AD
:100A600001688A68037E42EA43028A6090F8201097
:100A7000002901684A680FD042F400624A600168A8
:100A80004A6822F460424A6001684A68174C436A27
:100A900004EB43331A4301E022F400624A60016828
:100AA000CA6A22F47002CA620168CA6A838B104C57
:100AB00004EB03531A43CA6201688A6822F4007285
:100AC0008A6001688A6890F8303042EA43228A607E
:100AD00001688A6822F480628A6001688A684069D5
:100AE00042EA8020886010BD0023014000E0FFFF43
:100AF0000000F0FFFEE7000010B5144C00220121B9
:100B0000204600F0BAFD206820F030002060206808
:100B100040F010002060052006F06AFC002204214D
:100B2000204600F0AAFD052006F062FC01221146D5
:100B3000204600F0A2FD052006F05AFC20460022C7
:100B4000BDE81040012100F098BD000000100240F7
:100B500010B5144C00220121204600F08EFD2068C3
:100B600020F030002060206840F010002060052058
:100B700006F03EFC01220421204600F07EFD052007
:100B800006F036FC01221146204600F076FD0520D5
:100B900006F02EFC20460022BDE81040012100F0A6
:100BA0006CBD0000001002402DE9F041174C0746D3
:100BB0000025206820F030002060206820601E2082
:100BC00006F016FC002600220121204600F055FD0B
:100BD000052006F00DFC01221146204600F04DFDD7
:100BE0006806050E0421204600F03AFD08B16D1C90
:100BF000EDB2761CF6B2082EE5D327B1FFF77CFFE5
:100C00002846BDE8F081FFF7A3FFF9E70010024096
:100C100070B5194E05463046316821F0300131601B
:100C2000316841F0100131600022012100F025FD02
:100C3000052006F0DDFB0024280601D5012200E096
:100C400000220421304600F018FD6806050E01223E
:100C50001146304600F011FD052006F0C9FB0022C8
:100C60000121304600F009FD052006F0C1FB641C9F
:100C7000E4B2082CE0D370BD0010024010B5124C55
:100C8000206820F030002060206840F010002060D4
:100C900001220421204600F0F0FC012211462046EA
:100CA00000F0EBFC052006F0A3FB00220421204607
:100CB00000F0E3FC052006F09BFB20460022BDE887
:100CC0001040012100F0D9BC0010024010B5104CBA
:100CD000206820F030002060206840F01000206084
:100CE00001221146204600F0C8FC052006F080FBDA
:100CF00000220421204600F0C0FC052006F078FB0D
:100D000020460122BDE81040042100F0B6BC0000DE
:100D10000010024070B5154C0025206820F030000E
:100D200020602068206001220421204600F0A5FCFC
:100D300001221146204600F0A0FC07E06D1CEDB238
:100D4000FA2D03D9FFF7C2FF012070BD052006F080
:100D50004FFB0421204600F083FC0028EED1002246
:100D60000121204600F089FC002070BD00100240E7
:100D700038B50E4C1021204600F072FCA0B90A20B4
:100D800006F036FB1021204600F06AFC60B9012213
:100D90006946032000F0A0F89DF800000821B1EB9F
:100DA000101F01D1012038BD002038BD00100240C5
:100DB000704772B6FEE7000030B5B3F5804F05D03E
:100DC0006FF0704140F82210002030BD8C690B6834
:100DD0008D6823434C688989240144EA0524234310
:100DE00043EA014150F82230014C23401943E9E71E
:100DF0000000F0CF10B50A6850F8223023F001034C
:100E000040F822308C68082C23D000234A68224303
:100E1000CC681C430B6922431A434B690E4C1A439E
:100E2000CB691A430B6A1A434B6A1A438B6A1A43FB
:100E3000CB6A1A430B6B1A438B691343CA6B09685D
:100E40001A4350F82130A343134340F821300020C7
:100E500010BD4023DAE700007FFF0F0030B5D1E975
:100E6000003443EA04138C688D89240244EA054463
:100E700023430C8A074D00EB820005EB0454234307
:100E80000C7D6D0105EB0464896923430B434360CA
:100E9000002030BD0000F0FF38B50E4D4FF4005477
:100EA00000222146284600F0E8FB322029F0FEFC13
:100EB00001222146284600F0E0FB4FF4FA7029F0A9
:100EC000F5FC00208DF8000001226946A42000F006
:100ED0005DF838BD000C024070B514460D4600F0B8
:100EE00045F821462846BDE8704000F027B8F8B51F
:100EF00016460C460546042269460320FFF7ECFF20
:100F00009DF800009DF8011000F00F0001EB00209B
:100F100028609DF802009DF8031000F00F0001EB1F
:100F200000202060062E08D12868C0F1EF0028605C
:100F30002068A0F23F1040422060F8BD70B50D4619
:100F40000646FFF79BFE7120FFF762FEFFF7E2FE09
:100F5000002405E00120FFF727FE3055641C64B231
:100F6000AC42F7DBBDE87040FFF7B0BE10B50446F9
:100F7000FFF784FE7020FFF74BFEFFF7CBFE204605
:100F8000FFF746FEBDE81040FFF7C4BE70B515463A
:100F90000E460446FFF772FE7020FFF739FEFFF79A
:100FA000B9FE2046FFF734FEFFF7B4FE002406E04A
:100FB000305DFFF72DFEFFF7ADFE641C64B2AC425E
:100FC000F6DBBDE87040FFF781BE000078B5002475
:100FD000009490F83C20012A19D0012280F83C208E
:100FE0000A6807230568092A13D9EE680A3A02EB52
:100FF000420293409E43EE600B788A680A3B03EB03
:1010000043039A400368DD682A43DA6010E0022057
:1010100078BD2E6902EB420293409E432E610B780D
:101020008A6803EB43039A4003681D692A431A61E7
:101030004A681F23072A13D205686E6B521E02EB03
:10104000820293409E436E630B790A885B1E92B2C4
:1010500003EB83039A4003685D6B2A435A6327E0DE
:1010600005680D2A12D22E6BD21F02EB820293402A
:101070009E432E630B790A88DB1F92B203EB830336
:101080009A4003681D6B2A431A6311E0EE6A0D3A19
:1010900002EB820293409E43EE620B790A880D3B7D
:1010A00092B203EB83039A400368DD6A2A43DA6253
:1010B000164B0568144A9D4206D10D68122D03D1C6
:1010C000556845F48005556005689D4218D10B6848
:1010D000102B01D0112B13D1536843F4000353603C
:1010E000096810290CD10A490A4A0968B1FBF2F1D2
:1010F00001EB8101490000E0491E00910029FBD16C
:1011000080F83C40002078BD0023014000200140D1
:101110001CC0012040420F000068C06C704770B5D1
:1011200004004FF0000503D0206C002610B107E04A
:10113000012070BD204600F01DF8666484F83C6014
:10114000206CC00610D4206C20F4885040F00200BF
:1011500020642046FFF73AFC6664206C20F0020011
:1011600040F00100206400E0012584F83C6028463E
:1011700070BD000008B500680649884208D10648DD
:10118000016841F480710160006800F48070009093
:1011900008BD000000200140443802402DE9F04124
:1011A000044600680D4681684FF0000749050BD5DD
:1011B0008068C00508D5206C40F02000206484F8C9
:1011C0003C700120BDE8F08100F05CFA064613E0B7
:1011D000681C11D025B100F055FA801BA8420BD92C
:1011E00020680068800707D4206C40F00400206469
:1011F00084F83C700320E5E7206800688007E7D5A5
:1012000021686FF012000860206C40F400702064C8
:101210002068816811F0405F13D1217E89B9C16ACD
:1012200011F4700F02D0806840050AD4206C20F4BD
:1012300080702064206CC00403D4206C40F0010056
:1012400020640020BEE7000018B50021009190F84E
:101250003C20012A07D0012280F83C2002689368D4
:10126000DB0702D011E0022018BD936843F00103B0
:1012700093602E4A2E4B1268B2FBF3F202EB42024D
:1012800000E0521E0092002AFBD102689368DB073F
:1012900042D0036C40F20164A34343F480730364BF
:1012A00053685B0505D5036C23F4005343F4805366
:1012B0000364036CDB0404D5436C23F0060343642E
:1012C00000E0416480F83C101A496FF0220313607B
:1012D00049680068CA06184906D0884224D1816846
:1012E00011F0405F13D01FE08842F8D0134A9042BB
:1012F00003D1D1F80423D206F1D0114A904213D180
:10130000D1F8041301F01F011029E8D30CE0816823
:1013100041F08041816007E0016C41F010010164FF
:10132000416C41F001014164002018BD1CC0012046
:1013300040420F00002301400020014000210140F5
:10134000002201402DE9F0410446876D00F09AF932
:10135000064694F835000025022806D080206065F6
:1013600084F834500120BDE8F0812068016821F044
:10137000160101602068416921F080014161206C03
:1013800008B9A06C20B12068016821F00801016053
:101390002068016821F0010101600CE000F072F9A1
:1013A000801B052807D920206065032084F83500BC
:1013B00084F83450D7E720680068C007EED194F86D
:1013C0005C103F208840B860012084F8350084F824
:1013D00034500020C7E790F83510022903D080214F
:1013E000416501207047052180F8351000680168CB
:1013F00021F001010160002070470000F0B587B0C6
:1014000014216846FEF7F5FF15480168002924D12C
:101410000121016013480024016841F001010160CD
:101420000068022500F0010005904FF68070CDE9BC
:10143000000502AA03260C2782E8D00069460A4864
:1014400000F016F84CF6B370CDE9000502AA694623
:1014500082E8D000054800F00BF807B0F0BD0000AE
:1014600008C001203838024000100240000C024041
:101470002DE9F84FDFF8BCA10022012503264FF02B
:101480000F090AF1040BAAF1040E00BF0B6805FA5C
:1014900002F42340A34270D10F7907F00307012F14
:1014A00001D0022F16D187684FEA420806FA08FCDD
:1014B00027EA0C07D1F80CC00CFA08FC4CEA070C20
:1014C000C0F808C04768A7430C79C4F300149440DF
:1014D0003C4344600C79E443A4070AD0C4684FEA53
:1014E000420C06FA0CF7BC438F6807FA0CF7274347
:1014F000C7600C7904F00304022C12D1D40800EB6D
:10150000840CDCF820405707FF0E09FA07F824EA9C
:101510000804D1F8108008FA07F848EA0408CCF863
:10152000208004684FEA420C06FA0CF7BC430F799E
:1015300007F0030707FA0CF7274307604C6814F419
:10154000403F70D03C4C276847F4804727602468B0
:1015500022F0030704F480440094384C07EB040C99
:10156000DCF8084897074FEA177809FA08F7BC43F0
:10157000334FB84202D1002724E054E0314FB84243
:1015800001D101271EE0304FB84201D1022719E0F6
:101590002E4FB84201D1032714E02D4FB84201D19C
:1015A00004270FE02B4FB84201D105270AE02A4F4C
:1015B000B84201D1062705E0284FB84201D10727DC
:1015C00000E0082707FA08F72743CCF80878DAF88C
:1015D00000405746D1F804C09C435FEACC2C00D5AC
:1015E0001C433C60DBF800405F46D1F804C09C43DC
:1015F0005FEA8C2C00D51C433C60DEF80040774647
:10160000D1F804C09C435FEA8C3C00D51C433C608D
:10161000084F083F3C68D1F804C09C435FEACC3CCB
:1016200000D51C433C60521C102AFFF42FAFBDE8CC
:10163000F88F0000083C014044380240003001406F
:10164000000002400004024000080240000C02407A
:10165000001002400014024000180240001C02402A
:101660000069084000D001207047426921EA020366
:101670000A4043EA0241816170470AB181617047C3
:101680000904FBE7014880687047000010C0012092
:101690000B4810B5016841F400710160016841F424
:1016A00080610160016841F480710160032000F0F5
:1016B0006FF8002000F006F800F024F8002010BDBC
:1016C000003C024070B50D4D04464FF47A71287805
:1016D000B1FBF0F00A490968B1FBF0F000F040FB03
:1016E00048B9102C07D200222146501E00F030F8D5
:1016F00000206C6070BD012070BD000010C0012092
:101700001CC001200A4808B5016841F4804101600D
:10171000006800F4804000900548001F016841F017
:1017200080510160006800F08050009008BD00000A
:1017300044380240002809DB00F01F0201219140DB
:101740004009800000F1E020C0F80011704700005F
:10175000F0B40E4B1B680C46C3F30223C3F107051C
:10176000042D00D90425191D072901D2002300E00A
:10177000DB1E012606FA05F1491E214099409E40D4
:10178000761E16403143F0BC01F0C2BA0CED00E009
:10179000064900F0070208684FF6FF03184040EAC8
:1017A0000220034A10430860704700000CED00E07F
:1017B0000000FA052DE9F0470E46050065D0DFF878
:1017C0001481D8F80000F7B200F00700B04207D249
:1017D00088F80070D8F8000000F00700B04254D13B
:1017E00028683D4C810712D5400703D5206840F496
:1017F000E05020602878000703D5206840F460405E
:1018000020602068A96820F0F00008432060287854
:10181000C0072DD0304968680839012812D0022845
:1018200013D0032811D00968890700292DDA21680F
:1018300021F0030101432160FFF724FF814641F2BB
:10184000883A0EE009688903EFE709688901ECE747
:10185000FFF718FFA0EB0901514502D90320BDE8AD
:10186000F0872068696800F00C00B0EB810FEFD1C1
:10187000D8F80010404601F00701B14207D90770BF
:10188000006800F00700B04201D00120E7E72878A7
:10189000400705D52068E96820F4E050084320603F
:1018A0002878000706D52068296920F4604040EABE
:1018B000C100206000F03EF82168084AC1F303111E
:1018C000515CC8400649086006480068FFF7FAFE08
:1018D0000020C4E7003C024008380240C617030855
:1018E0001CC0012014C0012001480068704700009E
:1018F0001CC001200448054900680968044AC1F376
:101900008221515CC84070471CC001200838024049
:10191000D61703080448054900680968044AC1F35A
:101920004231515CC84070471CC001200838024059
:10193000D6170308154810B5006810F00C021448BB
:1019400013D04110042A0FD0082A0ED10F4C241FA7
:101950002268236802F03F025B0207D52068C0F3CB
:101960008810A0FB010106E0084610BD2168C1F304
:101970008811A1FB00010023FEF7C0FC2168C1F320
:101980000141491C4900B0FBF1F010BD083802408C
:101990000024F4002DE9F84F04006ED02078DFF821
:1019A0004C93C007A9F104054AD009F1040001686D
:1019B000C1F38101012908D00068C0F38100022829
:1019C0000AD1D9F80000400206D52868800337D52F
:1019D00060680028E1D033E06068B0F5803F10D047
:1019E000B0F5A02F286810D020F480302860286837
:1019F00020F4802028606068A8B1FFF743FE064607
:101A00000DE0286840F48030F4E740F4802028603E
:101A1000F7E700BFFFF736FE801B642873D82868FD
:101A20008003F7D50CE0FFF72DFE064605E000BF6A
:101A3000FFF728FE801B6428F0D828688003F7D4BD
:101A40002078DFF8AC8280074FF0000A3ED5A74827
:101A5000001D016811F00C0F08D00068C0F3810070
:101A600002280BD1D9F80000400207D4286880076B
:101A700016D5E068012800D112E033E1E068B8B182
:101A80000120C8F80000FFF7FDFD064605E000BF95
:101A9000FFF7F8FD801B0228C0D828688007F7D51B
:101AA0002868216920F0F80040EAC10028600DE0B4
:101AB000C8F800A0FFF7E6FD064604E0FFF7E2FDE8
:101AC000801B02281FD828688007F7D420780007D9
:101AD00022D5864F87486169703771B10121016055
:101AE000FFF7D0FD064604E0FFF7CCFD801B02287F
:101AF00009D838688007F7D50EE0C0F800A0FFF7D6
:101B0000C1FD064605E082E0FFF7BCFD801B022810
:101B10007DD838688007F7D42078400768D5DFF88B
:101B2000CCB100270BF13C0BDBF80000C0000BD45C
:101B3000DBF8001041F08051CBF80010DBF800001A
:101B4000012700F0805000906B4E3068C00510D423
:101B5000306840F480703060FFF794FD009005E03D
:101B6000FFF790FD0099401A022850D83068C00550
:101B7000F6D55E4EA0686C3601280FD00528306877
:101B800010D020F001003060306820F00400306098
:101B9000A068B8B1FFF776FD00900FE0306840F024
:101BA0000100F4E740F004003060F7E7FFF76AFD5A
:101BB0000099411A41F28830814266D83068800726
:101BC000F4D50EE0FFF75EFD009007E0FFF75AFD49
:101BD0000099411A41F28830814256D83068800716
:101BE000F4D42FB1DBF8001021F08051CBF80010B5
:101BF000A069C8B33D49091D0968C1F381010229E3
:101C00004AD00228504607D0C8F8600000E03CE007
:101C1000FFF738FD04463BE04746C8F86000FFF791
:101C200031FD064605E000BFFFF72CFD801B0228B2
:101C30002BD828688001F7D4D4E907010843A16AAA
:101C40002E4A490802EB0141626A41EA82110843C7
:101C500094F82C1040EA0161C9F8001001203866A0
:101C6000FFF710FD044606E03EE000BFFFF70AFD67
:101C7000001B022809D828688001F7D534E000BF8E
:101C8000FFF700FD001B022802D90320BDE8F88FF2
:101C900028688001F4D427E00128F7D0D9F80000A3
:101CA000E26900F4800191421CD1226A00F03F01F8
:101CB000914217D147F6C071626A0140B1EB821FB1
:101CC00010D1A26A4FF0FF3300F4403103EB52020F
:101CD000B1EB024F06D194F82C1000F07060B0EB1D
:101CE000016F01D00120D1E70020CFE70438024086
:101CF00000004742800E4742007000400000FFFF96
:101D000070B515460E46040003D094F8490010B192
:101D100007E0012070BD002084F84800204600F054
:101D20001DF804F108012068FFF764F83146A26845
:101D30002068FFF793F8D4E901022946236BFFF7E7
:101D40003BF82168A06851F8202042F0010241F8D8
:101D50002020012084F84900002070BDFFF74EBB11
:101D600010B5401EB0F1807F01D3012010BD4FF0AF
:101D7000E02460610F21601700F0CAFF0020A0611D
:101D800007202061002010BD70477047F8B501683A
:101D900004460868CA684B6910F00F0F4FF0000541
:101DA00059D003F0010602F49077374365D0C1079C
:101DB00005D0D10503D5616C41F001016164410793
:101DC00005D5D90703D0616C41F002016164810738
:101DD00005D5D90703D0616C41F0040161640107A6
:101DE00007D502F02001314303D0616C41F00801B6
:101DF0006164616C00293AD0800604D5900602D552
:101E0000204600F019FE20684069616CC0F3801024
:101E1000090700D460B3204600F0E7FD2068406960
:101E2000400621D52068143050E8001F21F0400101
:101E300040E80012002AF5D1E06BA8B172490165B3
:101E4000E06BFFF7C8FA002811D0E06B016D01B01C
:101E5000BDE8F040084783060FD593060DD5204610
:101E6000BDE8F84000F0E8BD2046FFF78EFFF8BD62
:101E70002046FFF78AFF6564F8BD266B2023012EFC
:101E80007ED1C6067CD5D6067AD50868486800900B
:101E900048694FF0020640064DD5E26B1068406875
:101EA0004FF480770004000C3AD0A18D814237D9DD
:101EB000E085D069B8422DD020680C3050E8001F72
:101EC00021F4807140E80012002AF5D12068143016
:101ED00050E8001F21F0010140E80012002AF5D16E
:101EE0002068143050E8001F21F0400140E8001243
:101EF000002AF5D184F84230256320680C3050E880
:101F0000001F21F0100140E80012002AF5D1E06B1B
:101F1000FFF718FA6663A08DE18D401A81B206E0E2
:101F2000A18D8142A8D1D069B842A5D1666320466F
:101F3000FFF72AFFF8BDA08DE18D401A81B2E08D38
:101F40000028F7D00029F5D020680C3050E8002F89
:101F500022F4907240E80027002FF5D12068143059
:101F600050E8002F22F0010240E80027002FF5D1B1
:101F700084F84230256320680C3050E8002F00E0E0
:101F800006E022F0100240E80023002BF3D1CDE759
:101F900005062BD5150629D594F841002128C9D16D
:101FA000A068B0F5805F01D12069B0B1206A411C02
:101FB0002162216800784860E08C401E0004000C1B
:101FC000E084B7D12068C16821F08001C160206839
:101FD000C16841F04001C160F8BD206A0088C0F3CB
:101FE00008004860206A801C2062E5E74006F3D5BF
:101FF0005006F1D5CA68204622F04002CA6084F833
:10200000413000F01CF9F8BDDD29000870B504006E
:1020100004D094F84100002510B106E0012070BD05
:1020200084F84050204600F023F8242084F8410032
:102030002068C16821F40051C160204600F05EFDB7
:102040002068016921F4904101612068416921F013
:102050002A0141612068C16841F40051C160656492
:10206000202084F8410084F842006563002070BDA0
:1020700010B586B0044614216846FEF7BAF918492F
:102080002068884229D117480021026842F01002D6
:102090000260006800F010000590124814380268D1
:1020A00042F001020260006800F0010005904FF468
:1020B000C06000900220CDE90101032003900720B9
:1020C000049069460848FFF7D3F9002211462520FD
:1020D000FFF73EFB2520FFF72DFB06B010BD0000EB
:1020E0000010014044380240000002402DE9F84F42
:1020F000044690F842009A4616460D46202802D023
:102100000220BDE8F88FB5B1AEB100206064222195
:1021100084F842102063FFF7B5FAA6858146E6856C
:10212000A0684FF480582027404501D1206920B194
:102130002E46002529E00120E3E7002625E04B4656
:10214000002220212046CDF800A000F05DFD18B14E
:1021500084F842700320D4E726B1A06840451AD025
:1021600038B108E020684068C0F3080025F8020B89
:1021700008E0206978B12068406800F07F0000BF67
:1021800006F8010BE08D401EE085E08D0028D6D1D9
:1021900084F84270B5E720684068F1E770472DE9A0
:1021A000F843044690F84100984616460D4620280C
:1021B00002D00220BDE8F88385B17EB100206064C2
:1021C000212084F84100FFF75DFAA6848146E68469
:1021D000A0682027B0F5805F02D003E00120E9E786
:1021E000206910B12E4600250EE000260CE080216B
:1021F000204600F009FDA8B9C6B116F8010B216808
:102200004860E08C401EE084E08C4B464FF00002BA
:10221000CDF800800028EAD14FF04001204600F0C0
:10222000F3FC40B184F841700320C3E735F8020B9A
:10223000C0F30800E3E784F841700020BAE7704774
:1022400010B54FF0C04104200880052028F02EFB77
:102250000B480188018801884FF6FF72008802EA66
:1022600001210843A0F51341413905D0A0F50541EE
:10227000523903D0002010BD012010BD022010BD36
:10228000000002602DE9F05F00224FF48051BA484F
:10229000FFF7F3F9642028F009FBB84C0022022173
:1022A0002046FFF7EAF9642028F000FB0122022112
:1022B0002046FFF7E2F9782028F0F8FAFFF7C0FF90
:1022C000AF494870C0B10022AE49C1233027032571
:1022D00012264FF064094FF0CF084FF0C0444FF082
:1022E000ED0C4FF0810A4FF0E80E4FF0850B0128FE
:1022F00003D002287ED1A1E0FEE7A4F800800A8086
:102300000B800F80A4F800C0A1F800900D800E8013
:10231000A1F800A0A4F800E0A1F800B04FF0100868
:10232000A1F800807A200880CB2020803920088006
:102330002C2008800A803420088002200880F720A2
:10234000208020200880EA2020800A800A80C02087
:1023500020801B20088023800E80C52020803F2005
:1023600008803C200880C7202080912008804FF002
:10237000360EA4F800E04FF0480BA1F800B03A2068
:10238000208055200880B12020800A8018200880F5
:10239000B62020800A200880A2200880F220208019
:1023A0000A802620208001200880E02020800F2045
:1023B000088031260E802B270F804FF00C0AA1F8E1
:1023C00000A00E270F804FF00809A1F800904FF0F1
:1023D0004E0CA1F800C04FF0F10CA1F800C04FF076
:1023E000370CA1F800C04FF0070CA1F800C0A1F80D
:1023F000008000E0B6E00D800F804FF00908A1F8E2
:1024000000800A804FF0E108A4F800800A800F8065
:1024100014220A800D8011220A80A1F800C00E80CB
:102420000B80A1F800B0A1F800900880A1F800A0EE
:102430000E80A1F800E00880292092E0A4F8008036
:102440000A800B800F80A4F800C0A1F800900D80D6
:102450000E80A1F800A0A4F800E0A1F800B01020C0
:10246000088078200880CB202080392008804FF019
:102470002C0AA1F800A00A803420088002200880DD
:10248000F725258020250D80EA2525800A800A80F1
:10249000C025258021250D8023804FF01109A1F84A
:1024A0000090C52323804FF02D08A1F8008033232E
:1024B0000B80362323800A803A23238055230B8008
:1024C000B12323800A8017230B80B62525800A2597
:1024D0000D80A2250D80F625258001250D800F8019
:1024E000F22727800A80262727800D80E025258077
:1024F000D0270F800A8008804FF0070CA1F800C099
:102500000B250D801A250D8031250D8054250D8059
:1025100040250D8029250D800E800E800E800B80B9
:10252000E12323800F800A800880A1F800C00520E5
:10253000088025200880A1F80080442008804520DC
:1025400008801C20088018220A8016220A80088031
:102550001D200880A4F80090962028F0A7F9258077
:1025600050462080BDE8F05FEF22002140F23F138B
:10257000084600F009B80000000C024000100240BC
:10258000F0C001200000026070B54FF0C0452A2461
:102590002C800B4C060A2680C0B22080100A2080B6
:1025A000D0B220802B202880080A2080C8B220804A
:1025B000180A2080D8B220802C20288070BD00000E
:1025C000000002607FB50024154800940194029435
:1025D0001249039401604FF48031C0E90114046191
:1025E000047680F820400F49C0E90A140125C5612E
:1025F000C46080F830404561FEF791FD08B1FEF7F8
:10260000D8FB1020CDE90005694602940448FEF786
:10261000DDFC002801D0FEF7CCFB7FBD002001408F
:1026200070C301200100000F00B587B01C2168466F
:10263000FDF7DFFE15484FF02041102201601449DC
:10264000416000218160C160C0E904128161C16103
:1026500013020162C0E90913C1620163416381632E
:1026600041640F20FF230090CDE90103CDE903026F
:102670001120CDE90501002269460448FFF740FB1F
:10268000002801D0FEF795FB07B000BDB8C30120BC
:10269000040100A02DE9F04F87B014216846FDF732
:1026A000A8FE59480026016841F010010160016848
:1026B00001F010010591016841F004010160016819
:1026C00001F004010591016841F080010160016899
:1026D00001F080010591016841F00101016001688C
:1026E00001F001010591016841F0080101600168F4
:1026F00001F008010591016841F0020101600068E4
:10270000DFF8088100F00200059001220721404611
:10271000FEF7B3FFDFF8F89001224FF470514846FE
:10272000FEF7ABFFDFF8ECA000224FF480515046DB
:10273000FEF7A3FF012242F24C015046FEF79DFF37
:102740000122DFF8D4B0D70339465846FEF795FF8B
:10275000012238213148FEF790FF01240720CDE9FE
:102760000004022569464046CDE90245FEF780FE99
:102770001020CDE90006694640460296FEF778FE35
:102780006003CDE90004CDE9024669464846FEF7FC
:102790006FFE0C20CDE90006694658460296FEF70A
:1027A00067FE43F24800CDE9000469465046CDE992
:1027B0000245FEF75DFECDE9007469465846CDE955
:1027C0000245FEF755FE4FF4E050CDE9000469469E
:1027D0004846CDE90245FEF74BFE0420009001AAD1
:1027E000112082E8310069465046FEF741FE38204C
:1027F000CDE9000469460948CDE90245FEF738FEF7
:1028000007B0BDE8F08F00003038024000100240F1
:1028100000080240000C0240000002400004024098
:1028200010B50E4C0C480C2120604FF4E130606074
:102830000020A060E060C4E90401A061E0612046DE
:10284000FFF7E4FB08B1FEF7B4FA2068C16841F075
:102850003001C16010BD00000010014008C401201B
:10286000FEE7FEE710B50C4B0C4A0D490D482DF064
:1028700087FD0C482EF073F900210A482EF07FF9ED
:1028800008482DF058FC4FF47A7028F00FF8BDE896
:10289000104004482EF044B829080308210C03080E
:1028A000C4E80308DCC2012010B527F06FFB28F054
:1028B000EDF8012022F008FFBDE8104027F080BBB2
:1028C00030B593B030216846FDF793FD14210CA874
:1028D000FDF78FFD1D480025016841F08051016022
:1028E000006800F0805011901948016841F480415F
:1028F00001600068022400F48040119001200090E3
:10290000000401908001CDE9064008AA0420A82116
:1029100082E813000B906846FFF73CF808B172B6E6
:10292000FEE70CA90F2081E831004FF4A0500F9072
:102930004FF48050109005210CA8FEF73BFF0028B3
:1029400001D072B6FEE713B030BD0000403802403F
:102950000070004070B5194C2068194A10F00C0145
:10296000184804D05510042903D0082903D0026068
:102970001BE0056019E01149091F0B68C3F380567D
:102980000B6803F03F0316B1B5FBF3F201E0B2FBB5
:10299000F3F20B680968C3F388135A43C1F301418A
:1029A000491C4900B2FBF1F101602168064AC1F3FC
:1029B0000311515C0268CA40026070BD08380240D1
:1029C0000024F4001CC00120C61703080248016857
:1029D00041F470010160704788ED00E010B5806B34
:1029E0000021C185FFF7D1F910BD01680C3151E814
:1029F000002F22F4907241E80023002BF5D10168EA
:102A0000143151E8002F22F0010241E80023002B8D
:102A1000F5D1016B012909D101680C3151E8002F72
:102A200022F0100241E80023002BF5D1202180F88C
:102A3000421000210163704708B590F84210222926
:102A400001D0022008BD82684FF480539A4201D120
:102A5000016921B1816A9A421BD04AB10AE0026839
:102A6000816A5268C2F308020A80816A891C08E000
:102A7000026972B10268526802F07F020A70816ACC
:102A8000491C8162C18D491E0904090CC18503D00E
:102A90001BE002685268F1E70168CA6822F0200270
:102AA000CA600168CA6822F48072CA6001684A6913
:102AB00022F001024A61202180F842100021416386
:102AC000026B012A03D0FFF769FB002008BD0163F8
:102AD00001680C3151E8002F22F0100241E8002378
:102AE000002BF5D101680A68D20602D50A68496848
:102AF0000091818DFFF748F9E7E7000070B50446C3
:102B000000680169E26821F44051114301612169C3
:102B1000A068E26908436169114308432168CA68F3
:102B200049F20C639A430243CA6020684169A26972
:102B300021F440711143416131492068884202D03B
:102B40003049884202D1FEF7E5FE01E0FEF7D2FEF1
:102B5000E2690023192164253226B2F5004F62682C
:102B600028D0A0FB0101930F9200FDF7C7FB01469F
:102B7000B0FBF5F06FF01802504301EB800006EB5C
:102B80000010B0FBF5F000F0F002B1FBF5F002EB45
:102B90000012B1FBF5F06FF01803584301EB800011
:102BA00006EB0010B0FBF5F000F00F0021681044B8
:102BB000886070BDA0FB010192185B41FDF79EFB90
:102BC0000146B0FBF5F00201B1FBF5F06FF0180320
:102BD000584301EB800006EBC000B0FBF5F000F0BD
:102BE000F80002EB4002B1FBF5F0584301EB800026
:102BF00006EBC000B0FBF5F000F00700D6E70000E0
:102C000000100140001401402DE9F8439846174692
:102C10000D460446089E24E0701C22D0FEF732FDCB
:102C2000A0EB0800B0421AD8CEB12068C1684907AD
:102C300017D5802D15D0402D13D00168C943090741
:102C40000FD401680025406800902046FFF7CDFEB4
:102C50000820606484F840500120BDE8F883032018
:102C6000FBE72068006835EA000004D00020B84285
:102C7000D2D00020F1E70120F9E70000F8B5154DAA
:102C8000286800684FF00006C043800612D4134C39
:102C900011490023207801220144401C207028465D
:102CA000FFF724FA2078642800D3267029686FF093
:102CB0002000086028680168C943C90605D4016876
:102CC00040680749009001200870BDE8F8400148BD
:102CD000FFF75CB808C4012078C2012001C00120C0
:102CE00000C00120FEE700000FB4084B10B504A996
:102CF00002AA039800F038F9044602A9002000F067
:102D0000DDFC204610BC5DF814FB0000BD36000859
:102D10000907090E002804DB00F1E02080F8001408
:102D2000704700F00F0000F1E02080F8141D70479C
:102D3000002807D00E4910F0FF0F04D051FA80F0A0
:102D40000078401C704710F47F4F04D0C0F3072078
:102D5000085C0930704710F47F0F04D0C0F30740BF
:102D6000085C1130704701EB106000781930704733
:102D7000DE17030802E008C8121F08C1002AFAD1B2
:102D800070477047002001E001C1121F002AFBD1EB
:102D9000704770B514460D461BB9114612F024F960
:102DA000034603FB05F0142C0ED0E11F03290AD8BB
:102DB000072C0DD0082C0DD0092C0DD00A2C0DD0CD
:102DC000002100EB810070BD590801FB050070BDBA
:102DD0000221F6E70421F4E71021F2E74FF48071B5
:102DE000EFE700002DE9FF5F82B00021DDE904304C
:102DF000020DDDF840B0034318D044F61050A2F2A3
:102E0000FF3242431514119801281FD0A5EB0B0087
:102E1000401C5FEA000A4FF000064E4FDFF8389181
:102E2000B046504615D5CAF1000413E011980124AC
:102E30004AA3012801D16FEA0B010298119AC0E957
:102E40000031C0E9024206B0BDE8F09FCBF10000BE
:102E5000DFE704460021404A491842EB0450CDE91F
:102E6000001012E0E00707D032463B464046494694
:102E7000FDF771FB8046894632463B4610461946AF
:102E8000FDF769FB06460F466410002CEAD1DDE928
:102E90000401DDE90023BAF1000F06DAFDF75BFB60
:102EA00042464B46FDF757FB05E0FDF7ADFC4246B9
:102EB0004B46FDF7A9FC04460E460022284BFDF7C1
:102EC0002BFD03D84FF0FF30014607E00022254BD1
:102ED00020463146FDF798FAFDF705FD102409E07C
:102EE000002C0ADB0A220023FDF708FA039B30328C
:102EF0001A55641E50EA0102F2D1641C039AC4F10F
:102F000011031444119A012A03D0012208430DD160
:102F10000AE0084304D000204FF0110B119072E733
:102F2000A3EB0B056D1E0DE05B4504DD4FF00002C9
:102F300005F1010504E003DA4FF00002A5F10105F7
:102F4000002AECD002981199C0E90231C0E900458D
:102F500079E70000000014400000F03F300000005E
:102F60000000F0430000E03F2DE9FF4F95B09B4685
:102F70008946064600250FE2252877D100242746FA
:102F8000F84A0121059400E0044316F8013F203B74
:102F900001FA03F01042F7D130782A2811D06FF0EF
:102FA0002F033078A0F13002092A16D8059A44F090
:102FB000020402EB820203EB42021044761C0590ED
:102FC000EFE759F8042B0592002A03DA504244F443
:102FD0000054059044F00204761C30782E2816D157
:102FE00016F8010F44F004042A280DD06FF02F02C8
:102FF0003078A0F13003092B09D807EB870302EBE7
:103000004303C718761CF3E759F8047B761C307825
:103010006C280FD006DC4C2817D068280DD06A2801
:1030200014D104E0742810D07A280FD10DE044F4B4
:1030300000140AE044F4801401E044F4401472786F
:10304000824202D104F58014761C761C3078662802
:103050000BD013DC582877D009DC002875D0452820
:10306000F6D04628F4D047281AD19DE118E063280D
:1030700035D0642879D0652812D195E1702873D0B5
:1030800008DC6728F1D069286FD06E280DD06F2832
:1030900006D1B5E073282CD0752875D0782874D067
:1030A0005A46179990476D1C75E1C4F302500228E7
:1030B00009D003280DD0D9F8001004280DD00D60D8
:1030C00009F1040967E1D9F80010EA17C1E90052D3
:1030D000F6E7D9F800100D80F2E70D70F0E719F867
:1030E000041B8DF8001000208DF80100EA46012035
:1030F00003E059F804AB4FF0FF3061074FF00001D7
:1031000002D40DE008F101018846B9420FDA80458A
:10311000F8DB1AF808100029F4D108E008F10101E1
:1031200088468142FADB1AF808100029F6D1059882
:103130005B46A0EB080721463846179A00F094FA40
:10314000284400EB080507E04DE029E10DE01AF8FE
:10315000010B5A4617999047B8F10108F7D25B4620
:1031600021463846179A13E142E00A220092C4F33E
:1031700002524FF0000A022A08D059F804CB032A61
:103180004FEAEC710AD00DE029E02AE009F10701CD
:1031900021F00702F2E802C1914609E00FFA8CFC27
:1031A0004FEAEC71042A03D14FFA8CFC4FEAEC7120
:1031B000002907DA0A460021DCF1000C61EB02016C
:1031C0002D2202E0220504D52B228DF804200122B5
:1031D00003E0E20701D02022F7E7904659E00A21F8
:1031E00002E010220DE010214FF0000A00910BE0E8
:1031F00010224FF0000A44F004040827009203E074
:1032000008224FF0000A0092C4F30252022A05D0AD
:1032100059F804CB0021032A08D009E009F107017D
:1032200021F00702F2E802C1914605E01FFA8CFC8A
:10323000042A01D10CF0FF0C4FF00008220728D51A
:10324000702806D0009B83F0100353EA0A0305D0D0
:103250000EE040228DF80420012208E05CEA010221
:1032600006D030228DF804208DF805000222904609
:10327000009B83F0080353EA0A030AD15CEA0102C7
:1032800001D1620705D530228DF804204FF00108E6
:103290007F1E582804D034A003900EA802900DE0A1
:1032A00036A0F9E753466046009AFDF727F88446B2
:1032B0000398825C0298401E029002705CEA010052
:1032C000F0D1029806A9081A00F1200A600702D579
:1032D00024F4803400E00127574502DDA7EB0A0003
:1032E00000E0002000EB0A01009005984144401ADC
:1032F0000590E00306D45B462146179A059800F036
:10330000B3F90544002706E001A85A46C05D1799A5
:1033100090476D1C7F1C4745F6DBE0030CD55B46F0
:103320002146179A059800F09FF9054404E03020E3
:103330005A46179990476D1C0099481E0090002925
:10334000F5DC08E0029802995A460078491C02917F
:10335000179990476D1CBAF10001AAF1010AF1DC3E
:1033600065E1000009280100303132333435363749
:1033700038396162636465660000000030313233C1
:103380003435363738394142434445460000000061
:1033900000F058F90544761C307800287FF4ECAD35
:1033A00019B02846BDE8F08F620700D4062709F15E
:1033B000070222F0070CFCE80223E14603F0004874
:1033C0005FEA080C02D00FF2702C0DE05FEA045C9B
:1033D00002D50FF2682C07E05FEAC47C02D00FF23E
:1033E000602C01E0AFF2700C4FF0FF3823F0004387
:1033F000CDF850C065280CD006DC452809D04628F9
:103400001DD047283DD13DE0662818D067287ED1E1
:1034100038E00021112F01DB112000E0781CCDE9FC
:10342000000106A90EA8FFF7DDFCDDE90F010E9AE9
:1034300003910021009207F1010A04914DE04FF041
:1034400000400097CDE9011006A90EA8FFF7CAFCBD
:10345000DDE90F0203920E9B11990022DDF80CA00A
:103460000093049211B9791C00EB010AB7EB0A0032
:1034700004D4C0F1FF3007F1010A0490AAEB070061
:10348000019044E0012F00DA01270021112F01DD16
:10349000112000E03846CDE9000106A90EA8FFF78B
:1034A000A1FCDDE90F010E9A039100210491009225
:1034B000BA4621070CD40399514500DA8A46BAF17D
:1034C000010F05DD009AAAF10101515C302908D0F5
:1034D000B84202DA10F1040F06DA0121CDE9011039
:1034E00015E0AAF10101E9E7002805DC049901448F
:1034F0000491AAEB000102E0411C514500DD8A461F
:103500000499401A401C01904FF00040029020079F
:1035100004D40198504501DBCDF8048000208DF8DB
:103520004F0002980DF14F07B0F1004F25D02B202E
:103530000E9002984FF0020800280CDA40420290E8
:103540002D200E9007E00A210298FDF7B9F83031DE
:10355000029007F8011DB8F10001A8F10108F2DCA2
:1035600002980028EFD1791E0E980870307800F08C
:10357000200040F0450007F8020D12A8C01B00F122
:1035800007081498007800B1012000EB0A010198A7
:1035900001EBE07105984144401A401E0590E0039C
:1035A00006D45B462146179A059800F05DF805445D
:1035B0001498007818B15A46179990476D1CE0038B
:1035C00024D55B462146179A059800F04DF805442E
:1035D0001CE00498002807DBDDE90301884203DDD5
:1035E0000098405C179901E0179930205A4690479F
:1035F000049805F10105401C04900198401E0190BB
:1036000004D12E205A46179990476D1CBAF100013B
:10361000AAF1010ADDDC05E017F8010B5A461799FB
:1036200090476D1CB8F10001A8F10108F4DC5B467D
:103630002146179A0598ABE62D0000002B000000EC
:10364000200000002DE9F041044600251E461746E3
:10365000880404D405E039462020B0476D1C641E60
:10366000F9D52846BDE8F0812DE9F0410446002552
:103670001E469046C80301D5302700E02027880465
:1036800004D505E041463846B0476D1C641EF9D5A7
:103690002846BDE8F081000010B504460548806862
:1036A000FFF746FB0449401E51F830102060A1F19D
:1036B000140010BDD8C0012048C601200A68531C60
:1036C0000B6010707047000070B50C480468FCF780
:1036D00077FD0546204626F069FE04F1440027F0F8
:1036E00065FA042084F83400204627F0D3F82846F1
:1036F000FCF76AFDBDE8704026F0C2BDDCC00120C9
:103700002DE9FC411F460446DDE90831DDE90A6583
:10371000143040600060C4E90827C4E90A310A4651
:103720002321184626F0EAFCD4E90A014218D4E91C
:1037300008010E4B121F26F00BFCE06184F8356087
:103740000020C4E90E052564206384F83400206756
:103750006067009023460190054A194604F1440031
:1037600027F038FA0020BDE8FC810000C9360008C7
:103770007537000870B50446FCF722FD05466FF06A
:103780000100206304F1140026F055FC204626F0C9
:10379000D3FD2846FCF718FDBDE8704026F070BD4B
:1037A00010B5029C24F001044472C0E90712002104
:1037B000C0E9093114304060006010BD143026F0BB
:1037C00043BC70B50D46040011D08DB100F0A3FECE
:1037D00000280BD0616800690FF04EFA0646E16BD5
:1037E00028468847E1680844E060304670BDFEE73F
:1037F000FEE72DE9FF4114460E4605460A461F46E0
:1038000021466846DDF828800DF02FFF00281BD0E8
:10381000019861682268411A08FB01500099891AD1
:103820000D18009831683844441A68460DF00BFFB3
:10383000002107E0625C6B5C1A44FF2A00D9FF227A
:103840006254491C8142F5D3BDE8FF812DE9F04F58
:10385000064691B0D6E90170804696F821B03568E9
:10386000F0680F90D6E906400E90D6E904A00990C2
:103870000AA810F05CFA96F8220008B10020C9E00E
:10388000BAF1000F05D0BBF1FD0F4FF0000066D27A
:103890008DE0BBF1FD0F4FF0000017D21CE00026B9
:1038A0000CE000BF04EB460005EB46010088ADF8D4
:1038B00004000AAA01980FF0A1FF761CBE42F1DBBA
:1038C0000F9805440E98044409F1010081464045D3
:1038D000E5DB11B0BDE8F08F81464045F9DA0026FE
:1038E00013E000BF04EB46000088ADF804009DF82B
:1038F000051011FB0BF0000A8DF8050005EB4601E1
:103900000AAA01980FF07AFF761CBE42EADB0F98F4
:1039100005440E98044409F10100DDE7002614E097
:1039200004EB46000088ADF808009DF809101AF86D
:10393000060011FB00F0000A8DF8090005EB4601B6
:103940000AAA02980FF05AFF761CBE42E8DB0F98D5
:10395000099905440E988A44044409F101008146FE
:103960004045DBDBB5E7002617E000BF04EB46006F
:103970000088ADF808009DF809101AF8060011FB40
:1039800000F101FB0BF1080C8DF8090005EB460175
:103990000AAA02980FF032FF761CBE42E6DB0F98AF
:1039A000099905440E988A44044409F101008146AE
:1039B0004045D8DB8DE700201EE000BF04EB490046
:1039C000BAF1000F0088ADF8080027D09DF8092053
:1039D0001AF8090012FB00F101FB0BF15FEA11403C
:1039E0008DF8090096F8222005EB49000AAB0299F0
:1039F00001F092FD09F101008146B842DEDBBAF127
:103A0000000F01D009998A440F9805440E98044488
:103A10000398401C03904045CDDB5AE79DF8091000
:103A200011FB0BF0000ADBE72DE9F04F064695B0DD
:103A3000D6E90170804696F821B03568F0680E909E
:103A4000D6E906400C90D6E904900A9096F8220038
:103A500020B110A810F07FF90020D0E0B9F1000FDC
:103A600005D0BBF1FD0F4FF0000064D289E0BBF13F
:103A7000FD0F4FF0000019D21EE000BF4FF000090B
:103A80004E460BE004EB460005EB8901427814F842
:103A9000160010F004F809F10109761CBE42F1DBB2
:103AA0000E9805440C9804440AF1010082464045F2
:103AB000E4DB15B0BDE8F08F82464045F9DA4FF0FF
:103AC00000094E460FE000BF04EB4600417811FBB1
:103AD0000BF0020A05EB890114F816000FF0DFFF66
:103AE00009F10109761CBE42EEDB0E9805440C98E4
:103AF00004440AF10100DFE74FF0000A564610E0E7
:103B000004EB4600417819F8060011FB00F0020AA8
:103B100005EB8A0114F816000FF0C1FF0AF1010A43
:103B2000761CBE42ECDB0E980A9905440C98894439
:103B300004440BF1010083464045DDDBB9E700BFDB
:103B40004FF0000A564612E004EB4600417819F89F
:103B5000060011FB00F000FB0BF0020C05EB8A01E4
:103B600014F816000FF09BFF0AF1010A761CBE4202
:103B7000EADB0E980A9905440C9889440444059898
:103B8000401C05904045DBDB93E70020039028E0D4
:103B900014F81A100298B9F1000F61F3174061F39D
:103BA0000F2061F3070004EB4A012CD0039A4B78F5
:103BB00019F8021013FB01F101FB0BF15FEA11414F
:103BC00061F31F600290039896F8222005EB8000B5
:103BD00010AB029901F0C6FC0398401C03900AF157
:103BE00001008246B842D3DBB9F1000F01D00A9838
:103BF00081440E9805440C9804440598401C059097
:103C00004045C2DB55E74A7812FB0BF1090AD7E7BA
:103C10002DE9F04F054687B0D5E9016790F821B04E
:103C200000680090E8680290D5E906400390D5E965
:103C300004900490686AC11700EB517121F00701EC
:103C4000A0EB010A95F8220008B1002029E1B9F1A2
:103C5000000F05D0BBF1FD0F4FF0000070D2E2E085
:103C6000BBF1FD0F4FF000002ED233E04FF0000803
:103C700045461FE008EB0A018B46009807F0E7FD78
:103C8000C0EB00208DF8040004EB450001A9427848
:103C900014F815000FF020FF9DF8040059467F2806
:103CA000009802D928F0D0FC01E002F08DFD08F167
:103CB00001086D1CB542DDDB0299009808440090B4
:103CC0000398044409F101008146B842CEDB07B0F5
:103CD000BDE8F08F8146B842F9DA4FF0000845465A
:103CE00023E000BF08EB0A010191009807F0AFFD47
:103CF000C0EB00208DF8100004EB4500417811FB6B
:103D00000BF0020A14F8150004A90FF0E5FE9DF867
:103D100010007F28DDE9000102D928F095FC01E0C0
:103D200002F052FD08F101086D1CB542DADB009982
:103D30000298084400900398044409F10100C9E77F
:103D400035E000BF4FF00008454624E008EB0A01CB
:103D50000191009807F07BFDC0EB00208DF8140066
:103D600004EB4500417819F8050011FB00F0020A48
:103D700014F8150005A90FF0AFFE9DF814007F2878
:103D8000DDE9000102D928F05FFC01E002F01CFD32
:103D900008F101086D1CB542D8DB0299009808446F
:103DA000009003980499044489440BF10100834670
:103DB000B842C7DB8BE700BF4FF00008454626E05E
:103DC00008EB0A010191009807F041FDC0EB0020CB
:103DD0008DF8140004EB4500417819F8050011FB3B
:103DE00000F101FB0BF10A0C14F8150005A90FF006
:103DF00073FE9DF814007F28DDE9000102D928F048
:103E000023FC01E002F0E0FC08F101086D1CB54262
:103E1000D6DB029900980844009003980499044462
:103E200006988944401C0690B842C5DB4FE7002045
:103E3000059026E014F818100198B9F1000F61F30D
:103E4000174061F30F2061F3070004EB48012CD009
:103E50004B7819F8081013FB01F101FB0BF1090C69
:103E600061F31F600190059895F8223000EB0A017C
:103E7000DDE9000201F0C9FB0598401C059008F13E
:103E800001008046B042D5DBB9F1000F01D00499A2
:103E900089440099029808440090039804440698C5
:103EA000401C0690B842C2DB11E74A7812FB0BF1C6
:103EB000090AD5E72DE9F04F064691B0D6E9017021
:103EC000804696F821B03568F0680F90D6E9064034
:103ED0000D90D6E904900B9096F8220008B10020CE
:103EE000C7E0B9F1000F05D0BBF1FD0F4FF00000A6
:103EF00063D288E0BBF1FD0F4FF0000018D21DE047
:103F00004FF000094E460BE004EB460005EB0901BB
:103F1000427814F816000FF0EDFD09F10109761C46
:103F2000BE42F1DB0F9805440D9804440AF10100EC
:103F300082464045E4DB11B0BDE8F08F8246404543
:103F4000F9DA4FF000094E460FE000BF04EB4600DF
:103F5000417811FB0BF0020A05EB090114F8160079
:103F60000FF0C8FD09F10109761CBE42EEDB0F9887
:103F700005440D9804440AF10100DFE74FF0000A00
:103F8000564610E004EB4600417819F8060011FB94
:103F900000F0020A05EB0A0114F816000FF0AAFD62
:103FA0000AF1010A761CBE42ECDB0F980B9905441E
:103FB0000D98894404440BF1010083464045DDDB44
:103FC000B9E700BF4FF0000A564612E004EB460086
:103FD000417819F8060011FB00F101FB0BF10A0C06
:103FE00005EB0A0114F816000FF084FD0AF1010A2E
:103FF000761CBE42EADB0F980B9905440D98894464
:1040000004440498401C04904045DBDB93E7002007
:10401000039020E014F81A100098B9F1000F61F332
:10402000174061F30F2061F3070026D0039A19F8B7
:10403000022012FB0BF1090A61F31F600090039844
:1040400096F822202844009901F018FB0398401CA0
:1040500003900AF101008246B842DBDBB9F1000FA0
:1040600001D00B9881440F9805440D98044404989E
:10407000401C04904045CADB5DE76BF31F60DDE741
:104080002DE9F04F804687B0D8E90170814698F855
:1040900021B0D8F80040D8F80C000290D8E90650BA
:1040A0000190D8E904A0039098F8220008B10020FC
:1040B00032E1BAF1000F05D0BBF1FD0F4FF0000067
:1040C00067D28CE0BBF1FD0F4FF000001AD21FE069
:1040D0000026B0460EE000BF05EB480034F816108D
:1040E000427815F818000FF08FFC24F8160008F13C
:1040F0000108761CBE42EFDB029804440198054497
:104100000AF1010082464845E2DB07B0BDE8F08FC6
:1041100082464845F9DA0026B04610E005EB480033
:10412000417811FB0BF0020A34F8161015F818004C
:104130000FF06AFC24F8160008F10108761CBE4254
:10414000ECDB02980444019805440AF10100DFE722
:104150000026B04613E000BF05EB480041781AF88E
:10416000060011FB00F0020A34F8161015F81800CA
:104170000FF04AFC24F8160008F10108761CBE4234
:10418000EADB02980399044401988A4405440BF140
:10419000010083464845DBDBB7E70026B04614E064
:1041A00005EB48001AF80610407810FB01F101FBFE
:1041B0000BF10A0C34F8161015F818000FF024FC57
:1041C00024F8160008F10108761CBE42E8DB0298CC
:1041D0000399044401988A4405440098401C0090C7
:1041E0004845DADB91E7002630460096049485E0E6
:1041F00015F8101098F82220C8088908012A1DD047
:10420000022A4AD0032A80D1049A32F81620D30A0F
:1042100013FB00F34FEA531C4FF6FF7303EACC2362
:10422000C2F3451C1CFB01F1890903EB411102F0AB
:104230001F0212FB00F001EB50101BE0049A32F851
:10424000162000EBD2231F2B00D31F234FF6FF7C39
:104250000CEAC323C2F3451C61443F2900D33F212C
:1042600002F01F0203EB4111104489B21F2800D352
:104270001F20084480B2BAF1000F2BD01AF8062094
:10428000BBF1FD0F30D2009905EB4101497812FBDB
:1042900001F101FB0BF10A0C26E0049A32F816201A
:1042A000C0EBD223002B00DC00234FF6FF7C0CEA8E
:1042B000C323C2F3451CACEB0101002900DC002143
:1042C00002F01F0203EB4111101A89B20028D0DC62
:1042D0000020CEE70099BBF1FD0F05EB41014A78C4
:1042E00002D212FB0BF10A0A34F816100FF068FA2A
:1042F00024F816000098001D761C0090BE42FFF6C0
:1043000077AF0298BAF1000F04440198054401D038
:1043100003998A440598401C05904845FFF663AF11
:10432000F3E600002DE9F34F064685B0D6E90170AB
:10433000804696F821B03568F0680190D6E90640CD
:104340000090D6E90490039096F8220008B100206E
:10435000CAE0B9F1000F05D0BBF1FD0F4FF000002E
:1043600063D288E0BBF1FD0F4FF0000018D21DE0D2
:104370004FF000094E460BE004EB460005EB090147
:10438000427814F816000FF06FFB0698761C8144F3
:10439000BE42F1DB01980544009804440AF1010093
:1043A00082464045E4DB07B0BDE8F08F82464045D9
:1043B000F9DA4FF000094E460FE000BF04EB46006B
:1043C000417811FB0BF0020A05EB090114F8160005
:1043D0000FF04AFB0698761C8144BE42EEDB019842
:1043E0000544009804440AF10100DFE74FF0000A99
:1043F000564610E004EB4600417819F8060011FB20
:1044000000F0020A05EB0A0114F816000FF02CFB6D
:104410000698761C8244BE42ECDB01980399054461
:104420000098894404440BF1010083464045DDDBDC
:10443000B9E700BF4FF0000A564612E004EB460011
:10444000417819F8060011FB00F000FB0BF0020C9C
:1044500005EB0A0114F816000FF006FB0699761C0E
:104460008A44BE42EADB01980399054400988944D6
:1044700004440298401C02904045DBDB93E7002097
:10448000029023E014F81A00B9F1000F60F307015D
:1044900060F30F2160F3174104EB4A0029D0437801
:1044A000029819F8000013FB00F000FB0BF0000C61
:1044B00060F31F61029896F82220284401F004F965
:1044C00006990298084402900AF101008246B84217
:1044D000D8DBB9F1000F01D0039989440198054454
:1044E000009804440498401C014604904045C6DBF3
:1044F00059E7427812FB0BF0000AD9E710B54020CB
:1045000019F03AF9040005D04022002119F075F99C
:10451000204610BDFEE72DE9FC410D4604002AD0DF
:1045200055B304F1240080461DF075FF009008B3D8
:104530000769616838460EF09FFB064629463846F3
:10454000626819F056F904F1300019F03BF8019057
:1045500098B10422694619F04CF92046009907F0F9
:1045600075FD042201A919F044F92146304662681C
:104570000EF092FB07E0FEE7FEE7404600991DF0D3
:1045800014FF002000900098BDE8FC812DE9F04167
:104590000F460121002504462E46C16309E01A4951
:1045A0001FF0C8F808B16D1C02E0E06B401CE0632E
:1045B000761C57F8260010B101780029EFD1A06BC6
:1045C000A8421FD0206B002610B115F017FE2663FD
:1045D000606B10B115F012FE6663280119F0CCF87B
:1045E000206338B1680019F0C7F8606318B1216B17
:1045F00011B102E0FEE7FEE700256A00002119F094
:10460000FCF8A563BDE8F081C827010810B5044691
:1046100090F85400E26BC107616C04D121B14B1CCE
:1046200018D0491E6164A9B90AB1C10712D0214648
:10463000144819F06CF800F027F8216909B12046F8
:104640008847616909B1204688472046BDE8104087
:1046500015F0D4BD216C49426163002A10D0C10716
:1046600002D1A16B49426163411C61F3000084F8EF
:104670005400E16A606A6162E062206B2263E06379
:1046800010BD0000C0CC012010B50A4C012084F8F8
:10469000A40004F1AC0018F070FF0028D4F8A800C2
:1046A00003D0BDE8104021F071B9BDE8104021F001
:1046B0005BB9000014CC01202DE9F0413D4D95F887
:1046C000A50038B15FF0000085F8A5003948AC308E
:1046D000074664E00120F7E7206D20F0DFFF616B03
:1046E0000844606320F0E0FF2065002085F8A40006
:1046F00094F8540095F8A510C0F340028A4254D0B3
:1047000061F3410084F8540041071ED4616B002915
:1047100041DB000709D4A16939B120468847616AA5
:1047200001446162E16A0844E062204623F09CFC97
:10473000E16809B12046884794F8540040F004002D
:1047400084F85400204623F0D1FB606B002822DB64
:10475000216B884200DD6163216A20468847A16A97
:104760000646B1420DD0A662626812B13146206899
:10477000904795F8A40088B9A2682AB1314620462E
:10478000904795F8A40048B9D4E90C0181420CDBAC
:104790002046FFF73BFF95F8A40030B1384618F0EB
:1047A000ECFE040098D1BDE8F0812146384618F0AF
:1047B000F6FEF6E714CC012070B5044640680D46BD
:1047C00008B1FFF7F9FF2268002A04D029462046E5
:1047D000BDE87040104770BD70B50D6806460C46C8
:1047E000286838B1296AC90204D5206021463046BC
:1047F000FFF7F2FF214630462560BDE87040FFF725
:10480000DBBF0CF0F0BC0CF033BD00002DE9F04F25
:10481000064691B0D6E90170814696F821000890CD
:104820003568F0680F90D6E906400E90D6E904B0DE
:104830000A900BA80FF07BFA96F8220008B100202E
:10484000DFE00898BBF1000F04D0FD284FF0000016
:1048500076D29FE0FD284FF0000021D226E000BF75
:104860004FF0000814E000BF04EB880BDBF80000F9
:104870000EF092FF60F307069BF80310304661F3D9
:104880000F2005EB48010BAA0EF0B8FF08F1010854
:10489000B845E9DB0F9805440E9804440AF101007D
:1048A00082464845DCDB11B0BDE8F08F82464845C2
:1048B000F9DA002617E000BF04EB860BDBF80000F6
:1048C0000EF06AFF60F307089BF80310089811FBCD
:1048D00000F0010A404661F30F2005EB46010BAAE8
:1048E0000EF08CFF761CBE42E6DB0F9805440E9856
:1048F00004440AF10100D9E7002617E004EB860121
:10490000079108680EF048FF079960F307084046D2
:10491000CA781BF8061012FB01F1090A61F30F2097
:1049200005EB46010BAA0EF069FF761CBE42E5DBE3
:104930000F980A9905440E988B4404440AF101002B
:1049400082464845D8DBAEE7002619E004EB860036
:10495000079000680EF020FF60F307080798C17801
:104960001BF8060011FB00F008990BAA4843010C44
:10497000404661F30F2005EB46010EF03FFF761C29
:10498000BE42E3DB0F980A9905440E988B44044419
:104990000AF1010082464845D6DB84E7002022E088
:1049A00004EB8A00029000680EF0F6FE414660F3C8
:1049B00007010298BBF1000FC07860F30F2124D0EB
:1049C0001BF80A2010FB02F0089A50435FEA1040DF
:1049D00060F30F2196F8222005EB4A000BAB00F0A4
:1049E0009BFD0AF101008246B842D9DBBBF1000F02
:1049F00001D00A998B440F9805440E9804440398FB
:104A0000401C03904845C9DB4DE7089A10FB02F0B3
:104A1000000ADDE72DE9F04F064693B0D6E90170B4
:104A2000804696F821B03568F0681190D6E90640C6
:104A30001090D6E904A00B900CA80FF08CF996F812
:104A4000220008B10020C4E0BAF1000F05D0BBF18C
:104A5000FD0F4FF0000066D28DE0BBF1FD0F4FF06F
:104A6000000018D21DE000260DE000BF05EB860A0D
:104A700004EB8600DAF8001000680CAA0EF07DFF47
:104A8000CAF80000761CBE42F0DB1198054410986D
:104A9000044409F1010081464045E4DB13B0BDE860
:104AA000F08F81464045F9DA002612E004EB8600DB
:104AB0000068020E12FB0BF1090A05EB860A61F38E
:104AC0001F60DAF800100CAA0EF057FFCAF80000B9
:104AD000761CBE42EADB119805441098044409F1A3
:104AE0000100DEE7002614E004EB86001AF8061049
:104AF0000068020E12FB01F1090A05EB860B61F357
:104B00001F60DBF800100CAA0EF037FFCBF8000096
:104B1000761CBE42E8DB11980B99054410988A4434
:104B2000044409F1010081464045DBDBB6E700267D
:104B300017E000BF04EB86001AF806100068020EAA
:104B400012FB01F101FB0BF1090C61F31F6005EB96
:104B50008601079109680CAA0EF00FFF0799761CD1
:104B60000860BE42E6DB11980B99054410988A4410
:104B7000044409F1010081464045D8DB8EE700205E
:104B800019E000BF04EB8900BAF1000F016824D0DE
:104B90001AF809000B0E13FB00F202FB0BF2100CCB
:104BA00060F31F6196F8222005EB89000CAB00F042
:104BB000D9FC09F101008146B842E3DBBAF1000FEC
:104BC00001D00B998A441198054410980444039825
:104BD000401C03904045D2DB60E70A0E12FB0BF04D
:104BE000000ADDE72DE9F04F054689B0D5E90167F8
:104BF00090F821B000680090E8680290D5E906407E
:104C00000390D5E904900490686AC11700EB5171D4
:104C100021F00701A0EB010A95F8220008B100205D
:104C20001BE1B9F1000F05D0BBF1FD0F4FF0000003
:104C300071D2E3E0BBF1FD0F4FF000002FD234E062
:104C4000002522E004EB850BDBF800000EF0A4FD4C
:104C500005EB0A0104908946009806F0F8FDC0EBC8
:104C600000208DF804009BF8032001A904980EF0A1
:104C700033FF9DF8040049467F28009802D927F0A9
:104C8000E3FC01E001F0A0FD6D1CB542DADB009908
:104C90000298084400900398044408F101008046FB
:104CA000B842CDDB09B0BDE8F08F8046B842F9DAF2
:104CB000002525E004EB8500059000680EF06CFDF2
:104CC00005EB0A0104908946009806F0C0FDC0EB90
:104CD00000208DF804000598C17811FB0BF0020A42
:104CE00001A904980EF0F8FE9DF8040049467F28BB
:104CF000009802D927F0A8FC01E001F065FD6D1CC9
:104D0000B542D7DB02990098084400900398044408
:104D100008F10100C9E735E0002527E004EB850034
:104D2000069000680EF038FD05EB0A0105908B46F1
:104D3000009806F08CFDC0EB00208DF8040006986A
:104D400019F80510C07811FB00F0020A01A90598B6
:104D50000EF0C2FE9DF8040059467F28009802D943
:104D600027F072FC01E001F02FFD6D1CB542D5DB90
:104D700002990098084400900398049904448944D7
:104D800008F101008046B842C6DB8BE7002529E028
:104D900004EB8500079000680EF0FEFC05EB0A01AD
:104DA00001910690009806F052FDC0EB00208DF8AE
:104DB0001400079819F80510C07811FB00F000FBEB
:104DC0000BF0020C05A906980EF086FE9DF8140063
:104DD0007F28DDE9000102D927F036FC01E001F06F
:104DE000F3FC6D1CB542D3DB029900980844009097
:104DF000039804990444894408F101008046B842AC
:104E0000C4DB4FE7002018E004EB8800B9F1000F85
:104E1000026826D019F80800130E13FB00F000FBFF
:104E20000BF0000C60F31F6295F8223008EB0A01CA
:104E3000009800F0EAFB08F101008046B042E3DB95
:104E4000B9F1000F01D004998944029900980844EF
:104E50000090039804440198401C0190B842D1DBB3
:104E600020E7110E11FB0BF0000ADBE72DE9F04FF4
:104E700006468FB0D6E90170804696F821B03568B5
:104E8000F0680D90D6E906400C90D6E904A0089091
:104E900096F8220008B10020B6E0BAF1000F05D064
:104EA000BBF1FD0F4FF000005DD280E0BBF1FD0FC4
:104EB0004FF0000016D21BE000260BE004EB860A40
:104EC000DAF800000EF068FC9AF80320A9190EF039
:104ED00011FE761CBE42F1DB0D9805440C9804448B
:104EE00009F1010081464045E6DB0FB0BDE8F08FD7
:104EF00081464045F9DA00260FE000BF04EB860A40
:104F0000DAF800000EF048FC9AF8032012FB0BF1CF
:104F10000A0AA9190EF0EEFD761CBE42EEDB0D98D2
:104F200005440C98044409F10100E1E7002610E073
:104F300004EB860BDBF800000EF02EFC9BF8032040
:104F40001AF8061012FB01F10A0AA9190EF0D2FD97
:104F5000761CBE42ECDB0D98089905440C988A44F7
:104F6000044409F1010081464045DFDBBDE700262E
:104F700013E000BF04EB8601069108680EF00CFCFC
:104F80000699CA781AF8061012FB01F101FB0BF121
:104F90000A0CA9190EF0AEFD761CBE42EADB0D9894
:104FA000089905440C988A44044409F1010081469B
:104FB0004045DCDB99E7002018E000BF04EB8900E6
:104FC000BAF1000F016823D01AF809000B0E13FB89
:104FD00000F000FB0BF0000C60F31F6196F822203C
:104FE00005EB090000F04AFB09F101008146B842D7
:104FF000E4DBBAF1000F01D008998A440D9805440A
:105000000C9804440298401C02904045D3DB6CE7A6
:105010000A0E12FB0BF0000ADEE700002DE9F04F4C
:10502000804687B0D8E90170814698F821B0D8F859
:105030000040D8F80C000290D8E906500190D8E959
:1050400004A0039098F8220008B100203AE1BAF1D8
:10505000000F05D0BBF1FD0F4FF0000061D284E0DE
:10506000BBF1FD0F4FF0000018D21DE00026B04646
:105070000CE000BF05EB080034F81610C2780EF003
:105080001DFC24F8160008F10408761CBE42F1DB72
:1050900002980444019805440AF1010082464845FB
:1050A000E4DB07B0BDE8F08F82464845F9DA002618
:1050B000B0460EE005EB0800C27812FB0BF10A0ABD
:1050C00034F816100EF0FAFB24F8160008F1040864
:1050D000761CBE42EEDB02980444019805440AF1B6
:1050E0000100E1E70026B04611E000BF05EB080033
:1050F0001AF80610C27812FB01F10A0A34F81610E9
:105100000EF0DCFB24F8160008F10408761CBE4201
:10511000ECDB02980399044401988A4405440BF19E
:10512000010083464845DDDBBBE70026B04612E0C0
:1051300005EB08001AF80620C17811FB02F101FB0B
:105140000BF10A0C34F816100EF0B8FB24F8160018
:1051500008F10408761CBE42EADB02980444019878
:105160000544039882440098401C00904845DCDBCD
:1051700097E700260096049496E000BF98F8220076
:10518000012822D0022857D003288AD104980099F8
:105190006A1830F816009178C30AC90813FB01F1A8
:1051A00049095278C902C0F34513920813FB02F271
:1051B000920901EB421100F01F020098285CC00820
:1051C00012FB00F001EB501024E0049800996A18DB
:1051D00030F816009178C30A03EBD1011F2900D3E0
:1051E0001F214FF6FF7303EAC1215278C0F3451324
:1051F00003EB92023F2A00D33F2201EB421100F061
:105200001F02009889B2285C02EBD0001F2800D34F
:105210001F20084480B2BAF1000F32D01AF80620DD
:10522000BBF1FD0F36D200992944C97812FB01F178
:1052300001FB0BF10A0C2DE00498009A2A4430F887
:1052400016009378C10AA1EBD301002900DC0021EC
:105250004FF6FF7303EAC1235278C0F34511A1EB67
:105260009201002900DC002100F01F02009803EBEE
:10527000411189B2285CA2EBD0000028C9DC0020D3
:10528000C7E70099BBF1FD0F2944CA7802D212FB8F
:105290000BF10A0A34F816100EF092FA24F81600F0
:1052A0000098001D761C0090BE42FFF667AF029882
:1052B000BAF1000F04440198054401D003988244D8
:1052C0000598401C05904845FFF653AFE9E60000FD
:1052D0002DE9F34F064685B0D6E90170804696F871
:1052E00021B03568F0680190D6E906400090D6E913
:1052F0000490039096F8220008B10020BCE0B9F1B8
:10530000000F05D0BBF1FD0F4FF000005DD280E033
:10531000BBF1FD0F4FF0000016D21BE04FF000096B
:105320004E4609E004EB860005EB0901C2780EF059
:10533000FEFA0699761C8944BE42F3DB01980544C7
:10534000009804440AF1010082464045E6DB07B0BC
:10535000BDE8F08F82464045F9DA4FF000094E462D
:105360000DE000BF04EB8600C27812FB0BF10A0AC5
:1053700005EB09010EF0DBFA0699761C8944BE4262
:10538000F0DB01980544009804440AF10100E1E7CC
:105390004FF0000A56460EE004EB860019F806109E
:1053A000C27812FB01F10A0A05EB0A010EF0BFFAFE
:1053B0000699761C8A44BE42EEDB019803990544A7
:1053C0000098894404440BF1010083464045DFDB2B
:1053D000BDE700BF4FF0000A564610E004EB860020
:1053E00019F80610C27812FB01F101FB0BF10A0C4F
:1053F00005EB0A010EF09BFA0699761C8A44BE4220
:10540000ECDB019803990544009889440444029810
:10541000401C02904045DDDB99E7002002901DE032
:1054200004EB8A00B9F1000F016829D0029A0B0E33
:1054300019F8020013FB00F000FB0BF05FEA1040CC
:1054400060F31F61029896F82220284400F03CF98E
:1054500006990298084402900AF101008246B84277
:10546000DEDBB9F1000F01D00399894401980544AE
:10547000009804440498401C04904045CDDB66E746
:105480000A0E12FB0BF0000ADAE7000010B5416CBF
:1054900096B0044601B368460BF0C2F9214668464F
:1054A0000BF060FA0F4968460BF046FA6846616CEB
:1054B0000BF03AFA0122002168460BF04DFA0A4936
:1054C00068460BF03BFA094968460BF026FA684635
:1054D0000BF06AFA16B010BD16B0BDE8104021F00E
:1054E000D5BC0000116F0208FB080108136F020809
:1054F00008B5074818F041F80649C8620021009134
:105500000B460A46006809211DF08AFB08BD000011
:1055100084C7012004C1012030B415460A46014663
:10552000D4B2012D08D0022D14D0032D18D10D783E
:1055300015FB04F4240A04E00D782C44FF2C00D35E
:10554000FF2464F30700120A62F30F2030BC1A46EE
:105550000EF054B90D782C1B002CF2DC0024F0E77F
:1055600030BC70472DE9F04117460446C1F30746A9
:10557000C1F30725CAB2012F14D0022F31D0032F57
:105580002DD1A77817FB06F6360A66F31740667822
:1055900016FB05F52D0A65F30F20257815FB02F2A1
:1055A000120A12E0A7783E44FF2E00D3FF2666F3CE
:1055B000174066783544FF2D00D3FF2565F30F2093
:1055C00025782A44FF2A00D3FF2262F30700090E40
:1055D00061F31F6021681A460EF0CFF92060BDE824
:1055E000F081A778BE1B002E00DC002666F3174072
:1055F0006678751B002D00DC002565F30F202578EB
:10560000AA1A002AE1DC0022DFE72DE9F8438046F0
:105610001F460E46154610460EF0BEF804463146AB
:10562000404606F014F9C0EB0020C0B28DF800002F
:10563000012F15D0022F19D0032F0FD110FB04F02A
:10564000C0F307202A0E69460EF046FA9DF80000C6
:1056500031467F2840460ED926F0F6FFBDE8F88394
:105660002044FF2800DBFF20C0B2EBE7001B00282E
:10567000FADC0020F8E701F0A7F8EFE770B5044680
:1056800016460D4608460EF087F8012E0ED0022E63
:1056900013D0032E17D1217811FB00F0C0F307209F
:1056A0002A0E2146BDE870400EF024BA2178084445
:1056B000FF2800DBFF20C0B2F2E72178081A00289B
:1056C000F9DC0020F7E770BD38B500230093CDB2B8
:1056D000C1F30724C1F30743012A14D0022A2DD0B5
:1056E000032A2AD1027812FB05F2120A8DF8002053
:1056F000427812FB04F2120A8DF80120827812FB24
:1057000003F2120A12E002782A44FF2A00D3FF2291
:105710008DF8002042782244FF2A00D3FF228DF822
:10572000012082781A44FF2A00D3FF228DF802203C
:105730000A0E014668460EF0FAF838BD0278521B90
:10574000002A00DC00228DF800204278121B002A7B
:1057500000DC00228DF801208278D21A002AE5DCD4
:105760000022E3E710B514F0FBFA002119F01DFA4E
:1057700017F000F8044610A11DF0DCFFA0B10FA146
:1057800020461DF0D7FF88B10DA120461DF0D2FFA5
:1057900070B10CA120461DF0CDFF00280AD10520D4
:1057A000BDE810400AF0CEBF0220F9E70320F7E77A
:1057B0000420F5E710BD0000EE99B700EE988F00C9
:1057C000EE988A00EE98810038B5044615F03EFE4A
:1057D000054616F026F80028204605D0616C2164A5
:1057E0001AF0BEFE012038BD14F048F8002820460B
:1057F0001ED013F0F4FED4E9100181420CD0606495
:10580000206C00906A46202120461BF058FF01289A
:10581000E9D120461AF0A4FE284616F011F8042813
:10582000E0D1204619F09DFA002115F0B7F8D9E72C
:1058300014F082F8D6E7002802D0C01C20F0030044
:10584000704714F0DBBCC01C17F096BF10B56FF0AA
:105850007F400EF0CDF9114C01460022E0691CF0AA
:1058600024F90121206A1BF06FFC62690CA1501C15
:105870006061606A17F079FB60690A2190FBF1F2C0
:1058800001FB120000EBC00101EB00100022BDE89B
:105890001040C0B2114625F0B7BB000004C1012082
:1058A0002564000010B54FF47F000EF0A1F9064CFE
:1058B00001460022E0691CF0F8F8206ABDE81040BB
:1058C000012118F0EAB9000004C101202DE9F041DE
:1058D0000446006815461346476A0E4600222046D5
:1058E000B84701280FD10020BDE8F08129462046A5
:1058F00000F013F80028F7D020682B460022476AF2
:1059000031462046B8470228F0D020682A46314662
:1059100003692046BDE8F041184770B504460068A9
:105920000E46026A20469047050010D02068324695
:10593000294643692046984728460DF098F9A26900
:105940003146904728460DF089F9012070BD0020AE
:1059500070BD2DE9F04F0C4685B00546002119F0C9
:1059600024F958B32146284600F08CFA21462846EF
:1059700000F068F8002128461AF016F88346002146
:1059800028461AF065F804900021284619F0E3FE35
:1059900001281BD00027002128461AF0E6F980468E
:1059A0000021284619F058FF6FF040490646C845C7
:1059B0000ED1688D00050BD401200AE005B0204609
:1059C000BDE8F04F2022002117F017BF0127E2E7C2
:1059D00000208046284619F086F982462846002194
:1059E00082221AF05FF8C2B22369A1682068CDE96B
:1059F0000031CDE902075B464146504606F07EFE87
:105A0000A0614E4504D1688D400501D4012600E017
:105A10000026284619F056F9074628460021832219
:105A20001AF040F8C2B2606900256368E1688DE849
:105A30002B0031463846049B06F060FEE06105B05D
:105A4000BDE8F08F2DE9F34F81B00C46019806F0C8
:105A5000DDF806004FF000081ED1019819F0D6F9C4
:105A600006F0D4F8070074D0019806F0D3F8814608
:105A7000019806F0D3F880468500281D17F07CFEBB
:105A800006462A4607EB890117F0B3FE6FF0604126
:105A900046F828104FF00108019819F024F98346C0
:105AA000304600F02FFF2061800017F065FE206077
:105AB0002069800017F060FE0025DFF82CA1A060AF
:105AC00038E056F82510DFF82491514531D10027F0
:105AD0001FE03946019819F068F8454900901AF01E
