:020000040800F2
:100000002009002045010008F71D0008651C0008B4
:10001000F51D0008FD070008C525000800000000C8
:10002000000000000000000000000000A9220008FD
:10003000FF07000800000000F91D0008AB220008BF
:100040005F0100085F0100085F0100085F01000810
:100050005F0100085F0100085F0100085F01000800
:100060005F0100085F0100085F0100085F010008F0
:100070005F0100085F0100085F0100085F010008E0
:100080005F0100085F0100085F0100085F010008D0
:100090005F0100085F0100085F0100085F010008C0
:1000A0005F0100085F0100085F0100085F010008B0
:1000B0005F0100085F0100085F0100085F010008A0
:1000C0005F0100085F0100085F0100085F01000890
:1000D0005F0100085D2500085F0100085F0100085E
:1000E0005F0100085F0100085F0100085F01000870
:1000F0005F0100085F0100085F0100085F01000860
:100100005F0100085F0100085F0100085F0100084F
:100110005F0100085F0100085F0100085F0100083F
:100120005F0100085F0100085F0100085F0100082F
:10013000DFF80CD000F0D2FA00480047052F000885
:10014000200900200648804706480047FEE7FEE7F2
:10015000FEE7FEE7FEE7FEE7FEE7FEE7FEE7FEE777
:100160000D23000831010008202A04DB203A21FA7F
:1001700002F00021704721FA02F3D040C2F12002C0
:100180009140084319467047D2B201E000F8012BB4
:10019000491EFBD270470022F6E710B513460A4607
:1001A00004461946FFF7F0FF204610BD30B480EA40
:1001B000010202F0004530F0004221F0004013D06F
:1001C00090B1C30DD40DC2F31601C0F31600E41AAA
:1001D00041F4000140F400027D34914201D3641CDB
:1001E00000E04900002C02DA30BC002070474FF4D8
:1001F00000000023914201D3891A034340084FEACB
:100200004101F7D151B1914202D14FF0004105E0D7
:1002100002D24FF0010101E06FF0010103EBC45085
:10022000284430BC00F06BB8420005D0C0F3C75280
:100230005242914201DC0020704700EBC1507047F0
:1002400096230022114600F063B800F0004230F01F
:1002500000400AD0C10D01F56071C0F3160042EAFA
:100260000151C20840071143704700200146704702
:1002700030B50B46014600202022012409E021FA76
:1002800002F59D4205D303FA02F5491B04FA02F573
:100290002844151EA2F10102F1DC30BD2DE9F05F0A
:1002A0000546002092469B468846064681464024E5
:1002B0001BE02846414647462246FFF755FF534676
:1002C0005A46C01A914110D311461846224600F0F2
:1002D00017FA2D1A67EB01084F462246012000212C
:1002E00000F00EFA17EB00094E41201EA4F10104A4
:1002F000DFDC484631462A464346BDE8F09F0029E8
:10030000A8BF7047401C490008BF20F0010070479B
:1003100010B4B0FA80FC00FA0CF050EA010404BFFB
:1003200010BC704749B1CCF1200421FA04F411FA51
:100330000CF118BF012121430843A3EB0C01CB1D95
:100340004FEA00614FEA102042BF002010BC704706
:1003500000EBC35010440029A4BF10BC7047401CE0
:10036000490008BF20F0010010BC70472DE9FE4F86
:10037000804681EA0300C00F0C46009021F0004146
:1003800023F00045B8EB0200A94105D240462146C2
:1003900090461C460B46024623F00040104347D0CF
:1003A000270DC7F30A00C3F30A510290401A0190C7
:1003B00040286BDAC3F3130040F4801B0098924688
:1003C00020B10023D2EB030A63EB0B0B01985946D3
:1003D000C0F14002504600F093F906460D465046E3
:1003E0005946019A00F09BF910EB08006141002486
:1003F00087EA115284EAE7731A4340D0009A62B345
:10040000019A012A4FEA075215DC001B61EB020139
:100410004FF0004202EA0752CDE90042001C41F5CC
:10042000801132462B4600F09BF903B0BDE8F08FF7
:1004300040462146F9E7001B61EB0201001C41F533
:10044000801300185B412018A2F5001747EB030149
:1004500040EAD570B6196D4111E06D084FEA3606D5
:1004600045EAC0754FEA0752001B61EB0201001C10
:1004700041F5801149084FEA3000001951413246D8
:100480002B4603B0BDE8F04F00F05BB900980122A5
:1004900040000023D0EB020263EBE073009821469A
:1004A0004FEAE074B8EB000061EB0401E9E783F088
:1004B00000435BE781F0004158E72DE9FE4F81EAF8
:1004C000030404F0004421F0004100944FF0000BBD
:1004D00023F0004350EA01045ED052EA03045BD0EB
:1004E000C3F30A54C1F30A552C44A4F2F334019423
:1004F000A0FB0254C1F3130141F48011C3F31303B1
:1005000043F4801301FB024400FB034E840A970A64
:1005100044EA815447EA8357A4FB076802958D0A91
:1005200005FB07854FEA932C04FB0C542705029D1D
:100530004FEA065847EA1637B5EB08056EEB070C8D
:10054000870E920E47EA811742EA8312A7FB020147
:10055000B6EB0B0164EB00042B0D43EA0C335E1881
:1005600044EB1C50DA465146E7FB0201C5F3130485
:100570004FEA0B3343EA14534FEA0432019C43EA37
:100580000603A4F10C040294009CCDE900B400F031
:10059000E7F803B0BDE8F08F00200146F9E72DE948
:1005A000F04D81EA030404F0004B21F000451446AD
:1005B0004FF0000A23F0004150EA050220D054EA2F
:1005C00001021DD0C5F30A570246C5F31303C1F358
:1005D0001300C1F30A5640F4801543F48013A7EBCF
:1005E0000608101BD64608F2FD3873EB050002D34F
:1005F00008F1010801E092185B41B8F1000F03DA3D
:1006000000200146BDE8F08D00204FF48011064621
:1006100084460EE0171B73EB050705D3121B63EB33
:10062000050306434CEA010C49084FEA30009218D2
:100630005B4150EA0107EDD152EA030012D082EA91
:10064000040083EA0501084305D0101BAB4106D224
:100650000122002306E000224FF0004302E06FF089
:10066000010253101AEB06004CEB085110EB0A0084
:1006700041EB0B01BDE8F04D00F063B8C1F30A5245
:10068000C1F3130140F2FF3341F480119A4202DAC0
:1006900000200146704740F233439A42A2F23342AF
:1006A00002DC5242FFF760BD00F02AB830B5041EEC
:1006B00071F1000404DB4FF00044404264EB01019F
:1006C000141E73F1000405DB1C464FF00043524238
:1006D00063EB0403994208BF904230BD064C074DBE
:1006E00006E0E06840F0010394E807009847103402
:1006F000AC42F6D3FFF720FD443300086433000812
:10070000202A04DB203A00FA02F1002070479140D1
:10071000C2F1200320FA03F3194390407047202AC6
:1007200006DBCB17203A41FA02F043EAE07306E019
:1007300041FA02F3D040C2F1200291400843194629
:10074000704710B5141E73F1000408DA401C41F123
:10075000000192185B411A4301D120F0010010BD45
:100760002DE9F04D92469B4611B1B1FA81F202E0BB
:10077000B0FA80F220329046FFF7C2FF04460F46DF
:1007800040EA0A0041EA0B0153465A46084313D097
:10079000114653EA010019D0C8F140025046FFF754
:1007A000E3FC05460E46504659464246FFF7A8FF71
:1007B000084305D0012004E020463946BDE8F08D0D
:1007C0000020054346EAE0762C4337430A98630548
:1007D000E40AA0EB08000022FD0A44EA47540A306C
:1007E00002D500200146E9E7010510196941DDE95C
:1007F000084500196941BDE8F04DA2E7FEE77047E2
:1008000010B590F821100022022905D0042181633F
:1008100080F82020012010BD01680B6823F00E0332
:100820000B6001680B6823F001030B6090F8403007
:10083000C46B012101FA03F3636080F8211080F892
:100840002020104610BD00002DE9F05F90F8211027
:100850000024022903D004218163012485E001687A
:100860000A6822F00E020A6001680A6822F001029A
:100870000A603F4E3E4FB215DFF8F4C0DFF8F0904B
:10088000DFF8ECA0DFF8E8B0DFF8E4E00168783FDB
:1008900013011502ACF1640CA9F15009AAF13C0A4C
:1008A000ABF1280BAEF1140E4FF48018B14227D9EA
:1008B000B9420ED0614512D049451DD0514518D0DE
:1008C000594518D0714501D1424615E0294EB14233
:1008D00001D1012210E0274E1436B14201D110227D
:1008E0000AE0244E2836B14206D0224A3C329142D8
:1008F00001D11A4600E02A461E49091F0A602BE072
:10090000B94213D0614517D0494522D051451DD079
:1009100059451DD0714501D142461AE0B14202D17C
:100920004FF0807215E0134EB14201D1012210E068
:10093000104E1436B14201D110220AE00D4E283675
:10094000B14206D00B4A3C32914201D11A4600E036
:100950002A46074980394A60012180F82110002188
:1009600080F82010416B01B188472046BDE8F09F18
:10097000800002400804024070B5044600F018F9F7
:100980000546601C02D004480078044400F010F9C9
:10099000401BA042FAD370BD040000202DE9F84F9F
:1009A000DFF8C8910024A9F1040B23460F2709F1B1
:1009B000040AABF1040ED1E00125A54006EA0502C8
:1009C000AA4276D1DFF8A8C14E68A6EB0C086645AE
:1009D0002BD00DDC032E34D005DC36B3012E19D01C
:1009E000022E2FD11BE0112E16D0122E2AD119E083
:1009F000B8F5881F19D006DCB8F5803F15D0B8F5DA
:100A0000801F1FD111E0B8F5001F0ED0B8F5041FEC
:100A100018D10AE0CB6815E0CB681B1D12E0CB684B
:100A200008330FE0CB680C330CE08B682BB1012B43
:100A30004FF0080303D0456104E0042302E00561A0
:100A400000E00023FF2A01D8064601E000F1040679
:100A50004FEA840501D9A5F12005D6F8008007FAF0
:100A600005FC28EA0C0803FA05F548EA0508C6F86B
:100A700000804D68ED0070D53E4DAE6946F0010630
:100A8000AE61AD6924F0030605F0010500953A4D0D
:100A900006EB050CDCF80850A607360F07FA06F837
:100AA00025EA0805DFF8D480404503D14FF000085F
:100AB00025E052E0DFF8C880404502D14FF0010840
:100AC0001DE0DFF8C080404502D14FF0020816E07B
:100AD000DFF8B480404502D14FF003080FE0DFF8A3
:100AE000AC80404502D14FF0040808E0DFF8A08058
:100AF000404502D14FF0050801E04FF0060808FA22
:100B000006F848EA0508CCF808804D68D9F8006076
:100B1000ED024D4601D5164300E096432E604D6828
:100B2000DAF80060AD02554601D5164300E0964361
:100B30002E604D68DBF80060AD035D4601D51643BD
:100B400000E096432E604D68DEF80060ED037546C8
:100B500001D5164300E096432E60641C0A681646D1
:100B6000E2407FF429AFBDE8F88F0000080401409F
:100B70000000111000100240000001400008014078
:100B8000000C014000100140001401400018014019
:100B9000001C0140C26821EA02030A4043EA024104
:100BA000016170470AB1016170470904FBE7000069
:100BB00001488068704700000400002002488168F6
:100BC000027811448160704704000020074810B586
:100BD000016841F010010160032000F075F80F205A
:100BE00000F006F800F024F8002010BD00200240BC
:100BF00070B50D4D04464FF47A712878B1FBF0F0D2
:100C00000A490968B1FBF0F000F0C3FD48B9102CA7
:100C100007D200222146501E00F036F800206C60FA
:100C200070BD012070BD00000400002010000020F5
:100C30000C4808B5816941F001018161816901F0C9
:100C400001010091C16941F08051C161C06900F0AA
:100C5000805000900448416821F0E06141F000714B
:100C6000416008BD0010024000000140002809DB7F
:100C700000F01F02012191404009800000F1E020B6
:100C8000C0F8001170470000F0B40E4B1B680C4612
:100C9000C3F30223C3F10705042D00D90425191D50
:100CA000072901D2002300E0DB1E012606FA05F128
:100CB000491E214099409E40761E16403143F0BCAB
:100CC00001F092BC0CED00E0064900F00702086854
:100CD0004FF6FF03184040EA0220034A1043086021
:100CE000704700000CED00E00000FA052DE9F04728
:100CF0000F46050061D0434E306800F00700B8424F
:100D000009D2306820F0070038433060306800F0C6
:100D10000700B84251D128683B4C810712D54007E3
:100D200003D5606840F4E06060602878000703D570
:100D3000606840F4605060606068A96820F0F0006E
:100D4000084360602878C00728D06868012810D060
:100D50002168022810D0890700292EDA616821F065
:100D6000030101436160FFF723FF804641F28839A8
:100D70000DE021688903EFE78901EDE7FFF718FF30
:100D8000A0EB0801494502D90320BDE8F08760685F
:100D9000696800F00C00B0EB810FEFD1306800F013
:100DA0000700B8420BD9306820F0070038433060A4
:100DB000306800F00700B84201D00120E5E728784C
:100DC000400705D56068E96820F4E060084360608A
:100DD0002878000706D56068296920F4605040EA49
:100DE000C100606000F038F86168084AC1F303117F
:100DF000515CC8400649086006480068FFF7F8FEE5
:100E00000020C2E700200240001002402A33000800
:100E100010000020080000200448054900684968C7
:100E2000044AC1F30221515CC84070471000002001
:100E3000001002403A330008044805490068496838
:100E4000044AC1F3C221515CC84070471000002021
:100E5000001002403A3300080E4A51680E4801F073
:100E60000C03042B11D0082B0FD10C48C1F3834382
:100E7000C903C05C0AD55168084AC1F34041921EBB
:100E8000515C054A5043B0FBF1F0704704494843B8
:100E9000704700000010024000127A001A33000868
:100EA00000093D002DE9F84F040070D02078C04DB6
:100EB000C00749D06868C0F38100012807D068687E
:100EC000C0F38100022809D16868C00306D52868EC
:100ED000800339D560680028E7D035E06068B0F558
:100EE000803F0BD010B1B0F5A02F11D0286820F4AE
:100EF00080302860286820F4802002E0286840F4D0
:100F000080302860606890B1FFF752FE06460AE024
:100F1000286840F480202860F0E700BFFFF748FE13
:100F2000801B642873D828688003F7D50CE0FFF78E
:100F30003FFE064605E000BFFFF73AFE801B64282F
:100F4000F0D828688003F7D420789A4E80074FF0B5
:100F500001094FF0000839D5686810F00C0F07D070
:100F60006868C0F38100022809D16868C00306D40C
:100F70002868800714D52069012808D110E020696D
:100F8000B0B1C6F80090FFF713FE074605E00AE18E
:100F9000FFF70EFEC01B0228C4D828688007F7D5CB
:100FA0002868616920F0F80040EAC10028600DE07F
:100FB000C6F80080FFF7FCFD074604E0FFF7F8FDE8
:100FC000C01B022823D828688007F7D420780007A0
:100FD0002CD57948A169D9B1C0F80090FFF7E8FD98
:100FE000074604E0FFF7E4FDC01B02280FD8686A3B
:100FF0008007F7D571484FF4FA510068B0FBF1F063
:10100000009000BF0098411E0091FAD20EE080E0EF
:10101000C0F80080FFF7CCFD074604E0FFF7C8FDED
:10102000C01B022875D8686A8007F7D4207840076B
:1010300060D5E8690027C00008D4E86940F0805016
:10104000E861E869012700F0805000905C48016881
:10105000C90513D40168834641F480710160FFF72C
:10106000A7FD824606E000BFFFF7A2FDA0EB0A0045
:1010700064284ED8DBF80000C005F5D5E0680128EB
:101080000AD008B1052813D0286A20F00100286290
:10109000286A20F0040002E0286A40F0010028627B
:1010A000E06841F2883B98B1FFF782FD82460BE091
:1010B000286A40F004002862EEE700BFFFF778FDE1
:1010C000A0EB0A0159455AD8286A8007F6D50CE0EA
:1010D000FFF76EFD824605E0FFF76AFDA0EB0A010F
:1010E00059454CD8286A8007F6D41FB1E86920F02A
:1010F0008050E861E06988B36968C1F38101022921
:1011000044D00228C6F8608004D0FFF751FD0446A1
:1011100038E034E0FFF74CFD074604E0FFF748FDF8
:10112000C01B02282BD828688001F7D4206AB0F5AC
:10113000803F05D16868A16820F4003008436860EA
:10114000D4E908010843696821F474110843686010
:10115000C6F86090FFF72CFD044606E025E000BFCE
:10116000FFF726FD001B022809D828688001F7D563
:101170001BE000BFFFF71CFD001B022802D9032063
:10118000BDE8F88F28688001F4D40EE00128F7D07C
:101190006868226A00F48031914204D1616A00F4E7
:1011A0007010884201D00120EAE70020E8E7000043
:1011B0000010024000004242800442421000002021
:1011C0000070004070B5040009D0606A002540B18D
:1011D00025616561A56294F8510040B10CE00120E1
:1011E00070BD6068B0F5827FF4D0E561F2E784F805
:1011F0005050204600F040F8022084F8510020684A
:10120000016821F040010160A088218900F482700A
:1012100001F404410843A18901F400610843217CE1
:1012200001F002010843217D01F001010843218BF7
:1012300001F400710843217F01F03801084394F85C
:10124000201001F080010843218D01F40051084372
:1012500021680860A069042101EA10402168486003
:101260002068C16921F40061C1616565012084F8CD
:101270005100002070BD000030B585B000240094FE
:1012800001940294039400681449884223D11448BD
:10129000816941F480518161816901F48051049137
:1012A000816941F00401816180690E4D00F0040004
:1012B0000490A02000900220019003200390694632
:1012C0002846FFF76BFB4020CDE90004694628461D
:1012D0000294FFF763FB05B030BD00000030014011
:1012E00000100240000801402DE9F84F044690F834
:1012F00051001D4616460F46012838D160684FF050
:101300000408B0F5827F01D1A06830B3FFF750FC2C
:101310008246002F75D0002E73D094F8500001281B
:1013200025D04FF0010984F8509084F851804FF097
:101330000008C4F85480A763A687E687C4F8308005
:10134000A4F83480A4F83680C4F84080C4F84480FF
:10135000A068B0F5004F0CD015E084F851800093E0
:1013600013460A46204600F01CF9BDE8F88F02201B
:10137000FBE72068016821F04001016020680168F6
:1013800021F48041016020680168490603D40168A6
:1013900041F040010160E068C0B134E0206881683C
:1013A000C90709D0007BA16B0870A06B401CA0632B
:1013B000E08F401EE08709E0FFF7FAFBA0EB0A0090
:1013C000A84202D3681C01D032E085B3E08F002828
:1013D000E4D11BE020688168C90709D0C068A16B0F
:1013E0000880A06B801CA063E08F401EE0870AE0AD
:1013F000FFF7DEFBA0EB0A00A84203D3681C02D073
:1014000016E012E09DB1E08F0028E3D15246294654
:10141000204600F095FE08B12020606584F85190C8
:1014200084F85080606D00289FD001209DE7FFE781
:1014300084F8519084F85080032096E72DE9F84F06
:10144000984616468A460446FFF7B2FB814694F852
:10145000510001281ED1BAF1000F73D0002E71D0B7
:1014600094F85000012815D0012784F8507003200B
:1014700084F8510000256565C4F830A0A686E6868C
:10148000A563A587E58765642564A068B0F5004F6E
:1014900003D00CE00220BDE8F88F2068016821F03D
:1014A000400101602068016841F4804101602068CA
:1014B0000168490603D4016841F040010160E06819
:1014C000B0F5006F606803D048B3012E27D047E025
:1014D00008B1012E1FD1206B21680088C86006E08A
:1014E00020688168890709D5216B0988C160206B54
:1014F000801C2063E08E401EE0860CE0FFF758FB66
:10150000A0EB0901414503D3B8F1FF3F03D035E01B
:10151000B8F1000F32D0E08E0028E1D123E0206B3B
:1015200021680078087306E02068816889070AD579
:10153000216B09780173206B401C2063E08E401EF4
:10154000E0860DE02BE0FFF733FBA0EB09014145FE
:1015500003D3B8F1FF3F03D010E0B8F1000F0DD076
:10156000E08E0028E0D14A464146204600F016FEB3
:1015700008B120206065A06830B109E084F851709E
:1015800084F85050032086E72068C1688068009086
:1015900084F8517004F8505F60680028F3D001208F
:1015A00079E72DE9FF4F81B01D46934604464FF081
:1015B00001090E9EFFF7FCFA074694F85100616896
:1015C000012806D0B1F5827F3CD1A168C9BB0428AF
:1015D00038D10298002871D0BBF1000FFBD0002D4C
:1015E000F9D094F8500001282CD04FF0010A84F86B
:1015F00050A094F85100042802D0052084F851002E
:101600004FF00008C4F85480C4F838B0E587A587C7
:1016100002992163E586A586C4F84080C4F8448019
:1016200020680168490603D4016841F04001016067
:10163000E068B0F5006F606808D0F0B3012D49D0C4
:1016400081E0FFE7022005B0BDE8F08F08B1012D71
:1016500039D1206B21680088C860206B801C206312
:10166000E08E401EE0862EE02068816889070FD555
:10167000E18E69B1B9F1010F0AD1216B0988C1600E
:10168000206B801C2063E08E401EE0864FF0000936
:1016900020688168C9070CD0E18F51B1C068A16B87
:1016A0000880A06B801CA063E08F401EE0874FF095
:1016B0000109FFF77DFAC01B01E00BE067E0B042D3
:1016C00001D3701C50D1E08E0028CDD1E08F0028CE
:1016D000CAD13EE0206B216800780873206B401C63
:1016E0002063E08E401EE0862DE020688168890737
:1016F0000FD5E18E69B1B9F1010F0AD1216B0978DB
:101700000173206B401C2063E08E401EE0864FF08A
:10171000000920688168C9070CD0E18F51B1C06809
:10172000A16B0870A06B401CA063E08F401EE08797
:101730004FF00109FFF73CFAC01BB04202D3701C06
:1017400001D011E086B1E08E0028CED1E08F0028D4
:10175000CBD13A463146204600F020FD50B1202042
:10176000606584F8508012E084F851A084F85080BD
:10177000032068E7A06818B92068C16880680090F5
:1017800084F851A084F85080606D0028F1D00120C9
:1017900059E710B5401EB0F1807F01D3012010BD84
:1017A0004FF0E02460610F21601700F01DFF002062
:1017B000A06107202061002010BD70477047000025
:1017C000F8B5016804460868CA684B6910F00F0F45
:1017D0004FF0000559D003F0010602F4907737432B
:1017E00065D0C10705D0D10503D5616C41F0010179
:1017F0006164410705D5D90703D0616C41F002014E
:101800006164810705D5D90703D0616C41F00401FB
:101810006164010707D502F02001314303D0616CF8
:1018200041F008016164616C00293AD0800604D55A
:10183000900602D5204600F099FD20684069616C51
:10184000C0F38010090700D460B3204600F067FDA4
:1018500020684069400621D52068143050E8001FF8
:1018600021F0400140E80012002AF5D1E06BA8B158
:101870006D494163E06BFEF7E7FF002811D0E06B94
:10188000416B01B0BDE8F040084783060FD59306D1
:101890000DD52046BDE8F84000F068BD2046FFF7B2
:1018A0008DFFF8BD2046FFF789FF6564F8BD266B04
:1018B0002023012E7CD1C6067AD5D60678D50868B5
:1018C0004868009048694FF00206400640D5E16B39
:1018D000086840680004000CE8D0A28D8242E5D977
:1018E000E085886920282DD020680C3050E8001F42
:1018F00021F4807140E80012002AF5D120681430EC
:1019000050E8001F21F0010140E80012002AF5D143
:101910002068143050E8001F21F0400140E8001218
:10192000002AF5D184F84230256320680C3050E855
:10193000001F21F0100140E80012002AF5D1E06BF1
:10194000FEF75EFF6663A08DE18D401A81B22AE04A
:10195000A08DE18D401A81B2E08D0028A6D000292B
:10196000A4D022680C3252E8000F20F4907042E8B4
:101970000007002FF5D12068143050E8002F22F026
:10198000010240E80027002FF5D184F8423025639A
:1019900020680C3050E8002F22F0100240E80023AD
:1019A000002BF5D166632046FFF707FFF8BDFFE780
:1019B00005062BD5150629D594F841002128F5D127
:1019C000A068B0F5805F01D12069B0B1206A411CE8
:1019D0002162216800784860E08C401E0004000C01
:1019E000E084E3D12068C16821F08001C1602068F3
:1019F000C16841F04001C160D8E7206A0088C0F3A7
:101A000008004860206A801C2062E5E74006CDD5CA
:101A10005006CBD5CA68204622F04002CA6084F83E
:101A2000413000F01EF9C1E70F23000870B5040033
:101A300004D094F84100002510B106E0012070BDEB
:101A400084F84050204600F023F8242084F8410018
:101A50002068C16821F40051C160204600F0E8FC14
:101A60002068016921F4904101612068416921F0F9
:101A70002A0141612068C16841F40051C160656478
:101A8000202084F8410084F842006563002070BD86
:101A900030B585B00024009401940294039400684A
:101AA000184988422CD11848816941F480418161EC
:101AB000816901F480410491816941F004018161EF
:101AC0008069124D00F0040004904FF40070009003
:101AD000022001900320039069462846FEF75EFF2E
:101AE0002815CDE90004694628460294FEF756FF02
:101AF000002211462520FFF7C7F82520FFF7B6F88A
:101B000005B030BD0038014000100240000801401F
:101B10002DE9F84F044690F842009A4616460D46C5
:101B2000202802D00220BDE8F88FB5B1AEB1002068
:101B30006064222184F842102063FFF739F8A685FB
:101B40008146E685A0684FF480582027404501D1A2
:101B5000206920B12E46002529E00120E3E7002678
:101B600025E04B46002220212046CDF800A000F0C1
:101B7000BBFC18B184F842700320D4E726B1A068FA
:101B800040451AD038B108E020684068C0F308002A
:101B900025F8020B08E0206978B12068406800F061
:101BA0007F0000BF06F8010BE08D401EE085E08D50
:101BB0000028D6D184F84270B5E720684068F1E784
:101BC00070472DE9F843044690F8410098461646C0
:101BD0000D46202802D00220BDE8F88385B17EB1F1
:101BE00000206064212084F84100FEF7E1FFA68414
:101BF0008146E684A0682027B0F5805F02D003E02C
:101C00000120E9E7206910B12E4600250EE00026EC
:101C10000CE08021204600F067FCA8B9C6B116F898
:101C2000010B21684860E08C401EE084E08C4B464C
:101C30004FF00002CDF800800028EAD14FF04001BB
:101C4000204600F051FC40B184F841700320C3E706
:101C500035F8020BC0F30800E3E784F84170002078
:101C6000BAE77047FEE700002DE9F04786B000268E
:101C700037480096019602960396816941F010015B
:101C80008161816901F010010491816941F00401D1
:101C90008161816901F004010491816941F02001B1
:101CA0008161816901F020010491816941F008019D
:101CB00081618069274F00F0080004900122022111
:101CC0003846FEF76FFFDFF8908001221021404672
:101CD000FEF768FFDFF88490012240214846FEF7B6
:101CE00061FFDFF87CA0012210215046FEF75AFF69
:101CF00001240220CDE90004032569463846CDE9D8
:101D00000245FEF74BFE0C20CDE900066946384639
:101D10000296FEF743FE1026CDE900646946404670
:101D2000CDE90245FEF73AFE4020CDE900046946C0
:101D30004846CDE90245FEF731FECDE9006469462B
:101D40005046CDE90245FEF729FE06B0BDE8F08712
:101D50000010024000080140001001400014014042
:101D6000000C014010B5124C1048022120604FF4C5
:101D7000827060600020A060C4E9030101216161FC
:101D80004902A1613821C4E907106062A0620A20FB
:101D9000E0622046FFF716FA08B172B6FEE7206847
:101DA000016841F04001016010BD000000300140B9
:101DB0007C00002010B50E4C0C480C2120604FF424
:101DC000E13060600020A060E060C4E90401A0612F
:101DD000E0612046FFF72AFE08B172B6FEE72068F0
:101DE000C16841F03001C16010BD00000038014001
:101DF000D4000020FEE7FEE77047000010B5012286
:101E000010210448FEF7CEFEBDE81040FF2000F090
:101E1000DFB900000010014010B500221021064873
:101E2000FEF7C0FE00F050F9FF2803D0FFF7E6FFF1
:101E3000012010BD002010BD001001401FB5FFF7AC
:101E4000EBFF01220021092000F008F960BB274CBC
:101E5000FF2000F0BDF9FE2802D0641EF8D200E099
:101E600014B36423102269462148FFF73DFAFF208E
:101E700000F0AEF9FF2000F0ABF9FFF7BFFF9DF8CF
:101E800000100120B0EB911F12D19DF807009DF8C2
:101E90000810000440EA01209DF809100843800260
:101EA00000F5806004B010BDFFF7A8FF0020F9E73F
:101EB0009DF805009DF8072000F00F019DF8060031
:101EC0009DF80A308007000D40EA82009DF8082046
:101ED00040EA92109DF80920401C9207520F42EAF6
:101EE000D3121144C91F8840DCE70000A08601001E
:101EF0007C0000202DE9F8433D4E3820F06130464B
:101F0000FFF760F9FFF77AFF0024FF2000F060F987
:101F1000641C0A2CF9DB142400219522084600F0E9
:101F20009DF8012804D0641EF6D20120BDE8F88394
:101F300087224FF4D571082000F090F82D4F01282A
:101F40000DD001220021372000F088F80122002165
:101F5000292000F083F801283ED802203DE000242B
:101F60006D46FF2000F034F92855641C042CF8DB82
:101F70009DF80200012803D19DF80300AA2801D092
:101F80000220D3E740F6FF744FF080480122002181
:101F9000372000F063F801224146292000F05EF866
:101FA00010B1641EF2D200E094B1012200213A2067
:101FB00000F054F80024FF2000F00AF92855641CB2
:101FC000042CF8DB9DF80000400603D5062004E051
:101FD0000320ABE7042000E0012038700820F06106
:101FE0000348FFF7EFF8FFF709FF00209EE7000026
:101FF0007C0000200200002070B50D4614490978CD
:10200000062900D0400201460122112000F026F8E6
:1020100008B1012070BD0F4CFF2000F0D9F8FE2858
:1020200002D0641EF8D200E084B164234FF4007241
:1020300029460948FFF758F9FF2000F0C9F8FF20AA
:1020400000F0C6F8FFF7DAFE002070BD022070BD78
:1020500002000020A08601007C0000207CB516460E
:102060000C460546FFF7CAFEFFF7D6FE08B1FF2073
:102070007CBD45F040008DF80000200E8DF8010079
:10208000200C8DF80200200A8DF804408DF8030022
:102090008DF80560FFF7C0FE6423062269460948F3
:1020A000FFF7CCF90C2D02D1FF2000F091F81F248E
:1020B000FF2000F08DF8641E0106D9D5002CF7D161
:1020C0007CBD00007C00002010B51F24FF2000F024
:1020D0007FF8641EFF2801D0002CF7D110BD00004E
:1020E00010B50C4614490978062900D04002014673
:1020F00001221820FFF7B2FF08B1012010BDFE2019
:1021000000F066F864234FF4007221460B48FFF795
:1021100095F9FF2000F05CF8FF2000F059F8FF204F
:1021200000F056F800F01F00052801D0022010BD75
:10213000FFF764FE002010BD020000207C0000209C
:10214000F8B5044640684FF48273984217D1A068EE
:102150004FF48065B0F5004F01D0A8420FD1206840
:10216000066826F0400606606068984207D1A068BD
:10217000A84204D100920B460022012103E0009204
:102180000B4600228021204600F032F8002804D0BF
:10219000606D40F0200060650320F8BDF8B515467D
:1021A0000E460B46009204460122022100F020F860
:1021B00040B93346002280212046009500F018F8EF
:1021C000002804D0606D40F0200060650320F8BD59
:1021D00001B582B064200090012301AA02A903483E
:1021E000FFF7DFF99DF804000EBD00007C00002021
:1021F0002DE9F8431E46914688460446089DFEF7A1
:10220000D7FC401B351AFEF7D3FC0746254800686B
:10221000C0F3CB30684338E0701C37D0FEF7C8FC01
:10222000C01BA84203D215B1009860B32CE020680F
:10223000416821F0E00141606068B0F5827F0BD118
:10224000A068B0F5004F02D0B0F5806F04D12068CF
:10225000016821F040010160A06AB0F5005F09D17A
:102260002068016821F4005101602068016841F490
:1022700000510160012084F85100002084F85000D2
:102280000320BDE8F8830025401E00902068816887
:1022900038EA010004D000214945BDD10020F0E713
:1022A0000121F9E7100000207047FEF787BC30B528
:1022B0008FB028216846FDF76EFF14210AA8FDF7AC
:1022C0006AFF01210804CDE90010002402940225D0
:1022D0000491CDE907504FF4E01009906846FEF7ED
:1022E000E1FD08B172B6FEE70F20CDE90A054FF413
:1022F0008060CDE90C4002210AA80E94FEF7F6FC9E
:10230000002801D072B6FEE70FB030BD704710B59F
:10231000406A0021C185C184FFF750FA10BD0168F1
:102320000C3151E8002F22F4907241E80023002B79
:10233000F5D10168143151E8002F22F0010241E883
:102340000023002BF5D1016B012909D101680C3163
:1023500051E8002F22F0100241E80023002BF5D1B4
:10236000202180F8421000210163704708B590F8E1
:102370004210222901D0022008BD82684FF4805308
:102380009A4201D1016921B1816A9A421BD04AB1B6
:102390000AE00268816A5268C2F308020A80816A10
:1023A000891C08E0026972B10268526802F07F027B
:1023B0000A70816A491C8162C18D491E0904090C99
:1023C000C18503D01BE002685268F1E70168CA6862
:1023D00022F02002CA600168CA6822F48072CA60D2
:1023E00001684A6922F001024A61202180F8421006
:1023F00000214163026B012A03D0FFF7E1FB0020BB
:1024000008BD016301680C3151E8002F22F0100271
:1024100041E80023002BF5D101680A68D20602D5F5
:102420000A6849680091818DFFF7C7F9E7E7000066
:1024300070B5044600680169E26821F44051114317
:1024400001612169A0680843616908432168CA687D
:1024500041F20C639A430243CA6020684169A26951
:1024600021F44071114341611E492068884202D124
:10247000FEF7E2FC01E0FEF7CFFC00EBC00101EB50
:102480000012606864218000B2FBF0F3B3FBF1F34B
:102490006FF018067343B2FBF0F5B2FBF0F605EBF4
:1024A0008305322303EB0515B5FBF1F5B6FBF1F619
:1024B00005F0F00505EB0615B2FBF0F6B2FBF0F007
:1024C000B0FBF1F06FF01802504306EB800003EB15
:1024D0000010B0FBF1F0216800F00F002844886084
:1024E00070BD0000003801402DE9F84398461746BA
:1024F0000D460446089E24E0701C22D0FEF758FBCF
:10250000A0EB0800B0421AD8CEB12068C1684907D4
:1025100017D5802D15D0402D13D00168C943090768
:102520000FD401680025406800902046FFF7F7FEB1
:102530000820606484F840500120BDE8F88303203F
:10254000FBE72068006835EA000004D00020B842AC
:10255000D2D00020F1E70120F9E70000F8B5154DD1
:10256000286800684FF00006C043800612D4134C60
:1025700011490023207801220144401C2070284684
:10258000FFF7C6FA2078642800D3267029686FF018
:102590002000086028680168C943C90605D401689D
:1025A00040680749009001200870BDE8F8400148E4
:1025B000FFF706B9D4000020180000200100002019
:1025C00000000020FEE700000FB4054B10B503A982
:1025D000044A029800F0EAF810BC5DF814FB000011
:1025E000ED2E0008140000200907090E002804DB66
:1025F00000F1E02080F80014704700F00F0000F1B7
:10260000E02080F8141D704702E008C8121F08C1BE
:10261000002AFAD170477047002001E001C1121F63
:10262000002AFBD1704700002DE9FF5F82B0002136
:10263000DDE90430020DDDF840B0034318D044F664
:102640001050A2F2FF3242431514119801281FD0F6
:10265000A5EB0B00401C5FEA000A4FF000064E4F4E
:10266000DFF83891B046504615D5CAF1000413E0A2
:10267000119801244AA3012801D16FEA0B010298A5
:10268000119AC0E90031C0E9024206B0BDE8F09FEE
:10269000CBF10000DFE704460021404A491842EB35
:1026A0000450CDE9001012E0E00707D032463B4667
:1026B00040464946FDF701FF8046894632463B4683
:1026C00010461946FDF7F9FE06460F466410002C29
:1026D000EAD1DDE90401DDE90023BAF1000F06DAF1
:1026E000FDF7EBFE42464B46FDF7E7FE05E0FDF742
:1026F00056FF42464B46FDF752FF04460E46002267
:10270000284BFDF7D3FF03D84FF0FF30014607E019
:102710000022254B20463146FDF728FEFDF7AEFF8F
:10272000102409E0002C0ADB0A220023FDF7B6FD85
:10273000039B30321A55641E50EA0102F2D1641C28
:10274000039AC4F111031444119A012A03D00122FF
:1027500008430DD10AE0084304D000204FF0110BCC
:10276000119072E7A3EB0B056D1E0DE05B4504DDD8
:102770004FF0000205F1010504E003DA4FF000021A
:10278000A5F10105002AECD002981199C0E90231A7
:10279000C0E9004579E70000000014400000F03F68
:1027A000300000000000F0430000E03F2DE9FF4F43
:1027B00095B09B468946064600250FE2252877D12D
:1027C00000242746F84A0121059400E0044316F846
:1027D000013F203B01FA03F01042F7D130782A285C
:1027E00011D06FF02F033078A0F13002092A16D8EB
:1027F000059A44F0020402EB820203EB4202104409
:10280000761C0590EFE759F8042B0592002A03DAAD
:10281000504244F40054059044F00204761C307891
:102820002E2816D116F8010F44F004042A280DD0E2
:102830006FF02F023078A0F13003092B09D807EB95
:10284000870302EB4303C718761CF3E759F8047BB0
:10285000761C30786C280FD006DC4C2817D06828FE
:102860000DD06A2814D104E0742810D07A280FD132
:102870000DE044F400140AE044F4801401E044F450
:1028800040147278824202D104F58014761C761CC2
:10289000307866280BD013DC582877D009DC002864
:1028A00075D04528F6D04628F4D047281AD19DE1A6
:1028B00018E0632835D0642879D0652812D195E1D5
:1028C000702873D008DC6728F1D069286FD06E2893
:1028D0000DD06F2806D1B5E073282CD0752875D09F
:1028E000782874D05A46179990476D1C75E1C4F347
:1028F0000250022809D003280DD0D9F8001004286E
:102900000DD00D6009F1040967E1D9F80010EA174C
:10291000C1E90052F6E7D9F800100D80F2E70D701A
:10292000F0E719F8041B8DF8001000208DF8010065
:10293000EA46012003E059F804AB4FF0FF3061078D
:102940004FF0000102D40DE008F101018846B942C0
:102950000FDA8045F8DB1AF808100029F4D108E0F6
:1029600008F1010188468142FADB1AF808100029B3
:10297000F6D105985B46A0EB080721463846179A22
:1029800000F094FA284400EB080507E04DE029E147
:102990000DE01AF8010B5A4617999047B8F1010853
:1029A000F7D25B4621463846179A13E142E00A22E5
:1029B0000092C4F302524FF0000A022A08D059F8DC
:1029C00004CB032A4FEAEC710AD00DE029E02AE09B
:1029D00009F1070121F00702F2E802C1914609E07E
:1029E0000FFA8CFC4FEAEC71042A03D14FFA8CFCED
:1029F0004FEAEC71002907DA0A460021DCF1000CED
:102A000061EB02012D2202E0220504D52B228DF874
:102A10000420012203E0E20701D02022F7E79046DC
:102A200059E00A2102E010220DE010214FF0000AC7
:102A300000910BE010224FF0000A44F00404082734
:102A4000009203E008224FF0000A0092C4F3025201
:102A5000022A05D059F804CB0021032A08D009E046
:102A600009F1070121F00702F2E802C1914605E0F1
:102A70001FFA8CFC042A01D10CF0FF0C4FF0000867
:102A8000220728D5702806D0009B83F0100353EA54
:102A90000A0305D00EE040228DF80420012208E050
:102AA0005CEA010206D030228DF804208DF8050082
:102AB00002229046009B83F0080353EA0A030AD1DE
:102AC0005CEA010201D1620705D530228DF80420AD
:102AD0004FF001087F1E582804D034A003900EA8A0
:102AE00002900DE036A0F9E753466046009AFDF7E4
:102AF000D5FB84460398825C0298401E02900270C7
:102B00005CEA0100F0D1029806A9081A00F1200A37
:102B1000600702D524F4803400E00127574502DD28
:102B2000A7EB0A0000E0002000EB0A0100900598E6
:102B30004144401A0590E00306D45B462146179AAB
:102B4000059800F0B3F90544002706E001A85A46AD
:102B5000C05D179990476D1C7F1C4745F6DBE0036D
:102B60000CD55B462146179A059800F09FF905445D
:102B700004E030205A46179990476D1C0099481E72
:102B800000900029F5DC08E0029802995A46007886
:102B9000491C0291179990476D1CBAF10001AAF1E6
:102BA000010AF1DC65E1000009280100303132330F
:102BB0003435363738396162636465660000000079
:102BC0003031323334353637383941424344454663
:102BD0000000000000F058F90544761C3078002809
:102BE0007FF4ECAD19B02846BDE8F08F620700D441
:102BF000062709F1070222F0070CFCE80223E14650
:102C000003F000485FEA080C02D00FF2702C0DE0D0
:102C10005FEA045C02D50FF2682C07E05FEAC47C2F
:102C200002D00FF2602C01E0AFF2700C4FF0FF38D1
:102C300023F00043CDF850C065280CD006DC4528B1
:102C400009D046281DD047283DD13DE0662818D040
:102C500067287ED138E00021112F01DB112000E030
:102C6000781CCDE9000106A90EA8FFF7DDFCDDE91F
:102C70000F010E9A03910021009207F1010A0491BD
:102C80004DE04FF000400097CDE9011006A90EA8D5
:102C9000FFF7CAFCDDE90F0203920E9B1199002297
:102CA000DDF80CA00093049211B9791C00EB010A25
:102CB000B7EB0A0004D4C0F1FF3007F1010A049019
:102CC000AAEB0700019044E0012F00DA0127002160
:102CD000112F01DD112000E03846CDE9000106A9E1
:102CE0000EA8FFF7A1FCDDE90F010E9A0391002168
:102CF00004910092BA4621070CD40399514500DA99
:102D00008A46BAF1010F05DD009AAAF10101515C72
:102D1000302908D0B84202DA10F1040F06DA012196
:102D2000CDE9011015E0AAF10101E9E7002805DC71
:102D3000049901440491AAEB000102E0411C5145B1
:102D400000DD8A460499401A401C01904FF0004073
:102D50000290200704D40198504501DBCDF804808F
:102D600000208DF84F0002980DF14F07B0F1004F91
:102D700025D02B200E9002984FF0020800280CDA84
:102D8000404202902D200E9007E00A210298FDF7A4
:102D90006FFA3031029007F8011DB8F10001A8F177
:102DA0000108F2DC02980028EFD1791E0E98087015
:102DB000307800F0200040F0450007F8020D12A81E
:102DC000C01B00F107081498007800B1012000EB47
:102DD0000A01019801EBE07105984144401A401E38
:102DE0000590E00306D45B462146179A059800F04B
:102DF0005DF805441498007818B15A461799904721
:102E00006D1CE00324D55B462146179A059800F017
:102E10004DF805441CE00498002807DBDDE90301B8
:102E2000884203DD0098405C179901E01799302033
:102E30005A469047049805F10105401C04900198FA
:102E4000401E019004D12E205A46179990476D1CC0
:102E5000BAF10001AAF1010ADDDC05E017F8010B67
:102E60005A46179990476D1CB8F10001A8F1010866
:102E7000F4DC5B462146179A0598ABE62D0000006E
:102E80002B000000200000002DE9F0410446002541
:102E90001E461746880404D405E039462020B04772
:102EA0006D1C641EF9D52846BDE8F0812DE9F0417E
:102EB000044600251E469046C80301D5302700E091
:102EC0002027880404D505E041463846B0476D1CEC
:102ED000641EF9D52846BDE8F08100214FF4007248
:102EE0004154491C89B29142FAD3704713B54FF04F
:102EF000FF33012269460248FEF763FE00981CBDBD
:102F0000D4000020FDF762FEFFF7D1F9FEF7ACFE1A
:102F1000FEF750FFFEF726FF3FA0FFF755FBFEF739
:102F2000E9FF010003D048A0FFF74EFBFEE755A0E4
:102F3000FFF74AFBFEF782FF0446FDF781F90921FE
:102F4000FDF772F95A4D2946FDF730F92946FDF78C
:102F50002DF92946FDF72AF9FDF777F902460B46C8
:102F6000214654A0FFF730FB5E48FFF7B6FF4FF451
:102F70007A7421465CA0FFF727FB5A492046FFF7E9
:102F8000AFF8010003D061A0FFF71EFBFEE76CA0C5
:102F9000FFF71AFB2046FDF7EFFC214674A0FFF770
:102FA00013FB7C492046FFF727F8010003D07AA0E5
:102FB000FFF70AFBFEE785A0FFF706FB75494948C6
:102FC00000F074F908B188A000E094A0FFF7FCFAC3
:102FD0009EA0FFF7F9FAAA4FAA4DDFF8AC820026AF
:102FE0002878012812D12E706978A8A0FFF7ECFA92
:102FF000002404E0395DACA0FFF7E6FA641C6878B1
:103000008442F7DB29A0FFF7DFFA6E7010214046FB
:10301000FDF7C0FDE4E700000D0A3D3D3D3D3D20CC
:103020005344204361726420526561642F57726972
:1030300074652054657374205374617274203D3D2F
:103040003D3D3D0D0A0D0A005B4552524F525D2039
:103050005344204361726420496E697469616C69EC
:103060007A6174696F6E204661696C65642E2045D3
:1030700072726F7220436F64653A20307825303267
:10308000580D0A005B494E464F5D20534420436172
:10309000726420496E697469616C697A6564205351
:1030A00075636365737366756C6C79210D0A000036
:1030B00000007A445B494E464F5D20546F74616C4A
:1030C00020536563746F72733A20256C7520284114
:1030D0007070726F7820252E3266204742290D0AC3
:1030E000000000001C0100205B544553545D205734
:1030F000726974696E6720746F20536563746F72B0
:1031000020256C752E2E2E0D0A0000005B455252B4
:103110004F525D20536563746F72205772697465F6
:10312000204661696C65642E204572726F7220437F
:103130006F64653A203078253032580D0A0000005F
:103140005B544553545D2057726974652053756311
:103150006365737366756C2E2057616974696E6759
:103160002031207365636F6E642E2E2E0D0A0000D1
:103170005B544553545D2052656164696E672066F7
:10318000726F6D20536563746F7220256C752E2EDF
:103190002E0D0A001C0300205B4552524F525D2049
:1031A000536563746F722052656164204661696C77
:1031B00065642E204572726F7220436F64653A20F9
:1031C0003078253032580D0A000000005B5445531A
:1031D000545D20566572696679696E672044617432
:1031E000612E2E2E0D0A00005B524553554C545D46
:1031F0002054657374205061737365642120526597
:1032000061642F57726974652044617461204D6157
:103210007463686564210D0A000000005B4552522A
:103220004F525D2054657374204661696C6564215A
:103230002044617461204D69736D6174636820443A
:1032400065746563746564210D0A00000D0A3D3DD7
:103250003D3D3D3D3D3D3D3D3D3D3D3D3D3D3D3D9E
:10326000205465737420436F6D706C6574656420C1
:103270003D3D3D3D3D3D3D3D3D3D3D0D0A00000098
:103280001800002000000020000C01406C656E67F3
:103290007468206F6620727820646174613A20251A
:1032A00064210D0A000000002563000070B50A4685
:1032B00000214FF40073445C555CAC4206D0EBB285
:1032C000E2B205A0FFF780F9002070BD491C89B269
:1032D0009942F0D3012070BD44617461206973206C
:1032E000696E636F6E73697374656E742040206FCE
:1032F00066667365742025643A2057726974746534
:103300006E3D3078253032582C20526561643D3056
:1033100078253032580D0A00010202030405060721
:1033200008090A0B0C0D0E0F101000000000000021
:103330000000010203040607080900000000010262
:10334000030400006433000800000020180000009F
:10335000082600087C330008180000200809000037
:103360001826000800000000010000001000000006
:0C3370000000000000127A0000000000C5
:0400000508000131BD
:00000001FF
