:020000040800F2
:1000000078050020450100084F1D0008911B0008DD
:100010004D1D00086B020008E921000800000000E7
:10002000000000000000000000000000C51E0008E5
:100030006D02000800000000511D0008C71E0008E6
:100040005F0100085F0100085F0100085F01000810
:100050005F0100085F0100085F0100085F01000800
:100060005F0100086F0200085F0100085F010008DF
:100070005F0100085F0100085F0100085F010008E0
:100080005F0100085F0100085F0100085F010008D0
:100090005F0100085F0100085F0100085F010008C0
:1000A0005F0100085F0100085F0100085F010008B0
:1000B0005F0100085F0100085F0100085F010008A0
:1000C0005F0100085F0100085F0100085F01000890
:1000D0005F010008812100085F0100085F0100083E
:1000E0005F0100085F0100085F0100085F01000870
:1000F0005F0100085F0100085F0100085F01000860
:100100005F0100085F0100085F0100085F0100084F
:100110005F0100085F0100085F0100085F0100083F
:100120005F0100085F0100085F0100085F0100082F
:10013000DFF80CD000F078F800480047C926000826
:10014000780500200648804706480047FEE7FEE79E
:10015000FEE7FEE7FEE7FEE7FEE7FEE7FEE7FEE777
:10016000331F000831010008202A04DB203A21FA5D
:1001700002F00021704721FA02F3D040C2F12002C0
:100180009140084319467047D2B201E000F8012BB4
:10019000491EFBD270470022F6E710B513460A4607
:1001A00004461946FFF7F0FF204610BD30B504465F
:1001B0000020034600E05B1C934203D2E05CCD5C70
:1001C000401BF8D030BD2DE9F05F05460020924677
:1001D0009B4688460646814640241BE02846414609
:1001E00047462246FFF7C0FF53465A46C01A914180
:1001F00010D311461846224600F028F82D1A67EB56
:1002000001084F4622460120002100F01FF817EB9D
:1002100000094E41201EA4F10104DFDC48463146AE
:100220002A464346BDE8F09F064C074D06E0E068CD
:1002300040F0010394E8070098471034AC42F6D32D
:10024000FFF77AFFF028000810290008202A04DBB5
:10025000203A00FA02F1002070479140C2F12003D9
:1002600020FA03F3194390407047FEE770470820D7
:1002700000F008BAF8B514000D4607D04FF48072AC
:10028000944203D8C1B20B19934201D90120F8BDA1
:1002900015A212680092020C8DF80120000A8DF858
:1002A00002008DF8031000F0F1F8104E0022022138
:1002B000304600F0F7FA0421684601F09DFD20B9B0
:1002C0002146284601F098FD28B10122022130463E
:1002D00000F0E8FADAE701220221304600F0E2FA03
:1002E00000F0C0F8F8BD0000020000000008014066
:1002F000F8B50D4614A1154E09680091010C8DF852
:100300000110010A8DF8021014468DF80300002236
:100310000221304600F0C6FA0421684601F06CFD67
:1003200030B101220221304600F0BCFA0120F8BDB4
:100330002146284601F056FD04460122022130469E
:1003400000F0B0FA2046F8BD0300000000080140AC
:100350007CB505460FA0104E00680C4601900022A7
:100360000221304600F09EFA042101A801F044FD6C
:100370000221684601F036FD01220221304600F0DC
:1003800091FA9DF8000028809DF80100000220806D
:100390007CBD0000900000000008014038B5044614
:1003A0009F200B4D8DF8000000220221284600F00E
:1003B00079FA0121684601F01FFD0321204601F072
:1003C00011FD01220221284600F06CFA38BD000020
:1003D000000801401CB505200B4C8DF800000022E0
:1003E0000221204600F05EFA0121684601F004FD7A
:1003F000012101A801F0F6FC01220221204600F0B3
:1004000051FA9DF804001CBD0008014038B513A145
:1004100009680091010C8DF80110010A8DF8021095
:100420008DF8030000F032F80D4C00220221204626
:1004300000F038FA0421684601F0DEFC00284FF095
:1004400001024FF00201204603D000F02BFA0120F8
:1004500038BD00F027FA00F005F838BD2000000094
:100460000008014070B500F023FA044641F28835D7
:1004700007E000BF00F01CFA001BA84201D90320CE
:1004800070BDFFF7A7FFC007F4D170BD38B50620D7
:10049000084C8DF8000000220221204600F002FAEC
:1004A0000121684601F0A8FC01220221204600F04B
:1004B000F9F938BD0008014010B590F8211000226C
:1004C000022905D00421816380F82020012010BD7D
:1004D00001680B6823F00E030B6001680B6823F0C2
:1004E00001030B6090F84030C46B012101FA03F363
:1004F000636080F8211080F82020104610BD0000B5
:100500002DE9F05F90F821100024022903D0042186
:100510008163012485E001680A6822F00E020A6006
:1005200001680A6822F001020A603F4E3E4FB21590
:10053000DFF8F4C0DFF8F090DFF8ECA0DFF8E8B007
:10054000DFF8E4E00168783F13011502ACF1640CB8
:10055000A9F15009AAF13C0AABF1280BAEF1140E37
:100560004FF48018B14227D9B9420ED0614512D05C
:1005700049451DD0514518D0594518D0714501D174
:10058000424615E0294EB14201D1012210E0274E2A
:100590001436B14201D110220AE0244E2836B1426D
:1005A00006D0224A3C32914201D11A4600E02A4646
:1005B0001E49091F0A602BE0B94213D0614517D0CC
:1005C000494522D051451DD059451DD0714501D115
:1005D00042461AE0B14202D14FF0807215E0134E4C
:1005E000B14201D1012210E0104E1436B14201D1C6
:1005F00010220AE00D4E2836B14206D00B4A3C329A
:10060000914201D11A4600E02A46074980394A60E2
:10061000012180F82110002180F82010416B01B1E8
:1006200088472046BDE8F09F800002400804024051
:1006300070B5044600F03CF90546601C02D0044841
:100640000078044400F034F9401BA042FAD370BD96
:100650000800002010B51021034800F01BF9BDE888
:10066000104002A001F0C2BD000C01404B322045F9
:1006700078546920696E74657272707574210D0A00
:1006800000000000044910B50A68024202D0086068
:10069000FFF7E0FF10BD0000140401402DE9F84F02
:1006A000DFF8C8910024A9F1040B23460F2709F1B4
:1006B000040AABF1040ED1E00125A54006EA0502CB
:1006C000AA4276D1DFF8A8C14E68A6EB0C086645B1
:1006D0002BD00DDC032E34D005DC36B3012E19D01F
:1006E000022E2FD11BE0112E16D0122E2AD119E086
:1006F000B8F5881F19D006DCB8F5803F15D0B8F5DD
:10070000801F1FD111E0B8F5001F0ED0B8F5041FEF
:1007100018D10AE0CB6815E0CB681B1D12E0CB684E
:1007200008330FE0CB680C330CE08B682BB1012B46
:100730004FF0080303D0456104E0042302E00561A3
:1007400000E00023FF2A01D8064601E000F104067C
:100750004FEA840501D9A5F12005D6F8008007FAF3
:1007600005FC28EA0C0803FA05F548EA0508C6F86E
:1007700000804D68ED0070D53E4DAE6946F0010633
:10078000AE61AD6924F0030605F0010500953A4D10
:1007900006EB050CDCF80850A607360F07FA06F83A
:1007A00025EA0805DFF8D480404503D14FF0000862
:1007B00025E052E0DFF8C880404502D14FF0010843
:1007C0001DE0DFF8C080404502D14FF0020816E07E
:1007D000DFF8B480404502D14FF003080FE0DFF8A6
:1007E000AC80404502D14FF0040808E0DFF8A0805B
:1007F000404502D14FF0050801E04FF0060808FA25
:1008000006F848EA0508CCF808804D68D9F8006079
:10081000ED024D4601D5164300E096432E604D682B
:10082000DAF80060AD02554601D5164300E0964364
:100830002E604D68DBF80060AD035D4601D51643C0
:1008400000E096432E604D68DEF80060ED037546CB
:1008500001D5164300E096432E60641C0A681646D4
:10086000E2407FF429AFBDE8F88F000008040140A2
:10087000000011100010024000000140000801407B
:10088000000C01400010014000140140001801401C
:10089000001C0140C26821EA02030A4043EA024107
:1008A000016170470AB1016170470904FBE700006C
:1008B00001488068704700000800002070B50400FF
:1008C00025D094F83D00002520B984F83C502046FE
:1008D00000F0B8F8242084F83D002068016821F079
:1008E000010101602068016841F400410160206855
:1008F000016821F40041016000F000FA4D4A61688E
:10090000914201D84C4900E04C49884201D2012073
:1009100070BD4B492368B0FBF1F15E6826F03F06DD
:100920000E435E606368934206D94FF49673594351
:100930004FF47A73B1FBF3F12368491C1E6A26F069
:100940003F06314319626168914210D84900401E48
:10095000B0FBF1F2521CC2F30B02042A01D20420B4
:1009600022E0B0FBF1F0401CC0F30B001CE0A268D9
:10097000F2B301EBC10303EB0116431EB3FBF6F325
:100980005B1C43F480431B0549D092B301EBC102C9
:1009900002EB0111401EB0FBF1F0401CC0F30B0054
:1009A00040F4804040F400402168CA694CF6FF736F
:1009B0009A431043C861D4E90710014320680268D4
:1009C00022F0C00211430160D4E903010143206811
:1009D000826848F2FF339A4311438160D4E90501EC
:1009E00008432168CA6822F0FF021043C86001E092
:1009F0000EE016E02068016841F001010160256405
:100A0000202084F83D00256384F83E50002070BD0E
:100A100001EB4106431EB3FBF6F35B1CB3E7012079
:100A2000C2E701EB4101401EB0FBF1F0401CC0F3F6
:100A30000B00B7E7A086010080841E0000093D007E
:100A400040420F0010B586B0002100910191029143
:100A5000039100680F4988421AD10F4CA06940F0F9
:100A60000800A061A069694600F008000490C02059
:100A7000009012200190032003900848FFF70EFE1B
:100A8000E06940F40010E061E06900F400100490B7
:100A900006B010BD0054004000100240000C0140A0
:100AA0000248816802781144816070470800002084
:100AB000074810B5016841F010010160032000F003
:100AC00075F80F2000F006F800F024F8002010BDA3
:100AD0000020024070B50D4D04464FF47A7128781D
:100AE000B1FBF0F00A490968B1FBF0F000F0E7FD56
:100AF00048B9102C07D200222146501E00F036F8CB
:100B000000206C6070BD012070BD00000800002056
:100B1000140000200C4808B5816941F00101816191
:100B2000816901F001010091C16941F08051C16109
:100B3000C06900F0805000900448416821F0E061F5
:100B400041F00071416008BD00100240000001400A
:100B5000002809DB00F01F020121914040098000BC
:100B600000F1E020C0F8001170470000F0B40E4B17
:100B70001B680C46C3F30223C3F10705042D00D9FB
:100B80000425191D072901D2002300E0DB1E0126E0
:100B900006FA05F1491E214099409E40761E1640F6
:100BA0003143F0BC01F032BB0CED00E0064900F02F
:100BB000070208684FF6FF03184040EA0220034A84
:100BC00010430860704700000CED00E00000FA05DB
:100BD0002DE9F0470F46050061D0434E306800F024
:100BE0000700B84209D2306820F00700384330606F
:100BF000306800F00700B84251D128683B4C8107AB
:100C000012D5400703D5606840F4E0606060287842
:100C1000000703D5606840F4605060606068A968B0
:100C200020F0F000084360602878C00728D068688A
:100C3000012810D02168022810D0890700292EDA57
:100C4000616821F0030101436160FFF731FE8046D6
:100C500041F288390DE021688903EFE78901EDE76A
:100C6000FFF726FEA0EB0801494502D90320BDE8A5
:100C7000F0876068696800F00C00B0EB810FEFD17D
:100C8000306800F00700B8420BD9306820F0070048
:100C900038433060306800F00700B84201D00120CE
:100CA000E5E72878400705D56068E96820F4E0604A
:100CB000084360602878000706D56068296920F439
:100CC000605040EAC100606000F038F86168084A8E
:100CD000C1F30311515CC84006490860064800682A
:100CE000FFF7F8FE0020C2E700200240001002409B
:100CF000D6280008140000200C00002004480549F4
:100D000000684968044AC1F30221515CC840704739
:100D10001400002000100240E6280008044805499D
:100D200000684968044AC1F3C221515CC840704759
:100D30001400002000100240E62800080E4A516806
:100D40000E4801F00C03042B11D0082B0FD10C48D6
:100D5000C1F38343C903C05C0AD55168084AC1F393
:100D60004041921E515C054A5043B0FBF1F0704780
:100D700004494843704700000010024000127A0006
:100D8000C628000800093D0030B585B0002002905B
:100D900002200190032003900B4C4FF480700090D0
:100DA000A0690D4640F00400A061A069694600F00A
:100DB000040004900548FFF771FC606820F0E060D3
:100DC0002843606005B030BD0010024000080140BB
:100DD0002DE9F84F040070D02078C04DC00749D0ED
:100DE0006868C0F38100012807D06868C0F38100FB
:100DF000022809D16868C00306D52868800339D560
:100E000060680028E7D035E06068B0F5803F0BD01F
:100E100010B1B0F5A02F11D0286820F480302860E0
:100E2000286820F4802002E0286840F480302860A0
:100E3000606890B1FFF73CFD06460AE0286840F480
:100E400080202860F0E700BFFFF732FD801B642898
:100E500073D828688003F7D50CE0FFF729FD064614
:100E600005E000BFFFF724FD801B6428F0D8286848
:100E70008003F7D420789A4E80074FF001094FF095
:100E8000000839D5686810F00C0F07D06868C0F307
:100E90008100022809D16868C00306D42868800749
:100EA00014D52069012808D110E02069B0B1C6F836
:100EB0000090FFF7FDFC074605E00AE1FFF7F8FCAC
:100EC000C01B0228C4D828688007F7D52868616944
:100ED00020F0F80040EAC10028600DE0C6F800806C
:100EE000FFF7E6FC074604E0FFF7E2FCC01B022820
:100EF00023D828688007F7D4207800072CD57948B4
:100F0000A169D9B1C0F80090FFF7D2FC074604E010
:100F1000FFF7CEFCC01B02280FD8686A8007F7D500
:100F200071484FF4FA510068B0FBF1F0009000BF37
:100F30000098411E0091FAD20EE080E0C0F80080D7
:100F4000FFF7B6FC074604E0FFF7B2FCC01B02281F
:100F500075D8686A8007F7D42078400760D5E869BB
:100F60000027C00008D4E86940F08050E861E869D3
:100F7000012700F0805000905C480168C90513D437
:100F80000168834641F480710160FFF791FC82465D
:100F900006E000BFFFF78CFCA0EB0A0064284ED8E7
:100FA000DBF80000C005F5D5E06801280AD008B1DB
:100FB000052813D0286A20F001002862286A20F052
:100FC000040002E0286A40F001002862E06841F273
:100FD000883B98B1FFF76CFC82460BE0286A40F032
:100FE00004002862EEE700BFFFF762FCA0EB0A01F5
:100FF00059455AD8286A8007F6D50CE0FFF758FC07
:10100000824605E0FFF754FCA0EB0A0159454CD895
:10101000286A8007F6D41FB1E86920F08050E861A3
:10102000E06988B36968C1F38101022944D00228CC
:10103000C6F8608004D0FFF73BFC044638E034E09B
:10104000FFF736FC074604E0FFF732FCC01B02281E
:101050002BD828688001F7D4206AB0F5803F05D1ED
:101060006868A16820F4003008436860D4E908018A
:101070000843696821F4741108436860C6F86090F9
:10108000FFF716FC044606E025E000BFFFF710FC62
:10109000001B022809D828688001F7D51BE000BF93
:1010A000FFF706FC001B022802D90320BDE8F88FD9
:1010B00028688001F4D40EE00128F7D06868226A1D
:1010C00000F48031914204D1616A00F470108842CA
:1010D00001D00120EAE70020E8E70000001002400C
:1010E0000000424280044242140000200070004090
:1010F00070B5040009D0606A002540B125616561C2
:10110000A56294F8510040B10CE0012070BD606808
:10111000B0F5827FF4D0E561F2E784F850502046C4
:1011200000F040F8022084F851002068016821F0A6
:1011300040010160A088218900F4827001F404411B
:101140000843A18901F400610843217C01F00201F8
:101150000843217D01F001010843218B01F4007156
:101160000843217F01F03801084394F8201001F072
:1011700080010843218D01F4005108432168086073
:10118000A069042101EA1040216848602068C16913
:1011900021F40061C1616565012084F851000020DF
:1011A00070BD000030B585B0002400940194029415
:1011B000039400681449884223D11448816941F49A
:1011C00080518161816901F480510491816941F00C
:1011D0000401816180690E4D00F004000490A0209C
:1011E0000090022001900320039069462846FFF7F3
:1011F00055FA4020CDE90004694628460294FFF7DD
:101200004DFA05B030BD0000003001400010024032
:10121000000801402DE9F84F044690F851001D46A2
:1012200016460F46012838D160684FF00408B0F523
:10123000827F01D1A06830B3FFF73AFB8246002FCE
:1012400075D0002E73D094F85000012825D04FF0AF
:10125000010984F8509084F851804FF00008C4F8D8
:101260005480A763A687E687C4F83080A4F834804A
:10127000A4F83680C4F84080C4F84480A068B0F573
:10128000004F0CD015E084F85180009313460A46B5
:10129000204600F01CF9BDE8F88F0220FBE720682B
:1012A000016821F0400101602068016821F480415B
:1012B000016020680168490603D4016841F04001DB
:1012C0000160E068C0B134E020688168C90709D0D6
:1012D000007BA16B0870A06B401CA063E08F401ED8
:1012E000E08709E0FFF7E4FAA0EB0A00A84202D386
:1012F000681C01D032E085B3E08F0028E4D11BE008
:1013000020688168C90709D0C068A16B0880A06BFC
:10131000801CA063E08F401EE0870AE0FFF7C8FA58
:10132000A0EB0A00A84203D3681C02D016E012E02A
:101330009DB1E08F0028E3D152462946204600F0B7
:1013400008FD08B12020606584F8519084F8508031
:10135000606D00289FD001209DE7FFE784F8519041
:1013600084F85080032096E72DE9F84F98461646FA
:101370008A460446FFF79CFA814694F851000128FA
:101380001ED1BAF1000F73D0002E71D094F8500026
:10139000012815D0012784F85070032084F85100EB
:1013A00000256565C4F830A0A686E686A563A587F6
:1013B000E58765642564A068B0F5004F03D00CE0B4
:1013C0000220BDE8F88F2068016821F0400101602B
:1013D0002068016841F48041016020680168490685
:1013E00003D4016841F040010160E068B0F5006F8E
:1013F000606803D048B3012E27D047E008B1012E22
:101400001FD1206B21680088C86006E020688168D1
:10141000890709D5216B0988C160206B801C206376
:10142000E08E401EE0860CE0FFF742FAA0EB0901D7
:10143000414503D3B8F1FF3F03D035E0B8F1000FC9
:1014400032D0E08E0028E1D123E0206B21680078C3
:10145000087306E02068816889070AD5216B09783E
:101460000173206B401C2063E08E401EE0860DE07F
:101470002BE0FFF71DFAA0EB0901414503D3B8F1BA
:10148000FF3F03D010E0B8F1000F0DD0E08E002830
:10149000E0D14A464146204600F089FC08B12020B0
:1014A0006065A06830B109E084F8517084F850504C
:1014B000032086E72068C1688068009084F8517036
:1014C00004F8505F60680028F3D0012079E72DE927
:1014D000FF4F81B01D46934604464FF001090E9E12
:1014E000FFF7E6F9074694F851006168012806D035
:1014F000B1F5827F3CD1A168C9BB042838D10298DC
:10150000002871D0BBF1000FFBD0002DF9D094F86A
:10151000500001282CD04FF0010A84F850A094F814
:101520005100042802D0052084F851004FF0000833
:10153000C4F85480C4F838B0E587A58702992163C0
:10154000E586A586C4F84080C4F844802068016818
:10155000490603D4016841F040010160E068B0F53C
:10156000006F606808D0F0B3012D49D081E0FFE73B
:10157000022005B0BDE8F08F08B1012D39D1206BF4
:1015800021680088C860206B801C2063E08E401EAC
:10159000E0862EE02068816889070FD5E18E69B169
:1015A000B9F1010F0AD1216B0988C160206B801C41
:1015B0002063E08E401EE0864FF0000920688168BD
:1015C000C9070CD0E18F51B1C068A16B0880A06B36
:1015D000801CA063E08F401EE0874FF00109FFF7F9
:1015E00067F9C01B01E00BE067E0B04201D3701C5B
:1015F00050D1E08E0028CDD1E08F0028CAD13EE046
:10160000206B216800780873206B401C2063E08EFB
:10161000401EE0862DE02068816889070FD5E18EA5
:1016200069B1B9F1010F0AD1216B09780173206BFF
:10163000401C2063E08E401EE0864FF000092068C9
:101640008168C9070CD0E18F51B1C068A16B0870E7
:10165000A06B401CA063E08F401EE0874FF00109A3
:10166000FFF726F9C01BB04202D3701C01D011E075
:1016700086B1E08E0028CED1E08F0028CBD13A464B
:101680003146204600F093FB50B12020606584F87D
:10169000508012E084F851A084F85080032068E75D
:1016A000A06818B92068C1688068009084F851A0CB
:1016B00084F85080606D0028F1D0012059E710B502
:1016C000401EB0F1807F01D3012010BD4FF0E02417
:1016D00060610F21601700F099FD0020A0610720D4
:1016E0002061002010BD704770470000F8B5016808
:1016F00004460868CA684B6910F00F0F4FF00005E8
:1017000059D003F0010602F49077374365D0C10742
:1017100005D0D10503D5616C41F001016164410739
:1017200005D5D90703D0616C41F0020161648107DE
:1017300005D5D90703D0616C41F00401616401074C
:1017400007D502F02001314303D0616C41F008015C
:101750006164616C00293AD0800604D5900602D5F8
:10176000204600F016FC20684069616CC0F38010D0
:10177000090700D460B3204600F0E4FB206840690C
:10178000400621D52068143050E8001F21F04001A8
:1017900040E80012002AF5D1E06BA8B16D49416321
:1017A000E06BFEF7ADFE002811D0E06B416B01B09D
:1017B000BDE8F040084783060FD593060DD52046B7
:1017C000BDE8F84000F0E5BB2046FFF78DFFF8BD0F
:1017D0002046FFF789FF6564F8BD266B2023012EA4
:1017E0007CD1C6067AD5D60678D5086848680090B8
:1017F00048694FF00206400640D5E16B0868406832
:101800000004000CE8D0A28D8242E5D9E085886909
:1018100020282DD020680C3050E8001F21F4807162
:1018200040E80012002AF5D12068143050E8001F6B
:1018300021F0010140E80012002AF5D1206814309F
:1018400050E8001F21F0400140E80012002AF5D1C5
:1018500084F84230256320680C3050E8001F21F0E6
:10186000100140E80012002AF5D1E06BFEF724FEDB
:101870006663A08DE18D401A81B22AE0A08DE18DD2
:10188000401A81B2E08D0028A6D00029A4D0226899
:101890000C3252E8000F20F4907042E80007002F4D
:1018A000F5D12068143050E8002F22F0010240E802
:1018B0000027002FF5D184F84230256320680C30D2
:1018C00050E8002F22F0100240E80023002BF5D151
:1018D00066632046FFF707FFF8BDFFE705062BD537
:1018E000150629D594F841002128F5D1A068B0F556
:1018F000805F01D12069B0B1206A411C216221685A
:1019000000784860E08C401E0004000CE084E3D1C5
:101910002068C16821F08001C1602068C16841F081
:101920004001C160D8E7206A0088C0F30800486021
:10193000206A801C2062E5E74006CDD55006CBD555
:10194000CA68204622F04002CA6084F8413000F0A4
:101950001EF9C1E7351F000870B5040004D094F8E3
:101960004100002510B106E0012070BD84F8405010
:10197000204600F023F8242084F841002068C16844
:1019800021F40051C160204600F064FB2068016929
:1019900021F4904101612068416921F02A014161EF
:1019A0002068C16841F40051C1606564202084F85A
:1019B000410084F842006563002070BD30B585B0F9
:1019C000002400940194029403940068184988420A
:1019D0002CD11848816941F480418161816901F409
:1019E00080410491816941F0040181618069124D57
:1019F00000F0040004904FF4007000900220019069
:101A00000320039069462846FEF748FE2815CDE9D5
:101A10000004694628460294FEF740FE0022114663
:101A20002520FFF7A3F82520FFF792F805B030BD79
:101A30000038014000100240000801402DE9F84F35
:101A4000044690F842009A4616460D46202802D0D9
:101A50000220BDE8F88FB5B1AEB10020606422214C
:101A600084F842102063FEF723FFA6858146E685B1
:101A7000A0684FF480582027404501D1206920B14B
:101A80002E46002529E00120E3E7002625E04B460D
:101A9000002220212046CDF800A000F037FB18B12D
:101AA00084F842700320D4E726B1A06840451AD0DC
:101AB00038B108E020684068C0F3080025F8020B40
:101AC00008E0206978B12068406800F07F0000BF1E
:101AD00006F8010BE08D401EE085E08D0028D6D190
:101AE00084F84270B5E720684068F1E770472DE957
:101AF000F843044690F84100984616460D462028C3
:101B000002D00220BDE8F88385B17EB10020606478
:101B1000212084F84100FEF7CBFEA6848146E684AE
:101B2000A0682027B0F5805F02D003E00120E9E73C
:101B3000206910B12E4600250EE000260CE0802121
:101B4000204600F0E3FAA8B9C6B116F8010B2168E7
:101B50004860E08C401EE084E08C4B464FF0000271
:101B6000CDF800800028EAD14FF04001204600F077
:101B7000CDFA40B184F841700320C3E735F8020B79
:101B8000C0F30800E3E784F841700020BAE770472B
:101B9000FEE700002DE9F04786B000254448009597
:101BA000019502950395816941F010018161816978
:101BB00001F010010491816941F0040181618169A2
:101BC00001F004010491816941F020018161816982
:101BD00001F020010491816941F00801816180696F
:101BE000012200F00800334F540304902146384688
:101BF000FEF758FEDFF8C080012202214046FEF7C2
:101C000051FEDFF8B890012240214846FEF74AFE17
:101C1000DFF8ACA0012210215046FEF743FE0094ED
:101C200001240326CDE90246694638460194FEF7B1
:101C300035FD0227CDE90074CDE9024669464046EC
:101C4000FEF72CFD0420CDE90005694640460295CB
:101C5000FEF724FD082000901A48CDE901056946E9
:101C60004046FEF71BFD2002CDE9000769464046CD
:101C70000397FEF713FD4020CDE90004CDE90246AD
:101C800069464846FEF70AFD1020CDE90004CDE97B
:101C9000024669465046FEF701FD00221146092022
:101CA000FEF764FF0920FEF753FF06B0BDE8F0879A
:101CB00000100240001001400008014000140140E3
:101CC000000C0140000021100F4810B50D490160C3
:101CD0004FF48271416000218160C1604FF4007255
:101CE0000161C0E905121822C0E907214162816241
:101CF0000A21C162FFF7FCF9002801D072B6FEE7A5
:101D000010BD000000300140D400002010B50E4C82
:101D10000C480C2120604FF4E13060600020A0608E
:101D2000E060C4E90401A061E0612046FFF714FE11
:101D300008B172B6FEE72068C16841F03001C160A9
:101D400010BD0000003801402C010020FEE7FEE736
:101D50007047F8B5044640684FF48273984217D133
:101D6000A0684FF48065B0F5004F01D0A8420FD1B4
:101D70002068066826F0400606606068984207D131
:101D8000A068A84204D100920B460022012103E082
:101D900000920B4600228021204600F037F80028F0
:101DA00004D0606D40F0200060650320F8BDF8B5F8
:101DB00015460E460B46009204460122022100F011
:101DC00025F840B93346002280212046009500F0D6
:101DD0001DF8002804D0606D40F0200060650320ED
:101DE000F8BD00000A46014602484FF0FF33006884
:101DF000FFF710BA040000200A46014602484FF0DF
:101E0000FF330068FFF7B0BA040000202DE9F84363
:101E10001E46914688460446089DFEF749FD401B34
:101E2000351AFEF745FD074625480068C0F3CB305C
:101E3000684338E0701C37D0FEF73AFDC01BA8425B
:101E400003D215B1009860B32CE02068416821F0FE
:101E5000E00141606068B0F5827F0BD1A068B0F509
:101E6000004F02D0B0F5806F04D12068016821F0E6
:101E700040010160A06AB0F5005F09D120680168E7
:101E800021F4005101602068016841F400510160B3
:101E9000012084F85100002084F850000320BDE8A0
:101EA000F8830025401E00902068816838EA010010
:101EB00004D000214945BDD10020F0E70121F9E718
:101EC000140000207047FEF7EBBD30B58FB028211D
:101ED0006846FEF760F914210AA8FEF75CF90121B3
:101EE0000804CDE900100024029402250491CDE9F4
:101EF00007504FF4E01009906846FEF769FF08B1FB
:101F000072B6FEE70F20CDE90A054FF48060CDE9F7
:101F10000C4002210AA80E94FEF75AFE08B172B6D0
:101F2000FEE700224FF0E0611046FEF72DFF0FB0F4
:101F300030BD704710B5406A0021C185C184FFF7EC
:101F4000D3FB10BD01680C3151E8002F22F49072D0
:101F500041E80023002BF5D10168143151E8002F2E
:101F600022F0010241E80023002BF5D1016B012989
:101F700009D101680C3151E8002F22F0100241E82C
:101F80000023002BF5D1202180F8421000210163AD
:101F9000704708B590F84210222901D0022008BDF0
:101FA00082684FF480539A4201D1016921B1816A5C
:101FB0009A421BD04AB10AE00268816A5268C2F3B1
:101FC00008020A80816A891C08E0026972B102680D
:101FD000526802F07F020A70816A491C8162C18DD9
:101FE000491E0904090CC18503D01BE00268526830
:101FF000F1E70168CA6822F02002CA600168CA6875
:1020000022F48072CA6001684A6922F001024A61C2
:10201000202180F8421000214163026B012A03D085
:10202000FFF764FD002008BD016301680C3151E831
:10203000002F22F0100241E80023002BF5D10168A7
:102040000A68D20602D50A6849680091818DFFF7B7
:102050004AFBE7E770B5044600680169E26821F4CD
:102060004051114301612169A06808436169084337
:102070002168CA6841F20C639A430243CA6020682F
:102080004169A26921F44071114341611E492068F0
:10209000884202D1FEF742FE01E0FEF72FFE00EB80
:1020A000C00101EB0012606864218000B2FBF0F314
:1020B000B3FBF1F36FF018067343B2FBF0F5B2FB1C
:1020C000F0F605EB8305322303EB0515B5FBF1F5BF
:1020D000B6FBF1F605F0F00505EB0615B2FBF0F6E0
:1020E000B2FBF0F0B0FBF1F06FF01802504306EBDA
:1020F000800003EB0010B0FBF1F0216800F00F004E
:102100002844886070BD0000003801402DE9F84384
:10211000984617460D460446089E24E0701C22D0BF
:10212000FEF7C6FBA0EB0800B0421AD8CEB120687B
:10213000C168490717D5802D15D0402D13D00168EF
:10214000C94309070FD40168002540680090204664
:10215000FFF7F8FE0820606484F840500120BDE8D5
:10216000F8830320FBE72068006835EA000004D00C
:102170000020B842D2D00020F1E70120F9E70000AA
:10218000F8B5154D286800684FF00006C04380067A
:1021900012D4134C11490023207801220144401C21
:1021A00020702846FFF74AFC2078642800D3267068
:1021B00029686FF02000086028680168C943C906D3
:1021C00005D4016840680749009001200870BDE807
:1021D000F8400148FFF78ABA2C0100201C000020BB
:1021E0000100002000000020FEE700000FB4054BB6
:1021F00010B503A9044A029800F028F810BC5DF855
:1022000014FB0000B1260008180000200907090E81
:10221000002804DB00F1E02080F80014704700F093
:102220000F0000F1E02080F8141D704702E008C89C
:10223000121F08C1002AFAD170477047002001E040
:1022400001C1121F002AFBD1704700002DE9FF4F8A
:102250008DB00F460546002606E025280BD0DDE9A7
:102260000F1290476D1C761C28780028F5D111B00C
:102270003046BDE8F08F0024A246A1460122EC4979
:1022800000E0044315F8013F203B02FA03F0084246
:10229000F7D128782A2810D06FF02F022878A0F1E3
:1022A0003001092914D80AEB8A0102EB410144F0FC
:1022B000020400EB010A6D1CF0E701CF5FEA000A9F
:1022C00003D544F40054CAF1000A44F002046D1C22
:1022D00028782E2817D115F8010F44F004042A2875
:1022E0000ED06FF02F022878A0F1300109290AD80A
:1022F00009EB890102EB410100EB01096D1CF2E7DA
:1023000057F8049B6D1C28786C280FD006DC4C28ED
:1023100017D068280DD06A2814D104E0742810D092
:102320007A280FD10DE044F400140AE044F480143C
:1023300001E044F440146978814202D104F580142C
:102340006D1C6D1C2A786E2A1FD00CDC632A31D0DC
:1023500004DC002A8BD0582A11D1A3E0642A68D06B
:10236000692A0CD165E0732A2ED004DC6F2A73D061
:10237000702A04D19BE0752A6FD0782A6ED010465F
:10238000DDE90F129047761C50E1C4F30250022899
:1023900006D0032809D0042801CF09D0066045E102
:1023A00001CFF117C0E9006140E101CF06803DE1B6
:1023B00006703BE117F8040B8DF8000000208DF843
:1023C0000100EB46012003E057F804BB4FF0FF305B
:1023D00061074FF0000102D40DE008F101018846C9
:1023E00049450FDA8045F8DB1BF808100029F4D1C5
:1023F00008E008F1010188468142FADB1BF8081069
:102400000029F6D1DDE90F23AAEB08008146214619
:1024100000F036F9304400EB080604E0DDE90F1265
:102420001BF8010B9047B8F10108F7D22146484646
:10243000F7E00A21C4F302534FF0000B0891022B7E
:1024400004D001CFC117032B09D00AE0FF1D27F0EC
:102450000707F7E8020108E032E01FE020E000B2E1
:10246000C117042B01D140B2C117031E71F1000343
:1024700007DA4FF0000CD0EB0C006CEB01012D23C0
:1024800002E0230504D52B238DF82430012303E03B
:10249000E30701D02023F7E7984658E00A2110E02F
:1024A00010210EE010204FF0000B08900CE01021DE
:1024B0004FF0000B44F004044FF00809089103E0CA
:1024C00008214FF0000B0891C4F30253022B04D0F3
:1024D00001CF0021032B06D006E0FF1D27F00707E0
:1024E000F7E8020103E080B2042B00D1C0B24FF044
:1024F000000823072BD5702A07D0DDF820C08CF008
:10250000100C5CEA0B0C05D00EE040238DF8243053
:10251000012308E050EA010306D030238DF824306F
:102520008DF8252002239846DDF820C08CF0080C99
:102530005CEA0B0C0BD150EA010301D1630706D50D
:1025400030238DF824304FF00108A9F10109582AF1
:1025500004D038A20B9208AA0A920BE03AA2F9E73B
:102560005B46089AFDF72FFE0B9B9B5C0A9A521E56
:102570000A92137050EA0102F2D10A98ADEB000002
:1025800000F1200B600702D524F4803401E04FF005
:102590000109D94502DDA9EB0B0000E0002000EBAA
:1025A0000B0141440890AAEB010AE00306D4DDE9DF
:1025B0000F232146504600F063F806444FF000090F
:1025C00008E009A911F80900DDE90F12904709F1A7
:1025D0000109761CC145F4DBE0030CD5DDE90F23CE
:1025E0002146504600F04CF8064404E0DDE90F12A5
:1025F00030209047761C0899481E08900029F5DC89
:1026000008E00A980A990078491C0A91DDE90F123E
:102610009047761CBBF10001ABF1010BF1DC2146C8
:102620005046DDE90F2300F019F806446D1C1BE647
:102630000928010030313233343536373839616298
:10264000636465660000000030313233343536375C
:102650003839414243444546000000002DE9F0412D
:10266000044600251E461746880404D405E0394672
:102670002020B0476D1C641EF9D52846BDE8F081C6
:102680002DE9F041044600251E469046C80301D5B9
:10269000302700E02027880404D505E0414638466D
:1026A000B0476D1C641EF9D52846BDE8F0810000D6
:1026B00013B54FF0FF33012269460248FFF717FABE
:1026C00000981CBD2C010020FEF7F2F9FFF7FDFB7E
:1026D000FFF760FAFFF71AFB0F480E494FF48042EC
:1026E00001600E49416000218160C0E9031241612F
:1026F0008161C1610162FEF7E1F808B172B6FEE7DF
:10270000FFF7E2FA4FF47A70FDF792FF00F008F855
:10271000FEE700000054004080000020A086010079
:1027200000B5ADF5057DFC2142A8FDF734FD284834
:1027300083A90068419082A8FDF70AFEBDF808123F
:1027400024A0FFF753FDBDF80C122AA0FFF74EFDA1
:1027500081A8FDF723FE9DF806329DF805229DF81D
:1027600004122BA0FFF742FD0020FDF74FFE48B9F1
:10277000042241A90020FDF77DFD042201A90020CB
:10278000FDF7B6FD9DF8070100909DF806319DF814
:1027900005219DF8041129A0FFF728FD9DF80700E9
:1027A00000909DF806309DF805209DF8041030A09B
:1027B000FFF71CFD042201A941A8FDF7F7FC002842
:1027C00002D138A0FFF712FD0DF5057D00BD000018
:1027D000C0280008466C617368204D616E756661A3
:1027E0006374757265722049443A2030782530341C
:1027F000580D0A00466C617368204465766963650C
:102800002049443A203078253034580D0A00000021
:10281000466C617368204A454445432049443A2048
:102820003078253032582C203078253032582C2002
:102830003078253032580D0A00000000466C617374
:102840006820577269746520446174613A20307859
:10285000253032582C203078253032582C203078D2
:10286000253032582C203078253032580D0A00009F
:10287000466C617368205265616420204461746114
:102880003A203078253032582C2030782530325894
:102890002C203078253032582C2030782530325892
:1028A0000D0A00000D0A53504920466C61736820E0
:1028B0005465737420506173736564210D0A0000C0
:1028C000AABBCCDD010202030405060708090A0BB6
:1028D0000C0D0E0F1010000000000000000001029F
:1028E00003040607080900000000010203040000B9
:1028F00010290008000000201C0000002C22000805
:102900002C2900081C0000205C0500003C22000867
:1029100000000000D40000200100000010000000B2
:0C2920000000000000127A00000000001F
:0400000508000131BD
:00000001FF
