:020000040800F2
:100000002822002045010008E72000080D1F0008F5
:10001000E520000877020008212600080000000003
:100020000000000000000000000000005D22000849
:100030007902000800000000E92000085F220008A3
:100040005F0100085F0100085F0100085F01000810
:100050005F0100085F0100085F0100085F01000800
:100060005F0100087B0200085F0100085F010008D3
:100070005F0100085F0100085F0100085F010008E0
:100080005F0100085F0100085F0100085F010008D0
:100090005F0100085F0100085F0100085F010008C0
:1000A0005F0100085F0100085F0100085F010008B0
:1000B0005F0100085F0100085F0100085F010008A0
:1000C0005F0100085F0100085F0100085F01000890
:1000D0005F010008192500085F0100085F010008A2
:1000E0005F0100085F0100085F0100085F01000870
:1000F0005F0100085F0100085F0100085F01000860
:100100005F0100085F0100085F0100085F0100084F
:100110005F0100085F0100085F0100085F0100083F
:100120005F0100085F0100085F0100085F0100082F
:10013000DFF80CD000F07EF800480047ED3F0008E3
:10014000282200200648804706480047FEE7FEE7D1
:10015000FEE7FEE7FEE7FEE7FEE7FEE7FEE7FEE777
:10016000CB22000831010008202A04DB203A21FAC2
:1001700002F00021704721FA02F3D040C2F12002C0
:10018000914008431946704740EA01039B0703D09A
:1001900009E008C9121F08C0042AFAD203E011F8C6
:1001A000013B00F8013B521EF9D27047D2B201E088
:1001B00000F8012B491EFBD270470022F6E710B56C
:1001C00013460A4604461946FFF7F0FF204610BDC5
:1001D0002DE9F05F0546002092469B46884606467C
:1001E000814640241BE02846414647462246FFF709
:1001F000BBFF53465A46C01A914110D311461846C8
:10020000224600F029F82D1A67EB01084F462246D6
:100210000120002100F020F817EB00094E41201EBC
:10022000A4F10104DFDC484631462A464346BDE8D6
:10023000F09F0000064C074D06E0E06840F0010327
:1002400094E8070098471034AC42F6D3FFF774FFE8
:10025000FC4300081C440008202A04DB203A00FA72
:1002600002F1002070479140C2F1200320FA03F30D
:10027000194390407047FEE77047082000F0C0BB6C
:1002800000B5C1B080223B496846FFF77DFF802161
:1002900020A8FFF792FF38A002F0C4F9012246A17E
:1002A000464803F0A7F90D2801D045A009E04CA06D
:1002B00002F0B8F9002211463FA002F0FFFE18B18B
:1002C0004EA002F0AFF914E050A002F0ABF9012209
:1002D00039A1002003F08EF9014652A002F0A2F9E4
:1002E000012235A1354803F085F9014653A002F0FB
:1002F00099F957A002F096F90A2265A1664803F021
:10030000ABF900281CD065A002F08CF940AB80222C
:100310006946614803F048FB010013D067A000BFA5
:1003200002F080F95C4802F0B5FE6DA002F07AF9A7
:10033000012257A1584803F08FF930B177A00CE0A3
:100340007CA0E1E7694682A0EAE740AB802220A9D1
:10035000514803F04FFA20B183A002F063F941B095
:1003600000BD20A985A002F05DF94B4802F092FE85
:10037000F5E70000244300080D0A0D0A2D2D2D2D50
:100380002D2D2D2D2D2D2D2D2D2D2D2D2D2D464C65
:1003900041534820464154465320544553542D2D33
:1003A0002D2D2D2D2D2D2D2D2D2D2D2D2D2D2D2D7D
:1003B0000D0A0D0A00000000303A0000480000203D
:1003C00066696C652073797374656D20616C726504
:1003D00061646C7920657869737465642E0D0A0018
:1003E0006E6F2066696C652073797374656D2C621D
:1003F0006567696E206D6B66730D0A006661696CD6
:100400006564206D6F756E740D0A000066696C6519
:100410002073797374656D206D6B6673206F6B0D3F
:100420000A00000063616E63656C206D6F756E7409
:10043000206F6B3A25640D0A0000000072652D6D77
:100440006F756E74206F6B3A25640D0A0000000012
:100450000D0A0D0A2D2D2D2D2D2D2D2D2D2D2D2D52
:100460002D2D2D2D2D2D2D4641544653207772696B
:10047000746520746573742D2D2D2D2D2D2D2D2D2E
:100480002D2D2D2D2D2D2D2D2D2D0D0A0000000093
:1004900052592E7478740000781000206F70656EC9
:1004A000206F72206372656174652066696C6520D7
:1004B0006661696C65640D0A000000006661696C24
:1004C000656420746F2077726974652052592E74A8
:1004D00078742C636F64653A202564210D0A00004E
:1004E0000D0A2D2D2D2D2D2D2D2D2D2D2D2D2D2D7F
:1004F0002D2D2D2D2D4641544653207265616420CB
:10050000746573742D2D2D2D2D2D2D2D2D2D2D2D0F
:100510002D2D2D2D2D2D2D0D0A0D0A006F70656EC0
:100520002052592E747874206661696C65640D0AD6
:10053000000000006F70656E206F7220637265614D
:1005400074652052592E747874206F6B2E0D0A003A
:10055000777269746520746F2052592E7478743ADA
:100560000D0A257300000000726561642066696CE5
:1005700065206661696C65640D0A000072656164DE
:100580002066696C6520646174613A0D0A25730DFB
:100590000A000000002200F001B8000030B50E4B48
:1005A000054601209C7B022C15D8987B00241C5406
:1005B000987B03EB800045609D7B03F10C002A547F
:1005C000987B421C9A73303008703A2048702F2074
:1005D0008870CC70002030BD141200202DE9F04747
:1005E00006460F4610F0FF00C0F10001CDB24FEA01
:1005F000122402F0FF094FF4807A13D0F0B2404287
:10060000C0B206EB000804B3501B80B2040A00F02D
:10061000FF092A463946304600F03EF83D4446463A
:10062000574629E06CB15546641EE4B20BD32A4606
:100630003946304600F030F806F5807607F58077C9
:10064000F2E7394620E04A46FBE7A945F9D9A9EB8C
:100650000500C4B22A463946304600F01DF840462F
:100660007919224611E03A462946304600F014F83E
:1006700005F5807506F58076641EE4B2F3D2B9F113
:10068000000006D0024629463046BDE8F04700F09B
:1006900003B8BDE8F0870000F8B514000D4607D098
:1006A0004FF48072944203D8C1B20B19934201D91E
:1006B0000120F8BD15A212680092020C8DF80120ED
:1006C000000A8DF802008DF8031000F0AFF8104E0C
:1006D00000220221304600F0A3FA0421684601F00E
:1006E00057FD20B92146284601F052FD28B10122CC
:1006F0000221304600F094FADAE701220221304666
:1007000000F08EFA00F07EF8F8BD00000200000054
:1007100000080140F8B50D4614A1154E0968009176
:10072000010C8DF80110010A8DF8021014468DF8A5
:10073000030000220221304600F072FA04216846CC
:1007400001F026FD30B101220221304600F068FAA6
:100750000120F8BD2146284601F010FD0446012283
:100760000221304600F05CFA2046F8BD030000008C
:10077000000801401CB505200B4C8DF8000000223C
:100780000221204600F04CFA0121684601F000FDEC
:10079000012101A801F0F2FC01220221204600F013
:1007A0003FFA9DF804001CBD0008014038B513A1B4
:1007B00009680091010C8DF80110010A8DF80210F2
:1007C0008DF8030000F032F80D4C00220221204683
:1007D00000F026FA0421684601F0DAFC00284FF008
:1007E00001024FF00201204603D000F019FA012067
:1007F00038BD00F015FA00F005F838BD2000000003
:100800000008014070B500F011FA044641F2883545
:1008100007E000BF00F00AFA001BA84201D903203C
:1008200070BDFFF7A7FFC007F4D170BD38B5062033
:10083000084C8DF8000000220221204600F0F0F95B
:100840000121684601F0A4FC01220221204600F0AB
:10085000E7F938BD0008014010B590F821100022DA
:10086000022905D00421816380F82020012010BDD9
:1008700001680B6823F00E030B6001680B6823F01E
:1008800001030B6090F84030C46B012101FA03F3BF
:10089000636080F8211080F82020104610BD000011
:1008A0002DE9F05F90F821100024022903D00421E3
:1008B0008163012485E001680A6822F00E020A6063
:1008C00001680A6822F001020A603F4E3E4FB215ED
:1008D000DFF8F4C0DFF8F090DFF8ECA0DFF8E8B064
:1008E000DFF8E4E00168783F13011502ACF1640C15
:1008F000A9F15009AAF13C0AABF1280BAEF1140E94
:100900004FF48018B14227D9B9420ED0614512D0B8
:1009100049451DD0514518D0594518D0714501D1D0
:10092000424615E0294EB14201D1012210E0274E86
:100930001436B14201D110220AE0244E2836B142C9
:1009400006D0224A3C32914201D11A4600E02A46A2
:100950001E49091F0A602BE0B94213D0614517D028
:10096000494522D051451DD059451DD0714501D171
:1009700042461AE0B14202D14FF0807215E0134EA8
:10098000B14201D1012210E0104E1436B14201D122
:1009900010220AE00D4E2836B14206D00B4A3C32F6
:1009A000914201D11A4600E02A46074980394A603F
:1009B000012180F82110002180F82010416B01B145
:1009C00088472046BDE8F09F8000024008040240AE
:1009D00010B51021034800F01BF9BDE8104002A03B
:1009E00001F020BE000C01404B32204578546920B4
:1009F000696E74657272707574210D0A00000000D2
:100A0000044910B50A68024202D00860FFF7E0FF0F
:100A100010BD0000140401402DE9F84FDFF8C89123
:100A20000024A9F1040B23460F2709F1040AABF1B6
:100A3000040ED1E00125A54006EA0502AA4276D1BE
:100A4000DFF8A8C14E68A6EB0C0866452BD00DDC7C
:100A5000032E34D005DC36B3012E19D0022E2FD14F
:100A60001BE0112E16D0122E2AD119E0B8F5881FDE
:100A700019D006DCB8F5803F15D0B8F5801F1FD11E
:100A800011E0B8F5001F0ED0B8F5041F18D10AE028
:100A9000CB6815E0CB681B1D12E0CB6808330FE074
:100AA000CB680C330CE08B682BB1012B4FF00803A3
:100AB00003D0456104E0042302E0056100E0002367
:100AC000FF2A01D8064601E000F104064FEA84053A
:100AD00001D9A5F12005D6F8008007FA05FC28EA1F
:100AE0000C0803FA05F548EA0508C6F800804D68C9
:100AF000ED0070D53E4DAE6946F00106AE61AD69C0
:100B000024F0030605F0010500953A4D06EB050CAF
:100B1000DCF80850A607360F07FA06F825EA08059C
:100B2000DFF8D480404503D14FF0000825E052E0C3
:100B3000DFF8C880404502D14FF001081DE0DFF822
:100B4000C080404502D14FF0020816E0DFF8B480C3
:100B5000404502D14FF003080FE0DFF8AC8040457C
:100B600002D14FF0040808E0DFF8A080404502D130
:100B70004FF0050801E04FF0060808FA06F848EAC9
:100B80000508CCF808804D68D9F80060ED024D46A4
:100B900001D5164300E096432E604D68DAF80060F8
:100BA000AD02554601D5164300E096432E604D68D0
:100BB000DBF80060AD035D4601D5164300E09643C7
:100BC0002E604D68DEF80060ED03754601D51643D2
:100BD00000E096432E60641C0A681646E2407FF4EB
:100BE00029AFBDE8F88F0000080401400000111093
:100BF000001002400000014000080140000C0140CC
:100C0000001001400014014000180140001C014088
:100C1000C26821EA02030A4043EA024101617047C7
:100C20000AB1016170470904FBE7000001488068D0
:100C3000704700002800002070B5040025D094F80B
:100C40003D00002520B984F83C50204600F0B8F85B
:100C5000242084F83D002068016821F00101016032
:100C60002068016841F4004101602068016821F4B6
:100C70000041016000F000FA4D4A6168914201D8DC
:100C80004C4900E04C49884201D2012070BD4B49DB
:100C90002368B0FBF1F15E6826F03F060E435E600C
:100CA0006368934206D94FF4967359434FF47A73AD
:100CB000B1FBF3F12368491C1E6A26F03F0631435D
:100CC00019626168914210D84900401EB0FBF1F2F0
:100CD000521CC2F30B02042A01D2042022E0B0FB12
:100CE000F1F0401CC0F30B001CE0A268F2B301EB72
:100CF000C10303EB0116431EB3FBF6F35B1C43F485
:100D000080431B0549D092B301EBC10202EB0111F4
:100D1000401EB0FBF1F0401CC0F30B0040F48040DB
:100D200040F400402168CA694CF6FF739A431043AF
:100D3000C861D4E9071001432068026822F0C002AC
:100D400011430160D4E9030101432068826848F23D
:100D5000FF339A4311438160D4E9050108432168B8
:100D6000CA6822F0FF021043C86001E00EE016E0FE
:100D70002068016841F0010101602564202084F8A9
:100D80003D00256384F83E50002070BD01EB410614
:100D9000431EB3FBF6F35B1CB3E70120C2E701EB94
:100DA0004101401EB0FBF1F0401CC0F30B00B7E75F
:100DB000A086010080841E0000093D0040420F0013
:100DC00010B586B000210091019102910391006855
:100DD0000F4988421AD10F4CA06940F00800A06169
:100DE000A069694600F008000490C020009012201D
:100DF0000190032003900848FFF70EFEE06940F4DD
:100E00000010E061E06900F40010049006B010BD2D
:100E10000054004000100240000C0140024881686C
:100E2000027811448160704728000020074810B5FF
:100E3000016841F010010160032000F075F80F20F7
:100E400000F006F800F024F8002010BD0020024059
:100E500070B50D4D04464FF47A712878B1FBF0F06F
:100E60000A490968B1FBF0F000F0E7FD48B9102C21
:100E700007D200222146501E00F036F800206C6098
:100E800070BD012070BD000028000020340000204B
:100E90000C4808B5816941F001018161816901F067
:100EA00001010091C16941F08051C161C06900F048
:100EB000805000900448416821F0E06141F00071E9
:100EC000416008BD0010024000000140002809DB1D
:100ED00000F01F02012191404009800000F1E02054
:100EE000C0F8001170470000F0B40E4B1B680C46B0
:100EF000C3F30223C3F10705042D00D90425191DEE
:100F0000072901D2002300E0DB1E012606FA05F1C5
:100F1000491E214099409E40761E16403143F0BC48
:100F200001F090BB0CED00E0064900F007020868F4
:100F30004FF6FF03184040EA0220034A10430860BE
:100F4000704700000CED00E00000FA052DE9F047C5
:100F50000F46050061D0434E306800F00700B842EC
:100F600009D2306820F0070038433060306800F064
:100F70000700B84251D128683B4C810712D5400781
:100F800003D5606840F4E06060602878000703D50E
:100F9000606840F4605060606068A96820F0F0000C
:100FA000084360602878C00728D06868012810D0FE
:100FB0002168022810D0890700292EDA616821F003
:100FC000030101436160FFF731FE804641F2883939
:100FD0000DE021688903EFE78901EDE7FFF726FEC1
:100FE000A0EB0801494502D90320BDE8F0876068FD
:100FF000696800F00C00B0EB810FEFD1306800F0B1
:101000000700B8420BD9306820F007003843306041
:10101000306800F00700B84201D00120E5E72878E9
:10102000400705D56068E96820F4E0600843606027
:101030002878000706D56068296920F4605040EAE6
:10104000C100606000F038F86168084AC1F303111C
:10105000515CC8400649086006480068FFF7F8FE82
:101060000020C2E70020024000100240B643000802
:10107000340000202C00002004480549006849681D
:10108000044AC1F30221515CC8407047340000207B
:1010900000100240C643000804480549006849683A
:1010A000044AC1F3C221515CC8407047340000209B
:1010B00000100240C64300080E4A51680E4801F075
:1010C0000C03042B11D0082B0FD10C48C1F3834320
:1010D000C903C05C0AD55168084AC1F34041921E59
:1010E000515C054A5043B0FBF1F070470449484356
:1010F000704700000010024000127A00A64300086A
:1011000000093D0030B585B000200290022001901A
:10111000032003900B4C4FF480700090A0690D46A3
:1011200040F00400A061A069694600F0040004904A
:101130000548FFF771FC606820F0E06028436060BC
:1011400005B030BD00100240000801402DE9F84F05
:10115000040070D02078C04DC00749D06868C0F343
:101160008100012807D06868C0F38100022809D1F6
:101170006868C00306D52868800339D560680028F0
:10118000E7D035E06068B0F5803F0BD010B1B0F526
:10119000A02F11D0286820F480302860286820F41F
:1011A000802002E0286840F480302860606890B1B8
:1011B000FFF73CFD06460AE0286840F480202860DE
:1011C000F0E700BFFFF732FD801B642873D8286862
:1011D0008003F7D50CE0FFF729FD064605E000BFC8
:1011E000FFF724FD801B6428F0D828688003F7D41B
:1011F00020789A4E80074FF001094FF0000839D54A
:10120000686810F00C0F07D06868C0F381000228EE
:1012100009D16868C00306D42868800714D52069FE
:10122000012808D110E02069B0B1C6F80090FFF79E
:10123000FDFC074605E00AE1FFF7F8FCC01B0228A9
:10124000C4D828688007F7D52868616920F0F800BD
:1012500040EAC10028600DE0C6F80080FFF7E6FC18
:10126000074604E0FFF7E2FCC01B022823D82868E9
:101270008007F7D4207800072CD57948A169D9B127
:10128000C0F80090FFF7D2FC074604E0FFF7CEFC61
:10129000C01B02280FD8686A8007F7D571484FF441
:1012A000FA510068B0FBF1F0009000BF0098411EB9
:1012B0000091FAD20EE080E0C0F80080FFF7B6FCA3
:1012C000074604E0FFF7B2FCC01B022875D8686A25
:1012D0008007F7D42078400760D5E8690027C00070
:1012E00008D4E86940F08050E861E869012700F01F
:1012F000805000905C480168C90513D4016883469A
:1013000041F480710160FFF791FC824606E000BF66
:10131000FFF78CFCA0EB0A0064284ED8DBF8000035
:10132000C005F5D5E06801280AD008B1052813D01A
:10133000286A20F001002862286A20F0040002E0F8
:10134000286A40F001002862E06841F2883B98B1C9
:10135000FFF76CFC82460BE0286A40F0040028622C
:10136000EEE700BFFFF762FCA0EB0A0159455AD82F
:10137000286A8007F6D50CE0FFF758FC824605E0A6
:10138000FFF754FCA0EB0A0159454CD8286A8007A6
:10139000F6D41FB1E86920F08050E861E06988B3B5
:1013A0006968C1F38101022944D00228C6F860802F
:1013B00004D0FFF73BFC044638E034E0FFF736FC8E
:1013C000074604E0FFF732FCC01B02282BD8286830
:1013D0008001F7D4206AB0F5803F05D16868A16824
:1013E00020F4003008436860D4E9080108436968C4
:1013F00021F4741108436860C6F86090FFF716FC8A
:10140000044606E025E000BFFFF710FC001B0228A1
:1014100009D828688001F7D51BE000BFFFF706FC5C
:10142000001B022802D90320BDE8F88F286880013C
:10143000F4D40EE00128F7D06868226A00F4803105
:10144000914204D1616A00F47010884201D00120F9
:10145000EAE70020E8E700000010024000004242F6
:1014600080044242340000200070004070B5040047
:1014700009D0606A002540B125616561A56294F8D4
:10148000510040B10CE0012070BD6068B0F5827F72
:10149000F4D0E561F2E784F85050204600F040F8BF
:1014A000022084F851002068016821F040010160A9
:1014B000A088218900F4827001F404410843A189C5
:1014C00001F400610843217C01F002010843217D01
:1014D00001F001010843218B01F400710843217FD1
:1014E00001F03801084394F8201001F0800108430E
:1014F000218D01F40051084321680860A06904218E
:1015000001EA1040216848602068C16921F4006147
:10151000C1616565012084F85100002070BD0000A4
:1015200030B585B0002400940194029403940068BF
:101530001449884223D11448816941F48051816162
:10154000816901F480510491816941F00401816154
:1015500080690E4D00F004000490A020009002204D
:1015600001900320039069462846FFF755FA402072
:10157000CDE90004694628460294FFF74DFA05B00C
:1015800030BD000000300140001002400008014062
:101590002DE9F84F044690F851001D4616460F46B7
:1015A000012838D160684FF00408B0F5827F01D17E
:1015B000A06830B3FFF73AFB8246002F75D0002EAB
:1015C00073D094F85000012825D04FF0010984F819
:1015D000509084F851804FF00008C4F85480A763FD
:1015E000A687E687C4F83080A4F83480A4F8368053
:1015F000C4F84080C4F84480A068B0F5004F0CD017
:1016000015E084F85180009313460A46204600F006
:101610001CF9BDE8F88F0220FBE72068016821F083
:10162000400101602068016821F480410160206868
:101630000168490603D4016841F040010160E06897
:10164000C0B134E020688168C90709D0007BA16B74
:101650000870A06B401CA063E08F401EE08709E08B
:10166000FFF7E4FAA0EB0A00A84202D3681C01D0FD
:1016700032E085B3E08F0028E4D11BE02068816868
:10168000C90709D0C068A16B0880A06B801CA0634B
:10169000E08F401EE0870AE0FFF7C8FAA0EB0A00DF
:1016A000A84203D3681C02D016E012E09DB1E08F7F
:1016B0000028E3D152462946204600F016FD08B125
:1016C0002020606584F8519084F85080606D002877
:1016D0009FD001209DE7FFE784F8519084F8508067
:1016E000032096E72DE9F84F984616468A460446A9
:1016F000FFF79CFA814694F8510001281ED1BAF1F7
:10170000000F73D0002E71D094F85000012815D02E
:10171000012784F85070032084F851000025656586
:10172000C4F830A0A686E686A563A587E58765642C
:101730002564A068B0F5004F03D00CE00220BDE89E
:10174000F88F2068016821F040010160206801687D
:1017500041F48041016020680168490603D40168B2
:1017600041F040010160E068B0F5006F606803D0AF
:1017700048B3012E27D047E008B1012E1FD1206BBE
:1017800021680088C86006E020688168890709D55B
:10179000216B0988C160206B801C2063E08E401E95
:1017A000E0860CE0FFF742FAA0EB0901414503D3C4
:1017B000B8F1FF3F03D035E0B8F1000F32D0E08E32
:1017C0000028E1D123E0206B21680078087306E04F
:1017D0002068816889070AD5216B09780173206B1D
:1017E000401C2063E08E401EE0860DE02BE0FFF7FA
:1017F0001DFAA0EB0901414503D3B8F1FF3F03D027
:1018000010E0B8F1000F0DD0E08E0028E0D14A467C
:101810004146204600F097FC08B120206065A06892
:1018200030B109E084F8517084F85050032086E705
:101830002068C1688068009084F8517004F8505F97
:1018400060680028F3D0012079E72DE9FF4F81B0CF
:101850001D46934604464FF001090E9EFFF7E6F938
:10186000074694F851006168012806D0B1F5827FDF
:101870003CD1A168C9BB042838D10298002871D096
:10188000BBF1000FFBD0002DF9D094F850000128D7
:101890002CD04FF0010A84F850A094F8510004288D
:1018A00002D0052084F851004FF00008C4F854809D
:1018B000C4F838B0E587A58702992163E586A58637
:1018C000C4F84080C4F8448020680168490603D405
:1018D000016841F040010160E068B0F5006F6068A8
:1018E00008D0F0B3012D49D081E0FFE7022005B018
:1018F000BDE8F08F08B1012D39D1206B2168008837
:10190000C860206B801C2063E08E401EE0862EE0C5
:101910002068816889070FD5E18E69B1B9F1010F9F
:101920000AD1216B0988C160206B801C2063E08E86
:10193000401EE0864FF0000920688168C9070CD07E
:10194000E18F51B1C068A16B0880A06B801CA063BF
:10195000E08F401EE0874FF00109FFF767F9C01BD9
:1019600001E00BE067E0B04201D3701C50D1E08E83
:101970000028CDD1E08F0028CAD13EE0206B21683D
:1019800000780873206B401C2063E08E401EE086C8
:101990002DE02068816889070FD5E18E69B1B9F122
:1019A000010F0AD1216B09780173206B401C206361
:1019B000E08E401EE0864FF0000920688168C9076C
:1019C0000CD0E18F51B1C068A16B0870A06B401CB6
:1019D000A063E08F401EE0874FF00109FFF726F972
:1019E000C01BB04202D3701C01D011E086B1E08E62
:1019F0000028CED1E08F0028CBD13A463146204690
:101A000000F0A1FB50B12020606584F8508012E006
:101A100084F851A084F85080032068E7A06818B9C2
:101A20002068C1688068009084F851A084F85080D4
:101A3000606D0028F1D0012059E710B5401EB0F1CB
:101A4000807F01D3012010BD4FF0E02460610F21A1
:101A5000601700F0F7FD0020A06107202061002042
:101A600010BD704770470000F8B50168044608686B
:101A7000CA684B6910F00F0F4FF0000559D003F002
:101A8000010602F49077374365D0C10705D0D10530
:101A900003D5616C41F001016164410705D5D907A7
:101AA00003D0616C41F002016164810705D5D9075B
:101AB00003D0616C41F004016164010707D502F0B5
:101AC0002001314303D0616C41F008016164616C15
:101AD00000293AD0800604D5900602D5204600F0B1
:101AE00024FC20684069616CC0F38010090700D4B1
:101AF00060B3204600F0F2FB20684069400621D523
:101B00002068143050E8001F21F0400140E8001226
:101B1000002AF5D1E06BA8B16D494163E06BFEF797
:101B2000BFFE002811D0E06B416B01B0BDE8F04072
:101B3000084783060FD593060DD52046BDE8F8402B
:101B400000F0F3BB2046FFF78DFFF8BD2046FFF7FE
:101B500089FF6564F8BD266B2023012E7CD1C60663
:101B60007AD5D60678D508684868009048694FF05D
:101B70000206400640D5E16B086840680004000C8E
:101B8000E8D0A28D8242E5D9E085886920282DD051
:101B900020680C3050E8001F21F4807140E80012EA
:101BA000002AF5D12068143050E8001F21F001010F
:101BB00040E80012002AF5D12068143050E8001FD8
:101BC00021F0400140E80012002AF5D184F84230AB
:101BD000256320680C3050E8001F21F0100140E818
:101BE0000012002AF5D1E06BFEF736FE6663A08D89
:101BF000E18D401A81B22AE0A08DE18D401A81B2B8
:101C0000E08D0028A6D00029A4D022680C3252E82A
:101C1000000F20F4907042E80007002FF5D12068F3
:101C2000143050E8002F22F0010240E80027002F76
:101C3000F5D184F84230256320680C3050E8002F3D
:101C400022F0100240E80023002BF5D16663204605
:101C5000FFF707FFF8BDFFE705062BD5150629D5C9
:101C600094F841002128F5D1A068B0F5805F01D13A
:101C70002069B0B1206A411C216221680078486067
:101C8000E08C401E0004000CE084E3D12068C168B1
:101C900021F08001C1602068C16841F04001C1604D
:101CA000D8E7206A0088C0F308004860206A801CDA
:101CB0002062E5E74006CDD55006CBD5CA68204660
:101CC00022F04002CA6084F8413000F01EF9C1E7FA
:101CD000CD22000870B5040004D094F8410000251E
:101CE00010B106E0012070BD84F84050204600F09D
:101CF00023F8242084F841002068C16821F40051B1
:101D0000C160204600F072FB2068016921F4904117
:101D100001612068416921F02A0141612068C168A0
:101D200041F40051C1606564202084F8410084F8CA
:101D300042006563002070BD30B585B0002400947A
:101D40000194029403940068184988422CD11848E1
:101D5000816941F480418161816901F4804104918C
:101D6000816941F0040181618069124D00F0040035
:101D700004904FF400700090022001900320039023
:101D800069462846FEF748FE2815CDE90004694655
:101D900028460294FEF740FE002211462520FFF758
:101DA000A3F82520FFF792F805B030BD00380140B8
:101DB00000100240000801402DE9F84F044690F859
:101DC00042009A4616460D46202802D00220BDE861
:101DD000F88FB5B1AEB100206064222184F84210C2
:101DE0002063FEF723FFA6858146E685A0684FF4B1
:101DF00080582027404501D1206920B12E4600257A
:101E000029E00120E3E7002625E04B4600222021BF
:101E10002046CDF800A000F045FB18B184F84270D0
:101E20000320D4E726B1A06840451AD038B108E0B5
:101E300020684068C0F3080025F8020B08E020691C
:101E400078B12068406800F07F0000BF06F8010B01
:101E5000E08D401EE085E08D0028D6D184F84270E8
:101E6000B5E720684068F1E770472DE9F84304467C
:101E700090F84100984616460D46202802D00220D0
:101E8000BDE8F88385B17EB100206064212084F82C
:101E90004100FEF7CBFEA6848146E684A068202799
:101EA000B0F5805F02D003E00120E9E7206910B1BE
:101EB0002E4600250EE000260CE08021204600F092
:101EC000F1FAA8B9C6B116F8010B21684860E08C98
:101ED000401EE084E08C4B464FF00002CDF80080BD
:101EE0000028EAD14FF04001204600F0DBFA40B173
:101EF00084F841700320C3E735F8020BC0F30800F3
:101F0000E3E784F841700020BAE77047FEE700007D
:101F100010B504490448FEF73DFB0249491E08700C
:101F200010BD0000210000200C0000202DE9F0472A
:101F300086B0002544480095019502950395816976
:101F400041F010018161816901F010010491816902
:101F500041F004018161816901F00401049181690A
:101F600041F020018161816901F0200104918169C2
:101F700041F0080181618069012200F00800334FBF
:101F80005403049021463846FEF74AFEDFF8C0802D
:101F9000012202214046FEF743FEDFF8B8900122FD
:101FA00040214846FEF73CFEDFF8ACA0012210219C
:101FB0005046FEF735FE009401240326CDE9024683
:101FC000694638460194FEF727FD0227CDE90074E3
:101FD000CDE9024669464046FEF71EFD0420CDE9E4
:101FE0000005694640460295FEF716FD0820009060
:101FF0001A48CDE9010569464046FEF70DFD20026D
:10200000CDE90007694640460397FEF705FD4020ED
:10201000CDE90004CDE9024669464846FEF7FCFCDE
:102020001020CDE90004CDE9024669465046FEF78E
:10203000F3FC002211460920FEF756FF0920FEF7A7
:1020400045FF06B0BDE8F0870010024000100140D7
:102050000008014000140140000C01400000211064
:102060000F4810B50D4901604FF4827141600021A5
:102070008160C1604FF400720161C0E9051218224D
:10208000C0E90721416281620A21C162FFF7EEF9CE
:10209000002801D072B6FEE710BD000000300140FC
:1020A000F810002010B50E4C0C480C2120604FF4A5
:1020B000E13060600020A060E060C4E90401A0613C
:1020C000E0612046FFF706FE08B172B6FEE7206821
:1020D000C16841F03001C16010BD0000003801400E
:1020E00050110020FEE7FEE77047F8B5044640684F
:1020F0004FF48273984217D1A0684FF48065B0F511
:10210000004F01D0A8420FD12068066826F0400693
:1021100006606068984207D1A068A84204D1009286
:102120000B460022012103E000920B460022802191
:10213000204600F037F8002804D0606D40F0200001
:1021400060650320F8BDF8B515460E460B460092B3
:1021500004460122022100F025F840B9334600224E
:1021600080212046009500F01DF8002804D0606D05
:1021700040F0200060650320F8BD00000A460146DB
:1021800002484FF0FF330068FFF702BA0400002056
:102190000A46014602484FF0FF330068FFF7A2BA33
:1021A000040000202DE9F8431E4691468846044667
:1021B000089DFEF73BFD401B351AFEF737FD07462D
:1021C00025480068C0F3CB30684338E0701C37D036
:1021D000FEF72CFDC01BA84203D215B1009860B3D6
:1021E0002CE02068416821F0E00141606068B0F5B2
:1021F000827F0BD1A068B0F5004F02D0B0F5806FA0
:1022000004D12068016821F040010160A06AB0F5A6
:10221000005F09D12068016821F400510160206845
:10222000016841F400510160012084F85100002050
:1022300084F850000320BDE8F8830025401E00907C
:102240002068816838EA010004D000214945BDD1E9
:102250000020F0E70121F9E7340000207047FEF785
:10226000DDBD30B58FB028216846FDF7A6FF1421EB
:102270000AA8FDF7A2FF01210804CDE900100024FF
:10228000029402250491CDE907504FF4E010099023
:102290006846FEF75BFF08B172B6FEE70F20CDE996
:1022A0000A054FF48060CDE90C4002210AA80E9483
:1022B000FEF74CFE08B172B6FEE700224FF0E06177
:1022C0001046FEF71FFF0FB030BD704710B5406AD3
:1022D0000021C185C184FFF7C5FB10BD01680C3129
:1022E00051E8002F22F4907241E80023002BF5D131
:1022F0000168143151E8002F22F0010241E8002367
:10230000002BF5D1016B012909D101680C3151E88D
:10231000002F22F0100241E80023002BF5D12021EC
:1023200080F8421000210163704708B590F8421010
:10233000222901D0022008BD82684FF480539A42BE
:1023400001D1016921B1816A9A421BD04AB10AE0E8
:102350000268816A5268C2F308020A80816A891C95
:1023600008E0026972B10268526802F07F020A70E6
:10237000816A491C8162C18D491E0904090CC1850D
:1023800003D01BE002685268F1E70168CA6822F0D6
:102390002002CA600168CA6822F48072CA600168BB
:1023A0004A6922F001024A61202180F8421000218E
:1023B0004163026B012A03D0FFF756FD002008BDE0
:1023C000016301680C3151E8002F22F0100241E84E
:1023D0000023002BF5D101680A68D20602D50A68ED
:1023E00049680091818DFFF73CFBE7E770B5044633
:1023F00000680169E26821F44051114301612169DB
:10240000A0680843616908432168CA6841F20C6307
:102410009A430243CA6020684169A26921F440716D
:10242000114341611E492068884202D1FEF734FE03
:1024300001E0FEF721FE00EBC00101EB0012606835
:1024400064218000B2FBF0F3B3FBF1F36FF01806E8
:102450007343B2FBF0F5B2FBF0F605EB83053223D4
:1024600003EB0515B5FBF1F5B6FBF1F605F0F0054C
:1024700005EB0615B2FBF0F6B2FBF0F0B0FBF1F0A5
:102480006FF01802504306EB800003EB0010B0FB26
:10249000F1F0216800F00F002844886070BD000052
:1024A000003801402DE9F843984617460D4604468A
:1024B000089E24E0701C22D0FEF7B8FBA0EB0800B9
:1024C000B0421AD8CEB12068C168490717D5802D0F
:1024D00015D0402D13D00168C94309070FD40168F6
:1024E0000025406800902046FFF7F8FE0820606451
:1024F00084F840500120BDE8F8830320FBE7206802
:10250000006835EA000004D00020B842D2D0002094
:10251000F1E70120F9E70000F8B5154D28680068DB
:102520004FF00006C043800612D4134C114900231B
:10253000207801220144401C20702846FFF73CFC13
:102540002078642800D3267029686FF02000086086
:1025500028680168C943C90605D40168406807496D
:10256000009001200870BDE8F8400148FFF77CBAF0
:1025700050110020981100200100002000000020D0
:10258000054901220A7010B104220A7001E00020FE
:1025900008700878704700000800002030B939B191
:1025A00001290AD0022905D0032909D00420704747
:1025B000002070474FF4805003E04FF4006000E0CB
:1025C00001201060F4E710B508B1042010BD4FF6EB
:1025D000FF7000EA033310031A46FEF79BF8002051
:1025E00010BD0000034901220A7008B900200870DC
:1025F000087870470800002070B51E460D4608B1E7
:10260000042070BD14032046FEF7D0F84FF6FF708B
:1026100000EA063220462946FDF7E0FF002070BDA3
:10262000FEE700000FB4054B10B503A9044A029859
:1026300000F028F810BC5DF814FB0000293E0008EB
:10264000440000200907090E002804DB00F1E02007
:1026500080F80014704700F00F0000F1E02080F8CF
:10266000141D704702E008C8121F08C1002AFAD1E1
:1026700070477047002001E001C1121F002AFBD102
:10268000704700002DE9FF4F8DB00F46054600262C
:1026900006E025280BD0DDE90F1290476D1C761C53
:1026A00028780028F5D111B03046BDE8F08F00241D
:1026B000A246A1460122EC4900E0044315F8013F7F
:1026C000203B02FA03F00842F7D128782A2810D0DC
:1026D0006FF02F022878A0F13001092914D80AEBF5
:1026E0008A0102EB410144F0020400EB010A6D1C77
:1026F000F0E701CF5FEA000A03D544F40054CAF1C1
:10270000000A44F002046D1C28782E2817D115F811
:10271000010F44F004042A280ED06FF02F0228780D
:10272000A0F1300109290AD809EB890102EB410126
:1027300000EB01096D1CF2E757F8049B6D1C28782B
:102740006C280FD006DC4C2817D068280DD06A28DA
:1027500014D104E0742810D07A280FD10DE044F48D
:1027600000140AE044F4801401E044F44014697851
:10277000814202D104F580146D1C6D1C2A786E2AEA
:102780001FD00CDC632A31D004DC002A8BD0582AFD
:1027900011D1A3E0642A68D0692A0CD165E0732ABC
:1027A0002ED004DC6F2A73D0702A04D19BE0752AE6
:1027B0006FD0782A6ED01046DDE90F129047761C54
:1027C00050E1C4F30250022806D0032809D004289F
:1027D00001CF09D0066045E101CFF117C0E90061E2
:1027E00040E101CF06803DE106703BE117F8040BA4
:1027F0008DF8000000208DF80100EB46012003E079
:1028000057F804BB4FF0FF3061074FF0000102D4CE
:102810000DE008F10101884649450FDA8045F8DBF3
:102820001BF808100029F4D108E008F101018846DE
:102830008142FADB1BF808100029F6D1DDE90F23ED
:10284000AAEB08008146214600F036F9304400EB3F
:10285000080604E0DDE90F121BF8010B9047B8F100
:102860000108F7D221464846F7E00A21C4F3025393
:102870004FF0000B0891022B04D001CFC117032B9E
:1028800009D00AE0FF1D27F00707F7E8020108E07A
:1028900032E01FE020E000B2C117042B01D140B2AA
:1028A000C117031E71F1000307DA4FF0000CD0EBE3
:1028B0000C006CEB01012D2302E0230504D52B2332
:1028C0008DF82430012303E0E30701D02023F7E74C
:1028D000984658E00A2110E010210EE010204FF039
:1028E000000B08900CE010214FF0000B44F00404A2
:1028F0004FF00809089103E008214FF0000B089100
:10290000C4F30253022B04D001CF0021032B06D0C5
:1029100006E0FF1D27F00707F7E8020103E080B299
:10292000042B00D1C0B24FF0000823072BD5702A2A
:1029300007D0DDF820C08CF0100C5CEA0B0C05D041
:102940000EE040238DF82430012308E050EA010313
:1029500006D030238DF824308DF8252002239846A8
:10296000DDF820C08CF0080C5CEA0B0C0BD150EAAF
:10297000010301D1630706D530238DF824304FF0D1
:102980000108A9F10109582A04D038A20B9208AA1B
:102990000A920BE03AA2F9E75B46089AFDF718FCA9
:1029A0000B9B9B5C0A9A521E0A92137050EA01021A
:1029B000F2D10A98ADEB000000F1200B600702D5C0
:1029C00024F4803401E04FF00109D94502DDA9EB80
:1029D0000B0000E0002000EB0B0141440890AAEB43
:1029E000010AE00306D4DDE90F232146504600F03A
:1029F00063F806444FF0000908E009A911F809003E
:102A0000DDE90F12904709F10109761CC145F4DB9D
:102A1000E0030CD5DDE90F232146504600F04CF8C9
:102A2000064404E0DDE90F1230209047761C089937
:102A3000481E08900029F5DC08E00A980A990078F9
:102A4000491C0A91DDE90F129047761CBBF1000189
:102A5000ABF1010BF1DC21465046DDE90F2300F01C
:102A600019F806446D1C1BE6092801003031323389
:102A700034353637383961626364656600000000BA
:102A800030313233343536373839414243444546A4
:102A9000000000002DE9F041044600251E461746BF
:102AA000880404D405E039462020B0476D1C641E1C
:102AB000F9D52846BDE8F0812DE9F041044600250E
:102AC0001E469046C80301D5302700E02027880421
:102AD00004D505E041463846B0476D1C641EF9D563
:102AE0002846BDE8F081000010B5044600F580508E
:102AF00000220271521EC262204601F0B1FA08B1F2
:102B0000032010BDB4F8FE01A0F52A41553901D0CB
:102B1000022010BD94F83600B4F8371040EA0121C5
:102B20000848B0EB012F08D094F85210B4F85320A5
:102B300041EA0221B0EB012F01D1002010BD01209C
:102B400010BD000000464154F0B50022164B14465B
:102B500002EB420653F826506DB10768BD420BD117
:102B600003EB860586686F68B74205D12D89C68854
:102B7000B54204D000E00124521C022AE8D3022A04
:102B800001D079B904E05CB9022909D01220F0BD66
:102B900002EB420003EB80004089B0F5807F01D05A
:102BA0000020F0BD1020F0BDFC11002030B5002148
:102BB000064A0C4601EB410352F82350854201D1ED
:102BC00042F82340491C0229F4D330BDFC110020F7
:102BD000426A0068090B00F580508078B1FBF0F084
:102BE000121D02CA19B1884203D3401AF8E7002027
:102BF000704711680844704700F58050891E42698B
:102C0000921E8A4201D800207047826A807801FBB8
:102C1000002070472DE9F04180460F0000F58054F8
:102C200007D0404601F00CF9022809D20120BDE886
:102C3000F081E66816B16069B04207D8012605E068
:102C4000411CF4D061698142F1D83E463546606945
:102C50006D1CA84202D80225022E0AD329464046FE
:102C600001F0EEF838B1411CE1D00128DFD0B542C7
:102C7000EDD10020DBE76FF070422946404601F0BD
:102C80000BFA30B957B12A463946404601F004FAEA
:102C900020B101280DD001252846C8E7E56020694C
:102CA000411CF9D0401E2061607940F00100607144
:102CB000F2E74FF0FF35EFE72DE9F04789460D6861
:102CC00000E06D1C29782F29FBD05C29F9D084699C
:102CD0000B222021204601F0BCF9002001460B46C2
:102CE0000826EA5C5B1C202A49D92F2A47D05C2A97
:102CF00045D02E2A01D0B14208D3082E4CD12E2A1D
:102D00004AD108210B268006000EEAE7802A01D36B
:102D100040F00300A2F181077D2F13D8EF5C5B1C0C
:102D2000A7F1400CBCF13F0F04D3A7F1800CBCF11C
:102D30007F0F31D2A6F1010C61452DD26254491C9E
:102D400067541AE020A700E07F1C97F800C0BCF190
:102D5000000F02D09445F7D11EE0A2F14107192FD0
:102D600002D840F0020007E0A2F16107192F03D852
:102D7000203A40F00100D2B26254491CB1E71D4430
:102D8000C9F80050202A01D8042200E0002219B11D
:102D90002178E52903D004E00620BDE8F08705216D
:102DA0002170082E01D18006000E00F003010129D8
:102DB00001D142F01002C0F38100012801D142F09C
:102DC0000802E2720020E8E7222A2B2C3A3B3C3D25
:102DD0003E3F5B5D7C7F0000401E022815D20C4BFD
:102DE00000EB400203EB82014889B0F5807F05D0FB
:102DF00008B1401E80B2488110B104E00020FAE71B
:102E0000002043F822000020704702207047000095
:102E1000FC1100202DE9F041C6880446761C3004E0
:102E20000F46000C33D0206980B3710669D1401C75
:102E30002061E168206839B141F20202125C521E41
:102E400012EAD61F06D05CE000F580500089B0423F
:102E50001DD956E000F0F4FF054601281CD9681C76
:102E600034D0206841F214010958A94243D86FB107
:102E7000E168FFF7CFFE05000CD0012D0CD0681CD7
:102E800024D0206801F010FA00BB07E0FFE704201F
:102E9000BDE8F0810720FBE70220F9E74FF48052FC
:102EA0000021206801F0D5F829462068FFF7A4FE2C
:102EB0002168002701F580514FF00108C8620EE03B
:102EC00080F80480206801F0EFF908B10120DFE705
:102ED000206800F58050C16A491C7F1CC1622068CF
:102EE00000F580508178B942EAD8216801F5805117
:102EF000C96AC91BC162E56029462068FFF77CFEEC
:102F00002061E680206806F07F0100EB41106061DF
:102F10000020BDE770B50446002100F02FF80DE059
:102F20002169206801F09CF850B960690078E528B3
:102F300009D040B101212046FFF76CFF0028EFD0F7
:102F4000042807D007E02169206801F089F805000E
:102F500003D011E0072005460EE020220021606921
:102F600001F077F8D4E905010B2201F069F8206837
:102F7000012100F580500171284670BD70B5C180F7
:102F800083680D460446012B37D0206800F5805039
:102F90004169994231D923B90178032904D1436A9F
:102FA00013B18078C60113E00189A94225D9406A8E
:102FB00014E000BF00F044FF0346401C1BD0022B6E
:102FC0001BD3206800F580504069984215D9AD1B8D
:102FD0002068B5421946EDD2FFF70EFEE36060B1FE
:102FE00000EBD5102061206805F07F0100EB411057
:102FF0006061002070BD012070BD022070BD000026
:10300000084910B50B5C002253B901220A540A1872
:1030100001EB8000127B4068016810468847024639
:10302000104610BD1412002030B4054C231804EBD8
:1030300080001B7B406804691846A44630BC60478A
:103040001412002030B4054D2C1805EB8000247BB1
:10305000406885682046AC4630BC604714120020AA
:10306000044A111802EB8000097B40684268084658
:10307000104700001412002030B4054D2C1805EB49
:103080008000247B4068C5682046AC4630BC604761
:103090001412002010B5044600F048FC00280BD1A3
:1030A000204601F02AF9002806D1A06AFFF794FE15
:1030B000002801D10021216010BD00002DE9F74F4B
:1030C0008EB015460F98012803D9132011B0BDE822
:1030D000F08F0EA800F014FF002801DA0B20F5E7AE
:1030E000FE4951F820405CB14FF480520021115547
:1030F000C0B20390FFF784FFC10703D00320E5E7C8
:103100000C20E3E7400701D50A20DFE708AA0121E8
:103110000398FFF789FF00287ED1089980297BD387
:103120000F9808B1002000E03F208046A1EB080185
:10313000681E0542089100D175B9FA20B1FBF0F282
:103140000020E74B00E0401C33F810509542FAD8BD
:10315000E34A163232F81050B5F5805F00D32D0BDC
:1031600085B1802D00D98025B1FBF5F0012640F610
:10317000F672904200D302264FF6F672904203D3C5
:10318000032620E00125EFE7032E1CD0012E23D0DB
:103190004000001D00F6FF70070B4FF001090420EE
:1031A000834608EB090A0AEB0700584442190090CD
:1031B000A2EB0800884247D809AA03210398FFF729
:1031C00033FFA0B90EE041F2070202EB8000070BCB
:1031D0004FF020090020E3E700EB4000401C4008CE
:1031E000C01CD7E7099810B1B0F5004F01D90120F4
:1031F0000990099900980844401E491E8843009987
:10320000401A0990032E12D007440898A0EB090138
:10321000CA1BA2EB0B0100E0DBE0B1FBF5F10D9165
:10322000022E07D0032E0AD0012E15D019E08144BA
:103230008244EAE740F6F672914205D311E008466F
:103240004FF6F671884201D20E203FE70C20029023
:103250000F9868B1F02045E0B0F5803F06D201201C
:10326000F5E7B0F5803F01D20420F0E70620EEE755
:103270004FF480520021204600F0EBFE04F5DF7091
:103280000121417081700021C170029A0271FE22F9
:103290004271089B08EB030243F6C163B2FBF3F2F1
:1032A0003F2343EA920C099280F806C0C271037270
:1032B00041728172C172089901730A0A42730A0C41
:1032C0008273090EC173552084F8FE01AA2084F888
:1032D000FF010123002221460398FFF7CDFE0028BD
:1032E00077D1F82002904FF480520021204600F060
:1032F000B0FE0B227BA1204600F0A2FE0021E1726D
:1033000010202073657384F80E904FEA1920E07343
:1033100001202074032E0BD040026074000AA074B8
:103320000898B0F5803F05D2E074000A20750CE0E3
:103330000020F2E784F82000020A84F82120020C21
:1033400084F82220000E84F82300029860753F2044
:103350002076002060764FF0FF0984F81A90E0761E
:1033600084F81C804FEA182060774FEA1840A07755
:103370004FEA1860E07700F0C1FD80212922099012
:10338000032E27D084F82700030A84F82830030C82
:1033900084F82930000E84F82A00A775380AE075F1
:1033A00084F8241084F82620132251A104F12B0064
:1033B00000F046FE552084F8FE01AA2084F8FF01A3
:1033C0000123424621460398FFF756FE002800D10C
:1033D00033E0BDE084F84300030A84F84430030C72
:1033E00084F84530000E84F8460084F82470380ACA
:1033F00084F82500380C84F82600380E84F827005D
:10340000022084F82C00002084F82D0084F82E007F
:1034100084F82F00012384F8303084F8310006232B
:1034200084F8323084F8330084F8401084F8422065
:10343000132234A104F14700BAE7032E06D1012379
:1034400008F1060221460398FFF716FE4FF480525A
:103450000021204600F0FDFD02980990032E12D0B5
:10346000012E0ED06FF0FF010143099121700998E0
:10347000000A60700998000CA0700998000EE070B6
:103480001EE02549F0E760F0FF00099020700998E0
:10349000000A60700998000CA0700998000EE07096
:1034A00084F8049084F8059084F8069084F80790D6
:1034B00084F8089084F8099084F80A900F20E0724C
:1034C00052460AF10109012321460398FFF7D4FD72
:1034D000F0BB4FF48052002120461FE03C0000204A
:1034E000CE430008EBFE904D53444F53352E300031
:1034F0004E4F204E414D4520202020464154202053
:10350000202020004E4F204E414D452020202046B7
:10351000415433322020200000FFFF0000F099FDCD
:1035200001200AE04A4609F10109012321460398D6
:10353000FFF7A2FD60B90998401C0990B842F1D389
:10354000032E00D05D464A4609F10109012300E03F
:1035500042E021460398FFF78FFDE8BB6D1EF2D1D4
:10356000032E3CD15220207060706120A070412158
:10357000E170722284F8E42184F8E52184F8E611F0
:1035800084F8E7010D980123401E84F8E801010A40
:1035900084F8E911010C84F8EA11000E84F8EB01BB
:1035A000022084F8EC01002084F8ED0184F8EE019B
:1035B00084F8EF01552084F8FE01AA2084F8FF0169
:1035C00008F1010221460398FFF756FD012308F197
:1035D00007022146039800E009E0FFF74DFD0022B5
:1035E00011460398FFF720FD00283FF478AD012035
:1035F0006CE500002DE9F74181B0904602980090FB
:10360000684600F07DFC040003D50B2004B0BDE843
:10361000F081104E002756F824502DB12846FFF7B0
:10362000C5FA05F580552F700198002803D000BF1A
:103630004FF480510F5446F8240002D0B8F1010F26
:1036400001D00020E2E7002202A901A800F078FAE8
:10365000DCE700003C0000202DE9F7478BB00600B6
:103660000ED04FF0000802F01F0727F001020CA94E
:103670006846C6F8008000F063FA040004D0B3E0A6
:1036800009200EB0BDE8F08708A8069068460C999E
:1036900000F074FB059D04000BD11DB1780803D028
:1036A000012102E0062404E000216846FFF74CFAFD
:1036B000044617F01C0F61D04FF0010AD4B1042C5E
:1036C00013D100204A4902E0401C022805D200EB39
:1036D000400251F82220002AF6D1022804D0684680
:1036E000FFF718FC044600E01224059D47F0080788
:1036F00054B179E0E87A10F0110F01D0072473E09B
:10370000780701D508246FE0380745D500F0F6FBAF
:10371000A873010AE973010C2974000E687485F816
:103720000B8085F81C8085F81D8085F81E8085F843
:103730001F802946009800F04DFC81460021284654
:1037400000F056FD0098B9F1000100F5805080F8B6
:1037500004A01FD0D0F82CA0009800F016FD0400A3
:1037600042D10099A9F1010001F58051C86051468C
:10377000009800F075FC04000AD035E0A4BBE87A9C
:10378000C10601D504242FE0B90701D5C007B5D182
:10379000380701D547F02007009800F58050C06A2F
:1037A000C6E90705780801D0012100E0002168463C
:1037B00000F0C4FBB062C8B1B77186F80780474615
:1037C0002946009800F006FC3061287FD5F81D10CE
:1037D00040EA0120C6E90270B76177620098306064
:1037E00000F58050C088B08020464AE70224FBE7FD
:1037F000FC1100202DE9F84F0446002018609A467D
:1038000015468946204600F078FD002810D1E07961
:1038100000280DD1A079C00709D0D4E90210401AC0
:1038200001274FF0020885427CD905467AE007203F
:10383000BDE8F88FA168080551D1206841F2020265
:10384000125C521E02EA113212F0FF0610D129B1A9
:10385000626A2AB12046FFF7BBF904E0206902E062
:10386000616900F0EDFA02281FD3411C44D0606169
:1038700061692068FFF7C0F9B8B130440090280BA7
:103880005FEA000B29D0206806EB0B0200F58050A0
:1038900081788A4201D9A1EB060B40785B46494604
:1038A000009AFFF7CFFB38BB03E084F807800220C3
:1038B000BEE72068014600F58050027952B1C26A25
:1038C0000098101A584505D209EB00304FF4805289
:1038D00000F0B6FB4FEA0B361AE00098A061208991
:1038E000C0F30B00C0F58056AE4200D92E46A16948
:1038F000206800F0B5FB10B1E771012098E721893D
:103900002068C1F30B0101443246484600F098FBA1
:10391000A068B1443044A060DAF800008119AD1B02
:10392000CAF80010002D85D1002081E770B504464B
:1039300000F0E3FC002836D1A179890633D5E1698E
:10394000206800F08DFB00282DD1256AE87A40F030
:103950002000E872207B2877A089000A6877E06859
:10396000000CA877E068000EE8772846216900F08F
:103970003FFC00F0C3FAA875010AE975010C29762D
:10398000000E68760020A874E874A079012120F068
:103990002000A071206800F5805001712068BDE80A
:1039A000704000F02DBC70BD2DE9FC5F4FF0000BA6
:1039B0009A46154604468946C3F800B000F09DFCBF
:1039C000002806D1E079002803D1A079800702D42D
:1039D0000720BDE8FC9FA068012641194FF00208AE
:1039E000814268D39EE0A168080574D12068024630
:1039F00000F580508078401E00EA113010F0FF077B
:103A000018D129B1606A38B12046FFF7E1F807E024
:103A1000206938B9002100E061691046FFF7FAF823
:103A2000002848D001282AD0411C61D0606121695A
:103A300001B92061206841F22C01A2690958914224
:103A400002D100F031FCA8BB61692068FFF7D4F80F
:103A5000A8B138440190280B00902DD03A18206866
:103A600000F5805081788A4201D9C91B0091DDE9B7
:103A7000003240784946FFF7FFFAD8B903E084F8EE
:103A800007800220A5E7206841F22C010A5801991D
:103A9000511A009A91420AD209EB01314FF4805237
:103AA00000F0CEFA216801F5805181F804B0009849
:103AB00007032DE01CE038E0D4E90201884208D376
:103AC000206800F0F1FB98B92168019801F5805158
:103AD000C8620198A0612089C0F30B00C0F580572F
:103AE000AF4200D92F46A169206800F0B9FA10B1A1
:103AF000E67101206DE721892068C1F30B010844BC
:103B00003A46494600F09CFA206800F5805006715C
:103B1000A068B9443844A060DAF80000ED1B3844CE
:103B2000CAF80000002D7FF45EAFD4E9020188429C
:103B300000D9E060A07940F02000A071002048E7A3
:103B40002DE9FF474FF0000A0546C0F800A01746D0
:103B5000084600F0D5F9060003D50B2004B0BDE8F7
:103B6000F087834850F826409CB12C6004F58055BE
:103B7000287820B16878FFF773FAC1070BD085F871
:103B800000A0F0B26870FFF73BFAC10708D003202D
:103B9000E4E70C20E2E70FB1400704D40020DDE7A2
:103BA0001FB1400701D50A20D8E70026314620463C
:103BB000FEF79AFF012824D100206A4604EB001189
:103BC00091F8C23101F5DF712BB10B7AD1F80910F0
:103BD00043EA012100E0002142F82010401C0428A3
:103BE000ECD300274FEA020858F827602EB131467F
:103BF0002046FEF779FF08B909E002207F1C042F58
:103C0000F2D3032801D0E8BB01E00120A6E7B4F815
:103C10000B00B0F5805F5AD1E08A28B994F82400EF
:103C2000D4F8251040EA0120A861217C8146E97082
:103C3000012901D002294AD14143607BA87008B311
:103C4000421E104243D1B4F811202A8153063ED1BE
:103C5000B4F813702FB994F82030D4F8217043EAE7
:103C60000727B4F80EC0BCF1000F30D00CEB0103F5
:103C700003EBD2139F422AD3FF1AB7FBF0F008B12F
:103C8000012700E023E040F6F678404500D3022704
:103C90004FF6F678404500D30327801C3344AB62CF
:103CA000B4446861C5E9076C032F12D07AB161444E
:103CB0006962022F18D000F0010100EB400001EB17
:103CC000500000BF00F6FF70B9EB103F0ED20D2080
:103CD00044E7002AFBD194F82C10D4F82D20800062
:103CE00041EA02216962EDE74000EBE74FF0FF3067
:103CF0002861E86080206871032F2ED1208E012872
:103D00002BD12046711C00F0ABF930BB85F805A023
:103D1000B4F8FE01A0F52A4155391ED12078D4F817
:103D2000011040EA01201349884216D194F8E401B9
:103D3000D4F8E51140EA01200F4988420DD194F8EA
:103D4000E801D4F8E91140EA0120286194F8EC0177
:103D5000D4F8ED1140EA0120E86005492F70091FF1
:103D60000888401C0880E8802046FEF71FFF15E702
:103D70003C000020525261417272416173B50446A9
:103D8000019908782F2801D05C2801D1491C0191A4
:103D90000025A56001980078202805D20021204642
:103DA000FFF7ECF865617CBD01A92046FEF784FFB2
:103DB0000028F8D100212046FFF7E0F8F8B9216982
:103DC000206800F04DF9D0B961690A782AB1CA7A41
:103DD00012070ED40A23A26903E004200FE05B1E41
:103DE00006D311F8015B12F8016BAD1BF7D000E0B0
:103DF0002DB100212046FFF70DF80028DFD0A16982
:103E0000C97A28B10428CED14907CCD405207CBD7D
:103E10004907FCD46169C87AC006F7D5206800F06C
:103E2000D9F8A060C0E7000013B54FF0FF330122BE
:103E300069460248FEF719F800981CBD5011002091
:103E40002DE9F0470C46074602290FD307F58056A7
:103E50007069A0420AD930784FF0FF35012809D0A7
:103E600040F6FF78022829D0032834D001252846BF
:103E7000BDE8F087316A04EB540801EB183138468D
:103E800000F0EEF80028F2D1C8F30B00316A17F801
:103E9000009008F1010801EB1831384600F0E0F815
:103EA0000028E4D1C8F30B00395C49EA0120E1079E
:103EB00001D00509DBE7C0F30B05D8E7306A00EB5A
:103EC000D421384600F0CCF80028D0D108EA4400CC
:103ED00038440588CBE7306A00EB9421384600F07F
:103EE000BFF80028C3D108EA840038440178D0F82C
:103EF000010041EA002020F07045B8E7002070473B
:103F000010B504464FF0FF302268002A13D0114646
:103F100000E0491C0B78212B0ED33A2BF9D112F873
:103F2000013B303B0A2B06D28A4204D1022B02D23B
:103F3000491C1846216010BD002010BDF0B5034695
:103F4000234AD3F80040002000EB400552F82560DA
:103F5000A64209D102EB85059E686F68B74203D17E
:103F60002D89DE88B54202D0401C0228ECD30228FD
:103F700018D1002002E0401C022805D200EB4005C9
:103F800052F82550002DF6D1022813D000EB400541
:103F900042F8254002EB85049E686660DB88238139
:103FA00000236381002900EB400102EB8101498974
:103FB00002D019B10020F0BD491C01E04FF480711E
:103FC00000EB400302EB8302401C5181F0BD000076
:103FD000FC110020024602F58052488B1278032A19
:103FE00002D1898A40EA014070470000FCF71EFFB9
:103FF000FEF737F9FDF79AFFFEF754F80E480D4922
:104000004FF4804201600D49416000218160C0E9A8
:10401000031241618161C1610162FCF70DFE08B1CB
:1040200072B6FEE7FEF71CF8FDF772FFFCF728F901
:10403000FEE7000000540040A4100020A08601000C
:1040400004E000BF11F8013B00F8013B521EF9D219
:104050007047C9B201E000F8011B521EFBD2704745
:104060002DE9F04100F580540746E06A0E46002530
:10407000B0420ED0384600F017F9050009D160783B
:10408000012332463946FEF7DDFF08B16E1E0125D9
:10409000E6622846BDE8F0812DE9F04717460D4657
:1040A0000646022904D306F580546069A84202D866
:1040B0000220BDE8F087217807F0FF094FF0010AE0
:1040C00001291FD040F6FF7802294CD00329EFD1F7
:1040D000206A00EB95213046FFF7C2FF0028E8D1A7
:1040E00008EA85018A194FF07043D2F8011003EAFB
:1040F0000121394311700B0A53700B0C9370090E98
:10410000D1703FE0216A05EB550801EB18313046CC
:10411000FFF7A6FF0028CCD1C8F30B00304408F10C
:104120000108E90703D0017869F31F1100E039465F
:10413000017084F804A0216A304601EB1831FFF7C2
:104140008FFF0028B5D1C8F30B013144EA0702D034
:10415000C7F3071205E00A78C7F3032302F0F00261
:104160001A430A700EE0206A00EBD5213046FFF7B3
:1041700077FF00289DD108EA450131443A0A81F8C9
:1041800000904A7084F804A093E72DE9F0410F46AF
:104190008046022918D308F580556869B84213D9BA
:1041A00000261FE039464046FFF74AFE04001CD0B7
:1041B000012C09D0601C09D0002239464046FFF787
:1041C0006BFF060011D103E002260EE001260CE091
:1041D0002869411C05D0401C2861687940F0010025
:1041E000687127466869B842DCD83046BDE8F0817E
:1041F00081760A0AC2760A0C0275090E417570476B
:1042000070B5044600F050F806004BD104F5805517
:10421000287803283FD1687901283CD10203002186
:104220002046FFF716FF552084F8FE01AA2084F8E7
:10423000FF015220207060706120A0704121E17068
:10424000722284F8E42184F8E52184F8E61184F8E8
:10425000E701286984F8E801010A84F8E911010CF2
:1042600084F8EA11000E84F8EB01E86884F8EC01A8
:10427000010A84F8ED11010C84F8EE11000E84F8A7
:10428000EF01EA690123521CEA6268782146FEF7D1
:10429000F3FE00206871002268781146FEF7C4FE24
:1042A00000B10126304670BD2DE9F04100F5805483
:1042B000804620790027E8B1E56A607801232A4624
:1042C0004146FEF7D9FE08B1012713E00020207116
:1042D000206AA169281A88420CD2E67808E0A06911
:1042E0000123054460782A464146FEF7C5FE761E46
:1042F000022EF4D23846BDE8F08110B570B10168E5
:1043000061B101F580510A7842B1CA888088824241
:1043100004D14878FEF7A4FEC00700D0092010BDE4
:10432000AABBCCDD68656C6C6F2C207777772E721A
:10433000796D63752E636F6D206D616B6520697497
:10434000206561737921686176652066756E2E0D32
:104350000A00000000000000000000000000000053
:10436000000000000000000000000000000000004D
:10437000000000000000000000000000000000003D
:10438000000000000000000000000000000000002D
:10439000000000000000000000000000000000001D
:1043A00000000000010202030405060708090A0BC9
:1043B0000C0D0E0F101000000000000000000102A4
:1043C00003040607080900000000010203040004BA
:1043D00000020001800040002000100008000400DE
:1043E0000200000000800040002000100008004093
:1043F0000020001000080004000200001C44000817
:104400000000002048000000642600086444000802
:1044100048000020E0210000742600080000000091
:10442000F81000200100000081250008E5250008A3
:10443000C7250008F92500089D2500080000000098
:10444000000000000100000010000000000000005B
:1044500000127A00000000000000000000000000D0
:044460000000000058
:0400000508000131BD
:00000001FF
