:020000040800F2
:1000000020050020450100086B1700082912000890
:1000100069170008DD010008891A000800000000C7
:100020000000000000000000000000006F17000842
:10003000DF010008000000006D17000871170008BC
:100040005F0100085F0100085F0100085F01000810
:100050005F0100085F0100085F0100085F01000800
:100060005F0100085F0100085F0100085F010008F0
:100070005F0100085F0100085F0100085F010008E0
:100080005F0100085F0100085F0100085F010008D0
:100090005F0100085F0100085F0100085F010008C0
:1000A0005F0100085F0100085F0100085F010008B0
:1000B0005F0100085F0100085F0100085F010008A0
:1000C0005F0100085F0100085F0100085F01000890
:1000D0005F010008211A00085F0100085F010008A5
:1000E0005F0100085F0100085F0100085F01000870
:1000F0005F0100085F0100085F0100085F01000860
:100100005F0100085F0100085F0100085F0100084F
:100110005F0100085F0100085F0100085F0100083F
:100120005F0100085F0100085F0100085F0100082F
:10013000DFF80CD000F040F800480047BD1C000874
:10014000200500200648804706480047FEE7FEE7F6
:10015000FEE7FEE7FEE7FEE7FEE7FEE7FEE7FEE777
:10016000D317000831010008D2B201E000F8012BDA
:10017000491EFBD270470022F6E710B513460A4627
:1001800004461946FFF7F0FF204610BD30B50B4678
:10019000014600202022012409E021FA02F59D42B7
:1001A00005D303FA02F5491B04FA02F52844151E8B
:1001B000A2F10102F1DC30BD064C074D06E0E0681B
:1001C00040F0010394E8070098471034AC42F6D39E
:1001D000FFF7B2FF081E0008281E0008FEE7704760
:1001E00072B6FEE730B5B3F5804F05D06FF07041C1
:1001F00040F82210002030BD8C690B688D682343C5
:100200004C688989240144EA0524234343EA0141D7
:1002100050F82230014C23401943E9E70000F0CFA9
:1002200010B50A6850F8223023F0010340F822305C
:100230008C68082C23D000234A682243CC681C43D6
:100240000B6922431A434B690E4C1A43CB691A437C
:100250000B6A1A434B6A1A438B6A1A43CB6A1A43D6
:100260000B6B1A438B6913434A6B09681A4350F8A6
:100270002130A343134340F82130002010BD402318
:10028000DAE700007FFF0F0030B5D1E9003443EA20
:1002900004138C688D89240244EA054423430C8AA4
:1002A000074D00EB820005EB045423430C7D6D01E8
:1002B00005EB0464896923430B434360002030BD90
:1002C0000000F0FF10B590F821100022022905D09F
:1002D0000421816380F82020012010BD01680B6893
:1002E00023F00E030B6001680B6823F001030B6021
:1002F00090F84030C46B012101FA03F3636080F889
:10030000211080F82020104610BD00002DE9F05F7C
:1003100090F821100024022903D0042181630124D4
:1003200085E001680A6822F00E020A6001680A6826
:1003300022F001020A603F4E3E4FB215DFF8F4C0D2
:10034000DFF8F090DFF8ECA0DFF8E8B0DFF8E4E0E9
:100350000168783F13011502ACF1640CA9F1500952
:10036000AAF13C0AABF1280BAEF1140E4FF4801841
:10037000B14227D9B9420ED0614512D049451DD0AE
:10038000514518D0594518D0714501D1424615E064
:10039000294EB14201D1012210E0274E1436B1425C
:1003A00001D110220AE0244E2836B14206D0224A5A
:1003B0003C32914201D11A4600E02A461E49091FEB
:1003C0000A602BE0B94213D0614517D0494522D0CD
:1003D00051451DD059451DD0714501D142461AE005
:1003E000B14202D14FF0807215E0134EB14201D1FB
:1003F000012210E0104E1436B14201D110220AE061
:100400000D4E2836B14206D00B4A3C32914201D102
:100410001A4600E02A46074980394A60012180F8DF
:100420002110002180F82010416B01B1884720463F
:10043000BDE8F09F800002400804024070B5044609
:1004400000F04CF90546601C02D0044800780444D2
:1004500000F044F9401BA042FAD370BD1400002004
:1004600030B585B0002000900190029003901248B2
:10047000016800291ED1012101601048416941F441
:10048000807141614069022400F4807004904FF64D
:100490008070CDE90004032569460395084800F003
:1004A00013F84CF6B370CDE900046946039505488E
:1004B00000F00AF805B030BD040000200010024032
:1004C00000180140001401402DE9F84FDFF8C891F1
:1004D0000024A9F1040B23460F2709F1040AABF10C
:1004E000040ED1E00125A54006EA0502AA4276D114
:1004F000DFF8A8C14E68A6EB0C0866452BD00DDCD2
:10050000032E34D005DC36B3012E19D0022E2FD1A4
:100510001BE0112E16D0122E2AD119E0B8F5881F33
:1005200019D006DCB8F5803F15D0B8F5801F1FD173
:1005300011E0B8F5001F0ED0B8F5041F18D10AE07D
:10054000CB6815E0CB681B1D12E0CB6808330FE0C9
:10055000CB680C330CE08B682BB1012B4FF00803F8
:1005600003D0456104E0042302E0056100E00023BC
:10057000FF2A01D8064601E000F104064FEA84058F
:1005800001D9A5F12005D6F8008007FA05FC28EA74
:100590000C0803FA05F548EA0508C6F800804D681E
:1005A000ED0070D53E4DAE6946F00106AE61AD6915
:1005B00024F0030605F0010500953A4D06EB050C05
:1005C000DCF80850A607360F07FA06F825EA0805F2
:1005D000DFF8D480404503D14FF0000825E052E019
:1005E000DFF8C880404502D14FF001081DE0DFF878
:1005F000C080404502D14FF0020816E0DFF8B48019
:10060000404502D14FF003080FE0DFF8AC804045D1
:1006100002D14FF0040808E0DFF8A080404502D185
:100620004FF0050801E04FF0060808FA06F848EA1E
:100630000508CCF808804D68D9F80060ED024D46F9
:1006400001D5164300E096432E604D68DAF800604D
:10065000AD02554601D5164300E096432E604D6825
:10066000DBF80060AD035D4601D5164300E096431C
:100670002E604D68DEF80060ED03754601D5164327
:1006800000E096432E60641C0A681646E2407FF440
:1006900029AFBDE8F88F00000804014000001110E8
:1006A000001002400000014000080140000C014021
:1006B000001001400014014000180140001C0140DE
:1006C000C26821EA02030A4043EA0241016170471D
:1006D0000AB1016170470904FBE700000148806826
:1006E000704700001400002002488168027811441D
:1006F0008160704714000020074810B5016841F080
:1007000010010160032000F075F80F2000F006F8DA
:1007100000F024F8002010BD0020024070B50D4DFF
:1007200004464FF47A712878B1FBF0F00A49096861
:10073000B1FBF0F000F010FB48B9102C07D20022FA
:100740002146501E00F036F800206C6070BD01207C
:1007500070BD000014000020200000200C4808B5E7
:10076000816941F001018161816901F0010100911C
:10077000C16941F08051C161C06900F080500090B2
:100780000448416821F0E06141F00071416008BD1A
:100790000010024000000140002809DB00F01F02A9
:1007A000012191404009800000F1E020C0F80011D3
:1007B00070470000F0B40E4B1B680C46C3F30223D5
:1007C000C3F10705042D00D90425191D072901D2FD
:1007D000002300E0DB1E012606FA05F1491E214038
:1007E00099409E40761E16403143F0BC01F05EB940
:1007F0000CED00E0064900F0070208684FF6FF0321
:10080000184040EA0220034A104308607047000085
:100810000CED00E00000FA052DE9F0470F46050059
:1008200061D0434E306800F00700B84209D230680A
:1008300020F0070038433060306800F00700B8420D
:1008400051D128683B4C810712D5400703D5606819
:1008500040F4E06060602878000703D5606840F4E9
:10086000605060606068A96820F0F0000843606034
:100870002878C00728D06868012810D0216802288D
:1008800010D0890700292EDA616821F003010143A5
:100890006160FFF723FF804641F288390DE021684F
:1008A0008903EFE78901EDE7FFF718FFA0EB0801E7
:1008B000494502D90320BDE8F0876068696800F007
:1008C0000C00B0EB810FEFD1306800F00700B842A8
:1008D0000BD9306820F0070038433060306800F0F2
:1008E0000700B84201D00120E5E72878400705D588
:1008F0006068E96820F4E0600843606028780007D9
:1009000006D56068296920F4605040EAC100606043
:1009100000F038F86168084AC1F30311515CC8401F
:100920000649086006480068FFF7F8FE0020C2E7A5
:100930000020024000100240EE1D000820000020B0
:10094000180000200448054900684968044AC1F3BA
:100950000221515CC8407047200000200010024076
:10096000FE1D00080448054900684968044AC1F3AF
:10097000C221515CC8407047200000200010024096
:10098000FE1D00080E4A51680E4801F00C03042BAE
:1009900011D0082B0FD10C48C1F38343C903C05CAD
:1009A0000AD55168084AC1F34041921E515C054A7C
:1009B0005043B0FBF1F070470449484370470000D2
:1009C0000010024000127A00DE1D000800093D0000
:1009D0002DE9F84F040070D02078C04DC00749D0F1
:1009E0006868C0F38100012807D06868C0F38100FF
:1009F000022809D16868C00306D52868800339D564
:100A000060680028E7D035E06068B0F5803F0BD023
:100A100010B1B0F5A02F11D0286820F480302860E4
:100A2000286820F4802002E0286840F480302860A4
:100A3000606890B1FFF752FE06460AE0286840F46D
:100A400080202860F0E700BFFFF748FE801B642885
:100A500073D828688003F7D50CE0FFF73FFE064601
:100A600005E000BFFFF73AFE801B6428F0D8286835
:100A70008003F7D420789A4E80074FF001094FF099
:100A8000000839D5686810F00C0F07D06868C0F30B
:100A90008100022809D16868C00306D4286880074D
:100AA00014D52069012808D110E02069B0B1C6F83A
:100AB0000090FFF713FE074605E00AE1FFF70EFE80
:100AC000C01B0228C4D828688007F7D52868616948
:100AD00020F0F80040EAC10028600DE0C6F8008070
:100AE000FFF7FCFD074604E0FFF7F8FDC01B0228F6
:100AF00023D828688007F7D4207800072CD57948B8
:100B0000A169D9B1C0F80090FFF7E8FD074604E0FD
:100B1000FFF7E4FDC01B02280FD8686A8007F7D5ED
:100B200071484FF4FA510068B0FBF1F0009000BF3B
:100B30000098411E0091FAD20EE080E0C0F80080DB
:100B4000FFF7CCFD074604E0FFF7C8FDC01B0228F5
:100B500075D8686A8007F7D42078400760D5E869BF
:100B60000027C00008D4E86940F08050E861E869D7
:100B7000012700F0805000905C480168C90513D43B
:100B80000168834641F480710160FFF7A7FD82464A
:100B900006E000BFFFF7A2FDA0EB0A0064284ED8D4
:100BA000DBF80000C005F5D5E06801280AD008B1DF
:100BB000052813D0286A20F001002862286A20F056
:100BC000040002E0286A40F001002862E06841F277
:100BD000883B98B1FFF782FD82460BE0286A40F01F
:100BE00004002862EEE700BFFFF778FDA0EB0A01E2
:100BF00059455AD8286A8007F6D50CE0FFF76EFDF4
:100C0000824605E0FFF76AFDA0EB0A0159454CD882
:100C1000286A8007F6D41FB1E86920F08050E861A7
:100C2000E06988B36968C1F38101022944D00228D0
:100C3000C6F8608004D0FFF751FD044638E034E088
:100C4000FFF74CFD074604E0FFF748FDC01B0228F4
:100C50002BD828688001F7D4206AB0F5803F05D1F1
:100C60006868A16820F4003008436860D4E908018E
:100C70000843696821F4741108436860C6F86090FD
:100C8000FFF72CFD044606E025E000BFFFF726FD38
:100C9000001B022809D828688001F7D51BE000BF97
:100CA000FFF71CFD001B022802D90320BDE8F88FC6
:100CB00028688001F4D40EE00128F7D06868226A21
:100CC00000F48031914204D1616A00F470108842CE
:100CD00001D00120EAE70020E8E700000010024010
:100CE0000000424280044242200000200070004088
:100CF00070B515460E46040007D0A069B0F5807F98
:100D000003D094F8410010B107E0012070BD00202D
:100D100084F84000204600F01DF804F10801206826
:100D2000FFF77EFA3146A2682068FFF7ADFAD4E9F2
:100D300001022946236BFFF755FAA168206850F895
:100D4000212042F0010240F82120012084F84100D6
:100D5000002070BDFFF784BB10B5401EB0F1807F4E
:100D600001D3012010BD4FF0E02460610F21601716
:100D700000F09CFE0020A06107202061002010BD33
:100D800070477047F8B5016804460868CA684B693F
:100D900010F00F0F4FF0000559D003F0010602F4D8
:100DA0009077374365D0C10705D0D10503D5616C75
:100DB00041F001016164410705D5D90703D0616C99
:100DC00041F002016164810705D5D90703D0616C48
:100DD00041F004016164010707D502F020013143AD
:100DE00003D0616C41F008016164616C00293AD064
:100DF000800604D5900602D5204600F01AFD206832
:100E00004069616CC0F38010090700D460B32046CC
:100E100000F0E8FC20684069400621D520681430C5
:100E200050E8001F21F0400140E80012002AF5D1EF
:100E3000E06BA8B16D494163E06BFFF767FA0028EA
:100E400011D0E06B416B01B0BDE8F040084783066C
:100E50000FD593060DD52046BDE8F84000F0E9BC5B
:100E60002046FFF78EFFF8BD2046FFF78AFF656436
:100E7000F8BD266B2023012E7CD1C6067AD5D60676
:100E800078D508684868009048694FF00206400627
:100E900040D5E16B086840680004000CE8D0A28DE2
:100EA0008242E5D9E085886920282DD020680C3061
:100EB00050E8001F21F4807140E80012002AF5D1AB
:100EC0002068143050E8001F21F0010140E80012B2
:100ED000002AF5D12068143050E8001F21F04001AD
:100EE00040E80012002AF5D184F8423025632068DA
:100EF0000C3050E8001F21F0100140E80012002AD9
:100F0000F5D1E06BFFF7DEF96663A08DE18D401A45
:100F100081B22AE0A08DE18D401A81B2E08D0028D7
:100F2000A6D00029A4D022680C3252E8000F20F489
:100F3000907042E80007002FF5D12068143050E887
:100F4000002F22F0010240E80027002FF5D184F89D
:100F50004230256320680C3050E8002F22F0100248
:100F600040E80023002BF5D166632046FFF708FF19
:100F7000F8BDFFE705062BD5150629D594F84100E5
:100F80002128F5D1A068B0F5805F01D12069B0B10A
:100F9000206A411C2162216800784860E08C401E74
:100FA0000004000CE084E3D12068C16821F08001D6
:100FB000C1602068C16841F04001C160D8E7206A83
:100FC0000088C0F308004860206A801C2062E5E7C2
:100FD0004006CDD55006CBD5CA68204622F0400247
:100FE000CA6084F8413000F01EF9C1E7D517000847
:100FF00070B5040004D094F84100002510B106E05B
:10100000012070BD84F84050204600F023F82420D1
:1010100084F841002068C16821F40051C160204675
:1010200000F068FC2068016921F4904101612068AA
:10103000416921F02A0141612068C16841F40051F1
:10104000C1606564202084F8410084F84200656333
:10105000002070BD30B585B0002400940194029446
:1010600003940068184988422CD11848816941F4DA
:1010700080418161816901F480410491816941F07D
:10108000040181618069124D00F0040004904FF466
:1010900000700090022001900320039069462846CA
:1010A000FFF712FA2815CDE9000469462846029494
:1010B000FFF70AFA002211462520FFF77BFB2520C7
:1010C000FFF76AFB05B030BD003801400010024058
:1010D000000801402DE9F84F044690F842009A4676
:1010E00016460D46202802D00220BDE8F88FB5B183
:1010F000AEB100206064222184F842102063FFF723
:10110000EDFAA6858146E685A0684FF48058202731
:10111000404501D1206920B12E46002529E001205B
:10112000E3E7002625E04B46002220212046CDF8AB
:1011300000A000F03BFC18B184F842700320D4E713
:1011400026B1A06840451AD038B108E02068406850
:10115000C0F3080025F8020B08E0206978B1206888
:10116000406800F07F0000BF06F8010BE08D401ED4
:10117000E085E08D0028D6D184F84270B5E720687C
:101180004068F1E770472DE9F843044690F84100C4
:10119000984616460D46202802D00220BDE8F88366
:1011A00085B17EB100206064212084F84100FFF702
:1011B00095FAA6848146E684A0682027B0F5805F72
:1011C00002D003E00120E9E7206910B12E46002596
:1011D0000EE000260CE08021204600F0E7FBA8B9D5
:1011E000C6B116F8010B21684860E08C401EE0840F
:1011F000E08C4B464FF00002CDF800800028EAD189
:101200004FF04001204600F0D1FB40B184F841701E
:101210000320C3E735F8020BC0F30800E3E784F8C6
:1012200041700020BAE77047FEE7000010B54FF0AC
:10123000C041042008800520FFF700F90B48018811
:10124000018801884FF6FF72008802EA01210843F5
:10125000A0F51341413905D0A0F50541523903D01D
:10126000002010BD012010BD022010BD0000026052
:101270004FF496312C22CB041A80034A00E01080F0
:10128000491EFCD270470000000002602DE9F05FAB
:1012900000224FF48051B948FFF71AFA6420FFF793
:1012A000CDF8B74C002202212046FFF711FA642046
:1012B000FFF7C4F8012202212046FFF709FA78203F
:1012C000FFF7BCF8FFF7B2FFAE494870B8B1002293
:1012D000A404AD49C1233027032512264FF0640929
:1012E0004FF0CF084FF0ED0C4FF0810A4FF0E80EB1
:1012F0004FF0850B012803D002287CD1A1E0FEE746
:10130000A4F800800A800B800F80A4F800C0A1F828
:1013100000900D800E80A1F800A0A4F800E0A1F8D4
:1013200000B04FF01008A1F800807A200880CB2090
:101330002080392008802C2008800A8034200880F2
:1013400002200880F720208020200880EA202080CA
:101350000A800A80C02020801B20088023800E8005
:10136000C52020803F2008803C200880C7202080A6
:10137000912008804FF0360EA4F800E04FF0480BA3
:10138000A1F800B03A20208055200880B1202080AC
:101390000A8018200880B62020800A200880A22019
:1013A0000880F22020800A802620208001200880EA
:1013B000E02020800F20088031260E802B270F8010
:1013C0004FF00C0AA1F800A00E270F804FF008097B
:1013D000A1F800904FF04E0CA1F800C04FF0F10CB6
:1013E000A1F800C04FF0370CA1F800C04FF0070C77
:1013F000A1F800C000E0B8E0A1F800800D800F80E7
:101400004FF00908A1F800800A804FF0E108A4F825
:1014100000800A800F8014220A800D8011220A8029
:10142000A1F800C00E800B80A1F800B0A1F80090D8
:101430000880A1F800A00E80A1F800E00880292013
:1014400092E0A4F800800A800B800F80A4F800C00E
:10145000A1F800900D800E80A1F800A0A4F800E093
:10146000A1F800B01020088078200880CB202080D0
:10147000392008804FF02C0AA1F800A00A803420FF
:10148000088002200880F725258020250D80EA2588
:1014900025800A800A80C025258021250D80238093
:1014A0004FF01109A1F80090C52323804FF02D08BB
:1014B000A1F8008033230B80362323800A803A234F
:1014C000238055230B80B12323800A8017230B80B0
:1014D000B62525800A250D80A2250D80F6252580BC
:1014E00001250D800F80F22727800A80262727807C
:1014F0000D80E0252580D0270F800A8008804FF0DE
:10150000070CA1F800C00B250D801A250D80312590
:101510000D8054250D8040250D8029250D800E80DD
:101520000E800E800B80E12323800F800A800880CC
:10153000A1F800C00520088025200880A1F80080BF
:1015400044200880452008801C20088018220A803A
:1015500016220A8008801D200880A4F8009096209A
:10156000FEF76CFF258050462080BDE8F05FEF223B
:10157000002140F23F13084600F008B80014014073
:10158000001801400C0000200000026070B54FF010
:10159000C0452A242C800B4C060A2680C0B220802D
:1015A000100A2080D0B220802B202880080A2080BA
:1015B000C8B22080180A2080D8B220802C20288031
:1015C00070BD00000000026000B587B01C216846B5
:1015D000FEF7D1FD17484FF0204100F10C0C0160DF
:1015E0001549416000210822102381608CE80E001B
:1015F0008161C16153020162C0E90913C1620163E3
:10160000416381630091CDE9011250060391049179
:10161000CDE90510002269460648FFF769FB08B1CD
:10162000FEF7DEFD0548C16941F48061C16107B084
:1016300000BD00008C000020040100A0000001405B
:101640002DE9F04186B000243448009401940294BE
:101650000394816941F010018161816901F01001F9
:101660000491816941F004018161816901F0040103
:101670000491816941F040018161816901F040017B
:101680000491816941F020018161816901F02001AB
:101690000491816941F0080181618069204D00F069
:1016A00008004FF482570490012239462846FFF77C
:1016B0000FF81C4E012210213046FFF709F8DFF821
:1016C0006880012202214046FFF702F80C20CDE994
:1016D0000004694615480294FEF7F6FE0124CDE9A0
:1016E00000740327CDE9024769462846FEF7ECFE61
:1016F0001020CDE90004CDE9024769463046FEF7E7
:10170000E3FE0220CDE90004CDE9024769464046E8
:10171000FEF7DAFE06B0BDE8F081000000100240DE
:1017200000140140000C0140001801400008014075
:101730000C4810B50A4901604FF4E13141600021C5
:1017400081600C22C160C0E904128161C161FFF7B0
:101750004FFC002803D0BDE81040FEF741BD10BD8E
:1017600000380140D4000020FEE7FEE770477047D4
:10177000FEF7BABF30B58FB028216846FEF7FBFCF4
:1017800014210AA8FEF7F7FC01210804CDE9001096
:101790000024029402250491CDE907504FF4E01093
:1017A00009906846FFF714F908B172B6FEE70F20FA
:1017B000CDE90A054FF48060CDE90C4002210AA86A
:1017C0000E94FFF729F8002801D072B6FEE70FB09B
:1017D00030BD704710B5406A0021C185C184FFF754
:1017E000D0FA10BD01680C3151E8002F22F490723C
:1017F00041E80023002BF5D10168143151E8002F96
:1018000022F0010241E80023002BF5D1016B0129F0
:1018100009D101680C3151E8002F22F0100241E893
:101820000023002BF5D1202180F842100021016314
:10183000704708B590F84210222901D0022008BD57
:1018400082684FF480539A4201D1016921B1816AC3
:101850009A421BD04AB10AE00268816A5268C2F318
:1018600008020A80816A891C08E0026972B1026874
:10187000526802F07F020A70816A491C8162C18D40
:10188000491E0904090CC18503D01BE00268526897
:10189000F1E70168CA6822F02002CA600168CA68DC
:1018A00022F48072CA6001684A6922F001024A612A
:1018B000202180F8421000214163026B012A03D0ED
:1018C000FFF760FC002008BD016301680C3151E89E
:1018D000002F22F0100241E80023002BF5D101680F
:1018E0000A68D20602D50A6849680091818DFFF71F
:1018F00047FAE7E770B5044600680169E26821F439
:101900004051114301612169A0680843616908439E
:101910002168CA6841F20C639A430243CA60206896
:101920004169A26921F44071114341611E49206857
:10193000884202D1FFF716F801E0FFF703F800EB49
:10194000C00101EB0012606864218000B2FBF0F37B
:10195000B3FBF1F36FF018067343B2FBF0F5B2FB83
:10196000F0F605EB8305322303EB0515B5FBF1F526
:10197000B6FBF1F605F0F00505EB0615B2FBF0F647
:10198000B2FBF0F0B0FBF1F06FF01802504306EB41
:10199000800003EB0010B0FBF1F0216800F00F00B5
:1019A0002844886070BD0000003801402DE9F843EC
:1019B000984617460D460446089E24E0701C22D027
:1019C000FEF78CFEA0EB0800B0421AD8CEB120681A
:1019D000C168490717D5802D15D0402D13D0016857
:1019E000C94309070FD401680025406800902046CC
:1019F000FFF7F8FE0820606484F840500120BDE83D
:101A0000F8830320FBE72068006835EA000004D073
:101A10000020B842D2D00020F1E70120F9E7000011
:101A2000F8B5154D286800684FF00006C0438006E1
:101A300012D4134C11490023207801220144401C88
:101A400020702846FFF746FB2078642800D32670D4
:101A500029686FF02000086028680168C943C9063A
:101A600005D4016840680749009001200870BDE86E
:101A7000F8400148FFF786B9D40000202800002074
:101A80000100002000000020FEE700000FB4054B1D
:101A900010B503A9044A029800F028F810BC5DF8BC
:101AA00014FB0000A51C0008240000200907090EF3
:101AB000002804DB00F1E02080F80014704700F0FB
:101AC0000F0000F1E02080F8141D704702E008C804
:101AD000121F08C1002AFAD170477047002001E0A8
:101AE00001C1121F002AFBD1704700002DE9FF4FF2
:101AF0008BB09A460F460546002606E025280BD0F7
:101B000052460D9990476D1C761C28780028F5D117
:101B10000FB03046BDE8F08F0024A0460122604996
:101B200000E0044315F8013F203B02FA03F00842AD
:101B3000F7D128782E2817D115F8010F44F00404A6
:101B40002A280ED06FF02F022878A0F13001092941
:101B50000AD808EB880102EB410100EB01086D1C7B
:101B6000F2E757F8048B6D1C287869283ED006DC14
:101B70000028CDD063280BD0642804D136E0732828
:101B800010D075284BD052460D999047761C85E0B1
:101B900017F8040B8DF8000000208DF80100E946CD
:101BA000012003E057F8049B4FF0FF3061074FF02E
:101BB000000401D40AE0641C44450DDA8442FADBD7
:101BC00019F804100029F6D106E0641C8442FCDBFD
:101BD00019F804100029F8D1264404E019F8010B83
:101BE00052460D999047641EF8D257E001CF4FF04E
:101BF0000A0B002802DA40422D2102E0210504D51B
:101C00002B218DF82410012103E0E10705D02021CC
:101C1000F7E70DF1200908910CE00021F9E701CF69
:101C20004FF00A0BF9E75946FEF7B0FA01F130021E
:101C300009F8012D0028F6D1ADEB090000F1200BC9
:101C4000600701D44FF00108D84502DDA8EB0B0076
:101C500000E000208046002406E009A85246005D0E
:101C60000D999047641C761C08988442F5DB04E0CB
:101C7000302052460D999047761CB8F10001A8F12A
:101C80000108F5DC05E019F8010B52460D99904763
:101C9000761CBBF10001ABF1010BF4DC6D1C34E7E9
:101CA0000928010013B54FF0FF33012269460248AD
:101CB000FFF769FA00981CBDD4000020FEF71CFD58
:101CC000FFF758FDFFF7BCFCFFF732FDFFF77CFC88
:101CD000FFF7DCFA29A0FFF7D9FE4FF47A70FEF780
:101CE000ADFBFFF7A3FA4FF47844012806D0022891
:101CF00009D00020FFF7BCFA24A009E02046FFF736
:101D0000B7FA25A004E04FF4FC60FFF7B1FA25A074
:101D1000FFF7BCFE0021A02378220846FFF736FC1F
:101D20002046FFF7A5FA4FF4A073F022A0217820F7
:101D3000FFF72CFC0020FFF79BFA1D4F1D4DDFF82D
:101D4000788000262878012812D12E7069781BA08F
:101D5000FFF79CFE002404E0395D1FA0FFF796FE0C
:101D6000641C68788442F7DB07A0FFF78FFE6E7073
:101D700010214046FEF7A4FCE4E7000068656C6CA7
:101D80006F2C656E6A6F79210D0A00004C43445F29
:101D9000554E4B4E4F5700004C43445F494C493918
:101DA000333431004C43445F53543737383956008D
:101DB0002800002000000020000C01406C656E67C8
:101DC0007468206F6620727820646174613A2025FF
:101DD00064210D0A000000002563000001020203D7
:101DE0000405060708090A0B0C0D0E0F1010000061
:101DF00000000000000001020304060708090000BB
:101E00000000010203040000281E0008000000205A
:101E100028000000CC1A0008501E000828000020EE
:101E2000F8040000DC1A00080000000000000000B8
:101E3000000000000000F000400100000100000070
:101E4000100000000000000000127A0000000000F6
:0400000508000131BD
:00000001FF
