:020000040800F2
:10000000F80F0020450100085F150008ED130008F7
:100010005D15000883020008F51B000800000000C1
:10002000000000000000000000000000F7170008BA
:100030008502000800000000F5170008B518000848
:100040005F0100085F0100085F0100085F01000810
:100050005F0100085F0100085F0100085F01000800
:100060005F0100085F0100085F0100085F010008F0
:100070005F0100085F0100085F0100085F010008E0
:100080005F0100085F0100085F0100085F010008D0
:100090005F0100085F0100085F0100085F010008C0
:1000A0005F0100085F0100085F0100085F010008B0
:1000B0005F0100085F0100085F0100085F010008A0
:1000C0005F0100085F0100085F0100085F01000890
:1000D0005F0100088D1B00085F0100085F01000838
:1000E0005F0100085F0100085F0100085F01000870
:1000F0005F0100085F0100085F0100085F01000860
:100100005F0100085F0100085F0100085F0100084F
:100110005F0100085F0100085F0100085F0100083F
:100120005F0100085F0100085F0100085F0100082F
:10013000DFF80CD000F03CF800480047031D000831
:10014000F80F00200648804706480047FEE7FEE714
:10015000FEE7FEE7FEE7FEE7FEE7FEE7FEE7FEE777
:100160003D190008310100080649074A0868504354
:1001700043F23902104408604008704701490860A2
:1001800070470000940600206D4EC641D2B201E0D7
:1001900000F8012B491EFBD270470022F6E710B58C
:1001A00013460A4604461946FFF7F0FF204610BDE5
:1001B000064C074D06E0E06840F0010394E80700B4
:1001C00098471034AC42F6D3FFF7B6FF441D000841
:1001D000641D000870B58C1810F8015B15F007035A
:1001E00001D110F8013B2A1106D110F8012B03E0D0
:1001F00010F8016B01F8016B5B1EF9D12B0705D4D8
:100200000023521E0DD401F8013BFAE710F8013B20
:10021000CB1A921C03E013F8015B01F8015B521E3C
:10022000F9D5A142D8D3002070BD000070B50446B6
:1002300000688168C943C90717D1816821F00101AD
:10024000816000F017FB05460AE000BF00F012FBDA
:10025000401B022804D920688068C043C00706D02C
:1002600020688068C043C007F0D0002070BDA06A3D
:1002700040F01000A062E06A40F00100E06201205E
:1002800070BDFEE770470000F8B50024009490F8B8
:1002900024202546012A12D0012280F824204A6811
:1002A0001F23072A0DD20668776B521E02EB8202CB
:1002B00093409F430B6893401F43776319E00220EC
:1002C000F8BD06680D2A0AD2376BD21F02EB8202F4
:1002D00093409F430B6893401F43376309E0F76ADD
:1002E0000D3A02EB820293409F430B6893401F43F9
:1002F000F7620A68072306680A2A0AD3F7680A3AE7
:1003000002EB420293409F438B6893401F43F76088
:1003100008E0376902EB420293409F438B689340A9
:100320001F4337610A68102A01D0112A20D1124BCD
:1003300002689A4217D193681B0219D4936843F458
:10034000000393600968102912D10C490C4A09680E
:10035000B1FBF2F101EB8101490000E0491E00917F
:100360000029FBD104E0816A41F02001816201246F
:1003700080F824502046F8BD00240140900600205B
:1003800040420F002DE9F04104004FF000057FD0FE
:10039000A06A002628B9E66284F82460204600F0AE
:1003A00081F82046FFF742FFA16AC90600D420B1B8
:1003B000A06A40F01000A0626AE0A16A21F48851AE
:1003C00041F00201A162334923688B42E16904D103
:1003D000B1F5402F01D14FF40021277B4FF4807CF1
:1003E00041EA470261680A43A168614508D00129D2
:1003F00006D0002194F814E0BEF1010F02D00AE00B
:100400006146F7E7C7B1A76A47F02007A762E76A26
:1004100047F00107E7625F6827F469470F435F60B1
:10042000236899681C4F394011439960A168614560
:100430000BD0012909D00CE0DFF860E0A7690EEBD2
:1004400047370F4347F40061E5E7218A0D05A5F51D
:1004500080152168CB6A23F470032B43CB6221689B
:1004600089680F4B1940914208D1E662A16A21F0D8
:10047000020141F00101A162BDE8F081A06A20F013
:10048000020040F01000A062E06A40F00100E0626B
:100490000120F1E7003C0140FDF7E1FF00E0FFFF34
:1004A000FE0E1FFF08B500680649884208D10648BD
:1004B000816941F400718161806900F400700090ED
:1004C00008BD0000002401400010024010B590F863
:1004D00021100022022905D00421816380F8202008
:1004E000012010BD01680B6823F00E030B6001684A
:1004F0000B6823F001030B6090F84030C46B0121BE
:1005000001FA03F3636080F8211080F82020104680
:1005100010BD00002DE9F05F90F8211000240229A1
:1005200003D004218163012485E001680A6822F078
:100530000E020A6001680A6822F001020A603F4E5A
:100540003E4FB215DFF8F4C0DFF8F090DFF8ECA012
:10055000DFF8E8B0DFF8E4E00168783F1301150246
:10056000ACF1640CA9F15009AAF13C0AABF1280BDB
:10057000AEF1140E4FF48018B14227D9B9420ED013
:10058000614512D049451DD0514518D0594518D064
:10059000714501D1424615E0294EB14201D10122F7
:1005A00010E0274E1436B14201D110220AE0244E49
:1005B0002836B14206D0224A3C32914201D11A4635
:1005C00000E02A461E49091F0A602BE0B94213D0F9
:1005D000614517D0494522D051451DD059451DD000
:1005E000714501D142461AE0B14202D14FF080720A
:1005F00015E0134EB14201D1012210E0104E143625
:10060000B14201D110220AE00D4E2836B14206D087
:100610000B4A3C32914201D11A4600E02A46074972
:1006200080394A60012180F82110002180F82010D3
:10063000416B01B188472046BDE8F09F8000024031
:100640000804024070B5044600F014F90546601C29
:1006500002D004480078044400F00CF9401BA0428A
:10066000FAD370BD840600202DE9F84FDFF8C89159
:100670000024A9F1040B23460F2709F1040AABF16A
:10068000040ED1E00125A54006EA0502AA4276D172
:10069000DFF8A8C14E68A6EB0C0866452BD00DDC30
:1006A000032E34D005DC36B3012E19D0022E2FD103
:1006B0001BE0112E16D0122E2AD119E0B8F5881F92
:1006C00019D006DCB8F5803F15D0B8F5801F1FD1D2
:1006D00011E0B8F5001F0ED0B8F5041F18D10AE0DC
:1006E000CB6815E0CB681B1D12E0CB6808330FE028
:1006F000CB680C330CE08B682BB1012B4FF0080357
:1007000003D0456104E0042302E0056100E000231A
:10071000FF2A01D8064601E000F104064FEA8405ED
:1007200001D9A5F12005D6F8008007FA05FC28EAD2
:100730000C0803FA05F548EA0508C6F800804D687C
:10074000ED0070D53E4DAE6946F00106AE61AD6973
:1007500024F0030605F0010500953A4D06EB050C63
:10076000DCF80850A607360F07FA06F825EA080550
:10077000DFF8D480404503D14FF0000825E052E077
:10078000DFF8C880404502D14FF001081DE0DFF8D6
:10079000C080404502D14FF0020816E0DFF8B48077
:1007A000404502D14FF003080FE0DFF8AC80404530
:1007B00002D14FF0040808E0DFF8A080404502D1E4
:1007C0004FF0050801E04FF0060808FA06F848EA7D
:1007D0000508CCF808804D68D9F80060ED024D4658
:1007E00001D5164300E096432E604D68DAF80060AC
:1007F000AD02554601D5164300E096432E604D6884
:10080000DBF80060AD035D4601D5164300E096437A
:100810002E604D68DEF80060ED03754601D5164385
:1008200000E096432E60641C0A681646E2407FF49E
:1008300029AFBDE8F88F0000080401400000111046
:10084000001002400000014000080140000C01407F
:10085000001001400014014000180140001C01403C
:100860008068084000D0012070470AB101617047DC
:100870000904FBE7014880687047000084060020F7
:100880000248816802781144816070478406002024
:10089000074810B5016841F010010160032000F025
:1008A00075F80F2000F006F800F024F8002010BDC5
:1008B0000020024070B50D4D04464FF47A7128783F
:1008C000B1FBF0F00A490968B1FBF0F000F076FBEB
:1008D00048B9102C07D200222146501E00F036F8ED
:1008E00000206C6070BD012070BD000084060020F7
:1008F000900600200C4808B5816941F00101816132
:10090000816901F001010091C16941F08051C1612B
:10091000C06900F0805000900448416821F0E06117
:1009200041F00071416008BD00100240000001402C
:10093000002809DB00F01F020121914040098000DE
:1009400000F1E020C0F8001170470000F0B40E4B39
:100950001B680C46C3F30223C3F10705042D00D91D
:100960000425191D072901D2002300E0DB1E012602
:1009700006FA05F1491E214099409E40761E164018
:100980003143F0BC01F09EB90CED00E0064900F0E7
:10099000070208684FF6FF03184040EA0220034AA6
:1009A00010430860704700000CED00E00000FA05FD
:1009B0002DE9F84305460078354CC00754D0E0696E
:1009C0000026C00008D4E06940F08050E061E06992
:1009D000012600F0805000902E480168C90512D40D
:1009E0000168804641F480710160FFF743FF0746CC
:1009F00005E000BFFFF73EFFC01B642823D8D8F8EE
:100A00000000C005F6D5206A10F4407021D0A988F6
:100A100001F4407181421CD0206A1F49012220F458
:100A200040700A6000220A602062C00711D0FFF700
:100A300021FF074641F2883808E000BFFFF71AFFA0
:100A4000C11B414502D90320BDE8F883206A800715
:100A5000F4D5206A696820F44070084320621EB112
:100A6000E06920F08050E0612878800705D5606853
:100A7000A96820F44040084360602878C00605D586
:100A80006068696920F48000084360600020DBE74B
:100A90000010024000700040400442422DE9F0473F
:100AA0000F46050061D0434E306800F00700B842A1
:100AB00009D2306820F0070038433060306800F019
:100AC0000700B84251D128683B4C810712D5400736
:100AD00003D5606840F4E06060602878000703D5C3
:100AE000606840F4605060606068A96820F0F000C1
:100AF000084360602878C00728D06868012810D0B3
:100B00002168022810D0890700292EDA616821F0B7
:100B1000030101436160FFF7ADFE804641F2883971
:100B20000DE021688903EFE78901EDE7FFF7A2FEF9
:100B3000A0EB0801494502D90320BDE8F0876068B1
:100B4000696800F00C00B0EB810FEFD1306800F065
:100B50000700B8420BD9306820F0070038433060F6
:100B6000306800F00700B84201D00120E5E728789E
:100B7000400705D56068E96820F4E06008436060DC
:100B80002878000706D56068296920F4605040EA9B
:100B9000C100606000F038F86168084AC1F30311D1
:100BA000515CC8400649086006480068FFF782FEAD
:100BB0000020C2E700200240001002402C1D000867
:100BC000900600208806002004480549006849680E
:100BD000044AC1F30221515CC840704790060020CE
:100BE000001002403C1D000804480549006849689F
:100BF000044AC1F3C221515CC840704790060020EE
:100C0000001002403C1D00080E4A51680E4801F0D9
:100C10000C03042B11D0082B0FD10C48C1F38343D4
:100C2000C903C05C0AD55168084AC1F34041921E0D
:100C3000515C054A5043B0FBF1F07047044948430A
:100C4000704700000010024000127A001C1D0008CE
:100C500000093D0030B585B00020029002200190CF
:100C6000032003900B4C4FF480700090A0690D4658
:100C700040F00400A061A069694600F004000490FF
:100C80000548FFF7F1FC606820F0E06028436060F1
:100C900005B030BD00100240000801402DE9F84FBA
:100CA000040070D02078C04DC00749D06868C0F3F8
:100CB0008100012807D06868C0F38100022809D1AB
:100CC0006868C00306D52868800339D560680028A5
:100CD000E7D035E06068B0F5803F0BD010B1B0F5DB
:100CE000A02F11D0286820F480302860286820F4D4
:100CF000802002E0286840F480302860606890B16D
:100D0000FFF7B8FD06460AE0286840F48020286016
:100D1000F0E700BFFFF7AEFD801B642873D828689A
:100D20008003F7D50CE0FFF7A5FD064605E000BF00
:100D3000FFF7A0FD801B6428F0D828688003F7D453
:100D400020789A4E80074FF001094FF0000839D5FE
:100D5000686810F00C0F07D06868C0F381000228A3
:100D600009D16868C00306D42868800714D52069B3
:100D7000012808D110E02069B0B1C6F80090FFF753
:100D800079FD074605E00AE1FFF774FDC01B022864
:100D9000C4D828688007F7D52868616920F0F80072
:100DA00040EAC10028600DE0C6F80080FFF762FD50
:100DB000074604E0FFF75EFDC01B022823D8286821
:100DC0008007F7D4207800072CD57948A169D9B1DC
:100DD000C0F80090FFF74EFD074604E0FFF74AFD1C
:100DE000C01B02280FD8686A8007F7D571484FF4F6
:100DF000FA510068B0FBF1F0009000BF0098411E6E
:100E00000091FAD20EE080E0C0F80080FFF732FDDA
:100E1000074604E0FFF72EFDC01B022875D8686A5C
:100E20008007F7D42078400760D5E8690027C00024
:100E300008D4E86940F08050E861E869012700F0D3
:100E4000805000905C480168C90513D4016883464E
:100E500041F480710160FFF70DFD824606E000BF9E
:100E6000FFF708FDA0EB0A0064284ED8DBF800006D
:100E7000C005F5D5E06801280AD008B1052813D0CF
:100E8000286A20F001002862286A20F0040002E0AD
:100E9000286A40F001002862E06841F2883B98B17E
:100EA000FFF7E8FC82460BE0286A40F00400286265
:100EB000EEE700BFFFF7DEFCA0EB0A0159455AD868
:100EC000286A8007F6D50CE0FFF7D4FC824605E0DF
:100ED000FFF7D0FCA0EB0A0159454CD8286A8007DF
:100EE000F6D41FB1E86920F08050E861E06988B36A
:100EF0006968C1F38101022944D00228C6F86080E4
:100F000004D0FFF7B7FC044638E034E0FFF7B2FC4A
:100F1000074604E0FFF7AEFCC01B02282BD8286868
:100F20008001F7D4206AB0F5803F05D16868A168D8
:100F300020F4003008436860D4E908010843696878
:100F400021F4741108436860C6F86090FFF792FCC2
:100F5000044606E025E000BFFFF78CFC001B0228DA
:100F600009D828688001F7D51BE000BFFFF782FC95
:100F7000001B022802D90320BDE8F88F28688001F1
:100F8000F4D40EE00128F7D06868226A00F48031BA
:100F9000914204D1616A00F47010884201D00120AE
:100FA000EAE70020E8E700000010024000004242AB
:100FB00080044242900600200070004010B5401EA0
:100FC000B0F1807F01D3012010BD4FF0E0246061BB
:100FD0000F21601700F076FE0020A061072020613D
:100FE000002010BD70477047F8B5016804460868D6
:100FF000CA684B6910F00F0F4FF0000559D003F08D
:10100000010602F49077374365D0C10705D0D105BA
:1010100003D5616C41F001016164410705D5D90731
:1010200003D0616C41F002016164810705D5D907E5
:1010300003D0616C41F004016164010707D502F03F
:101040002001314303D0616C41F008016164616C9F
:1010500000293AD0800604D5900602D5204600F03B
:101060009DFC20684069616CC0F38010090700D4C2
:1010700060B3204600F06BFC20684069400621D533
:101080002068143050E8001F21F0400140E80012B1
:10109000002AF5D1E06BA8B16D494163E06BFFF721
:1010A00039FA002811D0E06B416B01B0BDE8F04087
:1010B000084783060FD593060DD52046BDE8F840B6
:1010C00000F06CBC2046FFF78EFFF8BD2046FFF70E
:1010D0008AFF6564F8BD266B2023012E7CD1C606ED
:1010E0007AD5D60678D508684868009048694FF0E8
:1010F0000206400640D5E16B086840680004000C19
:10110000E8D0A28D8242E5D9E085886920282DD0DB
:1011100020680C3050E8001F21F4807140E8001274
:10112000002AF5D12068143050E8001F21F0010199
:1011300040E80012002AF5D12068143050E8001F62
:1011400021F0400140E80012002AF5D184F8423035
:10115000256320680C3050E8001F21F0100140E8A2
:101160000012002AF5D1E06BFFF7B0F96663A08D9D
:10117000E18D401A81B22AE0A08DE18D401A81B242
:10118000E08D0028A6D00029A4D022680C3252E8B5
:10119000000F20F4907042E80007002FF5D120687E
:1011A000143050E8002F22F0010240E80027002F01
:1011B000F5D184F84230256320680C3050E8002FC8
:1011C00022F0100240E80023002BF5D16663204690
:1011D000FFF708FFF8BDFFE705062BD5150629D553
:1011E00094F841002128F5D1A068B0F5805F01D1C5
:1011F0002069B0B1206A411C2162216800784860F2
:10120000E08C401E0004000CE084E3D12068C1683B
:1012100021F08001C1602068C16841F04001C160D7
:10122000D8E7206A0088C0F308004860206A801C64
:101230002062E5E74006CDD55006CBD5CA682046EA
:1012400022F04002CA6084F8413000F0CEF8C1E7D5
:101250003F19000870B5040004D094F8410000253F
:1012600010B106E0012070BD84F84050204600F027
:1012700023F8242084F841002068C16821F400513B
:10128000C160204600F0ECFB2068016921F4904128
:1012900001612068416921F02A0141612068C1682B
:1012A00041F40051C1606564202084F8410084F855
:1012B00042006563002070BD30B585B00024009405
:1012C0000194029403940068184988422CD118486C
:1012D000816941F480418161816901F48041049117
:1012E000816941F0040181618069124D00F00400C0
:1012F00004904FF4007000900220019003200390AE
:1013000069462846FFF7B0F92815CDE9000469467B
:1013100028460294FFF7A8F9002211462520FFF77E
:1013200015FB2520FFF704FB05B030BD0038014058
:1013300000100240000801402DE9F84F044690F8E3
:1013400042009A4616460D46202802D00220BDE8EB
:10135000F88FB5B1AEB100206064222184F842104C
:101360002063FFF787FAA6858146E685A0684FF4DB
:1013700080582027404501D1206920B12E46002504
:1013800029E00120E3E7002625E04B46002220214A
:101390002046CDF800A000F0BFFB18B184F84270E1
:1013A0000320D4E726B1A06840451AD038B108E040
:1013B00020684068C0F3080025F8020B08E02069A7
:1013C00078B12068406800F07F0000BF06F8010B8C
:1013D000E08D401EE085E08D0028D6D184F8427073
:1013E000B5E720684068F1E770477047FEE7000006
:1013F0003EB5002411480094019402940E49846083
:10140000016004730475012505614FF46021446097
:10141000C161FEF7B7FF08B172B6FEE71020CDE953
:101420000005694602940548FEF72EFF002801D00A
:1014300072B6FEE73EBD0000002401407C0B002098
:101440002DE9F04186B000253048009501950295C0
:101450000395816941F010018161816901F01001FA
:101460000491816941F004018161816901F0040105
:101470000491816941F020018161816901F02001BD
:101480000491816941F0080181618069204F00F079
:1014900008000490012240213846FFF7E6F9DFF802
:1014A0007480012238214046FFF7DFF90C20CDE996
:1014B0000005194C694620460295FFF7D5F8A0159E
:1014C000009002200190039069462046FFF7CCF877
:1014D00001244020CDE900040326CDE902466946F7
:1014E0003846FFF7C1F828208DE87100694640466C
:1014F000FFF7BAF81020CDE90004CDE902466946AD
:101500004046FFF7B1F806B0BDE8F0810010024098
:1015100000140140000C01400008014010B50E4CC1
:101520000C480C2120604FF4E13060600020A06086
:10153000E060C4E90401A061E0612046FFF78AFE93
:1015400008B172B6FEE72068C16841F03001C160A1
:1015500010BD000000380140AC0B0020FEE7FEE7A4
:1015600070B50024002104F1B00000F031F9002131
:10157000084600F02DF90021102000F029F900257F
:101580000121002000F024F96D1CEDB2802DF7D36D
:10159000641CE4B2082CE5D370BD000010B5002136
:1015A000074C0A46002004EBC1131A54401CC0B279
:1015B0008028FAD3491CC9B20829F3D310BD000012
:1015C0009806002010B500218D2000F001F90021BF
:1015D000142000F0FDF80021BDE81040AF2000F01D
:1015E000F7B8000030B57F2816D83F2914D801F08D
:1015F0000703C3F107040123A3400725074CA5EB0C
:10160000D101C9B204EBC111002A0A5CDBB201D0DE
:101610001A4300E09A430A5430BD000098060020A7
:101620002DE9F0431E46174688460546DDF81C9016
:101630000CE0444606E04A4621462846FFF7D2FF22
:10164000641CE4B2B442F6D96D1CEDB2BD42F0D9CF
:10165000BDE8F08310B50021AE2000F0B9F80021FC
:10166000084600F0B5F80021102000F0B1F8002184
:10167000402000F0ADF80021B02000F0A9F80021D2
:10168000812000F0A5F80021FF2000F0A1F8002142
:10169000A12000F09DF80021A62000F099F800217B
:1016A000A82000F095F800213F2000F091F80021DB
:1016B000C82000F08DF80021D32000F089F8002127
:1016C000084600F085F80021D52000F081F80021BF
:1016D000802000F07DF80021D82000F079F800216A
:1016E000052000F075F80021D92000F071F80021E4
:1016F000F12000F06DF80021DA2000F069F80021F7
:10170000122000F065F80021DB2000F061F80021D4
:10171000302000F05DF800218D2000F059F8002104
:10172000142000F055F80021BDE81040AF2000F073
:101730004FB8000070B5164B164D0021002005EB88
:10174000C11200EBC116145C9E5D34431454401C5E
:10175000C0B28028F5D3491CC9B20829EED30024B1
:10176000002104F1B00000F033F80021084600F039
:101770002FF80021102000F02BF805EBC410802179
:1017800000F02CF8641CE4B2082CE9D370BD000012
:101790008002002098060020FFF75CFFFFF7E0FEC4
:1017A000FFF710FF0024094DFEF7DEFCC11700EB28
:1017B000916121F03F01401A2855641C802CF3DB15
:1017C0003220FEF73FFF00F017F8F9E7FC0A00208F
:1017D000C0B209B100F065BA00F052BA70B50D465A
:1017E0000646002403E0305D00F05BFA641CAC4266
:1017F000F9D370BD70477047F8B5FFF7CFFE0024EE
:101800000D4D01260096295D481CC3B206EB8400ED
:10181000C2B2A006000EFFF703FF285D022801D325
:10182000801E00E03F202855641CE4B2202CE9D340
:10183000BDE8F840FFF77EBFFC0A00200D480168B4
:1018400021F008010160016841F02001016000BF42
:1018500000BF016841F00801016000BF00BF0168DE
:1018600021F02001016000BF00BF016821F00801E4
:10187000016070470C0C01400D48016821F008011F
:101880000160016821F02001016000BF00BF016814
:1018900041F00801016000BF00BF016841F0200174
:1018A000016000BF00BF016821F0080101607047BE
:1018B0000C0C0140FEF7E4BF30B595B02821684616
:1018C000FEF76BFC14210AA8FEF767FC18210FA88D
:1018D000FEF763FC01210804CDE900100025029504
:1018E00002240491CDE907404FF4E01009906846C6
:1018F000FFF7D4F908B172B6FEE70AA90F2081E814
:1019000031004FF48060CDE90D0502210AA8FFF7F0
:10191000C5F808B172B6FEE74FF4004011900F947D
:101920000FA8FFF745F808B172B6FEE700224FF0A6
:10193000E0611046FFF78EF915B030BD704710B565
:10194000406A0021C185C184FFF74DFB10BD0168CD
:101950000C3151E8002F22F4907241E80023002B53
:10196000F5D10168143151E8002F22F0010241E85D
:101970000023002BF5D1016B012909D101680C313D
:1019800051E8002F22F0100241E80023002BF5D18E
:10199000202180F8421000210163704708B590F8BB
:1019A0004210222901D0022008BD82684FF48053E2
:1019B0009A4201D1016921B1816A9A421BD04AB190
:1019C0000AE00268816A5268C2F308020A80816AEA
:1019D000891C08E0026972B10268526802F07F0255
:1019E0000A70816A491C8162C18D491E0904090C73
:1019F000C18503D01BE002685268F1E70168CA683C
:101A000022F02002CA600168CA6822F48072CA60AB
:101A100001684A6922F001024A61202180F84210DF
:101A200000214163026B012A03D0FFF7DDFC002097
:101A300008BD016301680C3151E8002F22F010024B
:101A400041E80023002BF5D101680A68D20602D5CF
:101A50000A6849680091818DFFF7C4FAE7E7000042
:101A600070B5044600680169E26821F440511143F1
:101A700001612169A0680843616908432168CA6857
:101A800041F20C639A430243CA6020684169A2692B
:101A900021F44071114341611E492068884202D1FE
:101AA000FFF7A2F801E0FFF78FF800EBC00101EBB0
:101AB0000012606864218000B2FBF0F3B3FBF1F325
:101AC0006FF018067343B2FBF0F5B2FBF0F605EBCE
:101AD0008305322303EB0515B5FBF1F5B6FBF1F6F3
:101AE00005F0F00505EB0615B2FBF0F6B2FBF0F0E1
:101AF000B0FBF1F06FF01802504306EB800003EBEF
:101B00000010B0FBF1F0216800F00F00284488605D
:101B100070BD0000003801402DE9F8439846174693
:101B20000D460446089E24E0701C22D0FEF7A2FE5B
:101B3000A0EB0800B0421AD8CEB12068C1684907AE
:101B400017D5802D15D0402D13D00168C943090742
:101B50000FD401680025406800902046FFF7F7FE8B
:101B60000820606484F840500120BDE8F883032019
:101B7000FBE72068006835EA000004D00020B84286
:101B8000D2D00020F1E70120F9E70000F8B5154DAB
:101B9000286800684FF00006C043800612D4134C3A
:101BA00011490023207801220144401C207028465E
:101BB000FFF7C2FB2078642800D3267029686FF0F5
:101BC0002000086028680168C943C90605D4016877
:101BD00040680749009001200870BDE8F8400148BE
:101BE000FFF702BAAC0B0020980A00208106002003
:101BF00080060020FEE7000070B5204C80210142E5
:101C0000226802D122F0200201E042F0200222608C
:101C100000BF00BF226842F00802226000BF00BF80
:101C2000226822F0080222604908E8D1206840F0CA
:101C30002000206000BF00BF104D0C3D286820F43C
:101C400070002860286840F480002860206840F018
:101C50000800206020212846FEF702FE00BF00BFDA
:101C6000296821F470012960296841F40011296074
:101C7000216821F00801216070BD00000C0C0140BA
:101C800010B50446FFF7DAFD7820FFF7B5FF002016
:101C9000FFF7B2FF2046FFF7AFFFBDE81040FFF7A8
:101CA000EBBD10B50446FFF7C9FD7820FFF7A4FF90
:101CB0004020FFF7A1FF2046FFF79EFFBDE8104040
:101CC000FFF7DABD0907090E002804DB00F1E02068
:101CD00080F80014704700F00F0000F1E02080F859
:101CE000141D704702E008C8121F08C1002AFAD16B
:101CF00070477047002001E001C1121F002AFBD18C
:101D00007047FEF7C5FDFFF7D7FDFFF799FBFFF71B
:101D100005FCFFF76DFBFFF73FFD01020203040521
:101D2000060708090A0B0C0D0E0F1010000000002A
:101D3000000000000102030406070809000000007B
:101D400001020304641D0008000000209806000042
:101D5000D4010008881E00089806002060090000D1
:101D6000F41C000811140C120C1DC07010080103A3
:101D70001710301D0F183020010313301C1A0201F8
:101D80001F8242F20E42820901122610080402014B
:101D900032FF041501020C1AFE391AF2040214FE75
:101DA00008104F80804047201806017E8080878081
:101DB00080E0801D20A4BFA4030009122080708F42
:101DC0000808F80817FF0A0A4A8A7F0808138040A3
:101DD000330C334080C0011F021C337BFE820104A0
:101DE00032FE38381AFE01093E405944093B402969
:101DF0000109324011128012C012E012F00266FC9A
:101E000089EF0934F001701A100126303020E0C04B
:101E10001B383005214B80C0B75438C0804580C086
:101E200070F8180AC0C0403030181818382F3139EF
:101E30001451023BF042FC463C7C84830348080377
:101E400003BCBCFC03011A1809FC01030C1C301C68
:101E5000021032FF5E3F7F6180809229077A7F0DFA
:101E6000023B7F496C190859096A01097912A926B0
:101E7000111C01030322892C290E01FF01A3320149
:081E8000821053127A000000E9
:0400000508000131BD
:00000001FF
